{
  "_format": "hh-sol-artifact-1",
  "contractName": "PlokyResolver",
  "sourceName": "contracts/PlokyResolver.sol",
  "abi": [
    {
      "inputs": [
        {
          "internalType": "address",
          "name": "_plkyToken",
          "type": "address"
        },
        {
          "internalType": "address",
          "name": "_treasury",
          "type": "address"
        },
        {
          "internalType": "uint256",
          "name": "_quorum",
          "type": "uint256"
        }
      ],
      "stateMutability": "nonpayable",
      "type": "constructor"
    },
    {
      "inputs": [],
      "name": "AccessControlBadConfirmation",
      "type": "error"
    },
    {
      "inputs": [
        {
          "internalType": "address",
          "name": "account",
          "type": "address"
        },
        {
          "internalType": "bytes32",
          "name": "neededRole",
          "type": "bytes32"
        }
      ],
      "name": "AccessControlUnauthorizedAccount",
      "type": "error"
    },
    {
      "inputs": [],
      "name": "EnforcedPause",
      "type": "error"
    },
    {
      "inputs": [],
      "name": "ExpectedPause",
      "type": "error"
    },
    {
      "inputs": [],
      "name": "ReentrancyGuardReentrantCall",
      "type": "error"
    },
    {
      "anonymous": false,
      "inputs": [
        {
          "indexed": true,
          "internalType": "bytes32",
          "name": "qId",
          "type": "bytes32"
        },
        {
          "indexed": false,
          "internalType": "uint256",
          "name": "confidence",
          "type": "uint256"
        },
        {
          "indexed": false,
          "internalType": "enum PlokyResolver.Outcome",
          "name": "recommended",
          "type": "uint8"
        },
        {
          "indexed": false,
          "internalType": "string",
          "name": "cid",
          "type": "string"
        }
      ],
      "name": "AIAnalysisSubmitted",
      "type": "event"
    },
    {
      "anonymous": false,
      "inputs": [
        {
          "indexed": true,
          "internalType": "address",
          "name": "user",
          "type": "address"
        },
        {
          "indexed": false,
          "internalType": "uint256",
          "name": "amount",
          "type": "uint256"
        },
        {
          "indexed": false,
          "internalType": "string",
          "name": "reason",
          "type": "string"
        }
      ],
      "name": "BondReturned",
      "type": "event"
    },
    {
      "anonymous": false,
      "inputs": [
        {
          "indexed": true,
          "internalType": "address",
          "name": "user",
          "type": "address"
        },
        {
          "indexed": false,
          "internalType": "uint256",
          "name": "amount",
          "type": "uint256"
        },
        {
          "indexed": false,
          "internalType": "string",
          "name": "reason",
          "type": "string"
        }
      ],
      "name": "BondSeized",
      "type": "event"
    },
    {
      "anonymous": false,
      "inputs": [
        {
          "indexed": true,
          "internalType": "bytes32",
          "name": "qId",
          "type": "bytes32"
        },
        {
          "indexed": false,
          "internalType": "enum PlokyResolver.Outcome",
          "name": "outcome",
          "type": "uint8"
        },
        {
          "indexed": false,
          "internalType": "uint256",
          "name": "yesWeight",
          "type": "uint256"
        },
        {
          "indexed": false,
          "internalType": "uint256",
          "name": "noWeight",
          "type": "uint256"
        }
      ],
      "name": "CommunityVoteFinalized",
      "type": "event"
    },
    {
      "anonymous": false,
      "inputs": [
        {
          "indexed": true,
          "internalType": "bytes32",
          "name": "qId",
          "type": "bytes32"
        },
        {
          "indexed": false,
          "internalType": "address",
          "name": "voter",
          "type": "address"
        },
        {
          "indexed": false,
          "internalType": "uint256",
          "name": "weight",
          "type": "uint256"
        },
        {
          "indexed": false,
          "internalType": "enum PlokyResolver.Outcome",
          "name": "vote",
          "type": "uint8"
        }
      ],
      "name": "CommunityVoted",
      "type": "event"
    },
    {
      "anonymous": false,
      "inputs": [
        {
          "indexed": true,
          "internalType": "bytes32",
          "name": "qId",
          "type": "bytes32"
        },
        {
          "indexed": true,
          "internalType": "address",
          "name": "disputer",
          "type": "address"
        },
        {
          "indexed": false,
          "internalType": "string",
          "name": "reason",
          "type": "string"
        },
        {
          "indexed": false,
          "internalType": "string",
          "name": "cid",
          "type": "string"
        },
        {
          "indexed": false,
          "internalType": "uint256",
          "name": "bond",
          "type": "uint256"
        }
      ],
      "name": "DisputeRaised",
      "type": "event"
    },
    {
      "anonymous": false,
      "inputs": [
        {
          "indexed": true,
          "internalType": "bytes32",
          "name": "qId",
          "type": "bytes32"
        },
        {
          "indexed": false,
          "internalType": "uint256",
          "name": "index",
          "type": "uint256"
        },
        {
          "indexed": false,
          "internalType": "string",
          "name": "resolution",
          "type": "string"
        },
        {
          "indexed": false,
          "internalType": "bool",
          "name": "bondReturned",
          "type": "bool"
        }
      ],
      "name": "DisputeResolved",
      "type": "event"
    },
    {
      "anonymous": false,
      "inputs": [
        {
          "indexed": true,
          "internalType": "bytes32",
          "name": "qId",
          "type": "bytes32"
        },
        {
          "indexed": false,
          "internalType": "enum PlokyResolver.EscalationStep",
          "name": "fromStep",
          "type": "uint8"
        },
        {
          "indexed": false,
          "internalType": "enum PlokyResolver.EscalationStep",
          "name": "toStep",
          "type": "uint8"
        }
      ],
      "name": "EscalationAdvanced",
      "type": "event"
    },
    {
      "anonymous": false,
      "inputs": [
        {
          "indexed": true,
          "internalType": "bytes32",
          "name": "qId",
          "type": "bytes32"
        },
        {
          "indexed": true,
          "internalType": "address",
          "name": "submitter",
          "type": "address"
        },
        {
          "indexed": false,
          "internalType": "string",
          "name": "cid",
          "type": "string"
        },
        {
          "indexed": false,
          "internalType": "enum PlokyResolver.EvidType",
          "name": "t",
          "type": "uint8"
        },
        {
          "indexed": false,
          "internalType": "uint256",
          "name": "bond",
          "type": "uint256"
        }
      ],
      "name": "EvidenceSubmitted",
      "type": "event"
    },
    {
      "anonymous": false,
      "inputs": [
        {
          "indexed": false,
          "internalType": "address",
          "name": "account",
          "type": "address"
        }
      ],
      "name": "Paused",
      "type": "event"
    },
    {
      "anonymous": false,
      "inputs": [
        {
          "indexed": true,
          "internalType": "bytes32",
          "name": "qId",
          "type": "bytes32"
        },
        {
          "indexed": false,
          "internalType": "string",
          "name": "reason",
          "type": "string"
        }
      ],
      "name": "QuestionCancelled",
      "type": "event"
    },
    {
      "anonymous": false,
      "inputs": [
        {
          "indexed": true,
          "internalType": "bytes32",
          "name": "id",
          "type": "bytes32"
        },
        {
          "indexed": false,
          "internalType": "string",
          "name": "title",
          "type": "string"
        },
        {
          "indexed": false,
          "internalType": "address",
          "name": "creator",
          "type": "address"
        },
        {
          "indexed": false,
          "internalType": "uint256",
          "name": "deadline",
          "type": "uint256"
        },
        {
          "indexed": false,
          "internalType": "string",
          "name": "descCID",
          "type": "string"
        },
        {
          "indexed": false,
          "internalType": "enum PlokyResolver.QuestionTier",
          "name": "tier",
          "type": "uint8"
        }
      ],
      "name": "QuestionCreated",
      "type": "event"
    },
    {
      "anonymous": false,
      "inputs": [
        {
          "indexed": true,
          "internalType": "bytes32",
          "name": "qId",
          "type": "bytes32"
        },
        {
          "indexed": false,
          "internalType": "address",
          "name": "by",
          "type": "address"
        },
        {
          "indexed": false,
          "internalType": "string",
          "name": "reason",
          "type": "string"
        }
      ],
      "name": "QuestionFrozen",
      "type": "event"
    },
    {
      "anonymous": false,
      "inputs": [
        {
          "indexed": true,
          "internalType": "bytes32",
          "name": "qId",
          "type": "bytes32"
        },
        {
          "indexed": false,
          "internalType": "address",
          "name": "by",
          "type": "address"
        }
      ],
      "name": "QuestionUnfrozen",
      "type": "event"
    },
    {
      "anonymous": false,
      "inputs": [
        {
          "indexed": false,
          "internalType": "uint256",
          "name": "old_",
          "type": "uint256"
        },
        {
          "indexed": false,
          "internalType": "uint256",
          "name": "new_",
          "type": "uint256"
        },
        {
          "indexed": false,
          "internalType": "address",
          "name": "by",
          "type": "address"
        }
      ],
      "name": "QuorumChanged",
      "type": "event"
    },
    {
      "anonymous": false,
      "inputs": [
        {
          "indexed": true,
          "internalType": "address",
          "name": "r",
          "type": "address"
        },
        {
          "indexed": false,
          "internalType": "uint256",
          "name": "stake",
          "type": "uint256"
        },
        {
          "indexed": false,
          "internalType": "address",
          "name": "by",
          "type": "address"
        }
      ],
      "name": "ResolverAdded",
      "type": "event"
    },
    {
      "anonymous": false,
      "inputs": [
        {
          "indexed": true,
          "internalType": "address",
          "name": "r",
          "type": "address"
        },
        {
          "indexed": false,
          "internalType": "address",
          "name": "by",
          "type": "address"
        }
      ],
      "name": "ResolverRemoved",
      "type": "event"
    },
    {
      "anonymous": false,
      "inputs": [
        {
          "indexed": true,
          "internalType": "address",
          "name": "r",
          "type": "address"
        },
        {
          "indexed": false,
          "internalType": "uint256",
          "name": "amount",
          "type": "uint256"
        },
        {
          "indexed": false,
          "internalType": "string",
          "name": "reason",
          "type": "string"
        }
      ],
      "name": "ResolverSlashed",
      "type": "event"
    },
    {
      "anonymous": false,
      "inputs": [
        {
          "indexed": true,
          "internalType": "bytes32",
          "name": "role",
          "type": "bytes32"
        },
        {
          "indexed": true,
          "internalType": "bytes32",
          "name": "previousAdminRole",
          "type": "bytes32"
        },
        {
          "indexed": true,
          "internalType": "bytes32",
          "name": "newAdminRole",
          "type": "bytes32"
        }
      ],
      "name": "RoleAdminChanged",
      "type": "event"
    },
    {
      "anonymous": false,
      "inputs": [
        {
          "indexed": true,
          "internalType": "bytes32",
          "name": "role",
          "type": "bytes32"
        },
        {
          "indexed": true,
          "internalType": "address",
          "name": "account",
          "type": "address"
        },
        {
          "indexed": true,
          "internalType": "address",
          "name": "sender",
          "type": "address"
        }
      ],
      "name": "RoleGranted",
      "type": "event"
    },
    {
      "anonymous": false,
      "inputs": [
        {
          "indexed": true,
          "internalType": "bytes32",
          "name": "role",
          "type": "bytes32"
        },
        {
          "indexed": true,
          "internalType": "address",
          "name": "account",
          "type": "address"
        },
        {
          "indexed": true,
          "internalType": "address",
          "name": "sender",
          "type": "address"
        }
      ],
      "name": "RoleRevoked",
      "type": "event"
    },
    {
      "anonymous": false,
      "inputs": [
        {
          "indexed": false,
          "internalType": "address",
          "name": "oracle",
          "type": "address"
        }
      ],
      "name": "UMAEnabled",
      "type": "event"
    },
    {
      "anonymous": false,
      "inputs": [
        {
          "indexed": true,
          "internalType": "bytes32",
          "name": "qId",
          "type": "bytes32"
        },
        {
          "indexed": false,
          "internalType": "bytes32",
          "name": "identifier",
          "type": "bytes32"
        },
        {
          "indexed": false,
          "internalType": "uint256",
          "name": "timestamp",
          "type": "uint256"
        }
      ],
      "name": "UMARequested",
      "type": "event"
    },
    {
      "anonymous": false,
      "inputs": [
        {
          "indexed": false,
          "internalType": "address",
          "name": "account",
          "type": "address"
        }
      ],
      "name": "Unpaused",
      "type": "event"
    },
    {
      "anonymous": false,
      "inputs": [
        {
          "indexed": true,
          "internalType": "bytes32",
          "name": "qId",
          "type": "bytes32"
        },
        {
          "indexed": true,
          "internalType": "bytes32",
          "name": "pid",
          "type": "bytes32"
        },
        {
          "indexed": false,
          "internalType": "address",
          "name": "approver",
          "type": "address"
        },
        {
          "indexed": false,
          "internalType": "uint256",
          "name": "count",
          "type": "uint256"
        },
        {
          "indexed": false,
          "internalType": "uint256",
          "name": "weight",
          "type": "uint256"
        }
      ],
      "name": "VerdictApproved",
      "type": "event"
    },
    {
      "anonymous": false,
      "inputs": [
        {
          "indexed": true,
          "internalType": "bytes32",
          "name": "qId",
          "type": "bytes32"
        },
        {
          "indexed": false,
          "internalType": "enum PlokyResolver.Outcome",
          "name": "outcome",
          "type": "uint8"
        },
        {
          "indexed": false,
          "internalType": "string",
          "name": "verdictCID",
          "type": "string"
        },
        {
          "indexed": false,
          "internalType": "address",
          "name": "executor",
          "type": "address"
        },
        {
          "indexed": false,
          "internalType": "uint256",
          "name": "ts",
          "type": "uint256"
        }
      ],
      "name": "VerdictExecuted",
      "type": "event"
    },
    {
      "anonymous": false,
      "inputs": [
        {
          "indexed": true,
          "internalType": "bytes32",
          "name": "qId",
          "type": "bytes32"
        },
        {
          "indexed": true,
          "internalType": "bytes32",
          "name": "pid",
          "type": "bytes32"
        },
        {
          "indexed": false,
          "internalType": "enum PlokyResolver.Outcome",
          "name": "outcome",
          "type": "uint8"
        },
        {
          "indexed": false,
          "internalType": "address",
          "name": "proposer",
          "type": "address"
        },
        {
          "indexed": false,
          "internalType": "string",
          "name": "reasonCID",
          "type": "string"
        },
        {
          "indexed": false,
          "internalType": "uint256",
          "name": "timelockEnds",
          "type": "uint256"
        }
      ],
      "name": "VerdictProposed",
      "type": "event"
    },
    {
      "inputs": [],
      "name": "ADMIN_ROLE",
      "outputs": [
        {
          "internalType": "bytes32",
          "name": "",
          "type": "bytes32"
        }
      ],
      "stateMutability": "view",
      "type": "function"
    },
    {
      "inputs": [],
      "name": "AI_ORACLE_ROLE",
      "outputs": [
        {
          "internalType": "bytes32",
          "name": "",
          "type": "bytes32"
        }
      ],
      "stateMutability": "view",
      "type": "function"
    },
    {
      "inputs": [],
      "name": "ARBITER_ROLE",
      "outputs": [
        {
          "internalType": "bytes32",
          "name": "",
          "type": "bytes32"
        }
      ],
      "stateMutability": "view",
      "type": "function"
    },
    {
      "inputs": [],
      "name": "AUTO_FREEZE_THRESHOLD",
      "outputs": [
        {
          "internalType": "uint256",
          "name": "",
          "type": "uint256"
        }
      ],
      "stateMutability": "view",
      "type": "function"
    },
    {
      "inputs": [],
      "name": "DEFAULT_ADMIN_ROLE",
      "outputs": [
        {
          "internalType": "bytes32",
          "name": "",
          "type": "bytes32"
        }
      ],
      "stateMutability": "view",
      "type": "function"
    },
    {
      "inputs": [],
      "name": "DISPUTE_BOND",
      "outputs": [
        {
          "internalType": "uint256",
          "name": "",
          "type": "uint256"
        }
      ],
      "stateMutability": "view",
      "type": "function"
    },
    {
      "inputs": [],
      "name": "DISPUTE_WINDOW",
      "outputs": [
        {
          "internalType": "uint256",
          "name": "",
          "type": "uint256"
        }
      ],
      "stateMutability": "view",
      "type": "function"
    },
    {
      "inputs": [],
      "name": "EVIDENCE_BOND",
      "outputs": [
        {
          "internalType": "uint256",
          "name": "",
          "type": "uint256"
        }
      ],
      "stateMutability": "view",
      "type": "function"
    },
    {
      "inputs": [],
      "name": "MAX_REPUTATION",
      "outputs": [
        {
          "internalType": "uint256",
          "name": "",
          "type": "uint256"
        }
      ],
      "stateMutability": "view",
      "type": "function"
    },
    {
      "inputs": [],
      "name": "MIN_EVIDENCE",
      "outputs": [
        {
          "internalType": "uint256",
          "name": "",
          "type": "uint256"
        }
      ],
      "stateMutability": "view",
      "type": "function"
    },
    {
      "inputs": [],
      "name": "MIN_RESOLVER_STAKE",
      "outputs": [
        {
          "internalType": "uint256",
          "name": "",
          "type": "uint256"
        }
      ],
      "stateMutability": "view",
      "type": "function"
    },
    {
      "inputs": [],
      "name": "RESOLVER_ROLE",
      "outputs": [
        {
          "internalType": "bytes32",
          "name": "",
          "type": "bytes32"
        }
      ],
      "stateMutability": "view",
      "type": "function"
    },
    {
      "inputs": [],
      "name": "SLASH_PENALTY",
      "outputs": [
        {
          "internalType": "uint256",
          "name": "",
          "type": "uint256"
        }
      ],
      "stateMutability": "view",
      "type": "function"
    },
    {
      "inputs": [],
      "name": "TIMELOCK_PERIOD",
      "outputs": [
        {
          "internalType": "uint256",
          "name": "",
          "type": "uint256"
        }
      ],
      "stateMutability": "view",
      "type": "function"
    },
    {
      "inputs": [],
      "name": "VERDICT_BOND",
      "outputs": [
        {
          "internalType": "uint256",
          "name": "",
          "type": "uint256"
        }
      ],
      "stateMutability": "view",
      "type": "function"
    },
    {
      "inputs": [],
      "name": "VERSION",
      "outputs": [
        {
          "internalType": "uint256",
          "name": "",
          "type": "uint256"
        }
      ],
      "stateMutability": "view",
      "type": "function"
    },
    {
      "inputs": [],
      "name": "YES_OR_NO_IDENTIFIER",
      "outputs": [
        {
          "internalType": "bytes32",
          "name": "",
          "type": "bytes32"
        }
      ],
      "stateMutability": "view",
      "type": "function"
    },
    {
      "inputs": [
        {
          "internalType": "bytes32",
          "name": "",
          "type": "bytes32"
        }
      ],
      "name": "aiAnalyses",
      "outputs": [
        {
          "internalType": "bytes32",
          "name": "questionId",
          "type": "bytes32"
        },
        {
          "internalType": "uint256",
          "name": "confidenceScore",
          "type": "uint256"
        },
        {
          "internalType": "enum PlokyResolver.Outcome",
          "name": "recommendedOutcome",
          "type": "uint8"
        },
        {
          "internalType": "string",
          "name": "analysisCID",
          "type": "string"
        },
        {
          "internalType": "uint256",
          "name": "timestamp",
          "type": "uint256"
        },
        {
          "internalType": "string",
          "name": "aiModelVersion",
          "type": "string"
        },
        {
          "internalType": "uint256",
          "name": "sentimentScore",
          "type": "uint256"
        },
        {
          "internalType": "uint256",
          "name": "factCheckScore",
          "type": "uint256"
        },
        {
          "internalType": "uint256",
          "name": "biasScore",
          "type": "uint256"
        }
      ],
      "stateMutability": "view",
      "type": "function"
    },
    {
      "inputs": [],
      "name": "aiConfidenceThreshold",
      "outputs": [
        {
          "internalType": "uint256",
          "name": "",
          "type": "uint256"
        }
      ],
      "stateMutability": "view",
      "type": "function"
    },
    {
      "inputs": [
        {
          "internalType": "uint256",
          "name": "",
          "type": "uint256"
        }
      ],
      "name": "allIds",
      "outputs": [
        {
          "internalType": "bytes32",
          "name": "",
          "type": "bytes32"
        }
      ],
      "stateMutability": "view",
      "type": "function"
    },
    {
      "inputs": [
        {
          "internalType": "bytes32",
          "name": "qId",
          "type": "bytes32"
        },
        {
          "internalType": "bytes32",
          "name": "pid",
          "type": "bytes32"
        }
      ],
      "name": "approveVerdict",
      "outputs": [],
      "stateMutability": "nonpayable",
      "type": "function"
    },
    {
      "inputs": [
        {
          "internalType": "bytes32",
          "name": "qId",
          "type": "bytes32"
        },
        {
          "internalType": "string",
          "name": "reason",
          "type": "string"
        }
      ],
      "name": "cancelQuestion",
      "outputs": [],
      "stateMutability": "nonpayable",
      "type": "function"
    },
    {
      "inputs": [
        {
          "internalType": "bytes32",
          "name": "qId",
          "type": "bytes32"
        },
        {
          "internalType": "enum PlokyResolver.Outcome",
          "name": "vote",
          "type": "uint8"
        }
      ],
      "name": "castCommunityVote",
      "outputs": [],
      "stateMutability": "nonpayable",
      "type": "function"
    },
    {
      "inputs": [
        {
          "internalType": "bytes32",
          "name": "",
          "type": "bytes32"
        },
        {
          "internalType": "address",
          "name": "",
          "type": "address"
        }
      ],
      "name": "communityVotes",
      "outputs": [
        {
          "internalType": "uint256",
          "name": "",
          "type": "uint256"
        }
      ],
      "stateMutability": "view",
      "type": "function"
    },
    {
      "inputs": [
        {
          "internalType": "string",
          "name": "title",
          "type": "string"
        },
        {
          "internalType": "string",
          "name": "descCID",
          "type": "string"
        },
        {
          "internalType": "string",
          "name": "category",
          "type": "string"
        },
        {
          "internalType": "uint256",
          "name": "deadline",
          "type": "uint256"
        },
        {
          "internalType": "enum PlokyResolver.QuestionTier",
          "name": "tier",
          "type": "uint8"
        }
      ],
      "name": "createQuestion",
      "outputs": [
        {
          "internalType": "bytes32",
          "name": "id",
          "type": "bytes32"
        }
      ],
      "stateMutability": "nonpayable",
      "type": "function"
    },
    {
      "inputs": [
        {
          "internalType": "bytes32",
          "name": "",
          "type": "bytes32"
        },
        {
          "internalType": "uint256",
          "name": "",
          "type": "uint256"
        }
      ],
      "name": "disputes",
      "outputs": [
        {
          "internalType": "bytes32",
          "name": "questionId",
          "type": "bytes32"
        },
        {
          "internalType": "address",
          "name": "disputer",
          "type": "address"
        },
        {
          "internalType": "string",
          "name": "reason",
          "type": "string"
        },
        {
          "internalType": "string",
          "name": "evidenceCID",
          "type": "string"
        },
        {
          "internalType": "uint256",
          "name": "timestamp",
          "type": "uint256"
        },
        {
          "internalType": "bool",
          "name": "resolved",
          "type": "bool"
        },
        {
          "internalType": "string",
          "name": "resolution",
          "type": "string"
        },
        {
          "internalType": "uint256",
          "name": "bondAmount",
          "type": "uint256"
        },
        {
          "internalType": "bool",
          "name": "bondReturned",
          "type": "bool"
        },
        {
          "internalType": "uint256",
          "name": "disputeIndex",
          "type": "uint256"
        }
      ],
      "stateMutability": "view",
      "type": "function"
    },
    {
      "inputs": [],
      "name": "emergencyPause",
      "outputs": [],
      "stateMutability": "nonpayable",
      "type": "function"
    },
    {
      "inputs": [],
      "name": "emergencyUnpause",
      "outputs": [],
      "stateMutability": "nonpayable",
      "type": "function"
    },
    {
      "inputs": [
        {
          "internalType": "address",
          "name": "oracle",
          "type": "address"
        }
      ],
      "name": "enableUMA",
      "outputs": [],
      "stateMutability": "nonpayable",
      "type": "function"
    },
    {
      "inputs": [
        {
          "internalType": "bytes32",
          "name": "",
          "type": "bytes32"
        },
        {
          "internalType": "uint256",
          "name": "",
          "type": "uint256"
        }
      ],
      "name": "evidence",
      "outputs": [
        {
          "internalType": "string",
          "name": "ipfsCID",
          "type": "string"
        },
        {
          "internalType": "string",
          "name": "description",
          "type": "string"
        },
        {
          "internalType": "address",
          "name": "submitter",
          "type": "address"
        },
        {
          "internalType": "uint256",
          "name": "timestamp",
          "type": "uint256"
        },
        {
          "internalType": "enum PlokyResolver.EvidType",
          "name": "evidenceType",
          "type": "uint8"
        },
        {
          "internalType": "uint256",
          "name": "bondAmount",
          "type": "uint256"
        },
        {
          "internalType": "bool",
          "name": "bondReturned",
          "type": "bool"
        }
      ],
      "stateMutability": "view",
      "type": "function"
    },
    {
      "inputs": [
        {
          "internalType": "bytes32",
          "name": "qId",
          "type": "bytes32"
        }
      ],
      "name": "executeVerdict",
      "outputs": [],
      "stateMutability": "nonpayable",
      "type": "function"
    },
    {
      "inputs": [
        {
          "internalType": "bytes32",
          "name": "qId",
          "type": "bytes32"
        }
      ],
      "name": "finalizeCommunityVote",
      "outputs": [],
      "stateMutability": "nonpayable",
      "type": "function"
    },
    {
      "inputs": [
        {
          "internalType": "bytes32",
          "name": "qId",
          "type": "bytes32"
        },
        {
          "internalType": "string",
          "name": "reason",
          "type": "string"
        }
      ],
      "name": "freezeQuestion",
      "outputs": [],
      "stateMutability": "nonpayable",
      "type": "function"
    },
    {
      "inputs": [
        {
          "internalType": "bytes32",
          "name": "qId",
          "type": "bytes32"
        }
      ],
      "name": "getAIAnalysis",
      "outputs": [
        {
          "components": [
            {
              "internalType": "bytes32",
              "name": "questionId",
              "type": "bytes32"
            },
            {
              "internalType": "uint256",
              "name": "confidenceScore",
              "type": "uint256"
            },
            {
              "internalType": "enum PlokyResolver.Outcome",
              "name": "recommendedOutcome",
              "type": "uint8"
            },
            {
              "internalType": "string",
              "name": "analysisCID",
              "type": "string"
            },
            {
              "internalType": "uint256",
              "name": "timestamp",
              "type": "uint256"
            },
            {
              "internalType": "string",
              "name": "aiModelVersion",
              "type": "string"
            },
            {
              "internalType": "uint256",
              "name": "sentimentScore",
              "type": "uint256"
            },
            {
              "internalType": "uint256",
              "name": "factCheckScore",
              "type": "uint256"
            },
            {
              "internalType": "uint256",
              "name": "biasScore",
              "type": "uint256"
            }
          ],
          "internalType": "struct PlokyResolver.AIAnalysis",
          "name": "",
          "type": "tuple"
        }
      ],
      "stateMutability": "view",
      "type": "function"
    },
    {
      "inputs": [],
      "name": "getAllIds",
      "outputs": [
        {
          "internalType": "bytes32[]",
          "name": "",
          "type": "bytes32[]"
        }
      ],
      "stateMutability": "view",
      "type": "function"
    },
    {
      "inputs": [
        {
          "internalType": "bytes32",
          "name": "id",
          "type": "bytes32"
        }
      ],
      "name": "getDisputes",
      "outputs": [
        {
          "components": [
            {
              "internalType": "bytes32",
              "name": "questionId",
              "type": "bytes32"
            },
            {
              "internalType": "address",
              "name": "disputer",
              "type": "address"
            },
            {
              "internalType": "string",
              "name": "reason",
              "type": "string"
            },
            {
              "internalType": "string",
              "name": "evidenceCID",
              "type": "string"
            },
            {
              "internalType": "uint256",
              "name": "timestamp",
              "type": "uint256"
            },
            {
              "internalType": "bool",
              "name": "resolved",
              "type": "bool"
            },
            {
              "internalType": "string",
              "name": "resolution",
              "type": "string"
            },
            {
              "internalType": "uint256",
              "name": "bondAmount",
              "type": "uint256"
            },
            {
              "internalType": "bool",
              "name": "bondReturned",
              "type": "bool"
            },
            {
              "internalType": "uint256",
              "name": "disputeIndex",
              "type": "uint256"
            }
          ],
          "internalType": "struct PlokyResolver.Dispute[]",
          "name": "",
          "type": "tuple[]"
        }
      ],
      "stateMutability": "view",
      "type": "function"
    },
    {
      "inputs": [
        {
          "internalType": "bytes32",
          "name": "id",
          "type": "bytes32"
        }
      ],
      "name": "getEvidence",
      "outputs": [
        {
          "components": [
            {
              "internalType": "string",
              "name": "ipfsCID",
              "type": "string"
            },
            {
              "internalType": "string",
              "name": "description",
              "type": "string"
            },
            {
              "internalType": "address",
              "name": "submitter",
              "type": "address"
            },
            {
              "internalType": "uint256",
              "name": "timestamp",
              "type": "uint256"
            },
            {
              "internalType": "enum PlokyResolver.EvidType",
              "name": "evidenceType",
              "type": "uint8"
            },
            {
              "internalType": "uint256",
              "name": "bondAmount",
              "type": "uint256"
            },
            {
              "internalType": "bool",
              "name": "bondReturned",
              "type": "bool"
            }
          ],
          "internalType": "struct PlokyResolver.Evidence[]",
          "name": "",
          "type": "tuple[]"
        }
      ],
      "stateMutability": "view",
      "type": "function"
    },
    {
      "inputs": [
        {
          "internalType": "bytes32",
          "name": "pid",
          "type": "bytes32"
        }
      ],
      "name": "getProposal",
      "outputs": [
        {
          "internalType": "enum PlokyResolver.Outcome",
          "name": "outcome",
          "type": "uint8"
        },
        {
          "internalType": "address",
          "name": "proposer",
          "type": "address"
        },
        {
          "internalType": "uint256",
          "name": "proposedAt",
          "type": "uint256"
        },
        {
          "internalType": "uint256",
          "name": "timelockEndsAt",
          "type": "uint256"
        },
        {
          "internalType": "string",
          "name": "reasonCID",
          "type": "string"
        },
        {
          "internalType": "uint256",
          "name": "approvalCount",
          "type": "uint256"
        },
        {
          "internalType": "bool",
          "name": "executed",
          "type": "bool"
        },
        {
          "internalType": "uint256",
          "name": "totalWeight",
          "type": "uint256"
        }
      ],
      "stateMutability": "view",
      "type": "function"
    },
    {
      "inputs": [
        {
          "internalType": "bytes32",
          "name": "pid",
          "type": "bytes32"
        }
      ],
      "name": "getProposalWeight",
      "outputs": [
        {
          "internalType": "uint256",
          "name": "",
          "type": "uint256"
        }
      ],
      "stateMutability": "view",
      "type": "function"
    },
    {
      "inputs": [
        {
          "internalType": "bytes32",
          "name": "id",
          "type": "bytes32"
        }
      ],
      "name": "getQuestion",
      "outputs": [
        {
          "components": [
            {
              "internalType": "bytes32",
              "name": "id",
              "type": "bytes32"
            },
            {
              "internalType": "string",
              "name": "title",
              "type": "string"
            },
            {
              "internalType": "string",
              "name": "descriptionCID",
              "type": "string"
            },
            {
              "internalType": "string",
              "name": "category",
              "type": "string"
            },
            {
              "internalType": "uint256",
              "name": "createdAt",
              "type": "uint256"
            },
            {
              "internalType": "uint256",
              "name": "deadline",
              "type": "uint256"
            },
            {
              "internalType": "address",
              "name": "creator",
              "type": "address"
            },
            {
              "internalType": "enum PlokyResolver.QStatus",
              "name": "status",
              "type": "uint8"
            },
            {
              "internalType": "enum PlokyResolver.Outcome",
              "name": "outcome",
              "type": "uint8"
            },
            {
              "internalType": "string",
              "name": "verdictCID",
              "type": "string"
            },
            {
              "internalType": "string",
              "name": "verdictSummary",
              "type": "string"
            },
            {
              "internalType": "uint256",
              "name": "resolvedAt",
              "type": "uint256"
            },
            {
              "internalType": "address",
              "name": "resolvedBy",
              "type": "address"
            },
            {
              "internalType": "uint256",
              "name": "disputeCount",
              "type": "uint256"
            },
            {
              "internalType": "bool",
              "name": "frozen",
              "type": "bool"
            },
            {
              "internalType": "bytes32",
              "name": "activeProposalId",
              "type": "bytes32"
            },
            {
              "internalType": "enum PlokyResolver.QuestionTier",
              "name": "tier",
              "type": "uint8"
            },
            {
              "internalType": "enum PlokyResolver.EscalationStep",
              "name": "currentStep",
              "type": "uint8"
            },
            {
              "internalType": "uint256",
              "name": "aiConfidenceScore",
              "type": "uint256"
            },
            {
              "internalType": "string",
              "name": "aiAnalysisCID",
              "type": "string"
            }
          ],
          "internalType": "struct PlokyResolver.Question",
          "name": "",
          "type": "tuple"
        }
      ],
      "stateMutability": "view",
      "type": "function"
    },
    {
      "inputs": [
        {
          "internalType": "address",
          "name": "r",
          "type": "address"
        }
      ],
      "name": "getResolver",
      "outputs": [
        {
          "components": [
            {
              "internalType": "uint256",
              "name": "reputationScore",
              "type": "uint256"
            },
            {
              "internalType": "uint256",
              "name": "totalResolved",
              "type": "uint256"
            },
            {
              "internalType": "uint256",
              "name": "correctResolutions",
              "type": "uint256"
            },
            {
              "internalType": "uint256",
              "name": "stakedAmount",
              "type": "uint256"
            },
            {
              "internalType": "uint256",
              "name": "slashCount",
              "type": "uint256"
            },
            {
              "internalType": "bool",
              "name": "isActive",
              "type": "bool"
            },
            {
              "internalType": "uint256",
              "name": "joinTimestamp",
              "type": "uint256"
            },
            {
              "internalType": "uint256",
              "name": "lastActivityTimestamp",
              "type": "uint256"
            }
          ],
          "internalType": "struct PlokyResolver.ResolverProfile",
          "name": "",
          "type": "tuple"
        }
      ],
      "stateMutability": "view",
      "type": "function"
    },
    {
      "inputs": [
        {
          "internalType": "address",
          "name": "resolver",
          "type": "address"
        }
      ],
      "name": "getResolverWeight",
      "outputs": [
        {
          "internalType": "uint256",
          "name": "",
          "type": "uint256"
        }
      ],
      "stateMutability": "view",
      "type": "function"
    },
    {
      "inputs": [
        {
          "internalType": "bytes32",
          "name": "role",
          "type": "bytes32"
        }
      ],
      "name": "getRoleAdmin",
      "outputs": [
        {
          "internalType": "bytes32",
          "name": "",
          "type": "bytes32"
        }
      ],
      "stateMutability": "view",
      "type": "function"
    },
    {
      "inputs": [
        {
          "internalType": "bytes32",
          "name": "role",
          "type": "bytes32"
        },
        {
          "internalType": "address",
          "name": "account",
          "type": "address"
        }
      ],
      "name": "grantRole",
      "outputs": [],
      "stateMutability": "nonpayable",
      "type": "function"
    },
    {
      "inputs": [
        {
          "internalType": "bytes32",
          "name": "pid",
          "type": "bytes32"
        },
        {
          "internalType": "address",
          "name": "r",
          "type": "address"
        }
      ],
      "name": "hasApproved",
      "outputs": [
        {
          "internalType": "bool",
          "name": "",
          "type": "bool"
        }
      ],
      "stateMutability": "view",
      "type": "function"
    },
    {
      "inputs": [
        {
          "internalType": "bytes32",
          "name": "",
          "type": "bytes32"
        },
        {
          "internalType": "address",
          "name": "",
          "type": "address"
        }
      ],
      "name": "hasDisputed",
      "outputs": [
        {
          "internalType": "bool",
          "name": "",
          "type": "bool"
        }
      ],
      "stateMutability": "view",
      "type": "function"
    },
    {
      "inputs": [
        {
          "internalType": "bytes32",
          "name": "role",
          "type": "bytes32"
        },
        {
          "internalType": "address",
          "name": "account",
          "type": "address"
        }
      ],
      "name": "hasRole",
      "outputs": [
        {
          "internalType": "bool",
          "name": "",
          "type": "bool"
        }
      ],
      "stateMutability": "view",
      "type": "function"
    },
    {
      "inputs": [
        {
          "internalType": "bytes32",
          "name": "",
          "type": "bytes32"
        },
        {
          "internalType": "address",
          "name": "",
          "type": "address"
        }
      ],
      "name": "hasVoted",
      "outputs": [
        {
          "internalType": "bool",
          "name": "",
          "type": "bool"
        }
      ],
      "stateMutability": "view",
      "type": "function"
    },
    {
      "inputs": [],
      "name": "paused",
      "outputs": [
        {
          "internalType": "bool",
          "name": "",
          "type": "bool"
        }
      ],
      "stateMutability": "view",
      "type": "function"
    },
    {
      "inputs": [],
      "name": "plkyToken",
      "outputs": [
        {
          "internalType": "contract IPlokyToken",
          "name": "",
          "type": "address"
        }
      ],
      "stateMutability": "view",
      "type": "function"
    },
    {
      "inputs": [
        {
          "internalType": "bytes32",
          "name": "",
          "type": "bytes32"
        }
      ],
      "name": "proposals",
      "outputs": [
        {
          "internalType": "enum PlokyResolver.Outcome",
          "name": "outcome",
          "type": "uint8"
        },
        {
          "internalType": "address",
          "name": "proposer",
          "type": "address"
        },
        {
          "internalType": "uint256",
          "name": "proposedAt",
          "type": "uint256"
        },
        {
          "internalType": "uint256",
          "name": "timelockEndsAt",
          "type": "uint256"
        },
        {
          "internalType": "string",
          "name": "reasonCID",
          "type": "string"
        },
        {
          "internalType": "uint256",
          "name": "approvalCount",
          "type": "uint256"
        },
        {
          "internalType": "bool",
          "name": "executed",
          "type": "bool"
        },
        {
          "internalType": "uint256",
          "name": "totalWeight",
          "type": "uint256"
        }
      ],
      "stateMutability": "view",
      "type": "function"
    },
    {
      "inputs": [
        {
          "internalType": "bytes32",
          "name": "qId",
          "type": "bytes32"
        },
        {
          "internalType": "enum PlokyResolver.Outcome",
          "name": "outcome",
          "type": "uint8"
        },
        {
          "internalType": "string",
          "name": "reasonCID",
          "type": "string"
        },
        {
          "internalType": "string",
          "name": "summary",
          "type": "string"
        }
      ],
      "name": "proposeVerdict",
      "outputs": [],
      "stateMutability": "nonpayable",
      "type": "function"
    },
    {
      "inputs": [
        {
          "internalType": "bytes32",
          "name": "",
          "type": "bytes32"
        }
      ],
      "name": "questions",
      "outputs": [
        {
          "internalType": "bytes32",
          "name": "id",
          "type": "bytes32"
        },
        {
          "internalType": "string",
          "name": "title",
          "type": "string"
        },
        {
          "internalType": "string",
          "name": "descriptionCID",
          "type": "string"
        },
        {
          "internalType": "string",
          "name": "category",
          "type": "string"
        },
        {
          "internalType": "uint256",
          "name": "createdAt",
          "type": "uint256"
        },
        {
          "internalType": "uint256",
          "name": "deadline",
          "type": "uint256"
        },
        {
          "internalType": "address",
          "name": "creator",
          "type": "address"
        },
        {
          "internalType": "enum PlokyResolver.QStatus",
          "name": "status",
          "type": "uint8"
        },
        {
          "internalType": "enum PlokyResolver.Outcome",
          "name": "outcome",
          "type": "uint8"
        },
        {
          "internalType": "string",
          "name": "verdictCID",
          "type": "string"
        },
        {
          "internalType": "string",
          "name": "verdictSummary",
          "type": "string"
        },
        {
          "internalType": "uint256",
          "name": "resolvedAt",
          "type": "uint256"
        },
        {
          "internalType": "address",
          "name": "resolvedBy",
          "type": "address"
        },
        {
          "internalType": "uint256",
          "name": "disputeCount",
          "type": "uint256"
        },
        {
          "internalType": "bool",
          "name": "frozen",
          "type": "bool"
        },
        {
          "internalType": "bytes32",
          "name": "activeProposalId",
          "type": "bytes32"
        },
        {
          "internalType": "enum PlokyResolver.QuestionTier",
          "name": "tier",
          "type": "uint8"
        },
        {
          "internalType": "enum PlokyResolver.EscalationStep",
          "name": "currentStep",
          "type": "uint8"
        },
        {
          "internalType": "uint256",
          "name": "aiConfidenceScore",
          "type": "uint256"
        },
        {
          "internalType": "string",
          "name": "aiAnalysisCID",
          "type": "string"
        }
      ],
      "stateMutability": "view",
      "type": "function"
    },
    {
      "inputs": [],
      "name": "quorumThreshold",
      "outputs": [
        {
          "internalType": "uint256",
          "name": "",
          "type": "uint256"
        }
      ],
      "stateMutability": "view",
      "type": "function"
    },
    {
      "inputs": [
        {
          "internalType": "bytes32",
          "name": "qId",
          "type": "bytes32"
        },
        {
          "internalType": "string",
          "name": "reason",
          "type": "string"
        },
        {
          "internalType": "string",
          "name": "evidCID",
          "type": "string"
        }
      ],
      "name": "raiseDispute",
      "outputs": [],
      "stateMutability": "nonpayable",
      "type": "function"
    },
    {
      "inputs": [
        {
          "internalType": "bytes32",
          "name": "role",
          "type": "bytes32"
        },
        {
          "internalType": "address",
          "name": "callerConfirmation",
          "type": "address"
        }
      ],
      "name": "renounceRole",
      "outputs": [],
      "stateMutability": "nonpayable",
      "type": "function"
    },
    {
      "inputs": [
        {
          "internalType": "bytes32",
          "name": "qId",
          "type": "bytes32"
        }
      ],
      "name": "requestUMAResolution",
      "outputs": [],
      "stateMutability": "nonpayable",
      "type": "function"
    },
    {
      "inputs": [
        {
          "internalType": "bytes32",
          "name": "qId",
          "type": "bytes32"
        },
        {
          "internalType": "uint256",
          "name": "idx",
          "type": "uint256"
        },
        {
          "internalType": "string",
          "name": "res",
          "type": "string"
        },
        {
          "internalType": "bool",
          "name": "validDispute",
          "type": "bool"
        }
      ],
      "name": "resolveDispute",
      "outputs": [],
      "stateMutability": "nonpayable",
      "type": "function"
    },
    {
      "inputs": [],
      "name": "resolverCount",
      "outputs": [
        {
          "internalType": "uint256",
          "name": "",
          "type": "uint256"
        }
      ],
      "stateMutability": "view",
      "type": "function"
    },
    {
      "inputs": [
        {
          "internalType": "uint256",
          "name": "",
          "type": "uint256"
        }
      ],
      "name": "resolverList",
      "outputs": [
        {
          "internalType": "address",
          "name": "",
          "type": "address"
        }
      ],
      "stateMutability": "view",
      "type": "function"
    },
    {
      "inputs": [
        {
          "internalType": "address",
          "name": "",
          "type": "address"
        }
      ],
      "name": "resolvers",
      "outputs": [
        {
          "internalType": "uint256",
          "name": "reputationScore",
          "type": "uint256"
        },
        {
          "internalType": "uint256",
          "name": "totalResolved",
          "type": "uint256"
        },
        {
          "internalType": "uint256",
          "name": "correctResolutions",
          "type": "uint256"
        },
        {
          "internalType": "uint256",
          "name": "stakedAmount",
          "type": "uint256"
        },
        {
          "internalType": "uint256",
          "name": "slashCount",
          "type": "uint256"
        },
        {
          "internalType": "bool",
          "name": "isActive",
          "type": "bool"
        },
        {
          "internalType": "uint256",
          "name": "joinTimestamp",
          "type": "uint256"
        },
        {
          "internalType": "uint256",
          "name": "lastActivityTimestamp",
          "type": "uint256"
        }
      ],
      "stateMutability": "view",
      "type": "function"
    },
    {
      "inputs": [
        {
          "internalType": "bytes32",
          "name": "role",
          "type": "bytes32"
        },
        {
          "internalType": "address",
          "name": "account",
          "type": "address"
        }
      ],
      "name": "revokeRole",
      "outputs": [],
      "stateMutability": "nonpayable",
      "type": "function"
    },
    {
      "inputs": [
        {
          "internalType": "uint256",
          "name": "threshold",
          "type": "uint256"
        }
      ],
      "name": "setAIThreshold",
      "outputs": [],
      "stateMutability": "nonpayable",
      "type": "function"
    },
    {
      "inputs": [
        {
          "internalType": "uint256",
          "name": "q",
          "type": "uint256"
        }
      ],
      "name": "setQuorum",
      "outputs": [],
      "stateMutability": "nonpayable",
      "type": "function"
    },
    {
      "inputs": [
        {
          "internalType": "address",
          "name": "_treasury",
          "type": "address"
        }
      ],
      "name": "setTreasury",
      "outputs": [],
      "stateMutability": "nonpayable",
      "type": "function"
    },
    {
      "inputs": [
        {
          "internalType": "bytes32",
          "name": "qId",
          "type": "bytes32"
        }
      ],
      "name": "settleUMAResolution",
      "outputs": [],
      "stateMutability": "nonpayable",
      "type": "function"
    },
    {
      "inputs": [
        {
          "internalType": "address",
          "name": "resolver",
          "type": "address"
        },
        {
          "internalType": "uint256",
          "name": "amount",
          "type": "uint256"
        },
        {
          "internalType": "string",
          "name": "reason",
          "type": "string"
        }
      ],
      "name": "slashResolver",
      "outputs": [],
      "stateMutability": "nonpayable",
      "type": "function"
    },
    {
      "inputs": [
        {
          "internalType": "uint256",
          "name": "amount",
          "type": "uint256"
        }
      ],
      "name": "stakeAsResolver",
      "outputs": [],
      "stateMutability": "nonpayable",
      "type": "function"
    },
    {
      "inputs": [
        {
          "internalType": "bytes32",
          "name": "qId",
          "type": "bytes32"
        },
        {
          "internalType": "uint256",
          "name": "confidenceScore",
          "type": "uint256"
        },
        {
          "internalType": "enum PlokyResolver.Outcome",
          "name": "recommendedOutcome",
          "type": "uint8"
        },
        {
          "internalType": "string",
          "name": "analysisCID",
          "type": "string"
        },
        {
          "internalType": "uint256",
          "name": "sentimentScore",
          "type": "uint256"
        },
        {
          "internalType": "uint256",
          "name": "factCheckScore",
          "type": "uint256"
        },
        {
          "internalType": "uint256",
          "name": "biasScore",
          "type": "uint256"
        }
      ],
      "name": "submitAIAnalysis",
      "outputs": [],
      "stateMutability": "nonpayable",
      "type": "function"
    },
    {
      "inputs": [
        {
          "internalType": "bytes32",
          "name": "qId",
          "type": "bytes32"
        },
        {
          "internalType": "string",
          "name": "ipfsCID",
          "type": "string"
        },
        {
          "internalType": "string",
          "name": "description",
          "type": "string"
        },
        {
          "internalType": "enum PlokyResolver.EvidType",
          "name": "evidType",
          "type": "uint8"
        }
      ],
      "name": "submitEvidence",
      "outputs": [],
      "stateMutability": "nonpayable",
      "type": "function"
    },
    {
      "inputs": [
        {
          "internalType": "bytes4",
          "name": "interfaceId",
          "type": "bytes4"
        }
      ],
      "name": "supportsInterface",
      "outputs": [
        {
          "internalType": "bool",
          "name": "",
          "type": "bool"
        }
      ],
      "stateMutability": "view",
      "type": "function"
    },
    {
      "inputs": [],
      "name": "totalQuestions",
      "outputs": [
        {
          "internalType": "uint256",
          "name": "",
          "type": "uint256"
        }
      ],
      "stateMutability": "view",
      "type": "function"
    },
    {
      "inputs": [],
      "name": "treasury",
      "outputs": [
        {
          "internalType": "address",
          "name": "",
          "type": "address"
        }
      ],
      "stateMutability": "view",
      "type": "function"
    },
    {
      "inputs": [],
      "name": "umaEnabled",
      "outputs": [
        {
          "internalType": "bool",
          "name": "",
          "type": "bool"
        }
      ],
      "stateMutability": "view",
      "type": "function"
    },
    {
      "inputs": [],
      "name": "umaOracle",
      "outputs": [
        {
          "internalType": "contract IUMAOptimisticOracle",
          "name": "",
          "type": "address"
        }
      ],
      "stateMutability": "view",
      "type": "function"
    },
    {
      "inputs": [
        {
          "internalType": "bytes32",
          "name": "qId",
          "type": "bytes32"
        }
      ],
      "name": "unfreezeQuestion",
      "outputs": [],
      "stateMutability": "nonpayable",
      "type": "function"
    },
    {
      "inputs": [
        {
          "internalType": "uint256",
          "name": "amount",
          "type": "uint256"
        }
      ],
      "name": "unstakeAsResolver",
      "outputs": [],
      "stateMutability": "nonpayable",
      "type": "function"
    },
    {
      "inputs": [
        {
          "internalType": "address",
          "name": "token",
          "type": "address"
        },
        {
          "internalType": "uint256",
          "name": "amount",
          "type": "uint256"
        }
      ],
      "name": "withdrawStuckTokens",
      "outputs": [],
      "stateMutability": "nonpayable",
      "type": "function"
    }
  ],
  "bytecode": "0x6080346200016657601f620077c738819003918201601f19168301916001600160401b038311848410176200016b5780849260609460405283398101031262000166576200004d8162000181565b9060406200005e6020830162000181565b91015160017f9b779b17422d0df92223018b32b4d1fa46e071723d6817e2486d003becc55f0055612134600f55916001600160a01b03908116918215620001315716908115620000f95760018060a01b0319908160105416176010556012541617601255600e55620000d03362000196565b50620000dc3362000216565b50620000e833620002b8565b506040516174519081620003568239f35b60405162461bcd60e51b815260206004820152601060248201526f496e76616c696420747265617375727960801b6044820152606490fd5b60405162461bcd60e51b815260206004820152600d60248201526c24b73b30b634b2103a37b5b2b760991b6044820152606490fd5b600080fd5b634e487b7160e01b600052604160045260246000fd5b51906001600160a01b03821682036200016657565b6001600160a01b031660008181527fad3228b676f7d3cd4284a5443f17f1962b36e491b30a40b2405849e597ba5fb5602052604081205490919060ff166200021257818052816020526040822081835260205260408220600160ff198254161790553391600080516020620077a78339815191528180a4600190565b5090565b6001600160a01b031660008181527f7d7ffb7a348e1c6a02869081a26547b49160dd3df72d1d75a570eb9b698292ec60205260408120549091907fa49807205ce4d355092ef5a8a18f56e8913cf4a201fbe287825b095693c217759060ff16620002b357808352826020526040832082845260205260408320600160ff19825416179055600080516020620077a7833981519152339380a4600190565b505090565b6001600160a01b031660008181527f89777fffb7045c97177d1161cd08d871365cb73d0b18f242761255a7718434cf60205260408120549091907fbb08418a67729a078f87bbc8d02a770929bb68f5bfdf134ae2ead6ed38e2f4ae9060ff16620002b357808352826020526040832082845260205260408320600160ff19825416179055600080516020620077a7833981519152339380a460019056fe61010080604052600436101561001457600080fd5b600090813560e01c90816301ffc9a7146163da5750806308ee0005146161f357806309b3746e146161c65780630adb6ca914615f605780630ba882c314615f425780630dc7c70c14615f255780630ff6d8fd14615ede5780631c4c015514615e25578063200a3be114615b2457806323cdc3f114615ad5578063248a9ca314615aa95780632f2ff15d14615a6c57806332ed5b12146159ff57806336568abe146159b757806338e7ed081461596b5780633a8471f6146151e2578063430694cf146151725780634a4e3bd5146151075780634a5bcbf8146150e95780634a7221a014614f475780634c68ae6314614f235780634d104adf14614ee85780634ecac43014614ebf57806351858e2714614e655780635392c15714614d5e57806358c039cd146149c65780635c975abb146149a35780635f29e6be146149805780635ff474c214614957578063612f2a211461491357806361d027b3146148ea57806362af3da31461461f57806365bdb2ec1461447c57806366cfa59914613cf8578063692776ea14613cbf5780636c66f07d14613c84578063712255ec14613c6057806372b60afc1461386e57806372fad0661461315857806375b238fc1461311d57806378d52fde14612fc757806378fab26014612f9e5780637b7a91dd14612f805780637cdfcc0214612d0c5780637faa19f314612baf57806387db9a3e146125bf5780639098b373146125a357806391d148541461255857806395addb901461235557806395e8c13614612261578063a217fddf14612245578063a674b19714612227578063aaa44e5c14612173578063aadc3b7214612127578063ac34645114612101578063ae5b545f146119f0578063aeb2a19f146118fc578063b70739c61461183a578063b93793e9146117ae578063bd61f0a6146116cf578063bea5b914146116b1578063c0f873021461168d578063c1ba4e59146115e1578063c35e452c1461157c578063c601f7af14611541578063d19d36611461135d578063d213c0f214611340578063d547741f146112ff578063ede25ad71461129e578063efb5013514611081578063f0f4426014611003578063f1e99f6614610fe7578063f51ac7ab14610507578063f585dc57146104e9578063f8bb87f114610477578063f98e1ff9146103c6578063ffa1ad74146103aa5763ffd703b71461037c57600080fd5b346103a75760203660031901126103a757602061039f61039a61642f565b616dc7565b604051908152f35b80fd5b50346103a757806003193601126103a757602060405160c88152f35b50346103a7577f7d4ea258f63db7bb769c68fd97437a0c9f2fce679e638112fad99c01514adc6c6103f636616818565b6104019392936168a7565b838552600260205261041b60046040872001541515616e29565b8385526002602081815260408088206006908101805460ff60a01b1916600160a21b179055878952928252808820909201805460ff60a81b1916600160aa1b179055905181815292839261047192840191616c25565b0390a280f35b50346103a7577fb8b67a3a7c2783f0eb7fc53165288f1b9597b04da28b2221f1b6b3c3f2591faa6104a736616818565b6104b29392936168a7565b8385526002602052600c6040862001600160ff19825416179055610471604051928392338452604060208501526040840191616c25565b50346103a757806003193601126103a75760206040516202a3008152f35b50346103a75760a03660031901126103a7576004356001600160401b038111610fe357610538903690600401616702565b906024356001600160401b038111610fdf57610558903690600401616702565b92906044356001600160401b038111610fdb57610579903690600401616702565b60036084969296351015610fd75761058f616c46565b8315610fa4576101188411610f6e576105a9821515616b50565b426064351115610f29576301e133804201804211610f155760643511610edd576040516020810190858783376106076094828881013360601b602082015242603482015246605482015243607482015203607481018452018261651c565b5190209586885260026020526004604089200154610ea35761065a9060405192610630846164ae565b88845261063e36888a61653d565b602085015261064e36868861653d565b6040850152369161653d565b606082015242608082015260643560a08201523360c08201528660e08201528661010082015260405161068c816164e6565b8781526101208201526040516106a1816164e6565b8781526101408201528661016082015286610180820152866101a0820152866101c0820152866101e08201526106d860843561672f565b60843561020082015286610220820152866102408201526040516106fb816164e6565b878152610260820152858752600260205260408720908051825560208101518051906001600160401b038211610ca75781906107478261073e6001880154616583565b60018801616bad565b602090601f8311600114610e34578b92610e29575b50508160011b916000199060031b1c19161760018301555b60408101518051906001600160401b038211610ca75781906107a68261079d6002880154616583565b60028801616bad565b602090601f8311600114610dba578b92610daf575b50508160011b916000199060031b1c19161760028301555b60608101518051906001600160401b038211610ca7578190610805826107fc6003880154616583565b60038801616bad565b602090601f8311600114610d40578b92610d35575b50508160011b916000199060031b1c19161760038301555b6080810151600483015560a0810151600583015560c081015160068301805460e08401516108a7936001600160a01b03169061086d81616663565b61087681616663565b6001600160a81b03199092161760a09190911b60ff60a01b16178155610100830151906108a282616663565b616c01565b6101208101518051906001600160401b038211610ca75781906108da826108d16007880154616583565b60078801616bad565b602090601f8311600114610cc6578b92610cbb575b50508160011b916000199060031b1c19161760078301555b6101408101518051906001600160401b038211610ca757819061093a826109316008880154616583565b60088801616bad565b602090601f8311600114610c38578b92610c2d575b50508160011b916000199060031b1c19161760088301555b6101608101516009830155600a820160018060a01b03610180830151166001600160601b0360a01b8254161790556101a0810151600b8301556109c06101c08201511515600c84019060ff801983541691151516179055565b6101e0810151600d830155600e82016102008201516109de8161672f565b6109e78161672f565b81546102208401516004811015610c19579060ff61ff006102609695949360081b1692169061ffff191617179055610240810151600f8401550151908151906001600160401b038211610c0557601082910192610a4e82610a488654616583565b86616bad565b602090601f8311600114610ba1578a92610b96575b50508160011b916000199060031b1c19161790555b600b54600160401b811015610b825792610b0a7f731dc1616ec6f75dae0ff18b928864e626cb6e808a72e7cd2be60c39d26e97f7936020989693610ac38760018b9901600b55616793565b81549060031b9089821b91600019901b1916179055610aef60405195869560a0875260a0870191616c25565b91338b86015260643560408601528483036060860152616c25565b610b1560843561672f565b60843560808301520390a2610b2b60843561672f565b60843515610b3d575b50604051908152f35b81815260028352604090819020600601805460ff60a01b1916600560a01b179055805160008082528185015282916000805160206173dc83398151915291a238610b34565b634e487b7160e01b87526041600452602487fd5b015190503880610a63565b848b5260208b209250601f1984168b5b818110610bed5750908460019594939210610bd4575b505050811b019055610a78565b015160001960f88460031b161c19169055388080610bc7565b92936020600181928786015181550195019301610bb1565b634e487b7160e01b89526041600452602489fd5b634e487b7160e01b8c52602160045260248cfd5b01519050388061094f565b9250600885018b5260208b20908b935b601f1984168510610c8c576001945083601f19811610610c73575b505050811b016008830155610967565b015160001960f88460031b161c19169055388080610c63565b81810151835560209485019460019093019290910190610c48565b634e487b7160e01b8a52604160045260248afd5b0151905038806108ef565b9250600785018b5260208b20908b935b601f1984168510610d1a576001945083601f19811610610d01575b505050811b016007830155610907565b015160001960f88460031b161c19169055388080610cf1565b81810151835560209485019460019093019290910190610cd6565b01519050388061081a565b9250600385018b5260208b20908b935b601f1984168510610d94576001945083601f19811610610d7b575b505050811b016003830155610832565b015160001960f88460031b161c19169055388080610d6b565b81810151835560209485019460019093019290910190610d50565b0151905038806107bb565b9250600285018b5260208b20908b935b601f1984168510610e0e576001945083601f19811610610df5575b505050811b0160028301556107d3565b015160001960f88460031b161c19169055388080610de5565b81810151835560209485019460019093019290910190610dca565b01519050388061075c565b9250600185018b5260208b20908b935b601f1984168510610e88576001945083601f19811610610e6f575b505050811b016001830155610774565b015160001960f88460031b161c19169055388080610e5f565b81810151835560209485019460019093019290910190610e44565b60405162461bcd60e51b8152602060048201526012602482015271223ab83634b1b0ba329038bab2b9ba34b7b760711b6044820152606490fd5b60405162461bcd60e51b815260206004820152601060248201526f2232b0b23634b732903a37b7903330b960811b6044820152606490fd5b634e487b7160e01b88526011600452602488fd5b60405162461bcd60e51b815260206004820152601a60248201527f446561646c696e65206d75737420626520696e206675747572650000000000006044820152606490fd5b60405162461bcd60e51b815260206004820152600e60248201526d5469746c6520746f6f206c6f6e6760901b6044820152606490fd5b60405162461bcd60e51b815260206004820152600b60248201526a456d707479207469746c6560a81b6044820152606490fd5b8680fd5b8580fd5b8380fd5b5080fd5b50346103a757806003193601126103a757602060405160018152f35b50346103a75760203660031901126103a75761101d61642f565b6110256168a7565b6001600160a01b0316801561104a576001600160601b0360a01b601254161760125580f35b60405162461bcd60e51b815260206004820152600f60248201526e496e76616c6964206164647265737360881b6044820152606490fd5b50346103a757602080600319360112610fe357600435906110a0616cc9565b6110a8616c46565b683635c9adc5dea000008210611261576010546040516323b872dd60e01b8152336004820152306024820152604481018490526001600160a01b0391839082906064908290899087165af180156112565761110a918691611229575b50616c7c565b338452600982526040842060038101611124858254616b8a565b905560058101805460ff1916600117905560068101805480611223575042905b556007429101556000805160206173bc83398151915284528382526040842033600052825260ff60406000205416156111bf575b5060405191825233908201527f54e2805007919dee52f88694f4c6f06bfd679d5d9784ee95ae44f4ff9020523e60403392a260016000805160206173fc8339815191525580f35b6111c833616929565b50600c54600160401b81101561120f578060016111e89201600c55616746565b819291549060031b9133831b921b1916179055611206600d54616cba565b600d5538611178565b634e487b7160e01b85526041600452602485fd5b90611144565b6112499150843d861161124f575b611241818361651c565b810190616c64565b38611104565b503d611237565b6040513d87823e3d90fd5b6064906040519062461bcd60e51b825260048201526016602482015275135a5b9a5b5d5b481cdd185ad9481c995c5d5a5c995960521b6044820152fd5b50346103a75760203660031901126103a7576004356112bb6168a7565b8082526002602052600c604083200160ff1981541690557fae8810c687c7c61215a3919fc6781795c6c0be077823dbe9b123996fd3aa082b6020604051338152a280f35b50346103a75760403660031901126103a75761133c60043561131f616445565b90808452836020526113376001604086200154616903565b616adb565b5080f35b50346103a757806003193601126103a75760206040516127108152f35b50346103a757602090816003193601126103a7579060043582526005918282526040812090815461138d81617384565b9061139b604051928361651c565b8082528482018094845285842084915b8383106114965750505050604051938085019181865251809252604082818701971b8601019392955b8287106113e15785850386f35b909192938280600192603f1989820301855287519081518152848060a01b0383830151168382015261146461143b611428604085015161014080604087015285019061666d565b606080860151908583039086015261666d565b6080808501519084015260a08085015115159084015260c080850151908483039085015261666d565b9160e081015160e0830152610100808201511515908301526101208091015191015296019201960195929190926113d4565b600a8860019260409a97989a516114ac8161645b565b85548152848060a01b038587015416838201526114cb600287016165bd565b60408201526114dc600387016165bd565b6060820152600486015460808201528c60ff809188015416151560a0830152611507600688016165bd565b60c0830152600787015460e083015260088701541615156101008201526009860154610120820152815201920192019190969493966113ab565b50346103a757806003193601126103a75760206040517f482648e7878e9fa54c0a2f67ffd22d00ebc37cf7a03e060e428d2ab0cd6735cc8152f35b50346103a75760203660031901126103a7576004356115996168a7565b61271081116115a857600f5580f35b60405162461bcd60e51b8152602060048201526011602482015270125b9d985b1a59081d1a1c995cda1bdb19607a1b6044820152606490fd5b50346103a75760203660031901126103a7576004356115fe6168a7565b80151580611681575b1561164b577facbe3ea4c87f72eba6df80fc6e259f534f49edf4ae4b1bfff5cd9cd93b925a7a6060600e54604051908152836020820152336040820152a1600e5580f35b60405162461bcd60e51b815260206004820152600e60248201526d496e76616c69642071756f72756d60901b6044820152606490fd5b50600d54811115611607565b50346103a757806003193601126103a757602060405168056bc75e2d631000008152f35b50346103a757806003193601126103a7576020600b54604051908152f35b50346103a75760403660031901126103a7576116e961642f565b3360009081527fad3228b676f7d3cd4284a5443f17f1962b36e491b30a40b2405849e597ba5fb5602052604090205460ff161561178f5760405163a9059cbb60e01b81523360048201526024803590820152906020908290604490829086906001600160a01b03165af180156117845761176991839161176c5750616c7c565b80f35b611249915060203d811161124f57611241818361651c565b6040513d84823e3d90fd5b60405163e2517d3f60e01b815233600482015260006024820152604490fd5b50346103a75760203660031901126103a757610100906040906001600160a01b036117d761642f565b1681526009602052208054906001810154906002810154600382015460048301549060ff6005850154169260076006860154950154956040519788526020880152604087015260608601526080850152151560a084015260c083015260e0820152f35b50346103a757611849366167ca565b919081526003602052604081209081548310156103a7576118c561186d84846167fc565b50611877816165bd565b90611884600182016165bd565b60018060a01b0360028301541691600381015460ff600483015416906118d360ff60066005860154950154169460405198899860e08a5260e08a019061666d565b9088820360208a015261666d565b94604087015260608601526118e78161672f565b608085015260a0840152151560c08301520390f35b50346103a75761190b366167ca565b90825260056020526040822080548210156119ec5761192a92506167e0565b50805460018201546001600160a01b031691611948600282016165bd565b611954600383016165bd565b916119d4600482015460ff600584015416611971600685016165bd565b906119ba6007860154976119ac600960ff60088a015416980154986040519c8d9c8d5260208d015260408c61014091829101528c019061666d565b908a820360608c015261666d565b926080890152151560a088015286820360c088015261666d565b9260e085015215156101008401526101208301520390f35b8280fd5b50346103a75760803660031901126103a7576001600160401b036044358181116119ec57611a22903690600401616702565b60649291923580151581036120fd57611a3961684b565b60043585526005602052604085205460243510156120c85760043585526005602052611a6a602435604087206167e0565b509260058401805460ff81166120905760ff19166001179055821161120f5760068301611aa183611a9b8354616583565b83616bad565b8286601f821160011461202c578791612021575b508360011b906000198560031b1c19161790555b15611ed757601054600183015460405163a9059cbb60e01b81526001600160a01b039182166004820152680410d586a20a4c0000602482015291602091839160449183918a91165af1908115611256578591611eb8575b5015611e7a5760088201600160ff1982541617905560018060a01b036001830154167fb4f8e0b2d5a55a9eecc8e79ed079d1e2a8316b0c826ee836043af5defb111ab46080604051680410d586a20a4c0000815260406020820152600d60408201526c56616c6964206469737075746560981b6060820152a260043584526002602052600360ff600660408720015460a01c16611bbc81616663565b14611c1d575b611c0a60ff60087fc5addcb5970870012a6dd9468cd494e0da2c83f94d4f510ec17ab0a307a27554945b01541693604051926024358452606060208501526060840191616c25565b921515604082015280600435930390a280f35b6004358452600260205260408420600a01546001600160a01b031680151580611e62575b611c4c575b50611bc2565b9160405192611c5a84616501565b602084527f56616c6964206469737075746520616761696e7374207265736f6c7574696f6e6020850152611c8c61684b565b8086526009602052604086206003810154928315611e29578792611d38926802b5e3af16b188000086811115611e145750683635c9adc5dea00000611cd18780616d3a565b80600384015560048301611ce58154616cba565b9055611cf083616d67565b835510611deb575b5060105460125460405163a9059cbb60e01b81526001600160a01b0391821660048201526024810188905294602092869216908290889082906044820190565b03925af1928315611de0577fc5addcb5970870012a6dd9468cd494e0da2c83f94d4f510ec17ab0a307a2755497611c0a96611d9f6008967fed9e5190e975aa4403c276297e605b40d5a99683c8d2482166c8efbd1a89265f9460ff9991611dc75750616c7c565b611dbb604051928392835260406020840152604083019061666d565b0390a294505050611c46565b611249915060203d60201161124f57611241818361651c565b6040513d86823e3d90fd5b600501805460ff19169055611dff81616a42565b50611e0b600d54616d47565b600d5538611cf8565b611cd1683635c9adc5dea00000918098616d3a565b60405162461bcd60e51b815260206004820152601160248201527009cde40e6e8c2d6ca40e8de40e6d8c2e6d607b1b6044820152606490fd5b50808552600960205260036040862001541515611c41565b60405162461bcd60e51b815260206004820152601660248201527514995dd85c99081d1c985b9cd9995c8819985a5b195960521b6044820152606490fd5b611ed1915060203d60201161124f57611241818361651c565b38611b20565b60105460125460078401805460405163a9059cbb60e01b81526001600160a01b0393841660048201526024810191909152919492909190602090829060449082908b908a165af1908115612016578791611ff7575b5015611fba5760088260ff927fe2cbfe201904cd941ca5c637d8f0d492af08888ee9ca4f81d1f757616f31ff7960807fc5addcb5970870012a6dd9468cd494e0da2c83f94d4f510ec17ab0a307a27554986001611c0a98015416925460405190815260406020820152600f60408201526e496e76616c6964206469737075746560881b6060820152a2611bec565b60405162461bcd60e51b815260206004820152601560248201527414d95a5e99481d1c985b9cd9995c8819985a5b1959605a1b6044820152606490fd5b612010915060203d60201161124f57611241818361651c565b38611f2c565b6040513d89823e3d90fd5b905085013538611ab5565b828852602088209150875b601f1986168110612078575084601f1981161061205e575b5050600183811b019055611ac9565b860135600019600386901b60f8161c19169055388061204f565b9091602060018192858b013581550193019101612037565b60405162461bcd60e51b815260206004820152601060248201526f105b1c9958591e481c995cdbdb1d995960821b6044820152606490fd5b60405162461bcd60e51b815260206004820152600d60248201526c092dcecc2d8d2c840d2dcc8caf609b1b6044820152606490fd5b8480fd5b50346103a757806003193601126103a757602060ff60115460a01c166040519015158152f35b50346103a75760403660031901126103a7576040612143616445565b9160043581526008602052209060018060a01b0316600052602052602060ff604060002054166040519015158152f35b50346103a757806003193601126103a7576040518091600b549081835260208093018092600b83527f0175b7a638427703f0dbe7bb9bbf987a2551717b34e79f33b5b1008d1fa01db990835b81811061221357505050846121d591038561651c565b60405193838594850191818652518092526040850193925b8281106121fc57505050500390f35b8351855286955093810193928101926001016121ed565b8254845292860192600192830192016121bf565b50346103a757806003193601126103a7576020600d54604051908152f35b50346103a757806003193601126103a757602090604051908152f35b50346103a75760203660031901126103a75761227b61642f565b6122836168a7565b6011549060ff8260a01c1661231a576001600160a01b03169081156122e6576001600160a81b0319168117600160a01b176011556040519081527f0b4f2f50c3998314bc5a2d80cfb92738911a03dd332990e845089915c12a7b4d90602090a180f35b60405162461bcd60e51b815260206004820152600c60248201526b5a65726f206164647265737360a01b6044820152606490fd5b60405162461bcd60e51b815260206004820152601360248201527215535048185b1c9958591e48195b98589b1959606a1b6044820152606490fd5b50346103a75760203660031901126103a7576004358152600260205260409020805490612384600182016165bd565b60c052612393600282016165bd565b60a052806123a3600382016165bd565b9260048201549360058301546006840154600785016123c1906165bd565b6123cd600887016165bd565b90600987015498600160a01b600190039384600a8a01541694600b8a015496600c8b015460ff1698600d8c01549a600e8d01549c600f01549d601001612412906165bd565b6080526040518060e052526102808060e0516020015260e0510160c051906124399161666d565b60e051808203906040015260a051906124519161666d565b60e05180820390606001526124659161666d565b9360e0516080015260e05160a00152811660e05160c001528060a01c60ff1661248d81616663565b60e05160e0015260a81c60ff166124a381616663565b60e051610100015260e0518082039061012001526124c09161666d565b60e0518082039061014001526124d59161666d565b9660e051610160015260e051610180015260e0516101a00152151560e0516101c0015260e0516101e0015260ff811661250d8161672f565b60e051610200015260e051610220019060081c60ff169061252d91616739565b60e051610240015260e05180820390610260015260e05190608051906125529161666d565b0360e051f35b50346103a75760403660031901126103a7576040612574616445565b91600435815280602052209060018060a01b0316600052602052602060ff604060002054166040519015158152f35b50346103a757806003193601126103a757602060405160038152f35b50346103a75760803660031901126103a7576024356001600160401b038111610fe3576125f0903690600401616702565b906044356001600160401b038111610fdf57612610903690600401616702565b600360649392933510156120fd57612626616cc9565b61262e616c46565b6004358552600260205261264a60046040872001541515616e29565b6004358552600260205261266860ff600c604088200154161561701b565b6004358552600260205260ff600660408720015460a01c1661268981616663565b8015908115612b9a575b8115612b85575b8115612b71575b5015612b3a576126b2841515616b50565b60648411612b0657601054604051636eb1769f60e11b8152336004820152306024820152678ac7230489e8000094916001600160a01b031690602081604481855afa8015612afb5786918991612ac1575b5010612ab8576040516323b872dd60e01b81523360048201523060248201526044810186905290602090829060649082908b905af180156120165761274f918891612a99575b5061705c565b6004358652600360205261278260408720916040519361276e85616477565b61277936898861653d565b8552369161653d565b602083015233604083015242606083015261279e60643561672f565b60643560808301528360a08301528560c0830152805490600160401b821015610b8257906127d1916001820181556167fc565b919091612a855780518051906001600160401b0382116129fd578190612801826127fb8754616583565b87616bad565b602090601f8311600114612a1c578992612a11575b50508160011b916000199060031b1c19161782555b60208101518051906001600160401b0382116129fd5761285b826128526001870154616583565b60018701616bad565b602090601f83116001146129835761290d938361291f97969460069460c0948d92612978575b50508160011b916000199060031b1c19161760018501555b6002840160018060a01b036040830151166001600160601b0360a01b825416179055606081015160038501556004840160808201516128d78161672f565b6128e08161672f565b60ff8019835416911617905560a081015160058501550151151591019060ff801983541691151516179055565b60405193606085526060850191616c25565b9061292b60643561672f565b606435602084015260408301527facd0e7117719d795fbb07b0714f8d273e84a06e7d4601d1ede596603e48a637f339280600435930390a360016000805160206173fc8339815191525580f35b015190503880612881565b906001850189526020892091895b601f19851681106129e557509360018460069460c09461290d9861291f9b9a98601f198116106129cc575b505050811b016001850155612899565b015160001960f88460031b161c191690553880806129bc565b91926020600181928685015181550194019201612991565b634e487b7160e01b88526041600452602488fd5b015190503880612816565b9250848952602089209089935b601f1984168510612a6a576001945083601f19811610612a51575b505050811b01825561282b565b015160001960f88460031b161c19169055388080612a44565b81810151835560209485019460019093019290910190612a29565b634e487b7160e01b86526004869052602486fd5b612ab2915060203d60201161124f57611241818361651c565b38612749565b5085935061274f565b9150506020813d602011612af3575b81612add6020938361651c565b81010312612aee5785905138612703565b600080fd5b3d9150612ad0565b6040513d8a823e3d90fd5b60405162461bcd60e51b815260206004820152600c60248201526b43494420746f6f206c6f6e6760a01b6044820152606490fd5b60405162461bcd60e51b815260206004820152600f60248201526e145d595cdd1a5bdb8818db1bdcd959608a1b6044820152606490fd5b60069150612b7e81616663565b14386126a1565b9050612b9081616663565b600581149061269a565b9050612ba581616663565b6001811490612693565b50346103a757602090816003193601126103a7576040805191612bd1836164ca565b80835280848401528082840152606080840152806080840152606060a08401528060c08401528060e08401528061010080940152600435815260068452209060405191612c1d836164ca565b80548352600181015484840190815260ff600283015416926040850193612c4381616663565b8452612c51600384016165bd565b9260608601938452612cf7600482015460808801908152612c74600584016165bd565b9560a0890196875260068401549760c08a01988952600860078601549560e08c01968752015496868b019788526040519b8c9b818d5251908c01525160408b015251612cbf81616663565b60608a01525195612cde610120978860808c01526101408b019061666d565b915160a08a015251888203601f190160c08a015261666d565b945160e0870152519085015251908301520390f35b50346103a75760403660031901126103a75760043560243560078110156119ec57612d35616cc9565b612d3d616c46565b81835260209060028252612d5960046040862001541515616e29565b82845260028252612d7460ff600c604087200154161561701b565b82845260028252612d9c600660ff8160408820015460a01c16612d9681616663565b1461709f565b612da581616663565b600181148015612f6d575b15612f3957828452600882526040842033600052825260ff60406000205416612f04576010546040516370a0823160e01b8152336004820152908390829060249082906001600160a01b03165afa908115611256578591612ed7575b508015612ea057916060917f20b295c42b4d6cf36cea7092f92052d23220cc3649dc9b353a9ec563db6b74e59385875260088352604087203360005283526040600020600160ff19825416179055858752600a8352604087203360005283528060406000205560405192338452830152612e8581616663565b6040820152a260016000805160206173fc8339815191525580f35b60405162461bcd60e51b815260048101849052600f60248201526e4e6f20504c4b5920746f20766f746560881b6044820152606490fd5b90508281813d8311612efd575b612eee818361651c565b81010312612aee575138612e0c565b503d612ee4565b60405162461bcd60e51b815260048101839052600d60248201526c105b1c9958591e481d9bdd1959609a1b6044820152606490fd5b60405162461bcd60e51b815260048101839052600c60248201526b496e76616c696420766f746560a01b6044820152606490fd5b50612f7781616663565b60028114612db0565b50346103a757806003193601126103a7576020600e54604051908152f35b50346103a757806003193601126103a75760206040516000805160206173bc8339815191528152f35b50346103a757602080600319360112610fe357600435808352600291828152612ff860046040862001541515616e29565b818452828152613019600660ff8160408820015460a01c16612d9681616663565b81845282815260046040852001546201518081018091116131095742106130ce57817f235b7a8c5cc4b155456db1cadfa05f9e87cb669dc56b69e2c4fd6091d301023f60606040518681528785820152876040820152a281845282815260ff600e6040862001541661308a8161672f565b61309957506117699150616ebf565b8184528281526040808520600601805460ff60a01b19169055918452919091528120600e01805461ff00191661020017905580f35b6064906040519062461bcd60e51b825260048201526014602482015273566f74696e6720706572696f642061637469766560601b6044820152fd5b634e487b7160e01b85526011600452602485fd5b50346103a757806003193601126103a75760206040517fa49807205ce4d355092ef5a8a18f56e8913cf4a201fbe287825b095693c217758152f35b50346103a75760803660031901126103a757600760243510156103a7576044356001600160401b038111610fe357613194903690600401616702565b91906064356001600160401b0381116119ec576131b5903690600401616702565b90936131bf616cc9565b33845260096020526131da60ff6005604087200154166170e3565b33845260096020526131fe683635c9adc5dea0000060036040872001541015616cf9565b613206616c46565b6004358452600260205261322260046040862001541515616e29565b6004358452600260205261324060ff600c604087200154161561701b565b60043584526002602052604084209260ff600685015460a01c1661326381616663565b61383e57613272602435616663565b602435151580613826575b8061380e575b156137d75781156137a25760043585526003602052600160408620541061376d57600e84015460ff8160081c16600481101561375957600214908115613742575b5015613710576010546040516323b872dd60e01b815233600482015230602482015268056bc75e2d63100000604482015290602090829060649082908a906001600160a01b03165af19081156137055790613325918791612a99575061705c565b604051600435602082015261333b602435616663565b60243560f81b60408201523360601b6041820152426055820152436075820152607581528060a08101106001600160401b0360a0830111176136ef5760a0810160405260208151910120918286526004602052604086209361339f60243586616ea7565b8454610100600160a81b0319163360081b610100600160a81b03161785554260018601819055620151808101106136db5762015180420160028601556001600160401b038211610b82576133fa826107fc6003880154616583565b8187601f8211600114613671578891613666575b508260011b906000198460031b1c19161760038601555b600160048601553360005260078501602052604060002060ff19906001828254161790556005860190815416905561345c33616dc7565b3360005260088601602052806040600020556006860155600160a01b60ff60a01b1960068801541617600687015583600d8701556001600160401b038111610b82576134b8816134af6008890154616583565b60088901616bad565b86601f82116001146135d35790807f5141bef9784de07e10f623a11fc3522b473590ce0e5612f3f38907d30b6d9dd29392899a6006999a926135c8575b50508160011b916000199060031b1c19161760088801555b338852600960205242600760408a20015561355260028601549360405192613536602435616663565b6024358452336020850152608060408501526080840191616c25565b92606082015280600435930390a30154600e54600d5480156135b4579061357d916127100490616d54565b111561359a575b5060016000805160206173fc8339815191525580f35b600601805460ff60a01b1916600160a11b17905538613584565b634e487b7160e01b85526012600452602485fd5b0135905038806134f5565b6008870188526020882090885b601f198416811061364e575091600191600698999a7f5141bef9784de07e10f623a11fc3522b473590ce0e5612f3f38907d30b6d9dd2959483601f19811610613634575b505050811b01600888015561350d565b0135600019600384901b60f8161c19169055388080613624565b9091602060018192858e0135815501930191016135e0565b90508301353861340e565b600387018952602089209150885b601f19851681106136c3575083601f198116106136a9575b5050600182811b016003860155613425565b840135600019600385901b60f8161c191690553880613697565b9091602060018192858901358155019301910161367f565b634e487b7160e01b87526011600452602487fd5b634e487b7160e01b600052604160045260246000fd5b6040513d88823e3d90fd5b60405162461bcd60e51b815260206004820152600a602482015269057726f6e6720737465760b41b6044820152606490fd5b6002915060ff166137528161672f565b14386132c4565b634e487b7160e01b87526021600452602487fd5b60405162461bcd60e51b815260206004820152600d60248201526c4e6565642065766964656e636560981b6044820152606490fd5b60405162461bcd60e51b815260206004820152600d60248201526c139bc81c99585cdbdb8810d251609a1b6044820152606490fd5b60405162461bcd60e51b815260206004820152600f60248201526e496e76616c6964206f7574636f6d6560881b6044820152606490fd5b5061381a602435616663565b60066024351415613283565b50613832602435616663565b6005602435141561327d565b60405162461bcd60e51b81526020600482015260086024820152672737ba1037b832b760c11b6044820152606490fd5b50346103a757602090816003193601126103a75760043561388d616cc9565b613895616c46565b80825260028084526138af60046040852001541515616e29565b81835280845260ff6138ca81600c604087200154161561701b565b828452818552604084209160068301908083835460a01c166138eb81616663565b03613c2957600d840180548752600488526040872092828401544210613bf2576006840154600e54600d548015613bde579061392b916127100490616d54565b11613baa57600584018054868116613b7f5760ff19166001179055805460ff60a01b1916600360a01b17815583546139669190861690616c01565b600a600384019561397a8760078301617128565b42600982015501336001600160601b0360a01b8254161790558054875260048852604087209160018060a01b0392839182825460081c168a5260098b52600160408b20016139c88154616cba565b9055815460038882166139da81616663565b03613b35575b5050505054865260048752604086209080601054169181815460081c166040519063a9059cbb60e01b8252600482015289816044818c68056bc75e2d63100000988960248401525af1908115613b2a578991613b0d575b5015613ad35760008051602061739c8339815191529697989260407fb4f8e0b2d5a55a9eecc8e79ed079d1e2a8316b0c826ee836043af5defb111ab4936080935460081c16948151928352820152601060408201526f15995c991a58dd08195e1958dd5d195960821b6060820152a25416613abb6040519283924291339185617200565b0390a260016000805160206173fc8339815191525580f35b60405162461bcd60e51b8152600481018a90526012602482015271109bdb99081c995d1d5c9b8819985a5b195960721b6044820152606490fd5b613b2491508a3d8c1161124f57611241818361651c565b38613a37565b6040513d8b823e3d90fd5b839060081c168a5260098b5260408a2001613b508154616cba565b90555460081c1680885260098952613b6a60408920616d67565b908852600989526040882055813880806139e0565b60405162461bcd60e51b815260048082018d9052602482015263446f6e6560e01b6044820152606490fd5b60405162461bcd60e51b8152600481018a9052600c60248201526b556e6465722071756f72756d60a01b6044820152606490fd5b634e487b7160e01b8b52601260045260248bfd5b60405162461bcd60e51b8152600481018a9052600f60248201526e54696d656c6f636b2061637469766560881b6044820152606490fd5b60405162461bcd60e51b815260048101889052600f60248201526e4e6f7420696e2074696d656c6f636b60881b6044820152606490fd5b50346103a757806003193601126103a7576020604051683635c9adc5dea000008152f35b50346103a757806003193601126103a75760206040517f079f8a4099c742da5530b52d1bb648fc05fdd82941a0db55645d2eceb3ab801b8152f35b50346103a75760203660031901126103a75760043590600b548210156103a7576020613cea83616793565b90546040519160031b1c8152f35b50346103a75760e03660031901126103a757600760443510156103a7576064356001600160401b038111610fe357613d34903690600401616702565b3360009081527fc1c604b5add75b59252bca1e4e4ec4ab21f3921b1ddcf7a43abe69724bce555d6020526040902054909291907f482648e7878e9fa54c0a2f67ffd22d00ebc37cf7a03e060e428d2ab0cd6735cc9060ff161561445e575060043582526002602052613dae60046040842001541515616e29565b6024926127108435116144255780156143f85760043583526002602052600560ff600660408620015460a01c16613de481616663565b1480156143cb575b613df590616e6a565b604051613e01816164ca565b6004358152602081019085358252613e1a604435616663565b6044356040820152613e2d36848661653d565b6060820152426080820152604051613e4481616501565b6004815263076322e360e41b602082015260a082015260843560c082015260a43560e082015260c43561010082015260043585526006602052604085209181518355516001830155613ea66040820151613e9d81616663565b60028401616ea7565b60608101518051906001600160401b03821161433e578190613ecf826107fc6003880154616583565b602090601f831160011461435c578892614351575b50508160011b916000199060031b1c19161760038301555b6080810151600483015560a08101518051906001600160401b03821161433e57613f3682613f2d6005870154616583565b60058701616bad565b602090601f83116001146142cb57918060089492610100948a926142c0575b50508160011b916000199060031b1c19161760058501555b60c0810151600685015560e08101516007850155015191015560043583526002602052604083208435600f8201556001600160401b0382116142ac57613fc382613fba6010840154616583565b60108401616bad565b8382601f8111600114614242576010918691614237575b508360011b906000198560031b1c1916179101555b60405184358152614001604435616663565b6044356020820152606060408201527f03162616fc702da032b25b5caa9cfd7eefb5ca67d65b974f97fe1e509a77614a6004359180614044606082018688616c25565b0390a26004358352600260205260ff600e604085200154166140658161672f565b158061422a575b1561421b579061407d91369161653d565b600435825260026020526040822060068101805460ff60a01b1916600360a01b1781556140ad9060443590616c01565b600781018251946001600160401b03861161420957506140d185611a9b8354616583565b6020601f86116001146141a45794808596600e959691614199575b508160011b916000199060031b1c19161790555b426009820155600a810180546001600160a01b0319163017905501805461ff00191690556040519060008051602061739c8339815191529061415d90614147604435616663565b604435845260806020850152608084019061666d565b9130604082015242606082015280600435930390a260405160008152600060208201526000805160206173dc833981519152604060043592a280f35b9050850151386140ec565b8185526020852090601f198716865b8181106141f15750918791600e969798600194106141d8575b5050811b019055614100565b87015160001960f88460031b161c1916905538806141cc565b9192602060018192868a0151815501940192016141b3565b634e487b7160e01b8552604160045284fd5b50509050611769600435616ebf565b50600f548435101561406c565b905084013538613fda565b506010820185526020852090855b601f1985168110614294575083601f1981161061427a575b50506010600183811b01910155613fef565b840135600019600385901b60f8161c191690553880614268565b90916020600181928589013581550193019101614250565b5050634e487b7160e01b8252506041600452fd5b015190503880613f55565b906005850188526020882091885b601f1985168110614326575092600894926001926101009583601f1981161061430d575b505050811b016005850155613f6d565b015160001960f88460031b161c191690553880806142fd565b919260206001819286850151815501940192016142d9565b634e487b7160e01b875260416004528787fd5b015190503880613ee4565b9250600385018852602088209088935b601f19841685106143b0576001945083601f19811610614397575b505050811b016003830155613efc565b015160001960f88460031b161c19169055388080614387565b8181015183556020948501946001909301929091019061436c565b5060043583526002602052613df560ff600660408620015460a01c166143f081616663565b159050613dec565b60405162461bcd60e51b81526020600482015260068186015265139bc810d25160d21b6044820152606490fd5b60405162461bcd60e51b81526020600482015260128186015271496e76616c696420636f6e666964656e636560701b6044820152606490fd5b6044906040519063e2517d3f60e01b82523360048301526024820152fd5b50346103a757602080600319360112610fe35760043561449a616cc9565b3383526009825260408320600381018054906144b884831015616cf9565b683635c9adc5dea0000091826144ce8683616d3a565b10801590614616575b156145e157926145339285926144ef89978997616d3a565b8091551061458d575b5060105460405163a9059cbb60e01b81523360048201526024810192909252909384926001600160a01b039092169183919082906044820190565b03925af190811561458257614550928492614565575b5050616c7c565b60016000805160206173fc8339815191525580f35b61457b9250803d1061124f57611241818361651c565b3880614549565b6040513d85823e3d90fd5b600501805460ff191690556145a133616a42565b506145ad600d54616d47565b600d556040513381527fac03556895e66a64a8c5388670b854f2097fd3a74d8a8af8b7d6755269f16d19843392a2386144f8565b60405162461bcd60e51b815260048101879052600d60248201526c42656c6f77206d696e696d756d60981b6044820152606490fd5b508085146144d7565b50346103a75760403660031901126103a75760043560248035614640616cc9565b3384526020906009825261465d60ff6005604088200154166170e3565b33855260098252614680683635c9adc5dea0000060036040882001541015616cf9565b614688616c46565b838552600282526146a160046040872001541515616e29565b838552600282526146bc60ff600c604088200154161561701b565b8385526002825260408520936006850194600160ff875460a01c166146e081616663565b036148b757600d839101540361488257818652600483526040862092600784013360005280825260ff6040600020541661484d5760ff60058601541661481e577fcecc42ad27bb3d523ae3a1d6143c96711339f6dd07b50c1d0c85b64e55993f609160609161474e33616dc7565b903360005282526040600020600160ff19825416179055600660048801976147768954616cba565b895533600052600881018452826040600020550196614796828954616b8a565b8855338b526009835242600760408d20015554604051923384528301526040820152a35490600e5490600d5490811561480c5750906147d9916127100490616d54565b11156147f5575060016000805160206173fc8339815191525580f35b805460ff60a01b1916600160a11b17905538613584565b634e487b7160e01b8652601260045285fd5b60405162461bcd60e51b81526004810183905260088188015267115e1958dd5d195960c21b6044820152606490fd5b60405162461bcd60e51b815260048101839052600e818801526d105b1c9958591e481cda59db995960921b6044820152606490fd5b60405162461bcd60e51b815260048101849052600e818601526d15dc9bdb99c81c1c9bdc1bdcd85b60921b6044820152606490fd5b60405162461bcd60e51b815260048101859052600c818701526b139bdd081c1c9bdc1bdcd95960a21b6044820152606490fd5b50346103a757806003193601126103a7576012546040516001600160a01b039091168152602090f35b50346103a75760203660031901126103a75760043590600c548210156103a757602061493e83616746565b905460405160039290921b1c6001600160a01b03168152f35b50346103a757806003193601126103a7576011546040516001600160a01b039091168152602090f35b50346103a757806003193601126103a7576020604051678ac7230489e800008152f35b50346103a757806003193601126103a757602060ff600154166040519015158152f35b50346103a75760203660031901126103a757604090606061026083516149eb816164ae565b838152826020820152828582015282808201528360808201528360a08201528360c08201528360e08201528361010082015282610120820152826101408201528361016082015283610180820152836101a0820152836101c0820152836101e082015283610200820152836102208201528361024082015201526004358152600260205220604051614a7c816164ae565b81548152614a8c600183016165bd565b6020820152614a9d600283016165bd565b6040820152614aae600383016165bd565b606082015260048201546080820152600582015460a082015260ff600683015460018060a01b03811660c0840152614aea828260a01c16616663565b818160a01c1660e0840152614b03828260a81c16616663565b60a81c16610100820152614b19600783016165bd565b610120820152614b2b600883016165bd565b6101408201526009820154610160820152600a8201546001600160a01b0316610180820152600b8201546101a0820152600c82015460ff90811615156101c0830152600d8301546101e0830152600e8301549290614b8a90841661672f565b60ff8316610200830152600460ff8460081c161015614d48576010614bca9160ff614d449560081c16610220850152600f810154610240850152016165bd565b6102608201526040519182916020835280516020840152610260614cb6614c9e614c37614c21614c0b602087015161028060408b01526102a08a019061666d565b6040870151898203601f190160608b015261666d565b6060860151888203601f190160808a015261666d565b608085015160a088015260a085015160c088015260018060a01b0360c08601511660e088015260e0850151614c6b81616663565b610100880152610100850151614c8081616663565b610120880152610120850151601f198883030161014089015261666d565b610140840151868203601f190161016088015261666d565b9161016081015161018086015260018060a01b03610180820151166101a08601526101a08101516101c08601526101c081015115156101e08601526101e0810151610200860152610200810151614d0c8161672f565b610220860152614d26610220820151610240870190616739565b610240810151858301520151838203601f190161028085015261666d565b0390f35b634e487b7160e01b600052602160045260246000fd5b50346103a75760203660031901126103a757604061010091614d7e61642f565b8160e08451614d8c81616492565b82815282602082015282868201528260608201528260808201528260a08201528260c0820152015260018060a01b03168152600960205220604051614dd081616492565b8154918282526001810154602083019081526002820154604084019081526003830154606085019081526004840154916080860192835260ff6005860154169360a08701941515855260e0600760068801549760c08a019889520154970196875260405197885251602088015251604087015251606086015251608085015251151560a08401525160c08301525160e0820152f35b50346103a757806003193601126103a757614e7e6168a7565b614e86616c46565b600160ff19815416176001557f62e78cea01bee320cd4e420270b5ea74000d11b0c9f74754ebdbfc544b05a2586020604051338152a180f35b50346103a757806003193601126103a7576010546040516001600160a01b039091168152602090f35b50346103a757806003193601126103a75760206040517fbb08418a67729a078f87bbc8d02a770929bb68f5bfdf134ae2ead6ed38e2f4ae8152f35b50346103a757806003193601126103a75760206040516802b5e3af16b18800008152f35b50346103a757602080600319360112610fe35790600435815260039081835260408120908154614f7681617384565b93614f84604051958661651c565b81855285850190819484528684209084925b84841061505f575050505050604051928484019085855251809152604084019460408260051b8601019392955b828710614fd05785850386f35b909192938280600192603f1989820301855287519061500b614ffb835160e0845260e084019061666d565b848401518382038685015261666d565b91858060a01b03604082015116604083015260608082015190830152608080820151906150378261672f565b83015260a0808201519083015260c08091015115159101529601920196019592919092614fc3565b60078960019260409b9a989b5161507581616477565b61507e876165bd565b815261508b8588016165bd565b83820152848060a01b03600288015416604082015285870154606082015260ff806004890154166150bb8161672f565b6080830152600588015460a0830152600688015416151560c082015281520193019301929197949697614f96565b50346103a757806003193601126103a7576020604051620151808152f35b50346103a757806003193601126103a7576151206168a7565b60015460ff8116156151605760ff19166001557f5db9ee0a495bf2e6ff9c91a7834c1ba4fdd244a5e8aa4e537bd38aeae4b073aa6020604051338152a180f35b604051638dfc202b60e01b8152600490fd5b50346103a75760203660031901126103a75760409060043581526004602052208054614d446001830154926002810154600482015460ff600584015416916151c16003600686015495016165bd565b604051978897919291600881901c6001600160a01b03169060ff16896166ad565b50346103a75760603660031901126103a7576024356001600160401b038111610fe357615213903690600401616702565b6044929192356001600160401b0381116119ec57615235903690600401616702565b61523d616cc9565b615245616c46565b6004358452600260205261526160046040862001541515616e29565b60043584526007602052604084203360005260205260ff604060002054166159335782156159025760043584526002602052604084209460ff600687015460a01c166152ac81616663565b600181149081156158ed575b81156158d8575b811561588f575b5015615859576010546040516323b872dd60e01b81523360048201523060248201526802b5e3af16b1880000604482015290602090829060649082908a906001600160a01b03165af19081156137055790615327918791612a99575061705c565b6004358552600760205260408520336000526020526040600020600160ff19825416179055615359600b870154616cba565b600b87015560043585526005602052604085209586546040519761537c8961645b565b60043589523360208a015261539236888661653d565b60408a01526153a236868861653d565b60608a01524260808a01528760a08a01526040516153bf816164e6565b88815260c08a01526802b5e3af16b188000060e08a0152876101008a0152816101208a0152600160401b8210156129fd5790615400916001820181556167e0565b61584557875181556001810160018060a01b0360208a0151166001600160601b0360a01b82541617905560408801518051906001600160401b038211610c0557819061545c826154536002870154616583565b60028701616bad565b602090601f83116001146157d6578a926157cb575b50508160011b916000199060031b1c19161760028201555b60608801518051906001600160401b038211610c055781906154bb826154b26003870154616583565b60038701616bad565b602090601f831160011461575c578a92615751575b50508160011b916000199060031b1c19161760038201555b6080880151600482015561551160a08901511515600583019060ff801983541691151516179055565b60c08801519788516001600160401b038111610c0557615541816155386006860154616583565b60068601616bad565b6020601f82116001146156d4576155d89594939282600993610120938d9e6155e69d9e926156c9575b50508160011b916000199060031b1c19161760068501555b60e081015160078501556155ac6101008201511515600886019060ff801983541691151516179055565b01519101556003600b8201541015806156ba575b615635575b5060405195606087526060870191616c25565b918483036020860152616c25565b6802b5e3af16b188000060408301527f700aa38276aacbb9899b61e5cbbcaa431dbf983a04bfa5ffb4171907f06769e9339280600435930390a360016000805160206173fc8339815191525580f35b600c01600160ff1982541617905560405130815260406020820152602660408201527f4175746f2d66726f7a656e3a2064697370757465207468726573686f6c642072606082015265195858da195960d21b60808201527fb8b67a3a7c2783f0eb7fc53165288f1b9597b04da28b2221f1b6b3c3f2591faa60a060043592a2386155c5565b5060ff600c82015416156155c0565b01519050388061556a565b600684018a5260208a209a8a5b601f19841681106157395750926001836155e69b9c9d610120946155d89a999897600997601f19811610615720575b505050811b016006850155615582565b015160001960f88460031b161c19169055388080615710565b828201518d556001909c019b602092830192016156e1565b0151905038806154d0565b9250600384018a5260208a20908a935b601f19841685106157b0576001945083601f19811610615797575b505050811b0160038201556154e8565b015160001960f88460031b161c19169055388080615787565b8181015183556020948501946001909301929091019061576c565b015190503880615471565b9250600284018a5260208a20908a935b601f198416851061582a576001945083601f19811610615811575b505050811b016002820155615489565b015160001960f88460031b161c19169055388080615801565b818101518355602094850194600190930192909101906157e6565b634e487b7160e01b87526004879052602487fd5b60405162461bcd60e51b815260206004820152600e60248201526d43616e6e6f74206469737075746560901b6044820152606490fd5b6003915061589c81616663565b14806158a9575b386152c6565b5060098601546202a30081018091116158c4574211156158a3565b634e487b7160e01b86526011600452602486fd5b90506158e381616663565b60068114906152bf565b90506158f881616663565b60028114906152b8565b60405162461bcd60e51b81526020600482015260096024820152682737903932b0b9b7b760b91b6044820152606490fd5b60405162461bcd60e51b815260206004820152601060248201526f105b1c9958591e48191a5cdc1d5d195960821b6044820152606490fd5b50346103a75760403660031901126103a7576040615987616445565b9160043581526007602052209060018060a01b0316600052602052602060ff604060002054166040519015158152f35b50346103a75760403660031901126103a7576159d1616445565b336001600160a01b038216036159ed5761133c90600435616adb565b60405163334bd91960e11b8152600490fd5b50346103a75760203660031901126103a75760409060043581526004602052208054614d44600183015492600281015490615a3c600382016165bd565b600482015490600660ff6005850154169301549360405197889760ff60018060a01b038260081c169116896166ad565b50346103a75760403660031901126103a75761133c600435615a8c616445565b9080845283602052615aa46001604086200154616903565b6169c9565b50346103a75760203660031901126103a757600160406020926004358152808452200154604051908152f35b50346103a75760403660031901126103a75760076040615af3616445565b926004358152600460205220019060018060a01b0316600052602052602060ff604060002054166040519015158152f35b50346103a757602090816003193601126103a757600435808252600292838152615b5660046040852001541515616e29565b601154615b6860ff8260a01c166172c3565b828452848252600660ff8160408720015460a81c16615b8681616663565b03615ded57615bae94838552808352615bbc6001604087200160405197889186830190617301565b03601f19810188528761651c565b60018060a01b038092168486528184526004604087200154604051630b551cd560e41b81527f079f8a4099c742da5530b52d1bb648fc05fdd82941a0db55645d2eceb3ab801b91826004830152602482015260606044820152858180615c25606482018d61666d565b0381865afa908115612afb578891615dd0575b5015615d955786978792869288615c87999a52858452846004604082200154916040519a8b95869485936353b5923960e01b85526004850152602484015260606044840152606483019061666d565b03925af18015615d88578190615d4d575b60008051602061739c83398151915295501315615d46576001925b85875281815260408088206006908101805460ff60a01b1916600360a01b179055878952838352908820615ce991869101616c01565b858752818152615d24604088204260098201558460115416600a8201906001600160601b0360a01b8254161790556007601082019101617128565b8587525261047160076040872001916011541692604051938493429285617200565b8092615cb3565b508385813d8311615d81575b615d63818361651c565b810103126103a75760008051602061739c8339815191529451615c98565b503d615d59565b50604051903d90823e3d90fd5b60405162461bcd60e51b81526004810186905260136024820152725072696365206e6f7420617661696c61626c6560681b6044820152606490fd5b615de79150863d881161124f57611241818361651c565b38615c38565b60405162461bcd60e51b815260048101839052601060248201526f4e6f74206177616974696e6720554d4160801b6044820152606490fd5b50346103a75760203660031901126103a7576040906004358152600660205220805460018201549160ff600282015416615e61600383016165bd565b91615ec96004820154615e76600584016165bd565b615eb660068501549660086007870154960154966040519a8b9a8b5260208b0152615ea081616663565b60408a01526101208060608b015289019061666d565b91608088015286820360a088015261666d565b9260c085015260e08401526101008301520390f35b50346103a75760403660031901126103a7576040615efa616445565b916004358152600a602052209060018060a01b03166000526020526020604060002054604051908152f35b50346103a757806003193601126103a75760206040516101f48152f35b50346103a757806003193601126103a7576020600f54604051908152f35b50346103a757602080600319360112610fe3576160736004359133845260098152615f9460ff6005604087200154166170e3565b33845260098152615fb7683635c9adc5dea0000060036040872001541015616cf9565b82845260028152615fd060046040862001541515616e29565b82845260028152615feb60ff600c604087200154161561701b565b615ffc60ff60115460a01c166172c3565b8284526002815260ff600660408620015460a01c1661601a81616663565b15801561619a575b61602b90616e6a565b82845260028152604080852060068101805460ff60a81b1916600360a91b179055600e8101805461ff0019166103001790559051926160819184919082850190600101617301565b03601f19810184528361651c565b60115460105485916001600160a01b039081169116813b156119ec57829160405180948180946311df92f160e01b82526160f37f079f8a4099c742da5530b52d1bb648fc05fdd82941a0db55645d2eceb3ab801b9a8b600485015242602485015260a0604485015260a484019061666d565b90606483015268056bc75e2d63100000608483015203925af180156112565761614b575b507f08c347d84355c2b48f5abc21c986a0b7bb250a907a6422ecdc8d0590b0e7e94d9160409182519182524290820152a280f35b6001600160401b03819592951161618657604052927f08c347d84355c2b48f5abc21c986a0b7bb250a907a6422ecdc8d0590b0e7e94d616117565b634e487b7160e01b82526041600452602482fd5b508284526002815261602b600160ff600660408820015460a01c166161be81616663565b149050616022565b50346103a75760203660031901126103a75760066040602092600435815260048452200154604051908152f35b50346103a75760603660031901126103a75761620d61642f565b602435906044356001600160401b038111610fdf5736602382011215610fdf5761624190369060248160040135910161653d565b61624961684b565b60018060a01b0392838316938486526020936009855260408720906003820180549485156163a1579261629f9592683635c9adc5dea00000899896936163019a9686811160001461639857508598898097616d3a565b809155600484016162b08154616cba565b90556162bb84616d67565b84551061636e575b5050806010541690601254168960405180998195829463a9059cbb60e01b84526004840160209093929193604081019460018060a01b031681520152565b03925af190811561370557616341610471927fed9e5190e975aa4403c276297e605b40d5a99683c8d2482166c8efbd1a89265f9689916163575750616c7c565b604080519485948552840152604083019061666d565b6112499150863d881161124f57611241818361651c565b6005616382920160ff198154169055616a42565b5061638e600d54616d47565b600d5538806162c3565b98898097616d3a565b60405162461bcd60e51b815260048101899052601160248201527009cde40e6e8c2d6ca40e8de40e6d8c2e6d607b1b6044820152606490fd5b905034610fe3576020366003190112610fe35760043563ffffffff60e01b81168091036119ec5760209250637965db0b60e01b811490811561641e575b5015158152f35b6301ffc9a760e01b14905038616417565b600435906001600160a01b0382168203612aee57565b602435906001600160a01b0382168203612aee57565b61014081019081106001600160401b038211176136ef57604052565b60e081019081106001600160401b038211176136ef57604052565b61010081019081106001600160401b038211176136ef57604052565b61028081019081106001600160401b038211176136ef57604052565b61012081019081106001600160401b038211176136ef57604052565b602081019081106001600160401b038211176136ef57604052565b604081019081106001600160401b038211176136ef57604052565b90601f801991011681019081106001600160401b038211176136ef57604052565b9291926001600160401b0382116136ef5760405191616566601f8201601f19166020018461651c565b829481845281830111612aee578281602093846000960137010152565b90600182811c921680156165b3575b602083101461659d57565b634e487b7160e01b600052602260045260246000fd5b91607f1691616592565b90604051918260008254926165d184616583565b90818452600194858116908160001461664057506001146165fd575b50506165fb9250038361651c565b565b9093915060005260209081600020936000915b8183106166285750506165fb935082010138806165ed565b85548884018501529485019487945091830191616610565b9150506165fb94506020925060ff191682840152151560051b82010138806165ed565b60071115614d4857565b919082519283825260005b848110616699575050826000602080949584010152601f8019910116010190565b602081830181015184830182015201616678565b9491926166f19360e0979a999895926166c581616663565b87526001600160a01b03166020870152604086015260608501526101006080850181905284019061666d565b9560a0830152151560c08201520152565b9181601f84011215612aee578235916001600160401b038311612aee5760208381860195010111612aee57565b60031115614d4857565b906004821015614d485752565b600c5481101561677d57600c6000527fdf6966c971051c3d54ec59162606531493a51404a002842f56009d7e5cf4a8c70190600090565b634e487b7160e01b600052603260045260246000fd5b600b5481101561677d57600b6000527f0175b7a638427703f0dbe7bb9bbf987a2551717b34e79f33b5b1008d1fa01db90190600090565b6040906003190112612aee576004359060243590565b805482101561677d57600052600a602060002091020190600090565b805482101561677d576000526007602060002091020190600090565b906040600319830112612aee5760043591602435906001600160401b038211612aee5761684791600401616702565b9091565b3360009081527f89777fffb7045c97177d1161cd08d871365cb73d0b18f242761255a7718434cf60205260409020547fbb08418a67729a078f87bbc8d02a770929bb68f5bfdf134ae2ead6ed38e2f4ae9060ff161561445e5750565b3360009081527f7d7ffb7a348e1c6a02869081a26547b49160dd3df72d1d75a570eb9b698292ec60205260409020547fa49807205ce4d355092ef5a8a18f56e8913cf4a201fbe287825b095693c217759060ff161561445e5750565b80600052600060205260406000203360005260205260ff604060002054161561445e5750565b6001600160a01b031660008181527f40da0f42a661166d5434d4603ecbff423639c47e2526ad0538d7c3517a62389060205260408120549091906000805160206173bc8339815191529060ff166169c457808352826020526040832082845260205260408320600160ff198254161790557f2f8788117e7eff1d82e926ec794901d17c78024a50270940304540a733656f0d339380a4600190565b505090565b9060009180835282602052604083209160018060a01b03169182845260205260ff604084205416156000146169c457808352826020526040832082845260205260408320600160ff198254161790557f2f8788117e7eff1d82e926ec794901d17c78024a50270940304540a733656f0d339380a4600190565b6001600160a01b031660008181527f40da0f42a661166d5434d4603ecbff423639c47e2526ad0538d7c3517a62389060205260408120549091906000805160206173bc8339815191529060ff16156169c45780835282602052604083208284526020526040832060ff1981541690557ff6391f5c32d9c69d2a47ea670b442974b53935d1edc7fd64eb21e047a839171b339380a4600190565b9060009180835282602052604083209160018060a01b03169182845260205260ff6040842054166000146169c45780835282602052604083208284526020526040832060ff1981541690557ff6391f5c32d9c69d2a47ea670b442974b53935d1edc7fd64eb21e047a839171b339380a4600190565b15616b5757565b60405162461bcd60e51b815260206004820152600b60248201526a139bc812541194c810d25160aa1b6044820152606490fd5b91908201809211616b9757565b634e487b7160e01b600052601160045260246000fd5b90601f8111616bbb57505050565b600091825260208220906020601f850160051c83019410616bf7575b601f0160051c01915b828110616bec57505050565b818155600101616be0565b9092508290616bd7565b90616c0b81616663565b815460ff60a81b191660a89190911b60ff60a81b16179055565b908060209392818452848401376000828201840152601f01601f1916010190565b60ff60015416616c5257565b60405163d93c066560e01b8152600490fd5b90816020910312612aee57518015158103612aee5790565b15616c8357565b60405162461bcd60e51b815260206004820152600f60248201526e151c985b9cd9995c8819985a5b1959608a1b6044820152606490fd5b6000198114616b975760010190565b6000805160206173fc8339815191526002815414616ce75760029055565b604051633ee5aeb560e01b8152600490fd5b15616d0057565b60405162461bcd60e51b8152602060048201526012602482015271496e73756666696369656e74207374616b6560701b6044820152606490fd5b91908203918211616b9757565b8015616b97576000190190565b81810292918115918404141715616b9757565b60018101548015616dbf5760028201549061271091828102928184041490151715616b9757600491049101546101f490818102918183041490151715616b9757600091818111156169c457616dbc9250616d3a565b90565b505061138890565b6001600160a01b03166000908152600960205260409020600581015460ff1615616e2357600381549101549061271091828102928184041490151715616b975769021e19e0c9bab2400000616e1d920490616b8a565b60011c90565b50600090565b15616e3057565b60405162461bcd60e51b8152602060048201526012602482015271145d595cdd1a5bdb881b9bdd08199bdd5b9960721b6044820152606490fd5b15616e7157565b60405162461bcd60e51b815260206004820152600e60248201526d496e76616c69642073746174757360901b6044820152606490fd5b90616eb181616663565b60ff80198354169116179055565b6000818152600260205260408120600e81019081549260ff8460081c169360ff8116616eea8161672f565b80616fa15750506004841015616f8d575091616f5a60ff6040936000805160206173dc833981519152958415600014616f5d57815461ff001916610100178255600601805460a084901b1916600360a11b1790555b5460081c16616f5084518094616739565b6020830190616739565ba2565b60018514616f6c575b50616f3f565b815461ff001916610200178255600601805460a084901b1916905538616f66565b634e487b7160e01b81526021600452602490fd5b80616fad60019261672f565b03616fe257506004841015616f8d575091616f5a60ff6040936000805160206173dc833981519152958415616f6c5750616f3f565b61ff00191661020017835550600601805460ff60a01b191690556000805160206173dc83398151915291604091616f5a9060ff90616f3f565b1561702257565b60405162461bcd60e51b815260206004820152601260248201527128bab2b9ba34b7b71034b990333937bd32b760711b6044820152606490fd5b1561706357565b60405162461bcd60e51b8152602060048201526014602482015273109bdb99081d1c985b9cd9995c8819985a5b195960621b6044820152606490fd5b156170a657565b60405162461bcd60e51b81526020600482015260156024820152744e6f7420696e20636f6d6d756e69747920766f746560581b6044820152606490fd5b156170ea57565b60405162461bcd60e51b81526020600482015260166024820152752737ba1030b71030b1ba34bb32903932b9b7b63b32b960511b6044820152606490fd5b908082146171fc5761713a8154616583565b906001600160401b0382116136ef57819061715982610a488654616583565b600090601f831160011461719057600092617185575b50508160011b916000199060031b1c1916179055565b01549050388061716f565b81526020808220858352818320935090601f1985169083905b8282106171e35750509084600195949392106171ca575b505050811b019055565b015460001960f88460031b161c191690553880806171c0565b84958192958501548155600180910196019401906171a9565b5050565b91909493929461720f81616663565b8252602090608082840152600091815461722881616583565b92836080870152600191828116908160001461729b5750600114617261575b50505050906060919460018060a01b031660408201520152565b60009081528281209094505b8385106172875750505050810160a0016060388080617247565b805486860160a0015293820193810161726d565b92505050606094935060a092915060ff191682840152151560051b8201019091388080617247565b156172ca57565b60405162461bcd60e51b815260206004820152600f60248201526e155350481b9bdd08195b98589b1959608a1b6044820152606490fd5b60009291815461731081616583565b92600191808316908115617369575060011461732d575b50505050565b90919293945060005260209081600020906000915b8583106173585750505050019038808080617327565b805485840152918301918101617342565b60ff1916845250505081151590910201915038808080617327565b6001600160401b0381116136ef5760051b6020019056feeb311d9305db9199c919b89ceb7d9490c670a46ae88045d04b3ff29589db25c892a19c77d2ea87c7f81d50c74403cb2f401780f3ad919571121efe2bdb427eb1db7fa502135a70aa8fee3fae9bab009e201272a173d618da883281e0280fe9079b779b17422d0df92223018b32b4d1fa46e071723d6817e2486d003becc55f00a264697066735822122047673d15d7f3203062407f81404c524c251d45a03821eabc77cca901bda23e3164736f6c634300081400332f8788117e7eff1d82e926ec794901d17c78024a50270940304540a733656f0d",
  "linkReferences": {},
  "deployedLinkReferences": {}
}