{"contracts/PlokyResolver.sol":{"PlokyResolver":{"abi":[{"inputs":[{"internalType":"address","name":"_plkyToken","type":"address"},{"internalType":"address","name":"_treasury","type":"address"},{"internalType":"uint256","name":"_quorum","type":"uint256"}],"stateMutability":"nonpayable","type":"constructor"},{"inputs":[],"name":"AccessControlBadConfirmation","type":"error"},{"inputs":[{"internalType":"address","name":"account","type":"address"},{"internalType":"bytes32","name":"neededRole","type":"bytes32"}],"name":"AccessControlUnauthorizedAccount","type":"error"},{"inputs":[],"name":"EnforcedPause","type":"error"},{"inputs":[],"name":"ExpectedPause","type":"error"},{"inputs":[],"name":"ReentrancyGuardReentrantCall","type":"error"},{"anonymous":false,"inputs":[{"indexed":true,"internalType":"bytes32","name":"qId","type":"bytes32"},{"indexed":false,"internalType":"uint256","name":"confidence","type":"uint256"},{"indexed":false,"internalType":"enum PlokyResolver.Outcome","name":"recommended","type":"uint8"},{"indexed":false,"internalType":"string","name":"cid","type":"string"}],"name":"AIAnalysisSubmitted","type":"event"},{"anonymous":false,"inputs":[{"indexed":false,"internalType":"uint256","name":"old_","type":"uint256"},{"indexed":false,"internalType":"uint256","name":"new_","type":"uint256"},{"indexed":false,"internalType":"address","name":"by","type":"address"}],"name":"AIThresholdChanged","type":"event"},{"anonymous":false,"inputs":[{"indexed":true,"internalType":"address","name":"user","type":"address"},{"indexed":false,"internalType":"uint256","name":"amount","type":"uint256"},{"indexed":false,"internalType":"string","name":"reason","type":"string"}],"name":"BondReturned","type":"event"},{"anonymous":false,"inputs":[{"indexed":true,"internalType":"address","name":"user","type":"address"},{"indexed":false,"internalType":"uint256","name":"amount","type":"uint256"},{"indexed":false,"internalType":"string","name":"reason","type":"string"}],"name":"BondSeized","type":"event"},{"anonymous":false,"inputs":[{"indexed":true,"internalType":"bytes32","name":"qId","type":"bytes32"},{"indexed":false,"internalType":"enum PlokyResolver.Outcome","name":"outcome","type":"uint8"},{"indexed":false,"internalType":"uint256","name":"yesWeight","type":"uint256"},{"indexed":false,"internalType":"uint256","name":"noWeight","type":"uint256"}],"name":"CommunityVoteFinalized","type":"event"},{"anonymous":false,"inputs":[{"indexed":true,"internalType":"bytes32","name":"qId","type":"bytes32"},{"indexed":false,"internalType":"address","name":"voter","type":"address"},{"indexed":false,"internalType":"uint256","name":"weight","type":"uint256"},{"indexed":false,"internalType":"enum PlokyResolver.Outcome","name":"vote","type":"uint8"}],"name":"CommunityVoted","type":"event"},{"anonymous":false,"inputs":[{"indexed":true,"internalType":"bytes32","name":"qId","type":"bytes32"},{"indexed":true,"internalType":"address","name":"disputer","type":"address"},{"indexed":false,"internalType":"string","name":"reason","type":"string"},{"indexed":false,"internalType":"string","name":"cid","type":"string"},{"indexed":false,"internalType":"uint256","name":"bond","type":"uint256"}],"name":"DisputeRaised","type":"event"},{"anonymous":false,"inputs":[{"indexed":true,"internalType":"bytes32","name":"qId","type":"bytes32"},{"indexed":false,"internalType":"uint256","name":"index","type":"uint256"},{"indexed":false,"internalType":"string","name":"resolution","type":"string"},{"indexed":false,"internalType":"bool","name":"bondReturned","type":"bool"}],"name":"DisputeResolved","type":"event"},{"anonymous":false,"inputs":[{"indexed":true,"internalType":"bytes32","name":"qId","type":"bytes32"},{"indexed":false,"internalType":"enum PlokyResolver.EscalationStep","name":"fromStep","type":"uint8"},{"indexed":false,"internalType":"enum PlokyResolver.EscalationStep","name":"toStep","type":"uint8"}],"name":"EscalationAdvanced","type":"event"},{"anonymous":false,"inputs":[{"indexed":true,"internalType":"bytes32","name":"qId","type":"bytes32"},{"indexed":true,"internalType":"address","name":"submitter","type":"address"},{"indexed":false,"internalType":"string","name":"cid","type":"string"},{"indexed":false,"internalType":"enum PlokyResolver.EvidType","name":"t","type":"uint8"},{"indexed":false,"internalType":"uint256","name":"bond","type":"uint256"}],"name":"EvidenceSubmitted","type":"event"},{"anonymous":false,"inputs":[{"indexed":false,"internalType":"address","name":"account","type":"address"}],"name":"Paused","type":"event"},{"anonymous":false,"inputs":[{"indexed":true,"internalType":"bytes32","name":"qId","type":"bytes32"},{"indexed":false,"internalType":"string","name":"reason","type":"string"}],"name":"QuestionCancelled","type":"event"},{"anonymous":false,"inputs":[{"indexed":true,"internalType":"bytes32","name":"id","type":"bytes32"},{"indexed":false,"internalType":"string","name":"title","type":"string"},{"indexed":false,"internalType":"address","name":"creator","type":"address"},{"indexed":false,"internalType":"uint256","name":"deadline","type":"uint256"},{"indexed":false,"internalType":"string","name":"descCID","type":"string"},{"indexed":false,"internalType":"enum PlokyResolver.QuestionTier","name":"tier","type":"uint8"}],"name":"QuestionCreated","type":"event"},{"anonymous":false,"inputs":[{"indexed":true,"internalType":"bytes32","name":"qId","type":"bytes32"},{"indexed":false,"internalType":"address","name":"by","type":"address"},{"indexed":false,"internalType":"string","name":"reason","type":"string"}],"name":"QuestionFrozen","type":"event"},{"anonymous":false,"inputs":[{"indexed":true,"internalType":"bytes32","name":"qId","type":"bytes32"},{"indexed":false,"internalType":"address","name":"by","type":"address"}],"name":"QuestionUnfrozen","type":"event"},{"anonymous":false,"inputs":[{"indexed":false,"internalType":"uint256","name":"old_","type":"uint256"},{"indexed":false,"internalType":"uint256","name":"new_","type":"uint256"},{"indexed":false,"internalType":"address","name":"by","type":"address"}],"name":"QuorumChanged","type":"event"},{"anonymous":false,"inputs":[{"indexed":true,"internalType":"address","name":"r","type":"address"},{"indexed":false,"internalType":"uint256","name":"stake","type":"uint256"},{"indexed":false,"internalType":"address","name":"by","type":"address"}],"name":"ResolverAdded","type":"event"},{"anonymous":false,"inputs":[{"indexed":true,"internalType":"address","name":"r","type":"address"},{"indexed":false,"internalType":"address","name":"by","type":"address"}],"name":"ResolverRemoved","type":"event"},{"anonymous":false,"inputs":[{"indexed":true,"internalType":"address","name":"r","type":"address"},{"indexed":false,"internalType":"uint256","name":"amount","type":"uint256"},{"indexed":false,"internalType":"string","name":"reason","type":"string"}],"name":"ResolverSlashed","type":"event"},{"anonymous":false,"inputs":[{"indexed":true,"internalType":"bytes32","name":"role","type":"bytes32"},{"indexed":true,"internalType":"bytes32","name":"previousAdminRole","type":"bytes32"},{"indexed":true,"internalType":"bytes32","name":"newAdminRole","type":"bytes32"}],"name":"RoleAdminChanged","type":"event"},{"anonymous":false,"inputs":[{"indexed":true,"internalType":"bytes32","name":"role","type":"bytes32"},{"indexed":true,"internalType":"address","name":"account","type":"address"},{"indexed":true,"internalType":"address","name":"sender","type":"address"}],"name":"RoleGranted","type":"event"},{"anonymous":false,"inputs":[{"indexed":true,"internalType":"bytes32","name":"role","type":"bytes32"},{"indexed":true,"internalType":"address","name":"account","type":"address"},{"indexed":true,"internalType":"address","name":"sender","type":"address"}],"name":"RoleRevoked","type":"event"},{"anonymous":false,"inputs":[{"indexed":false,"internalType":"address","name":"token","type":"address"},{"indexed":false,"internalType":"address","name":"to","type":"address"},{"indexed":false,"internalType":"uint256","name":"amount","type":"uint256"}],"name":"StuckTokensWithdrawn","type":"event"},{"anonymous":false,"inputs":[{"indexed":false,"internalType":"address","name":"old_","type":"address"},{"indexed":false,"internalType":"address","name":"new_","type":"address"},{"indexed":false,"internalType":"address","name":"by","type":"address"}],"name":"TreasuryChanged","type":"event"},{"anonymous":false,"inputs":[{"indexed":false,"internalType":"address","name":"oracle","type":"address"}],"name":"UMAEnabled","type":"event"},{"anonymous":false,"inputs":[{"indexed":true,"internalType":"bytes32","name":"qId","type":"bytes32"},{"indexed":false,"internalType":"bytes32","name":"identifier","type":"bytes32"},{"indexed":false,"internalType":"uint256","name":"timestamp","type":"uint256"}],"name":"UMARequested","type":"event"},{"anonymous":false,"inputs":[{"indexed":false,"internalType":"address","name":"account","type":"address"}],"name":"Unpaused","type":"event"},{"anonymous":false,"inputs":[{"indexed":true,"internalType":"bytes32","name":"qId","type":"bytes32"},{"indexed":true,"internalType":"bytes32","name":"pid","type":"bytes32"},{"indexed":false,"internalType":"address","name":"approver","type":"address"},{"indexed":false,"internalType":"uint256","name":"count","type":"uint256"},{"indexed":false,"internalType":"uint256","name":"weight","type":"uint256"}],"name":"VerdictApproved","type":"event"},{"anonymous":false,"inputs":[{"indexed":true,"internalType":"bytes32","name":"qId","type":"bytes32"},{"indexed":false,"internalType":"enum PlokyResolver.Outcome","name":"outcome","type":"uint8"},{"indexed":false,"internalType":"string","name":"verdictCID","type":"string"},{"indexed":false,"internalType":"address","name":"executor","type":"address"},{"indexed":false,"internalType":"uint256","name":"ts","type":"uint256"}],"name":"VerdictExecuted","type":"event"},{"anonymous":false,"inputs":[{"indexed":true,"internalType":"bytes32","name":"qId","type":"bytes32"},{"indexed":true,"internalType":"bytes32","name":"pid","type":"bytes32"},{"indexed":false,"internalType":"enum PlokyResolver.Outcome","name":"outcome","type":"uint8"},{"indexed":false,"internalType":"address","name":"proposer","type":"address"},{"indexed":false,"internalType":"string","name":"reasonCID","type":"string"},{"indexed":false,"internalType":"uint256","name":"timelockEnds","type":"uint256"}],"name":"VerdictProposed","type":"event"},{"inputs":[],"name":"ADMIN_ROLE","outputs":[{"internalType":"bytes32","name":"","type":"bytes32"}],"stateMutability":"view","type":"function"},{"inputs":[],"name":"AI_ORACLE_ROLE","outputs":[{"internalType":"bytes32","name":"","type":"bytes32"}],"stateMutability":"view","type":"function"},{"inputs":[],"name":"ARBITER_ROLE","outputs":[{"internalType":"bytes32","name":"","type":"bytes32"}],"stateMutability":"view","type":"function"},{"inputs":[],"name":"AUTO_FREEZE_THRESHOLD","outputs":[{"internalType":"uint256","name":"","type":"uint256"}],"stateMutability":"view","type":"function"},{"inputs":[],"name":"DEFAULT_ADMIN_ROLE","outputs":[{"internalType":"bytes32","name":"","type":"bytes32"}],"stateMutability":"view","type":"function"},{"inputs":[],"name":"DISPUTE_BOND","outputs":[{"internalType":"uint256","name":"","type":"uint256"}],"stateMutability":"view","type":"function"},{"inputs":[],"name":"DISPUTE_WINDOW","outputs":[{"internalType":"uint256","name":"","type":"uint256"}],"stateMutability":"view","type":"function"},{"inputs":[],"name":"EVIDENCE_BOND","outputs":[{"internalType":"uint256","name":"","type":"uint256"}],"stateMutability":"view","type":"function"},{"inputs":[],"name":"MAX_REPUTATION","outputs":[{"internalType":"uint256","name":"","type":"uint256"}],"stateMutability":"view","type":"function"},{"inputs":[],"name":"MIN_EVIDENCE","outputs":[{"internalType":"uint256","name":"","type":"uint256"}],"stateMutability":"view","type":"function"},{"inputs":[],"name":"MIN_RESOLVER_STAKE","outputs":[{"internalType":"uint256","name":"","type":"uint256"}],"stateMutability":"view","type":"function"},{"inputs":[],"name":"RESOLVER_ROLE","outputs":[{"internalType":"bytes32","name":"","type":"bytes32"}],"stateMutability":"view","type":"function"},{"inputs":[],"name":"SLASH_PENALTY","outputs":[{"internalType":"uint256","name":"","type":"uint256"}],"stateMutability":"view","type":"function"},{"inputs":[],"name":"TIMELOCK_PERIOD","outputs":[{"internalType":"uint256","name":"","type":"uint256"}],"stateMutability":"view","type":"function"},{"inputs":[],"name":"VERDICT_BOND","outputs":[{"internalType":"uint256","name":"","type":"uint256"}],"stateMutability":"view","type":"function"},{"inputs":[],"name":"VERSION","outputs":[{"internalType":"uint256","name":"","type":"uint256"}],"stateMutability":"view","type":"function"},{"inputs":[],"name":"YES_OR_NO_IDENTIFIER","outputs":[{"internalType":"bytes32","name":"","type":"bytes32"}],"stateMutability":"view","type":"function"},{"inputs":[{"internalType":"bytes32","name":"","type":"bytes32"}],"name":"aiAnalyses","outputs":[{"internalType":"bytes32","name":"questionId","type":"bytes32"},{"internalType":"uint256","name":"confidenceScore","type":"uint256"},{"internalType":"enum PlokyResolver.Outcome","name":"recommendedOutcome","type":"uint8"},{"internalType":"string","name":"analysisCID","type":"string"},{"internalType":"uint256","name":"timestamp","type":"uint256"},{"internalType":"string","name":"aiModelVersion","type":"string"},{"internalType":"uint256","name":"sentimentScore","type":"uint256"},{"internalType":"uint256","name":"factCheckScore","type":"uint256"},{"internalType":"uint256","name":"biasScore","type":"uint256"}],"stateMutability":"view","type":"function"},{"inputs":[],"name":"aiConfidenceThreshold","outputs":[{"internalType":"uint256","name":"","type":"uint256"}],"stateMutability":"view","type":"function"},{"inputs":[{"internalType":"uint256","name":"","type":"uint256"}],"name":"allIds","outputs":[{"internalType":"bytes32","name":"","type":"bytes32"}],"stateMutability":"view","type":"function"},{"inputs":[{"internalType":"bytes32","name":"qId","type":"bytes32"},{"internalType":"bytes32","name":"pid","type":"bytes32"}],"name":"approveVerdict","outputs":[],"stateMutability":"nonpayable","type":"function"},{"inputs":[{"internalType":"bytes32","name":"qId","type":"bytes32"},{"internalType":"string","name":"reason","type":"string"}],"name":"cancelQuestion","outputs":[],"stateMutability":"nonpayable","type":"function"},{"inputs":[{"internalType":"bytes32","name":"qId","type":"bytes32"},{"internalType":"enum PlokyResolver.Outcome","name":"vote","type":"uint8"}],"name":"castCommunityVote","outputs":[],"stateMutability":"nonpayable","type":"function"},{"inputs":[{"internalType":"bytes32","name":"","type":"bytes32"},{"internalType":"address","name":"","type":"address"}],"name":"communityVotes","outputs":[{"internalType":"uint256","name":"","type":"uint256"}],"stateMutability":"view","type":"function"},{"inputs":[{"internalType":"string","name":"title","type":"string"},{"internalType":"string","name":"descCID","type":"string"},{"internalType":"string","name":"category","type":"string"},{"internalType":"uint256","name":"deadline","type":"uint256"},{"internalType":"enum PlokyResolver.QuestionTier","name":"tier","type":"uint8"}],"name":"createQuestion","outputs":[{"internalType":"bytes32","name":"id","type":"bytes32"}],"stateMutability":"nonpayable","type":"function"},{"inputs":[{"internalType":"bytes32","name":"","type":"bytes32"},{"internalType":"uint256","name":"","type":"uint256"}],"name":"disputes","outputs":[{"internalType":"bytes32","name":"questionId","type":"bytes32"},{"internalType":"address","name":"disputer","type":"address"},{"internalType":"string","name":"reason","type":"string"},{"internalType":"string","name":"evidenceCID","type":"string"},{"internalType":"uint256","name":"timestamp","type":"uint256"},{"internalType":"bool","name":"resolved","type":"bool"},{"internalType":"string","name":"resolution","type":"string"},{"internalType":"uint256","name":"bondAmount","type":"uint256"},{"internalType":"bool","name":"bondReturned","type":"bool"},{"internalType":"uint256","name":"disputeIndex","type":"uint256"}],"stateMutability":"view","type":"function"},{"inputs":[],"name":"emergencyPause","outputs":[],"stateMutability":"nonpayable","type":"function"},{"inputs":[],"name":"emergencyUnpause","outputs":[],"stateMutability":"nonpayable","type":"function"},{"inputs":[{"internalType":"address","name":"oracle","type":"address"}],"name":"enableUMA","outputs":[],"stateMutability":"nonpayable","type":"function"},{"inputs":[{"internalType":"bytes32","name":"","type":"bytes32"},{"internalType":"uint256","name":"","type":"uint256"}],"name":"evidence","outputs":[{"internalType":"string","name":"ipfsCID","type":"string"},{"internalType":"string","name":"description","type":"string"},{"internalType":"address","name":"submitter","type":"address"},{"internalType":"uint256","name":"timestamp","type":"uint256"},{"internalType":"enum PlokyResolver.EvidType","name":"evidenceType","type":"uint8"},{"internalType":"uint256","name":"bondAmount","type":"uint256"},{"internalType":"bool","name":"bondReturned","type":"bool"}],"stateMutability":"view","type":"function"},{"inputs":[{"internalType":"bytes32","name":"qId","type":"bytes32"}],"name":"executeVerdict","outputs":[],"stateMutability":"nonpayable","type":"function"},{"inputs":[{"internalType":"bytes32","name":"qId","type":"bytes32"}],"name":"finalizeCommunityVote","outputs":[],"stateMutability":"nonpayable","type":"function"},{"inputs":[{"internalType":"bytes32","name":"qId","type":"bytes32"},{"internalType":"string","name":"reason","type":"string"}],"name":"freezeQuestion","outputs":[],"stateMutability":"nonpayable","type":"function"},{"inputs":[{"internalType":"bytes32","name":"qId","type":"bytes32"}],"name":"getAIAnalysis","outputs":[{"components":[{"internalType":"bytes32","name":"questionId","type":"bytes32"},{"internalType":"uint256","name":"confidenceScore","type":"uint256"},{"internalType":"enum PlokyResolver.Outcome","name":"recommendedOutcome","type":"uint8"},{"internalType":"string","name":"analysisCID","type":"string"},{"internalType":"uint256","name":"timestamp","type":"uint256"},{"internalType":"string","name":"aiModelVersion","type":"string"},{"internalType":"uint256","name":"sentimentScore","type":"uint256"},{"internalType":"uint256","name":"factCheckScore","type":"uint256"},{"internalType":"uint256","name":"biasScore","type":"uint256"}],"internalType":"struct PlokyResolver.AIAnalysis","name":"","type":"tuple"}],"stateMutability":"view","type":"function"},{"inputs":[],"name":"getAllIds","outputs":[{"internalType":"bytes32[]","name":"","type":"bytes32[]"}],"stateMutability":"view","type":"function"},{"inputs":[{"internalType":"bytes32","name":"id","type":"bytes32"}],"name":"getDisputes","outputs":[{"components":[{"internalType":"bytes32","name":"questionId","type":"bytes32"},{"internalType":"address","name":"disputer","type":"address"},{"internalType":"string","name":"reason","type":"string"},{"internalType":"string","name":"evidenceCID","type":"string"},{"internalType":"uint256","name":"timestamp","type":"uint256"},{"internalType":"bool","name":"resolved","type":"bool"},{"internalType":"string","name":"resolution","type":"string"},{"internalType":"uint256","name":"bondAmount","type":"uint256"},{"internalType":"bool","name":"bondReturned","type":"bool"},{"internalType":"uint256","name":"disputeIndex","type":"uint256"}],"internalType":"struct PlokyResolver.Dispute[]","name":"","type":"tuple[]"}],"stateMutability":"view","type":"function"},{"inputs":[{"internalType":"bytes32","name":"id","type":"bytes32"}],"name":"getEvidence","outputs":[{"components":[{"internalType":"string","name":"ipfsCID","type":"string"},{"internalType":"string","name":"description","type":"string"},{"internalType":"address","name":"submitter","type":"address"},{"internalType":"uint256","name":"timestamp","type":"uint256"},{"internalType":"enum PlokyResolver.EvidType","name":"evidenceType","type":"uint8"},{"internalType":"uint256","name":"bondAmount","type":"uint256"},{"internalType":"bool","name":"bondReturned","type":"bool"}],"internalType":"struct PlokyResolver.Evidence[]","name":"","type":"tuple[]"}],"stateMutability":"view","type":"function"},{"inputs":[{"internalType":"bytes32","name":"pid","type":"bytes32"}],"name":"getProposal","outputs":[{"internalType":"enum PlokyResolver.Outcome","name":"outcome","type":"uint8"},{"internalType":"address","name":"proposer","type":"address"},{"internalType":"uint256","name":"proposedAt","type":"uint256"},{"internalType":"uint256","name":"timelockEndsAt","type":"uint256"},{"internalType":"string","name":"reasonCID","type":"string"},{"internalType":"uint256","name":"approvalCount","type":"uint256"},{"internalType":"bool","name":"executed","type":"bool"},{"internalType":"uint256","name":"totalWeight","type":"uint256"}],"stateMutability":"view","type":"function"},{"inputs":[{"internalType":"bytes32","name":"pid","type":"bytes32"}],"name":"getProposalWeight","outputs":[{"internalType":"uint256","name":"","type":"uint256"}],"stateMutability":"view","type":"function"},{"inputs":[{"internalType":"bytes32","name":"id","type":"bytes32"}],"name":"getQuestion","outputs":[{"components":[{"internalType":"bytes32","name":"id","type":"bytes32"},{"internalType":"string","name":"title","type":"string"},{"internalType":"string","name":"descriptionCID","type":"string"},{"internalType":"string","name":"category","type":"string"},{"internalType":"uint256","name":"createdAt","type":"uint256"},{"internalType":"uint256","name":"deadline","type":"uint256"},{"internalType":"address","name":"creator","type":"address"},{"internalType":"enum PlokyResolver.QStatus","name":"status","type":"uint8"},{"internalType":"enum PlokyResolver.Outcome","name":"outcome","type":"uint8"},{"internalType":"string","name":"verdictCID","type":"string"},{"internalType":"string","name":"verdictSummary","type":"string"},{"internalType":"uint256","name":"resolvedAt","type":"uint256"},{"internalType":"address","name":"resolvedBy","type":"address"},{"internalType":"uint256","name":"disputeCount","type":"uint256"},{"internalType":"bool","name":"frozen","type":"bool"},{"internalType":"bytes32","name":"activeProposalId","type":"bytes32"},{"internalType":"enum PlokyResolver.QuestionTier","name":"tier","type":"uint8"},{"internalType":"enum PlokyResolver.EscalationStep","name":"currentStep","type":"uint8"},{"internalType":"uint256","name":"aiConfidenceScore","type":"uint256"},{"internalType":"string","name":"aiAnalysisCID","type":"string"}],"internalType":"struct PlokyResolver.Question","name":"","type":"tuple"}],"stateMutability":"view","type":"function"},{"inputs":[{"internalType":"address","name":"r","type":"address"}],"name":"getResolver","outputs":[{"components":[{"internalType":"uint256","name":"reputationScore","type":"uint256"},{"internalType":"uint256","name":"totalResolved","type":"uint256"},{"internalType":"uint256","name":"correctResolutions","type":"uint256"},{"internalType":"uint256","name":"stakedAmount","type":"uint256"},{"internalType":"uint256","name":"slashCount","type":"uint256"},{"internalType":"bool","name":"isActive","type":"bool"},{"internalType":"uint256","name":"joinTimestamp","type":"uint256"},{"internalType":"uint256","name":"lastActivityTimestamp","type":"uint256"}],"internalType":"struct PlokyResolver.ResolverProfile","name":"","type":"tuple"}],"stateMutability":"view","type":"function"},{"inputs":[{"internalType":"address","name":"resolver","type":"address"}],"name":"getResolverWeight","outputs":[{"internalType":"uint256","name":"","type":"uint256"}],"stateMutability":"view","type":"function"},{"inputs":[{"internalType":"bytes32","name":"role","type":"bytes32"}],"name":"getRoleAdmin","outputs":[{"internalType":"bytes32","name":"","type":"bytes32"}],"stateMutability":"view","type":"function"},{"inputs":[{"internalType":"bytes32","name":"role","type":"bytes32"},{"internalType":"address","name":"account","type":"address"}],"name":"grantRole","outputs":[],"stateMutability":"nonpayable","type":"function"},{"inputs":[{"internalType":"bytes32","name":"pid","type":"bytes32"},{"internalType":"address","name":"r","type":"address"}],"name":"hasApproved","outputs":[{"internalType":"bool","name":"","type":"bool"}],"stateMutability":"view","type":"function"},{"inputs":[{"internalType":"bytes32","name":"","type":"bytes32"},{"internalType":"address","name":"","type":"address"}],"name":"hasDisputed","outputs":[{"internalType":"bool","name":"","type":"bool"}],"stateMutability":"view","type":"function"},{"inputs":[{"internalType":"bytes32","name":"role","type":"bytes32"},{"internalType":"address","name":"account","type":"address"}],"name":"hasRole","outputs":[{"internalType":"bool","name":"","type":"bool"}],"stateMutability":"view","type":"function"},{"inputs":[{"internalType":"bytes32","name":"","type":"bytes32"},{"internalType":"address","name":"","type":"address"}],"name":"hasVoted","outputs":[{"internalType":"bool","name":"","type":"bool"}],"stateMutability":"view","type":"function"},{"inputs":[],"name":"paused","outputs":[{"internalType":"bool","name":"","type":"bool"}],"stateMutability":"view","type":"function"},{"inputs":[],"name":"plkyToken","outputs":[{"internalType":"contract IPlokyToken","name":"","type":"address"}],"stateMutability":"view","type":"function"},{"inputs":[{"internalType":"bytes32","name":"","type":"bytes32"}],"name":"proposals","outputs":[{"internalType":"enum PlokyResolver.Outcome","name":"outcome","type":"uint8"},{"internalType":"address","name":"proposer","type":"address"},{"internalType":"uint256","name":"proposedAt","type":"uint256"},{"internalType":"uint256","name":"timelockEndsAt","type":"uint256"},{"internalType":"string","name":"reasonCID","type":"string"},{"internalType":"uint256","name":"approvalCount","type":"uint256"},{"internalType":"bool","name":"executed","type":"bool"},{"internalType":"uint256","name":"totalWeight","type":"uint256"}],"stateMutability":"view","type":"function"},{"inputs":[{"internalType":"bytes32","name":"qId","type":"bytes32"},{"internalType":"enum PlokyResolver.Outcome","name":"outcome","type":"uint8"},{"internalType":"string","name":"reasonCID","type":"string"},{"internalType":"string","name":"summary","type":"string"}],"name":"proposeVerdict","outputs":[],"stateMutability":"nonpayable","type":"function"},{"inputs":[{"internalType":"bytes32","name":"","type":"bytes32"}],"name":"questions","outputs":[{"internalType":"bytes32","name":"id","type":"bytes32"},{"internalType":"string","name":"title","type":"string"},{"internalType":"string","name":"descriptionCID","type":"string"},{"internalType":"string","name":"category","type":"string"},{"internalType":"uint256","name":"createdAt","type":"uint256"},{"internalType":"uint256","name":"deadline","type":"uint256"},{"internalType":"address","name":"creator","type":"address"},{"internalType":"enum PlokyResolver.QStatus","name":"status","type":"uint8"},{"internalType":"enum PlokyResolver.Outcome","name":"outcome","type":"uint8"},{"internalType":"string","name":"verdictCID","type":"string"},{"internalType":"string","name":"verdictSummary","type":"string"},{"internalType":"uint256","name":"resolvedAt","type":"uint256"},{"internalType":"address","name":"resolvedBy","type":"address"},{"internalType":"uint256","name":"disputeCount","type":"uint256"},{"internalType":"bool","name":"frozen","type":"bool"},{"internalType":"bytes32","name":"activeProposalId","type":"bytes32"},{"internalType":"enum PlokyResolver.QuestionTier","name":"tier","type":"uint8"},{"internalType":"enum PlokyResolver.EscalationStep","name":"currentStep","type":"uint8"},{"internalType":"uint256","name":"aiConfidenceScore","type":"uint256"},{"internalType":"string","name":"aiAnalysisCID","type":"string"}],"stateMutability":"view","type":"function"},{"inputs":[],"name":"quorumThreshold","outputs":[{"internalType":"uint256","name":"","type":"uint256"}],"stateMutability":"view","type":"function"},{"inputs":[{"internalType":"bytes32","name":"qId","type":"bytes32"},{"internalType":"string","name":"reason","type":"string"},{"internalType":"string","name":"evidCID","type":"string"}],"name":"raiseDispute","outputs":[],"stateMutability":"nonpayable","type":"function"},{"inputs":[{"internalType":"bytes32","name":"role","type":"bytes32"},{"internalType":"address","name":"callerConfirmation","type":"address"}],"name":"renounceRole","outputs":[],"stateMutability":"nonpayable","type":"function"},{"inputs":[{"internalType":"bytes32","name":"qId","type":"bytes32"}],"name":"requestUMAResolution","outputs":[],"stateMutability":"nonpayable","type":"function"},{"inputs":[{"internalType":"bytes32","name":"qId","type":"bytes32"},{"internalType":"uint256","name":"idx","type":"uint256"},{"internalType":"string","name":"res","type":"string"},{"internalType":"bool","name":"validDispute","type":"bool"}],"name":"resolveDispute","outputs":[],"stateMutability":"nonpayable","type":"function"},{"inputs":[],"name":"resolverCount","outputs":[{"internalType":"uint256","name":"","type":"uint256"}],"stateMutability":"view","type":"function"},{"inputs":[{"internalType":"uint256","name":"","type":"uint256"}],"name":"resolverList","outputs":[{"internalType":"address","name":"","type":"address"}],"stateMutability":"view","type":"function"},{"inputs":[{"internalType":"address","name":"","type":"address"}],"name":"resolvers","outputs":[{"internalType":"uint256","name":"reputationScore","type":"uint256"},{"internalType":"uint256","name":"totalResolved","type":"uint256"},{"internalType":"uint256","name":"correctResolutions","type":"uint256"},{"internalType":"uint256","name":"stakedAmount","type":"uint256"},{"internalType":"uint256","name":"slashCount","type":"uint256"},{"internalType":"bool","name":"isActive","type":"bool"},{"internalType":"uint256","name":"joinTimestamp","type":"uint256"},{"internalType":"uint256","name":"lastActivityTimestamp","type":"uint256"}],"stateMutability":"view","type":"function"},{"inputs":[{"internalType":"bytes32","name":"role","type":"bytes32"},{"internalType":"address","name":"account","type":"address"}],"name":"revokeRole","outputs":[],"stateMutability":"nonpayable","type":"function"},{"inputs":[{"internalType":"uint256","name":"threshold","type":"uint256"}],"name":"setAIThreshold","outputs":[],"stateMutability":"nonpayable","type":"function"},{"inputs":[{"internalType":"uint256","name":"q","type":"uint256"}],"name":"setQuorum","outputs":[],"stateMutability":"nonpayable","type":"function"},{"inputs":[{"internalType":"address","name":"_treasury","type":"address"}],"name":"setTreasury","outputs":[],"stateMutability":"nonpayable","type":"function"},{"inputs":[{"internalType":"bytes32","name":"qId","type":"bytes32"}],"name":"settleUMAResolution","outputs":[],"stateMutability":"nonpayable","type":"function"},{"inputs":[{"internalType":"address","name":"resolver","type":"address"},{"internalType":"uint256","name":"amount","type":"uint256"},{"internalType":"string","name":"reason","type":"string"}],"name":"slashResolver","outputs":[],"stateMutability":"nonpayable","type":"function"},{"inputs":[{"internalType":"uint256","name":"amount","type":"uint256"}],"name":"stakeAsResolver","outputs":[],"stateMutability":"nonpayable","type":"function"},{"inputs":[{"internalType":"bytes32","name":"qId","type":"bytes32"},{"internalType":"uint256","name":"confidenceScore","type":"uint256"},{"internalType":"enum PlokyResolver.Outcome","name":"recommendedOutcome","type":"uint8"},{"internalType":"string","name":"analysisCID","type":"string"},{"internalType":"uint256","name":"sentimentScore","type":"uint256"},{"internalType":"uint256","name":"factCheckScore","type":"uint256"},{"internalType":"uint256","name":"biasScore","type":"uint256"}],"name":"submitAIAnalysis","outputs":[],"stateMutability":"nonpayable","type":"function"},{"inputs":[{"internalType":"bytes32","name":"qId","type":"bytes32"},{"internalType":"string","name":"ipfsCID","type":"string"},{"internalType":"string","name":"description","type":"string"},{"internalType":"enum PlokyResolver.EvidType","name":"evidType","type":"uint8"}],"name":"submitEvidence","outputs":[],"stateMutability":"nonpayable","type":"function"},{"inputs":[{"internalType":"bytes4","name":"interfaceId","type":"bytes4"}],"name":"supportsInterface","outputs":[{"internalType":"bool","name":"","type":"bool"}],"stateMutability":"view","type":"function"},{"inputs":[],"name":"totalQuestions","outputs":[{"internalType":"uint256","name":"","type":"uint256"}],"stateMutability":"view","type":"function"},{"inputs":[],"name":"treasury","outputs":[{"internalType":"address","name":"","type":"address"}],"stateMutability":"view","type":"function"},{"inputs":[],"name":"umaEnabled","outputs":[{"internalType":"bool","name":"","type":"bool"}],"stateMutability":"view","type":"function"},{"inputs":[],"name":"umaOracle","outputs":[{"internalType":"contract IUMAOptimisticOracle","name":"","type":"address"}],"stateMutability":"view","type":"function"},{"inputs":[{"internalType":"bytes32","name":"qId","type":"bytes32"}],"name":"unfreezeQuestion","outputs":[],"stateMutability":"nonpayable","type":"function"},{"inputs":[{"internalType":"uint256","name":"amount","type":"uint256"}],"name":"unstakeAsResolver","outputs":[],"stateMutability":"nonpayable","type":"function"},{"inputs":[{"internalType":"address","name":"token","type":"address"},{"internalType":"uint256","name":"amount","type":"uint256"}],"name":"withdrawStuckTokens","outputs":[],"stateMutability":"nonpayable","type":"function"}],"evm":{"bytecode":{"linkReferences":{},"object":"6080346200016657601f6200788438819003918201601f19168301916001600160401b038311848410176200016b5780849260609460405283398101031262000166576200004d8162000181565b9060406200005e6020830162000181565b91015160017f9b779b17422d0df92223018b32b4d1fa46e071723d6817e2486d003becc55f0055612134600f55916001600160a01b03908116918215620001315716908115620000f95760018060a01b0319908160105416176010556012541617601255600e55620000d03362000196565b50620000dc3362000216565b50620000e833620002b8565b5060405161750e9081620003568239f35b60405162461bcd60e51b815260206004820152601060248201526f496e76616c696420747265617375727960801b6044820152606490fd5b60405162461bcd60e51b815260206004820152600d60248201526c24b73b30b634b2103a37b5b2b760991b6044820152606490fd5b600080fd5b634e487b7160e01b600052604160045260246000fd5b51906001600160a01b03821682036200016657565b6001600160a01b031660008181527fad3228b676f7d3cd4284a5443f17f1962b36e491b30a40b2405849e597ba5fb5602052604081205490919060ff166200021257818052816020526040822081835260205260408220600160ff198254161790553391600080516020620078648339815191528180a4600190565b5090565b6001600160a01b031660008181527f7d7ffb7a348e1c6a02869081a26547b49160dd3df72d1d75a570eb9b698292ec60205260408120549091907fa49807205ce4d355092ef5a8a18f56e8913cf4a201fbe287825b095693c217759060ff16620002b357808352826020526040832082845260205260408320600160ff1982541617905560008051602062007864833981519152339380a4600190565b505090565b6001600160a01b031660008181527f89777fffb7045c97177d1161cd08d871365cb73d0b18f242761255a7718434cf60205260408120549091907fbb08418a67729a078f87bbc8d02a770929bb68f5bfdf134ae2ead6ed38e2f4ae9060ff16620002b357808352826020526040832082845260205260408320600160ff1982541617905560008051602062007864833981519152339380a460019056fe61010080604052600436101561001457600080fd5b600090813560e01c90816301ffc9a7146164975750806308ee0005146162a857806309b3746e1461627b5780630adb6ca9146160155780630ba882c314615ff75780630dc7c70c14615fda5780630ff6d8fd14615f935780631c4c015514615eda578063200a3be114615bd157806323cdc3f114615b82578063248a9ca314615b565780632f2ff15d14615b1957806332ed5b1214615aac57806336568abe14615a6457806338e7ed0814615a185780633a8471f6146152a3578063430694cf146152335780634a4e3bd5146151c85780634a5bcbf8146151aa5780634a7221a0146150085780634c68ae6314614fe45780634d104adf14614fa95780634ecac43014614f8057806351858e2714614f265780635392c15714614e1f57806358c039cd14614a875780635c975abb14614a645780635f29e6be14614a415780635ff474c214614a18578063612f2a21146149d457806361d027b3146149ab57806362af3da3146146e057806365bdb2ec1461453d57806366cfa59914613de2578063692776ea14613da95780636c66f07d14613d6e578063712255ec14613d4a57806372b60afc1461395a57806372fad0661461324457806375b238fc1461320957806378d52fde146130ce57806378fab260146130a55780637b7a91dd146130875780637cdfcc0214612e135780637faa19f314612cb657806387db9a3e146126c25780639098b373146126a657806391d148541461265b57806395addb901461245857806395e8c13614612364578063a217fddf14612348578063a674b1971461232a578063aaa44e5c14612276578063aadc3b721461222a578063ac34645114612204578063ae5b545f14611abd578063aeb2a19f146119c9578063b70739c614611907578063b93793e91461187b578063bd61f0a614611756578063bea5b91414611738578063c0f8730214611714578063c1ba4e5914611665578063c35e452c146115b9578063c601f7af1461157e578063d19d36611461139a578063d213c0f21461137d578063d547741f1461133c578063ede25ad7146112db578063efb50135146110be578063f0f4426014611003578063f1e99f6614610fe7578063f51ac7ab14610507578063f585dc57146104e9578063f8bb87f114610477578063f98e1ff9146103c6578063ffa1ad74146103aa5763ffd703b71461037c57600080fd5b346103a75760203660031901126103a757602061039f61039a6164ec565b616e84565b604051908152f35b80fd5b50346103a757806003193601126103a757602060405160c88152f35b50346103a7577f7d4ea258f63db7bb769c68fd97437a0c9f2fce679e638112fad99c01514adc6c6103f6366168d5565b610401939293616964565b838552600260205261041b60046040872001541515616ee6565b8385526002602081815260408088206006908101805460ff60a01b1916600160a21b179055878952928252808820909201805460ff60a81b1916600160aa1b179055905181815292839261047192840191616ce2565b0390a280f35b50346103a7577fb8b67a3a7c2783f0eb7fc53165288f1b9597b04da28b2221f1b6b3c3f2591faa6104a7366168d5565b6104b2939293616964565b8385526002602052600c6040862001600160ff19825416179055610471604051928392338452604060208501526040840191616ce2565b50346103a757806003193601126103a75760206040516202a3008152f35b50346103a75760a03660031901126103a7576004356001600160401b038111610fe3576105389036906004016167bf565b906024356001600160401b038111610fdf576105589036906004016167bf565b92906044356001600160401b038111610fdb576105799036906004016167bf565b60036084969296351015610fd75761058f616d03565b8315610fa4576101188411610f6e576105a9821515616c0d565b426064351115610f29576301e133804201804211610f155760643511610edd576040516020810190858783376106076094828881013360601b60208201524260348201524660548201524360748201520360748101845201826165d9565b5190209586885260026020526004604089200154610ea35761065a90604051926106308461656b565b88845261063e36888a6165fa565b602085015261064e3686886165fa565b604085015236916165fa565b606082015242608082015260643560a08201523360c08201528660e08201528661010082015260405161068c816165a3565b8781526101208201526040516106a1816165a3565b8781526101408201528661016082015286610180820152866101a0820152866101c0820152866101e08201526106d86084356167ec565b60843561020082015286610220820152866102408201526040516106fb816165a3565b878152610260820152858752600260205260408720908051825560208101518051906001600160401b038211610ca75781906107478261073e6001880154616640565b60018801616c6a565b602090601f8311600114610e34578b92610e29575b50508160011b916000199060031b1c19161760018301555b60408101518051906001600160401b038211610ca75781906107a68261079d6002880154616640565b60028801616c6a565b602090601f8311600114610dba578b92610daf575b50508160011b916000199060031b1c19161760028301555b60608101518051906001600160401b038211610ca7578190610805826107fc6003880154616640565b60038801616c6a565b602090601f8311600114610d40578b92610d35575b50508160011b916000199060031b1c19161760038301555b6080810151600483015560a0810151600583015560c081015160068301805460e08401516108a7936001600160a01b03169061086d81616720565b61087681616720565b6001600160a81b03199092161760a09190911b60ff60a01b16178155610100830151906108a282616720565b616cbe565b6101208101518051906001600160401b038211610ca75781906108da826108d16007880154616640565b60078801616c6a565b602090601f8311600114610cc6578b92610cbb575b50508160011b916000199060031b1c19161760078301555b6101408101518051906001600160401b038211610ca757819061093a826109316008880154616640565b60088801616c6a565b602090601f8311600114610c38578b92610c2d575b50508160011b916000199060031b1c19161760088301555b6101608101516009830155600a820160018060a01b03610180830151166001600160601b0360a01b8254161790556101a0810151600b8301556109c06101c08201511515600c84019060ff801983541691151516179055565b6101e0810151600d830155600e82016102008201516109de816167ec565b6109e7816167ec565b81546102208401516004811015610c19579060ff61ff006102609695949360081b1692169061ffff191617179055610240810151600f8401550151908151906001600160401b038211610c0557601082910192610a4e82610a488654616640565b86616c6a565b602090601f8311600114610ba1578a92610b96575b50508160011b916000199060031b1c19161790555b600b54600160401b811015610b825792610b0a7f731dc1616ec6f75dae0ff18b928864e626cb6e808a72e7cd2be60c39d26e97f7936020989693610ac38760018b9901600b55616850565b81549060031b9089821b91600019901b1916179055610aef60405195869560a0875260a0870191616ce2565b91338b86015260643560408601528483036060860152616ce2565b610b156084356167ec565b60843560808301520390a2610b2b6084356167ec565b60843515610b3d575b50604051908152f35b81815260028352604090819020600601805460ff60a01b1916600560a01b1790558051600080825281850152829160008051602061749983398151915291a238610b34565b634e487b7160e01b87526041600452602487fd5b015190503880610a63565b848b5260208b209250601f1984168b5b818110610bed5750908460019594939210610bd4575b505050811b019055610a78565b015160001960f88460031b161c19169055388080610bc7565b92936020600181928786015181550195019301610bb1565b634e487b7160e01b89526041600452602489fd5b634e487b7160e01b8c52602160045260248cfd5b01519050388061094f565b9250600885018b5260208b20908b935b601f1984168510610c8c576001945083601f19811610610c73575b505050811b016008830155610967565b015160001960f88460031b161c19169055388080610c63565b81810151835560209485019460019093019290910190610c48565b634e487b7160e01b8a52604160045260248afd5b0151905038806108ef565b9250600785018b5260208b20908b935b601f1984168510610d1a576001945083601f19811610610d01575b505050811b016007830155610907565b015160001960f88460031b161c19169055388080610cf1565b81810151835560209485019460019093019290910190610cd6565b01519050388061081a565b9250600385018b5260208b20908b935b601f1984168510610d94576001945083601f19811610610d7b575b505050811b016003830155610832565b015160001960f88460031b161c19169055388080610d6b565b81810151835560209485019460019093019290910190610d50565b0151905038806107bb565b9250600285018b5260208b20908b935b601f1984168510610e0e576001945083601f19811610610df5575b505050811b0160028301556107d3565b015160001960f88460031b161c19169055388080610de5565b81810151835560209485019460019093019290910190610dca565b01519050388061075c565b9250600185018b5260208b20908b935b601f1984168510610e88576001945083601f19811610610e6f575b505050811b016001830155610774565b015160001960f88460031b161c19169055388080610e5f565b81810151835560209485019460019093019290910190610e44565b60405162461bcd60e51b8152602060048201526012602482015271223ab83634b1b0ba329038bab2b9ba34b7b760711b6044820152606490fd5b60405162461bcd60e51b815260206004820152601060248201526f2232b0b23634b732903a37b7903330b960811b6044820152606490fd5b634e487b7160e01b88526011600452602488fd5b60405162461bcd60e51b815260206004820152601a60248201527f446561646c696e65206d75737420626520696e206675747572650000000000006044820152606490fd5b60405162461bcd60e51b815260206004820152600e60248201526d5469746c6520746f6f206c6f6e6760901b6044820152606490fd5b60405162461bcd60e51b815260206004820152600b60248201526a456d707479207469746c6560a81b6044820152606490fd5b8680fd5b8580fd5b8380fd5b5080fd5b50346103a757806003193601126103a757602060405160018152f35b50346103a75760203660031901126103a75761101d6164ec565b611025616964565b6001600160a01b039081168015611087577f749a8050935feb73a55ab4641c867c4dacc84430990fcaada1d12ba9072ad02e9160609160125491816001600160601b0360a01b841617601255604051921682526020820152336040820152a180f35b60405162461bcd60e51b815260206004820152600f60248201526e496e76616c6964206164647265737360881b6044820152606490fd5b50346103a757602080600319360112610fe357600435906110dd616d86565b6110e5616d03565b683635c9adc5dea00000821061129e576010546040516323b872dd60e01b8152336004820152306024820152604481018490526001600160a01b0391839082906064908290899087165af1801561129357611147918691611266575b50616d39565b338452600982526040842060038101611161858254616c47565b905560058101805460ff1916600117905560068101805480611260575042905b5560074291015560008051602061747983398151915284528382526040842033600052825260ff60406000205416156111fc575b5060405191825233908201527f54e2805007919dee52f88694f4c6f06bfd679d5d9784ee95ae44f4ff9020523e60403392a260016000805160206174b98339815191525580f35b611205336169e6565b50600c54600160401b81101561124c578060016112259201600c55616803565b819291549060031b9133831b921b1916179055611243600d54616d77565b600d55386111b5565b634e487b7160e01b85526041600452602485fd5b90611181565b6112869150843d861161128c575b61127e81836165d9565b810190616d21565b38611141565b503d611274565b6040513d87823e3d90fd5b6064906040519062461bcd60e51b825260048201526016602482015275135a5b9a5b5d5b481cdd185ad9481c995c5d5a5c995960521b6044820152fd5b50346103a75760203660031901126103a7576004356112f8616964565b8082526002602052600c604083200160ff1981541690557fae8810c687c7c61215a3919fc6781795c6c0be077823dbe9b123996fd3aa082b6020604051338152a280f35b50346103a75760403660031901126103a75761137960043561135c616502565b908084528360205261137460016040862001546169c0565b616b98565b5080f35b50346103a757806003193601126103a75760206040516127108152f35b50346103a757602090816003193601126103a757906004358252600591828252604081209081546113ca81617441565b906113d860405192836165d9565b8082528482018094845285842084915b8383106114d35750505050604051938085019181865251809252604082818701971b8601019392955b82871061141e5785850386f35b909192938280600192603f1989820301855287519081518152848060a01b038383015116838201526114a1611478611465604085015161014080604087015285019061672a565b606080860151908583039086015261672a565b6080808501519084015260a08085015115159084015260c080850151908483039085015261672a565b9160e081015160e083015261010080820151151590830152610120809101519101529601920196019592919092611411565b600a8860019260409a97989a516114e981616518565b85548152848060a01b038587015416838201526115086002870161667a565b60408201526115196003870161667a565b6060820152600486015460808201528c60ff809188015416151560a08301526115446006880161667a565b60c0830152600787015460e083015260088701541615156101008201526009860154610120820152815201920192019190969493966113e8565b50346103a757806003193601126103a75760206040517f482648e7878e9fa54c0a2f67ffd22d00ebc37cf7a03e060e428d2ab0cd6735cc8152f35b50346103a75760203660031901126103a7576004356115d6616964565b612710811161162c57600f80549082905560408051918252602082019290925233918101919091527f79db36db82b401e84bad578e25b5069e451718a8758aa72cedf8a6d705e491b39080606081015b0390a180f35b60405162461bcd60e51b8152602060048201526011602482015270125b9d985b1a59081d1a1c995cda1bdb19607a1b6044820152606490fd5b50346103a75760203660031901126103a757600435611682616964565b80151580611708575b156116d257600e54604080519182526020820183905233908201527facbe3ea4c87f72eba6df80fc6e259f534f49edf4ae4b1bfff5cd9cd93b925a7a90606090a1600e5580f35b60405162461bcd60e51b815260206004820152600e60248201526d496e76616c69642071756f72756d60901b6044820152606490fd5b50600d5481111561168b565b50346103a757806003193601126103a757602060405168056bc75e2d631000008152f35b50346103a757806003193601126103a7576020600b54604051908152f35b50346103a75760403660031901126103a7576117706164ec565b3360009081527fad3228b676f7d3cd4284a5443f17f1962b36e491b30a40b2405849e597ba5fb560205260409020546024359060ff161561185c5760405163a9059cbb60e01b81523360048201526024810182905291602083604481876001600160a01b0386165af1928315611851577f0e191ee1e354192688af5ec7da0cc3d7f54ecb056e6418d42e73ddc4c37d3637936118129186916118395750616d39565b604080516001600160a01b0390921682523360208301528101919091528060608101611626565b611286915060203d811161128c5761127e81836165d9565b6040513d86823e3d90fd5b60405163e2517d3f60e01b815233600482015260006024820152604490fd5b50346103a75760203660031901126103a757610100906040906001600160a01b036118a46164ec565b1681526009602052208054906001810154906002810154600382015460048301549060ff6005850154169260076006860154950154956040519788526020880152604087015260608601526080850152151560a084015260c083015260e0820152f35b50346103a75761191636616887565b919081526003602052604081209081548310156103a75761199261193a84846168b9565b506119448161667a565b906119516001820161667a565b60018060a01b0360028301541691600381015460ff600483015416906119a060ff60066005860154950154169460405198899860e08a5260e08a019061672a565b9088820360208a015261672a565b94604087015260608601526119b4816167ec565b608085015260a0840152151560c08301520390f35b50346103a7576119d836616887565b9082526005602052604082208054821015611ab9576119f7925061689d565b50805460018201546001600160a01b031691611a156002820161667a565b611a216003830161667a565b91611aa1600482015460ff600584015416611a3e6006850161667a565b90611a87600786015497611a79600960ff60088a015416980154986040519c8d9c8d5260208d015260408c61014091829101528c019061672a565b908a820360608c015261672a565b926080890152151560a088015286820360c088015261672a565b9260e085015215156101008401526101208301520390f35b8280fd5b50346103a75760803660031901126103a7576001600160401b03604435818111611ab957611aef9036906004016167bf565b606492919235151560643503610fdf57611b07616d86565b611b0f616908565b60043584526005602052604084205460243510156121cf5760043584526005602052611b406024356040862061689d565b509160058301805460ff81166121975760ff19166001179055811161218357611b7981611b706006850154616640565b60068501616c6a565b8084601f821160011461211957859161210e575b508160011b906000198360031b1c19161760068301555b60643515611fc457601054600183015460405163a9059cbb60e01b81526001600160a01b039182166004820152680410d586a20a4c0000602482015291602091839160449183918a91165af1908115611293578591611fa5575b5015611f675760088201600160ff1982541617905560018060a01b036001830154167fb4f8e0b2d5a55a9eecc8e79ed079d1e2a8316b0c826ee836043af5defb111ab46080604051680410d586a20a4c0000815260406020820152600d60408201526c56616c6964206469737075746560981b6060820152a26004358452600260205260408420600360ff600683015460a01c16611c9b81616720565b14611d0f575b50611cea60ff60087fc5addcb5970870012a6dd9468cd494e0da2c83f94d4f510ec17ab0a307a27554945b01541693604051926024358452606060208501526060840191616ce2565b921515604082015280600435930390a260016000805160206174b98339815191525580f35b600a01546001600160a01b031680151580611f4f575b15611ca1579160405192611d38846165be565b602084527f56616c6964206469737075746520616761696e7374207265736f6c7574696f6e6020850152611d6a616d86565b611d72616908565b8086526009602052604086206003810154928315611f16578792611e1e926802b5e3af16b188000086811115611f015750683635c9adc5dea00000611db78780616df7565b80600384015560048301611dcb8154616d77565b9055611dd683616e24565b835510611ed8575b5060105460125460405163a9059cbb60e01b81526001600160a01b0391821660048201526024810188905294602092869216908290889082906044820190565b03925af1928315611851577fc5addcb5970870012a6dd9468cd494e0da2c83f94d4f510ec17ab0a307a2755497611cea96611e856008967fed9e5190e975aa4403c276297e605b40d5a99683c8d2482166c8efbd1a89265f9460ff9991611ebf5750616d39565b611ea1604051928392835260406020840152604083019061672a565b0390a260016000805160206174b98339815191525594505050611ca1565b611286915060203d60201161128c5761127e81836165d9565b600501805460ff19169055611eec81616aff565b50611ef8600d54616e04565b600d5538611dde565b611db7683635c9adc5dea00000918098616df7565b60405162461bcd60e51b815260206004820152601160248201527009cde40e6e8c2d6ca40e8de40e6d8c2e6d607b1b6044820152606490fd5b50808552600960205260036040862001541515611d25565b60405162461bcd60e51b815260206004820152601660248201527514995dd85c99081d1c985b9cd9995c8819985a5b195960521b6044820152606490fd5b611fbe915060203d60201161128c5761127e81836165d9565b38611bfe565b60105460125460078401805460405163a9059cbb60e01b81526001600160a01b0393841660048201526024810191909152919492909190602090829060449082908b908a165af19081156121035787916120e4575b50156120a75760088260ff927fe2cbfe201904cd941ca5c637d8f0d492af08888ee9ca4f81d1f757616f31ff7960807fc5addcb5970870012a6dd9468cd494e0da2c83f94d4f510ec17ab0a307a27554986001611cea98015416925460405190815260406020820152600f60408201526e496e76616c6964206469737075746560881b6060820152a2611ccc565b60405162461bcd60e51b815260206004820152601560248201527414d95a5e99481d1c985b9cd9995c8819985a5b1959605a1b6044820152606490fd5b6120fd915060203d60201161128c5761127e81836165d9565b38612019565b6040513d89823e3d90fd5b905083013538611b8d565b600684018652602086209150855b601f198416811061216b575082601f19811610612151575b5050600181811b016006830155611ba4565b840135600019600384901b60f8161c19169055388061213f565b90916020600181928589013581550193019101612127565b634e487b7160e01b84526041600452602484fd5b60405162461bcd60e51b815260206004820152601060248201526f105b1c9958591e481c995cdbdb1d995960821b6044820152606490fd5b60405162461bcd60e51b815260206004820152600d60248201526c092dcecc2d8d2c840d2dcc8caf609b1b6044820152606490fd5b50346103a757806003193601126103a757602060ff60115460a01c166040519015158152f35b50346103a75760403660031901126103a7576040612246616502565b9160043581526008602052209060018060a01b0316600052602052602060ff604060002054166040519015158152f35b50346103a757806003193601126103a7576040518091600b549081835260208093018092600b83527f0175b7a638427703f0dbe7bb9bbf987a2551717b34e79f33b5b1008d1fa01db990835b81811061231657505050846122d89103856165d9565b60405193838594850191818652518092526040850193925b8281106122ff57505050500390f35b8351855286955093810193928101926001016122f0565b8254845292860192600192830192016122c2565b50346103a757806003193601126103a7576020600d54604051908152f35b50346103a757806003193601126103a757602090604051908152f35b50346103a75760203660031901126103a75761237e6164ec565b612386616964565b6011549060ff8260a01c1661241d576001600160a01b03169081156123e9576001600160a81b0319168117600160a01b176011556040519081527f0b4f2f50c3998314bc5a2d80cfb92738911a03dd332990e845089915c12a7b4d90602090a180f35b60405162461bcd60e51b815260206004820152600c60248201526b5a65726f206164647265737360a01b6044820152606490fd5b60405162461bcd60e51b815260206004820152601360248201527215535048185b1c9958591e48195b98589b1959606a1b6044820152606490fd5b50346103a75760203660031901126103a75760043581526002602052604090208054906124876001820161667a565b60a0526124966002820161667a565b60c052806124a66003820161667a565b9260048201549360058301546006840154600785016124c49061667a565b6124d06008870161667a565b90600987015498600160a01b600190039384600a8a01541694600b8a015496600c8b015460ff1698600d8c01549a600e8d01549c600f01549d6010016125159061667a565b6080526040518060e052526102808060e0516020015260e0510160a0519061253c9161672a565b60e051808203906040015260c051906125549161672a565b60e05180820390606001526125689161672a565b9360e0516080015260e05160a00152811660e05160c001528060a01c60ff1661259081616720565b60e05160e0015260a81c60ff166125a681616720565b60e051610100015260e0518082039061012001526125c39161672a565b60e0518082039061014001526125d89161672a565b9660e051610160015260e051610180015260e0516101a00152151560e0516101c0015260e0516101e0015260ff8116612610816167ec565b60e051610200015260e051610220019060081c60ff1690612630916167f6565b60e051610240015260e05180820390610260015260e05190608051906126559161672a565b0360e051f35b50346103a75760403660031901126103a7576040612677616502565b91600435815280602052209060018060a01b0316600052602052602060ff604060002054166040519015158152f35b50346103a757806003193601126103a757602060405160038152f35b50346103a75760803660031901126103a7576024356001600160401b038111610fe3576126f39036906004016167bf565b906044356001600160401b038111610fdf576127139036906004016167bf565b60036064939293351015612cb257612729616d86565b612731616d03565b6004358552600260205261274d60046040872001541515616ee6565b6004358552600260205261276b60ff600c60408820015416156170d8565b6004358552600260205260ff600660408720015460a01c1661278c81616720565b8015908115612c9d575b8115612c88575b8115612c74575b5015612c3d576127b5841515616c0d565b60648411612c0957601054604051636eb1769f60e11b8152336004820152306024820152678ac7230489e8000094916001600160a01b031690602081604481855afa8015612bfe5786918991612bc4575b5010612bbb576040516323b872dd60e01b81523360048201523060248201526044810186905290602090829060649082908b905af1801561210357612852918891612b9c575b50617119565b6004358652600360205261288560408720916040519361287185616534565b61287c3689886165fa565b855236916165fa565b60208301523360408301524260608301526128a16064356167ec565b60643560808301528360a08301528560c0830152805490600160401b821015610b8257906128d4916001820181556168b9565b919091612b885780518051906001600160401b038211612b00578190612904826128fe8754616640565b87616c6a565b602090601f8311600114612b1f578992612b14575b50508160011b916000199060031b1c19161782555b60208101518051906001600160401b038211612b005761295e826129556001870154616640565b60018701616c6a565b602090601f8311600114612a8657612a109383612a2297969460069460c0948d92612a7b575b50508160011b916000199060031b1c19161760018501555b6002840160018060a01b036040830151166001600160601b0360a01b825416179055606081015160038501556004840160808201516129da816167ec565b6129e3816167ec565b60ff8019835416911617905560a081015160058501550151151591019060ff801983541691151516179055565b60405193606085526060850191616ce2565b90612a2e6064356167ec565b606435602084015260408301527facd0e7117719d795fbb07b0714f8d273e84a06e7d4601d1ede596603e48a637f339280600435930390a360016000805160206174b98339815191525580f35b015190503880612984565b906001850189526020892091895b601f1985168110612ae857509360018460069460c094612a1098612a229b9a98601f19811610612acf575b505050811b01600185015561299c565b015160001960f88460031b161c19169055388080612abf565b91926020600181928685015181550194019201612a94565b634e487b7160e01b88526041600452602488fd5b015190503880612919565b9250848952602089209089935b601f1984168510612b6d576001945083601f19811610612b54575b505050811b01825561292e565b015160001960f88460031b161c19169055388080612b47565b81810151835560209485019460019093019290910190612b2c565b634e487b7160e01b86526004869052602486fd5b612bb5915060203d60201161128c5761127e81836165d9565b3861284c565b50859350612852565b9150506020813d602011612bf6575b81612be0602093836165d9565b81010312612bf15785905138612806565b600080fd5b3d9150612bd3565b6040513d8a823e3d90fd5b60405162461bcd60e51b815260206004820152600c60248201526b43494420746f6f206c6f6e6760a01b6044820152606490fd5b60405162461bcd60e51b815260206004820152600f60248201526e145d595cdd1a5bdb8818db1bdcd959608a1b6044820152606490fd5b60069150612c8181616720565b14386127a4565b9050612c9381616720565b600581149061279d565b9050612ca881616720565b6001811490612796565b8480fd5b50346103a757602090816003193601126103a7576040805191612cd883616587565b80835280848401528082840152606080840152806080840152606060a08401528060c08401528060e08401528061010080940152600435815260068452209060405191612d2483616587565b80548352600181015484840190815260ff600283015416926040850193612d4a81616720565b8452612d586003840161667a565b9260608601938452612dfe600482015460808801908152612d7b6005840161667a565b9560a0890196875260068401549760c08a01988952600860078601549560e08c01968752015496868b019788526040519b8c9b818d5251908c01525160408b015251612dc681616720565b60608a01525195612de5610120978860808c01526101408b019061672a565b915160a08a015251888203601f190160c08a015261672a565b945160e0870152519085015251908301520390f35b50346103a75760403660031901126103a7576004356024356007811015611ab957612e3c616d86565b612e44616d03565b81835260209060028252612e6060046040862001541515616ee6565b82845260028252612e7b60ff600c60408720015416156170d8565b82845260028252612ea3600660ff8160408820015460a01c16612e9d81616720565b1461715c565b612eac81616720565b600181148015613074575b1561304057828452600882526040842033600052825260ff6040600020541661300b576010546040516370a0823160e01b8152336004820152908390829060249082906001600160a01b03165afa908115611293578591612fde575b508015612fa757916060917f20b295c42b4d6cf36cea7092f92052d23220cc3649dc9b353a9ec563db6b74e59385875260088352604087203360005283526040600020600160ff19825416179055858752600a8352604087203360005283528060406000205560405192338452830152612f8c81616720565b6040820152a260016000805160206174b98339815191525580f35b60405162461bcd60e51b815260048101849052600f60248201526e4e6f20504c4b5920746f20766f746560881b6044820152606490fd5b90508281813d8311613004575b612ff581836165d9565b81010312612bf1575138612f13565b503d612feb565b60405162461bcd60e51b815260048101839052600d60248201526c105b1c9958591e481d9bdd1959609a1b6044820152606490fd5b60405162461bcd60e51b815260048101839052600c60248201526b496e76616c696420766f746560a01b6044820152606490fd5b5061307e81616720565b60028114612eb7565b50346103a757806003193601126103a7576020600e54604051908152f35b50346103a757806003193601126103a75760206040516000805160206174798339815191528152f35b50346103a75760203660031901126103a75760043580825260026020526130fd60046040842001541515616ee6565b808252600260205260408220906006820191825490613127600660ff8460a01c16612e9d81616720565b60048101546201518081018091116131f55742106131b957600e90837f235b7a8c5cc4b155456db1cadfa05f9e87cb669dc56b69e2c4fd6091d301023f606060405160028152896020820152896040820152a2019283549160ff831661318c816167ec565b6131a05750505061319d9150616f7c565b80f35b60ff60a01b1916905561ff001916610200179091555080f35b60405162461bcd60e51b8152602060048201526014602482015273566f74696e6720706572696f642061637469766560601b6044820152606490fd5b634e487b7160e01b86526011600452602486fd5b50346103a757806003193601126103a75760206040517fa49807205ce4d355092ef5a8a18f56e8913cf4a201fbe287825b095693c217758152f35b50346103a75760803660031901126103a757600760243510156103a7576044356001600160401b038111610fe3576132809036906004016167bf565b91906064356001600160401b038111611ab9576132a19036906004016167bf565b90936132ab616d86565b33845260096020526132c660ff6005604087200154166171a0565b33845260096020526132ea683635c9adc5dea0000060036040872001541015616db6565b6132f2616d03565b6004358452600260205261330e60046040862001541515616ee6565b6004358452600260205261332c60ff600c60408720015416156170d8565b60043584526002602052604084209260ff600685015460a01c1661334f81616720565b61392a5761335e602435616720565b602435151580613912575b806138fa575b156138c357811561388e5760043585526003602052600160408620541061385957600e84015460ff8160081c1660048110156138455760021490811561382e575b50156137fc576010546040516323b872dd60e01b815233600482015230602482015268056bc75e2d63100000604482015290602090829060649082908a906001600160a01b03165af19081156137f15790613411918791612b9c5750617119565b6040516004356020820152613427602435616720565b60243560f81b60408201523360601b6041820152426055820152436075820152607581528060a08101106001600160401b0360a0830111176137db5760a0810160405260208151910120918286526004602052604086209361348b60243586616f64565b8454610100600160a81b0319163360081b610100600160a81b03161785554260018601819055620151808101106137c75762015180420160028601556001600160401b038211610b82576134e6826107fc6003880154616640565b8187601f821160011461375d578891613752575b508260011b906000198460031b1c19161760038601555b600160048601553360005260078501602052604060002060ff19906001828254161790556005860190815416905561354833616e84565b3360005260088601602052806040600020556006860155600160a01b60ff60a01b1960068801541617600687015583600d8701556001600160401b038111610b82576135a48161359b6008890154616640565b60088901616c6a565b86601f82116001146136bf5790807f5141bef9784de07e10f623a11fc3522b473590ce0e5612f3f38907d30b6d9dd29392899a6006999a926136b4575b50508160011b916000199060031b1c19161760088801555b338852600960205242600760408a20015561363e60028601549360405192613622602435616720565b6024358452336020850152608060408501526080840191616ce2565b92606082015280600435930390a30154600e54600d5480156136a05790613669916127100490616e11565b1115613686575b5060016000805160206174b98339815191525580f35b600601805460ff60a01b1916600160a11b17905538613670565b634e487b7160e01b85526012600452602485fd5b0135905038806135e1565b6008870188526020882090885b601f198416811061373a575091600191600698999a7f5141bef9784de07e10f623a11fc3522b473590ce0e5612f3f38907d30b6d9dd2959483601f19811610613720575b505050811b0160088801556135f9565b0135600019600384901b60f8161c19169055388080613710565b9091602060018192858e0135815501930191016136cc565b9050830135386134fa565b600387018952602089209150885b601f19851681106137af575083601f19811610613795575b5050600182811b016003860155613511565b840135600019600385901b60f8161c191690553880613783565b9091602060018192858901358155019301910161376b565b634e487b7160e01b87526011600452602487fd5b634e487b7160e01b600052604160045260246000fd5b6040513d88823e3d90fd5b60405162461bcd60e51b815260206004820152600a602482015269057726f6e6720737465760b41b6044820152606490fd5b6002915060ff1661383e816167ec565b14386133b0565b634e487b7160e01b87526021600452602487fd5b60405162461bcd60e51b815260206004820152600d60248201526c4e6565642065766964656e636560981b6044820152606490fd5b60405162461bcd60e51b815260206004820152600d60248201526c139bc81c99585cdbdb8810d251609a1b6044820152606490fd5b60405162461bcd60e51b815260206004820152600f60248201526e496e76616c6964206f7574636f6d6560881b6044820152606490fd5b50613906602435616720565b6006602435141561336f565b5061391e602435616720565b60056024351415613369565b60405162461bcd60e51b81526020600482015260086024820152672737ba1037b832b760c11b6044820152606490fd5b50346103a757602090816003193601126103a757600435613979616d86565b613981616d03565b808252600280845261399b60046040852001541515616ee6565b81835280845260ff6139b681600c60408720015416156170d8565b828452818552604084209160068301908083835460a01c166139d781616720565b03613d1357600d840154808752600488526040872092828401544210613cdc576006840154600e54600d548015613cc85790613a17916127100490616e11565b11613c9457600584018054868116613c695760ff19166001179055805460ff60a01b1916600360a01b1781558354613a529190861690616cbe565b600a6003840195613a6687600783016171e5565b42600982015501336001600160601b0360a01b82541617905580875260048852604087209160018060a01b0392839182825460081c168a5260098b52600160408b2001613ab38154616d77565b905581546003888216613ac581616720565b03613c1f575b50505050865260048752604086209080601054169181815460081c166040519063a9059cbb60e01b8252600482015289816044818c68056bc75e2d63100000988960248401525af1908115613c14578991613bf7575b5015613bbd576000805160206174598339815191529697989260407fb4f8e0b2d5a55a9eecc8e79ed079d1e2a8316b0c826ee836043af5defb111ab4936080935460081c16948151928352820152601060408201526f15995c991a58dd08195e1958dd5d195960821b6060820152a25416613ba560405192839242913391856172bd565b0390a260016000805160206174b98339815191525580f35b60405162461bcd60e51b8152600481018a90526012602482015271109bdb99081c995d1d5c9b8819985a5b195960721b6044820152606490fd5b613c0e91508a3d8c1161128c5761127e81836165d9565b38613b21565b6040513d8b823e3d90fd5b839060081c168a5260098b5260408a2001613c3a8154616d77565b90555460081c1680885260098952613c5460408920616e24565b90885260098952604088205581388080613acb565b60405162461bcd60e51b815260048082018d9052602482015263446f6e6560e01b6044820152606490fd5b60405162461bcd60e51b8152600481018a9052600c60248201526b556e6465722071756f72756d60a01b6044820152606490fd5b634e487b7160e01b8b52601260045260248bfd5b60405162461bcd60e51b8152600481018a9052600f60248201526e54696d656c6f636b2061637469766560881b6044820152606490fd5b60405162461bcd60e51b815260048101889052600f60248201526e4e6f7420696e2074696d656c6f636b60881b6044820152606490fd5b50346103a757806003193601126103a7576020604051683635c9adc5dea000008152f35b50346103a757806003193601126103a75760206040517f079f8a4099c742da5530b52d1bb648fc05fdd82941a0db55645d2eceb3ab801b8152f35b50346103a75760203660031901126103a75760043590600b548210156103a7576020613dd483616850565b90546040519160031b1c8152f35b50346103a75760e03660031901126103a757600760443510156103a7576064356001600160401b038111610fe357613e1e9036906004016167bf565b3360009081527fc1c604b5add75b59252bca1e4e4ec4ab21f3921b1ddcf7a43abe69724bce555d6020526040902054909291907f482648e7878e9fa54c0a2f67ffd22d00ebc37cf7a03e060e428d2ab0cd6735cc9060ff161561451f575060043582526002602052613e9860046040842001541515616ee6565b6024926127108435116144e65780156144b9576004358352600260205260408320613ee260ff600683015460a01c16613ed081616720565b600581149081156144a7575b50616f27565b604051613eee81616587565b6004358152602081019086358252613f07604435616720565b604081016044358152613f93613f1e3687896165fa565b9160608401928352426080850152604051613f38816165be565b6004815263076322e360e41b602082015260a085015260843560c085015260a43560e085015260c4356101008501526004358952600660205260408920948451865551600186015551613f8a81616720565b60028501616f64565b518051906001600160401b03821161441a578190613fb8826107fc6003880154616640565b602090601f831160011461443857899261442d575b50508160011b916000199060031b1c19161760038301555b6080810151600483015560a08101518051906001600160401b03821161441a5761401f826140166005870154616640565b60058701616c6a565b602090601f83116001146143a757918060089492610100948b9261439c575b50508160011b916000199060031b1c19161760058501555b60c0810151600685015560e0810151600785015501519101558435600f8201556001600160401b0382116143885761409e826140956010840154616640565b60108401616c6a565b8184601f82116001146143175791600e9160ff93879161430c575b508460011b906000198660031b1c19161760108201555b604051873581526140e2604435616720565b6044356020820152606060408201527f03162616fc702da032b25b5caa9cfd7eefb5ca67d65b974f97fe1e509a77614a600435918061412560608201898b616ce2565b0390a2015416614134816167ec565b15806142ff575b156142f0579061414c9136916165fa565b600435825260026020526040822060068101805460ff60a01b1916600360a01b17815561417c9060443590616cbe565b600781018251946001600160401b0386116142de57506141a6856141a08354616640565b83616c6a565b6020601f86116001146142795794808596600e95969161426e575b508160011b916000199060031b1c19161790555b426009820155600a810180546001600160a01b0319163017905501805461ff001916905560405190600080516020617459833981519152906142329061421c604435616720565b604435845260806020850152608084019061672a565b9130604082015242606082015280600435930390a26040516000815260006020820152600080516020617499833981519152604060043592a280f35b9050850151386141c1565b8185526020852090601f198716865b8181106142c65750918791600e969798600194106142ad575b5050811b0190556141d5565b87015160001960f88460031b161c1916905538806142a1565b9192602060018192868a015181550194019201614288565b634e487b7160e01b8552604160045284fd5b5050905061319d600435616f7c565b50600f548435101561413b565b9050850135386140b9565b601083018652602086209150855b601f1985168110614370575091600e9160ff9385601f19811610614356575b5050600184811b0160108201556140d0565b860135600019600387901b60f8161c191690553880614344565b90916020600181928589013581550193019101614325565b5050634e487b7160e01b8252506041600452fd5b01519050388061403e565b906005850189526020892091895b601f1985168110614402575092600894926001926101009583601f198116106143e9575b505050811b016005850155614056565b015160001960f88460031b161c191690553880806143d9565b919260206001819286850151815501940192016143b5565b634e487b7160e01b885260416004528888fd5b015190503880613fcd565b9250600385018952602089209089935b601f198416851061448c576001945083601f19811610614473575b505050811b016003830155613fe5565b015160001960f88460031b161c19169055388080614463565b81810151835560209485019460019093019290910190614448565b90506144b281616720565b1538613edc565b60405162461bcd60e51b81526020600482015260068186015265139bc810d25160d21b6044820152606490fd5b60405162461bcd60e51b81526020600482015260128186015271496e76616c696420636f6e666964656e636560701b6044820152606490fd5b6044906040519063e2517d3f60e01b82523360048301526024820152fd5b50346103a757602080600319360112610fe35760043561455b616d86565b33835260098252604083206003810180549061457984831015616db6565b683635c9adc5dea00000918261458f8683616df7565b108015906146d7575b156146a257926145f49285926145b089978997616df7565b8091551061464e575b5060105460405163a9059cbb60e01b81523360048201526024810192909252909384926001600160a01b039092169183919082906044820190565b03925af190811561464357614611928492614626575b5050616d39565b60016000805160206174b98339815191525580f35b61463c9250803d1061128c5761127e81836165d9565b388061460a565b6040513d85823e3d90fd5b600501805460ff1916905561466233616aff565b5061466e600d54616e04565b600d556040513381527fac03556895e66a64a8c5388670b854f2097fd3a74d8a8af8b7d6755269f16d19843392a2386145b9565b60405162461bcd60e51b815260048101879052600d60248201526c42656c6f77206d696e696d756d60981b6044820152606490fd5b50808514614598565b50346103a75760403660031901126103a75760043560248035614701616d86565b3384526020906009825261471e60ff6005604088200154166171a0565b33855260098252614741683635c9adc5dea0000060036040882001541015616db6565b614749616d03565b8385526002825261476260046040872001541515616ee6565b8385526002825261477d60ff600c60408820015416156170d8565b8385526002825260408520936006850194600160ff875460a01c166147a181616720565b0361497857600d839101540361494357818652600483526040862092600784013360005280825260ff6040600020541661490e5760ff6005860154166148df577fcecc42ad27bb3d523ae3a1d6143c96711339f6dd07b50c1d0c85b64e55993f609160609161480f33616e84565b903360005282526040600020600160ff19825416179055600660048801976148378954616d77565b895533600052600881018452826040600020550196614857828954616c47565b8855338b526009835242600760408d20015554604051923384528301526040820152a35490600e5490600d549081156148cd57509061489a916127100490616e11565b11156148b6575060016000805160206174b98339815191525580f35b805460ff60a01b1916600160a11b17905538613670565b634e487b7160e01b8652601260045285fd5b60405162461bcd60e51b81526004810183905260088188015267115e1958dd5d195960c21b6044820152606490fd5b60405162461bcd60e51b815260048101839052600e818801526d105b1c9958591e481cda59db995960921b6044820152606490fd5b60405162461bcd60e51b815260048101849052600e818601526d15dc9bdb99c81c1c9bdc1bdcd85b60921b6044820152606490fd5b60405162461bcd60e51b815260048101859052600c818701526b139bdd081c1c9bdc1bdcd95960a21b6044820152606490fd5b50346103a757806003193601126103a7576012546040516001600160a01b039091168152602090f35b50346103a75760203660031901126103a75760043590600c548210156103a75760206149ff83616803565b905460405160039290921b1c6001600160a01b03168152f35b50346103a757806003193601126103a7576011546040516001600160a01b039091168152602090f35b50346103a757806003193601126103a7576020604051678ac7230489e800008152f35b50346103a757806003193601126103a757602060ff600154166040519015158152f35b50346103a75760203660031901126103a75760409060606102608351614aac8161656b565b838152826020820152828582015282808201528360808201528360a08201528360c08201528360e08201528361010082015282610120820152826101408201528361016082015283610180820152836101a0820152836101c0820152836101e082015283610200820152836102208201528361024082015201526004358152600260205220604051614b3d8161656b565b81548152614b4d6001830161667a565b6020820152614b5e6002830161667a565b6040820152614b6f6003830161667a565b606082015260048201546080820152600582015460a082015260ff600683015460018060a01b03811660c0840152614bab828260a01c16616720565b818160a01c1660e0840152614bc4828260a81c16616720565b60a81c16610100820152614bda6007830161667a565b610120820152614bec6008830161667a565b6101408201526009820154610160820152600a8201546001600160a01b0316610180820152600b8201546101a0820152600c82015460ff90811615156101c0830152600d8301546101e0830152600e8301549290614c4b9084166167ec565b60ff8316610200830152600460ff8460081c161015614e09576010614c8b9160ff614e059560081c16610220850152600f8101546102408501520161667a565b6102608201526040519182916020835280516020840152610260614d77614d5f614cf8614ce2614ccc602087015161028060408b01526102a08a019061672a565b6040870151898203601f190160608b015261672a565b6060860151888203601f190160808a015261672a565b608085015160a088015260a085015160c088015260018060a01b0360c08601511660e088015260e0850151614d2c81616720565b610100880152610100850151614d4181616720565b610120880152610120850151601f198883030161014089015261672a565b610140840151868203601f190161016088015261672a565b9161016081015161018086015260018060a01b03610180820151166101a08601526101a08101516101c08601526101c081015115156101e08601526101e0810151610200860152610200810151614dcd816167ec565b610220860152614de76102208201516102408701906167f6565b610240810151858301520151838203601f190161028085015261672a565b0390f35b634e487b7160e01b600052602160045260246000fd5b50346103a75760203660031901126103a757604061010091614e3f6164ec565b8160e08451614e4d8161654f565b82815282602082015282868201528260608201528260808201528260a08201528260c0820152015260018060a01b03168152600960205220604051614e918161654f565b8154918282526001810154602083019081526002820154604084019081526003830154606085019081526004840154916080860192835260ff6005860154169360a08701941515855260e0600760068801549760c08a019889520154970196875260405197885251602088015251604087015251606086015251608085015251151560a08401525160c08301525160e0820152f35b50346103a757806003193601126103a757614f3f616964565b614f47616d03565b600160ff19815416176001557f62e78cea01bee320cd4e420270b5ea74000d11b0c9f74754ebdbfc544b05a2586020604051338152a180f35b50346103a757806003193601126103a7576010546040516001600160a01b039091168152602090f35b50346103a757806003193601126103a75760206040517fbb08418a67729a078f87bbc8d02a770929bb68f5bfdf134ae2ead6ed38e2f4ae8152f35b50346103a757806003193601126103a75760206040516802b5e3af16b18800008152f35b50346103a757602080600319360112610fe3579060043581526003908183526040812090815461503781617441565b9361504560405195866165d9565b81855285850190819484528684209084925b848410615120575050505050604051928484019085855251809152604084019460408260051b8601019392955b8287106150915785850386f35b909192938280600192603f198982030185528751906150cc6150bc835160e0845260e084019061672a565b848401518382038685015261672a565b91858060a01b03604082015116604083015260608082015190830152608080820151906150f8826167ec565b83015260a0808201519083015260c08091015115159101529601920196019592919092615084565b60078960019260409b9a989b5161513681616534565b61513f8761667a565b815261514c85880161667a565b83820152848060a01b03600288015416604082015285870154606082015260ff8060048901541661517c816167ec565b6080830152600588015460a0830152600688015416151560c082015281520193019301929197949697615057565b50346103a757806003193601126103a7576020604051620151808152f35b50346103a757806003193601126103a7576151e1616964565b60015460ff8116156152215760ff19166001557f5db9ee0a495bf2e6ff9c91a7834c1ba4fdd244a5e8aa4e537bd38aeae4b073aa6020604051338152a180f35b604051638dfc202b60e01b8152600490fd5b50346103a75760203660031901126103a75760409060043581526004602052208054614e056001830154926002810154600482015460ff6005840154169161528260036006860154950161667a565b604051978897919291600881901c6001600160a01b03169060ff168961676a565b50346103a75760603660031901126103a7576024356001600160401b038111610fe3576152d49036906004016167bf565b6044929192356001600160401b038111611ab9576152f69036906004016167bf565b6152fe616d86565b615306616d03565b6004358452600260205261532260046040862001541515616ee6565b60043584526007602052604084203360005260205260ff604060002054166159e05782156159af5760043584526002602052604084209460ff600687015460a01c1661536d81616720565b6001811490811561599a575b8115615985575b8115615950575b501561591a576010546040516323b872dd60e01b81523360048201523060248201526802b5e3af16b1880000604482015290602090829060649082908a906001600160a01b03165af19081156137f157906153e8918791612b9c5750617119565b6004358552600760205260408520336000526020526040600020600160ff1982541617905561541a600b870154616d77565b600b87015560043585526005602052604085209586546040519761543d89616518565b60043589523360208a01526154533688866165fa565b60408a01526154633686886165fa565b60608a01524260808a01528760a08a0152604051615480816165a3565b88815260c08a01526802b5e3af16b188000060e08a0152876101008a0152816101208a0152600160401b821015612b0057906154c19160018201815561689d565b61590657875181556001810160018060a01b0360208a0151166001600160601b0360a01b82541617905560408801518051906001600160401b038211610c0557819061551d826155146002870154616640565b60028701616c6a565b602090601f8311600114615897578a9261588c575b50508160011b916000199060031b1c19161760028201555b60608801518051906001600160401b038211610c0557819061557c826155736003870154616640565b60038701616c6a565b602090601f831160011461581d578a92615812575b50508160011b916000199060031b1c19161760038201555b608088015160048201556155d260a08901511515600583019060ff801983541691151516179055565b60c08801519788516001600160401b038111610c0557615602816155f96006860154616640565b60068601616c6a565b6020601f8211600114615795576156999594939282600993610120938d9e6156a79d9e9261578a575b50508160011b916000199060031b1c19161760068501555b60e0810151600785015561566d6101008201511515600886019060ff801983541691151516179055565b01519101556003600b82015410158061577b575b6156f6575b5060405195606087526060870191616ce2565b918483036020860152616ce2565b6802b5e3af16b188000060408301527f700aa38276aacbb9899b61e5cbbcaa431dbf983a04bfa5ffb4171907f06769e9339280600435930390a360016000805160206174b98339815191525580f35b600c01600160ff1982541617905560405130815260406020820152602660408201527f4175746f2d66726f7a656e3a2064697370757465207468726573686f6c642072606082015265195858da195960d21b60808201527fb8b67a3a7c2783f0eb7fc53165288f1b9597b04da28b2221f1b6b3c3f2591faa60a060043592a238615686565b5060ff600c8201541615615681565b01519050388061562b565b600684018a5260208a209a8a5b601f19841681106157fa5750926001836156a79b9c9d610120946156999a999897600997601f198116106157e1575b505050811b016006850155615643565b015160001960f88460031b161c191690553880806157d1565b828201518d556001909c019b602092830192016157a2565b015190503880615591565b9250600384018a5260208a20908a935b601f1984168510615871576001945083601f19811610615858575b505050811b0160038201556155a9565b015160001960f88460031b161c19169055388080615848565b8181015183556020948501946001909301929091019061582d565b015190503880615532565b9250600284018a5260208a20908a935b601f19841685106158eb576001945083601f198116106158d2575b505050811b01600282015561554a565b015160001960f88460031b161c191690553880806158c2565b818101518355602094850194600190930192909101906158a7565b634e487b7160e01b87526004879052602487fd5b60405162461bcd60e51b815260206004820152600e60248201526d43616e6e6f74206469737075746560901b6044820152606490fd5b6003915061595d81616720565b148061596a575b38615387565b5060098601546202a30081018091116131f557421115615964565b905061599081616720565b6006811490615380565b90506159a581616720565b6002811490615379565b60405162461bcd60e51b81526020600482015260096024820152682737903932b0b9b7b760b91b6044820152606490fd5b60405162461bcd60e51b815260206004820152601060248201526f105b1c9958591e48191a5cdc1d5d195960821b6044820152606490fd5b50346103a75760403660031901126103a7576040615a34616502565b9160043581526007602052209060018060a01b0316600052602052602060ff604060002054166040519015158152f35b50346103a75760403660031901126103a757615a7e616502565b336001600160a01b03821603615a9a5761137990600435616b98565b60405163334bd91960e11b8152600490fd5b50346103a75760203660031901126103a75760409060043581526004602052208054614e05600183015492600281015490615ae96003820161667a565b600482015490600660ff6005850154169301549360405197889760ff60018060a01b038260081c1691168961676a565b50346103a75760403660031901126103a757611379600435615b39616502565b9080845283602052615b5160016040862001546169c0565b616a86565b50346103a75760203660031901126103a757600160406020926004358152808452200154604051908152f35b50346103a75760403660031901126103a75760076040615ba0616502565b926004358152600460205220019060018060a01b0316600052602052602060ff604060002054166040519015158152f35b50346103a757602090816003193601126103a757600435615bf0616d86565b808252600292838152615c0b60046040852001541515616ee6565b601154615c1d60ff8260a01c16617380565b828452848252600660ff8160408720015460a81c16615c3b81616720565b03615ea257615c6394838552808352615c7160016040872001604051978891868301906173be565b03601f1981018852876165d9565b60018060a01b038092168486528184526004604087200154604051630b551cd560e41b81527f079f8a4099c742da5530b52d1bb648fc05fdd82941a0db55645d2eceb3ab801b91826004830152602482015260606044820152858180615cda606482018d61672a565b0381865afa908115612bfe578891615e85575b5015615e4a5786978792869288615d3c999a52858452846004604082200154916040519a8b95869485936353b5923960e01b85526004850152602484015260606044840152606483019061672a565b03925af18015615e3d578190615e02575b60008051602061745983398151915295501315615dfb576001925b85875281815260408088206006908101805460ff60a01b1916600360a01b179055878952838352908820615d9e91869101616cbe565b858752818152615dd9604088204260098201558460115416600a8201906001600160601b0360a01b82541617905560076010820191016171e5565b85875252613ba5600760408720019160115416926040519384934292856172bd565b8092615d68565b508385813d8311615e36575b615e1881836165d9565b810103126103a7576000805160206174598339815191529451615d4d565b503d615e0e565b50604051903d90823e3d90fd5b60405162461bcd60e51b81526004810186905260136024820152725072696365206e6f7420617661696c61626c6560681b6044820152606490fd5b615e9c9150863d881161128c5761127e81836165d9565b38615ced565b60405162461bcd60e51b815260048101839052601060248201526f4e6f74206177616974696e6720554d4160801b6044820152606490fd5b50346103a75760203660031901126103a7576040906004358152600660205220805460018201549160ff600282015416615f166003830161667a565b91615f7e6004820154615f2b6005840161667a565b615f6b60068501549660086007870154960154966040519a8b9a8b5260208b0152615f5581616720565b60408a01526101208060608b015289019061672a565b91608088015286820360a088015261672a565b9260c085015260e08401526101008301520390f35b50346103a75760403660031901126103a7576040615faf616502565b916004358152600a602052209060018060a01b03166000526020526020604060002054604051908152f35b50346103a757806003193601126103a75760206040516101f48152f35b50346103a757806003193601126103a7576020600f54604051908152f35b50346103a757602080600319360112610fe357616128600435913384526009815261604960ff6005604087200154166171a0565b3384526009815261606c683635c9adc5dea0000060036040872001541015616db6565b8284526002815261608560046040862001541515616ee6565b828452600281526160a060ff600c60408720015416156170d8565b6160b160ff60115460a01c16617380565b8284526002815260ff600660408620015460a01c166160cf81616720565b15801561624f575b6160e090616f27565b82845260028152604080852060068101805460ff60a81b1916600360a91b179055600e8101805461ff00191661030017905590519261613691849190828501906001016173be565b03601f1981018452836165d9565b60115460105485916001600160a01b039081169116813b15611ab957829160405180948180946311df92f160e01b82526161a87f079f8a4099c742da5530b52d1bb648fc05fdd82941a0db55645d2eceb3ab801b9a8b600485015242602485015260a0604485015260a484019061672a565b90606483015268056bc75e2d63100000608483015203925af1801561129357616200575b507f08c347d84355c2b48f5abc21c986a0b7bb250a907a6422ecdc8d0590b0e7e94d9160409182519182524290820152a280f35b6001600160401b03819592951161623b57604052927f08c347d84355c2b48f5abc21c986a0b7bb250a907a6422ecdc8d0590b0e7e94d6161cc565b634e487b7160e01b82526041600452602482fd5b50828452600281526160e0600160ff600660408820015460a01c1661627381616720565b1490506160d7565b50346103a75760203660031901126103a75760066040602092600435815260048452200154604051908152f35b50346103a75760603660031901126103a7576162c26164ec565b602435906044356001600160401b038111610fdf5736602382011215610fdf576162f69036906024816004013591016165fa565b6162fe616d86565b616306616908565b60018060a01b03928383169384865260209360098552604087209060038201805494851561645e579261635c9592683635c9adc5dea00000899896936163be9a9686811160001461645557508598898097616df7565b8091556004840161636d8154616d77565b905561637884616e24565b84551061642b575b5050806010541690601254168960405180998195829463a9059cbb60e01b84526004840160209093929193604081019460018060a01b031681520152565b03925af19081156137f1576163fe613ba5927fed9e5190e975aa4403c276297e605b40d5a99683c8d2482166c8efbd1a89265f9689916164145750616d39565b604080519485948552840152604083019061672a565b6112869150863d881161128c5761127e81836165d9565b600561643f920160ff198154169055616aff565b5061644b600d54616e04565b600d553880616380565b98898097616df7565b60405162461bcd60e51b815260048101899052601160248201527009cde40e6e8c2d6ca40e8de40e6d8c2e6d607b1b6044820152606490fd5b905034610fe3576020366003190112610fe35760043563ffffffff60e01b8116809103611ab95760209250637965db0b60e01b81149081156164db575b5015158152f35b6301ffc9a760e01b149050386164d4565b600435906001600160a01b0382168203612bf157565b602435906001600160a01b0382168203612bf157565b61014081019081106001600160401b038211176137db57604052565b60e081019081106001600160401b038211176137db57604052565b61010081019081106001600160401b038211176137db57604052565b61028081019081106001600160401b038211176137db57604052565b61012081019081106001600160401b038211176137db57604052565b602081019081106001600160401b038211176137db57604052565b604081019081106001600160401b038211176137db57604052565b90601f801991011681019081106001600160401b038211176137db57604052565b9291926001600160401b0382116137db5760405191616623601f8201601f1916602001846165d9565b829481845281830111612bf1578281602093846000960137010152565b90600182811c92168015616670575b602083101461665a57565b634e487b7160e01b600052602260045260246000fd5b91607f169161664f565b906040519182600082549261668e84616640565b9081845260019485811690816000146166fd57506001146166ba575b50506166b8925003836165d9565b565b9093915060005260209081600020936000915b8183106166e55750506166b8935082010138806166aa565b855488840185015294850194879450918301916166cd565b9150506166b894506020925060ff191682840152151560051b82010138806166aa565b60071115614e0957565b919082519283825260005b848110616756575050826000602080949584010152601f8019910116010190565b602081830181015184830182015201616735565b9491926167ae9360e0979a9998959261678281616720565b87526001600160a01b03166020870152604086015260608501526101006080850181905284019061672a565b9560a0830152151560c08201520152565b9181601f84011215612bf1578235916001600160401b038311612bf15760208381860195010111612bf157565b60031115614e0957565b906004821015614e095752565b600c5481101561683a57600c6000527fdf6966c971051c3d54ec59162606531493a51404a002842f56009d7e5cf4a8c70190600090565b634e487b7160e01b600052603260045260246000fd5b600b5481101561683a57600b6000527f0175b7a638427703f0dbe7bb9bbf987a2551717b34e79f33b5b1008d1fa01db90190600090565b6040906003190112612bf1576004359060243590565b805482101561683a57600052600a602060002091020190600090565b805482101561683a576000526007602060002091020190600090565b906040600319830112612bf15760043591602435906001600160401b038211612bf157616904916004016167bf565b9091565b3360009081527f89777fffb7045c97177d1161cd08d871365cb73d0b18f242761255a7718434cf60205260409020547fbb08418a67729a078f87bbc8d02a770929bb68f5bfdf134ae2ead6ed38e2f4ae9060ff161561451f5750565b3360009081527f7d7ffb7a348e1c6a02869081a26547b49160dd3df72d1d75a570eb9b698292ec60205260409020547fa49807205ce4d355092ef5a8a18f56e8913cf4a201fbe287825b095693c217759060ff161561451f5750565b80600052600060205260406000203360005260205260ff604060002054161561451f5750565b6001600160a01b031660008181527f40da0f42a661166d5434d4603ecbff423639c47e2526ad0538d7c3517a62389060205260408120549091906000805160206174798339815191529060ff16616a8157808352826020526040832082845260205260408320600160ff198254161790557f2f8788117e7eff1d82e926ec794901d17c78024a50270940304540a733656f0d339380a4600190565b505090565b9060009180835282602052604083209160018060a01b03169182845260205260ff60408420541615600014616a8157808352826020526040832082845260205260408320600160ff198254161790557f2f8788117e7eff1d82e926ec794901d17c78024a50270940304540a733656f0d339380a4600190565b6001600160a01b031660008181527f40da0f42a661166d5434d4603ecbff423639c47e2526ad0538d7c3517a62389060205260408120549091906000805160206174798339815191529060ff1615616a815780835282602052604083208284526020526040832060ff1981541690557ff6391f5c32d9c69d2a47ea670b442974b53935d1edc7fd64eb21e047a839171b339380a4600190565b9060009180835282602052604083209160018060a01b03169182845260205260ff604084205416600014616a815780835282602052604083208284526020526040832060ff1981541690557ff6391f5c32d9c69d2a47ea670b442974b53935d1edc7fd64eb21e047a839171b339380a4600190565b15616c1457565b60405162461bcd60e51b815260206004820152600b60248201526a139bc812541194c810d25160aa1b6044820152606490fd5b91908201809211616c5457565b634e487b7160e01b600052601160045260246000fd5b90601f8111616c7857505050565b600091825260208220906020601f850160051c83019410616cb4575b601f0160051c01915b828110616ca957505050565b818155600101616c9d565b9092508290616c94565b90616cc881616720565b815460ff60a81b191660a89190911b60ff60a81b16179055565b908060209392818452848401376000828201840152601f01601f1916010190565b60ff60015416616d0f57565b60405163d93c066560e01b8152600490fd5b90816020910312612bf157518015158103612bf15790565b15616d4057565b60405162461bcd60e51b815260206004820152600f60248201526e151c985b9cd9995c8819985a5b1959608a1b6044820152606490fd5b6000198114616c545760010190565b6000805160206174b98339815191526002815414616da45760029055565b604051633ee5aeb560e01b8152600490fd5b15616dbd57565b60405162461bcd60e51b8152602060048201526012602482015271496e73756666696369656e74207374616b6560701b6044820152606490fd5b91908203918211616c5457565b8015616c54576000190190565b81810292918115918404141715616c5457565b60018101548015616e7c5760028201549061271091828102928184041490151715616c5457600491049101546101f490818102918183041490151715616c545760009181811115616a8157616e799250616df7565b90565b505061138890565b6001600160a01b03166000908152600960205260409020600581015460ff1615616ee057600381549101549061271091828102928184041490151715616c545769021e19e0c9bab2400000616eda920490616c47565b60011c90565b50600090565b15616eed57565b60405162461bcd60e51b8152602060048201526012602482015271145d595cdd1a5bdb881b9bdd08199bdd5b9960721b6044820152606490fd5b15616f2e57565b60405162461bcd60e51b815260206004820152600e60248201526d496e76616c69642073746174757360901b6044820152606490fd5b90616f6e81616720565b60ff80198354169116179055565b6000818152600260205260408120600e81019081549260ff8460081c169360ff8116616fa7816167ec565b8061705e575050600484101561704a57509161701760ff60409360008051602061749983398151915295841560001461701a57815461ff001916610100178255600601805460a084901b1916600360a11b1790555b5460081c1661700d845180946167f6565b60208301906167f6565ba2565b60018514617029575b50616ffc565b815461ff001916610200178255600601805460a084901b1916905538617023565b634e487b7160e01b81526021600452602490fd5b8061706a6001926167ec565b0361709f5750600484101561704a57509161701760ff6040936000805160206174998339815191529584156170295750616ffc565b61ff00191661020017835550600601805460ff60a01b19169055600080516020617499833981519152916040916170179060ff90616ffc565b156170df57565b60405162461bcd60e51b815260206004820152601260248201527128bab2b9ba34b7b71034b990333937bd32b760711b6044820152606490fd5b1561712057565b60405162461bcd60e51b8152602060048201526014602482015273109bdb99081d1c985b9cd9995c8819985a5b195960621b6044820152606490fd5b1561716357565b60405162461bcd60e51b81526020600482015260156024820152744e6f7420696e20636f6d6d756e69747920766f746560581b6044820152606490fd5b156171a757565b60405162461bcd60e51b81526020600482015260166024820152752737ba1030b71030b1ba34bb32903932b9b7b63b32b960511b6044820152606490fd5b908082146172b9576171f78154616640565b906001600160401b0382116137db57819061721682610a488654616640565b600090601f831160011461724d57600092617242575b50508160011b916000199060031b1c1916179055565b01549050388061722c565b81526020808220858352818320935090601f1985169083905b8282106172a0575050908460019594939210617287575b505050811b019055565b015460001960f88460031b161c1916905538808061727d565b8495819295850154815560018091019601940190617266565b5050565b9190949392946172cc81616720565b825260209060808284015260009181546172e581616640565b928360808701526001918281169081600014617358575060011461731e575b50505050906060919460018060a01b031660408201520152565b60009081528281209094505b8385106173445750505050810160a0016060388080617304565b805486860160a0015293820193810161732a565b92505050606094935060a092915060ff191682840152151560051b8201019091388080617304565b1561738757565b60405162461bcd60e51b815260206004820152600f60248201526e155350481b9bdd08195b98589b1959608a1b6044820152606490fd5b6000929181546173cd81616640565b9260019180831690811561742657506001146173ea575b50505050565b90919293945060005260209081600020906000915b85831061741557505050500190388080806173e4565b8054858401529183019181016173ff565b60ff19168452505050811515909102019150388080806173e4565b6001600160401b0381116137db5760051b6020019056feeb311d9305db9199c919b89ceb7d9490c670a46ae88045d04b3ff29589db25c892a19c77d2ea87c7f81d50c74403cb2f401780f3ad919571121efe2bdb427eb1db7fa502135a70aa8fee3fae9bab009e201272a173d618da883281e0280fe9079b779b17422d0df92223018b32b4d1fa46e071723d6817e2486d003becc55f00a264697066735822122014cbb2a0402398c8a1ce3c8a2b649d8fb440b45fc14f881015b1d6fe83b3d78c64736f6c634300081400332f8788117e7eff1d82e926ec794901d17c78024a50270940304540a733656f0d","opcodes":"PUSH1 0x80 CALLVALUE PUSH3 0x166 JUMPI PUSH1 0x1F PUSH3 0x7884 CODESIZE DUP2 SWAP1 SUB SWAP2 DUP3 ADD PUSH1 0x1F NOT AND DUP4 ADD SWAP2 PUSH1 0x1 PUSH1 0x1 PUSH1 0x40 SHL SUB DUP4 GT DUP5 DUP5 LT OR PUSH3 0x16B JUMPI DUP1 DUP5 SWAP3 PUSH1 0x60 SWAP5 PUSH1 0x40 MSTORE DUP4 CODECOPY DUP2 ADD SUB SLT PUSH3 0x166 JUMPI PUSH3 0x4D DUP2 PUSH3 0x181 JUMP JUMPDEST SWAP1 PUSH1 0x40 PUSH3 0x5E PUSH1 0x20 DUP4 ADD PUSH3 0x181 JUMP JUMPDEST SWAP2 ADD MLOAD PUSH1 0x1 PUSH32 0x9B779B17422D0DF92223018B32B4D1FA46E071723D6817E2486D003BECC55F00 SSTORE PUSH2 0x2134 PUSH1 0xF SSTORE SWAP2 PUSH1 0x1 PUSH1 0x1 PUSH1 0xA0 SHL SUB SWAP1 DUP2 AND SWAP2 DUP3 ISZERO PUSH3 0x131 JUMPI AND SWAP1 DUP2 ISZERO PUSH3 0xF9 JUMPI PUSH1 0x1 DUP1 PUSH1 0xA0 SHL SUB NOT SWAP1 DUP2 PUSH1 0x10 SLOAD AND OR PUSH1 0x10 SSTORE PUSH1 0x12 SLOAD AND OR PUSH1 0x12 SSTORE PUSH1 0xE SSTORE PUSH3 0xD0 CALLER PUSH3 0x196 JUMP JUMPDEST POP PUSH3 0xDC CALLER PUSH3 0x216 JUMP JUMPDEST POP PUSH3 0xE8 CALLER PUSH3 0x2B8 JUMP JUMPDEST POP PUSH1 0x40 MLOAD PUSH2 0x750E SWAP1 DUP2 PUSH3 0x356 DUP3 CODECOPY RETURN JUMPDEST PUSH1 0x40 MLOAD PUSH3 0x461BCD PUSH1 0xE5 SHL DUP2 MSTORE PUSH1 0x20 PUSH1 0x4 DUP3 ADD MSTORE PUSH1 0x10 PUSH1 0x24 DUP3 ADD MSTORE PUSH16 0x496E76616C6964207472656173757279 PUSH1 0x80 SHL PUSH1 0x44 DUP3 ADD MSTORE PUSH1 0x64 SWAP1 REVERT JUMPDEST PUSH1 0x40 MLOAD PUSH3 0x461BCD PUSH1 0xE5 SHL DUP2 MSTORE PUSH1 0x20 PUSH1 0x4 DUP3 ADD MSTORE PUSH1 0xD PUSH1 0x24 DUP3 ADD MSTORE PUSH13 0x24B73B30B634B2103A37B5B2B7 PUSH1 0x99 SHL PUSH1 0x44 DUP3 ADD MSTORE PUSH1 0x64 SWAP1 REVERT JUMPDEST PUSH1 0x0 DUP1 REVERT JUMPDEST PUSH4 0x4E487B71 PUSH1 0xE0 SHL PUSH1 0x0 MSTORE PUSH1 0x41 PUSH1 0x4 MSTORE PUSH1 0x24 PUSH1 0x0 REVERT JUMPDEST MLOAD SWAP1 PUSH1 0x1 PUSH1 0x1 PUSH1 0xA0 SHL SUB DUP3 AND DUP3 SUB PUSH3 0x166 JUMPI JUMP JUMPDEST PUSH1 0x1 PUSH1 0x1 PUSH1 0xA0 SHL SUB AND PUSH1 0x0 DUP2 DUP2 MSTORE PUSH32 0xAD3228B676F7D3CD4284A5443F17F1962B36E491B30A40B2405849E597BA5FB5 PUSH1 0x20 MSTORE PUSH1 0x40 DUP2 KECCAK256 SLOAD SWAP1 SWAP2 SWAP1 PUSH1 0xFF AND PUSH3 0x212 JUMPI DUP2 DUP1 MSTORE DUP2 PUSH1 0x20 MSTORE PUSH1 0x40 DUP3 KECCAK256 DUP2 DUP4 MSTORE PUSH1 0x20 MSTORE PUSH1 0x40 DUP3 KECCAK256 PUSH1 0x1 PUSH1 0xFF NOT DUP3 SLOAD AND OR SWAP1 SSTORE CALLER SWAP2 PUSH1 0x0 DUP1 MLOAD PUSH1 0x20 PUSH3 0x7864 DUP4 CODECOPY DUP2 MLOAD SWAP2 MSTORE DUP2 DUP1 LOG4 PUSH1 0x1 SWAP1 JUMP JUMPDEST POP SWAP1 JUMP JUMPDEST PUSH1 0x1 PUSH1 0x1 PUSH1 0xA0 SHL SUB AND PUSH1 0x0 DUP2 DUP2 MSTORE PUSH32 0x7D7FFB7A348E1C6A02869081A26547B49160DD3DF72D1D75A570EB9B698292EC PUSH1 0x20 MSTORE PUSH1 0x40 DUP2 KECCAK256 SLOAD SWAP1 SWAP2 SWAP1 PUSH32 0xA49807205CE4D355092EF5A8A18F56E8913CF4A201FBE287825B095693C21775 SWAP1 PUSH1 0xFF AND PUSH3 0x2B3 JUMPI DUP1 DUP4 MSTORE DUP3 PUSH1 0x20 MSTORE PUSH1 0x40 DUP4 KECCAK256 DUP3 DUP5 MSTORE PUSH1 0x20 MSTORE PUSH1 0x40 DUP4 KECCAK256 PUSH1 0x1 PUSH1 0xFF NOT DUP3 SLOAD AND OR SWAP1 SSTORE PUSH1 0x0 DUP1 MLOAD PUSH1 0x20 PUSH3 0x7864 DUP4 CODECOPY DUP2 MLOAD SWAP2 MSTORE CALLER SWAP4 DUP1 LOG4 PUSH1 0x1 SWAP1 JUMP JUMPDEST POP POP SWAP1 JUMP JUMPDEST PUSH1 0x1 PUSH1 0x1 PUSH1 0xA0 SHL SUB AND PUSH1 0x0 DUP2 DUP2 MSTORE PUSH32 0x89777FFFB7045C97177D1161CD08D871365CB73D0B18F242761255A7718434CF PUSH1 0x20 MSTORE PUSH1 0x40 DUP2 KECCAK256 SLOAD SWAP1 SWAP2 SWAP1 PUSH32 0xBB08418A67729A078F87BBC8D02A770929BB68F5BFDF134AE2EAD6ED38E2F4AE SWAP1 PUSH1 0xFF AND PUSH3 0x2B3 JUMPI DUP1 DUP4 MSTORE DUP3 PUSH1 0x20 MSTORE PUSH1 0x40 DUP4 KECCAK256 DUP3 DUP5 MSTORE PUSH1 0x20 MSTORE PUSH1 0x40 DUP4 KECCAK256 PUSH1 0x1 PUSH1 0xFF NOT DUP3 SLOAD AND OR SWAP1 SSTORE PUSH1 0x0 DUP1 MLOAD PUSH1 0x20 PUSH3 0x7864 DUP4 CODECOPY DUP2 MLOAD SWAP2 MSTORE CALLER SWAP4 DUP1 LOG4 PUSH1 0x1 SWAP1 JUMP INVALID PUSH2 0x100 DUP1 PUSH1 0x40 MSTORE PUSH1 0x4 CALLDATASIZE LT ISZERO PUSH2 0x14 JUMPI PUSH1 0x0 DUP1 REVERT JUMPDEST PUSH1 0x0 SWAP1 DUP2 CALLDATALOAD PUSH1 0xE0 SHR SWAP1 DUP2 PUSH4 0x1FFC9A7 EQ PUSH2 0x6497 JUMPI POP DUP1 PUSH4 0x8EE0005 EQ PUSH2 0x62A8 JUMPI DUP1 PUSH4 0x9B3746E EQ PUSH2 0x627B JUMPI DUP1 PUSH4 0xADB6CA9 EQ PUSH2 0x6015 JUMPI DUP1 PUSH4 0xBA882C3 EQ PUSH2 0x5FF7 JUMPI DUP1 PUSH4 0xDC7C70C EQ PUSH2 0x5FDA JUMPI DUP1 PUSH4 0xFF6D8FD EQ PUSH2 0x5F93 JUMPI DUP1 PUSH4 0x1C4C0155 EQ PUSH2 0x5EDA JUMPI DUP1 PUSH4 0x200A3BE1 EQ PUSH2 0x5BD1 JUMPI DUP1 PUSH4 0x23CDC3F1 EQ PUSH2 0x5B82 JUMPI DUP1 PUSH4 0x248A9CA3 EQ PUSH2 0x5B56 JUMPI DUP1 PUSH4 0x2F2FF15D EQ PUSH2 0x5B19 JUMPI DUP1 PUSH4 0x32ED5B12 EQ PUSH2 0x5AAC JUMPI DUP1 PUSH4 0x36568ABE EQ PUSH2 0x5A64 JUMPI DUP1 PUSH4 0x38E7ED08 EQ PUSH2 0x5A18 JUMPI DUP1 PUSH4 0x3A8471F6 EQ PUSH2 0x52A3 JUMPI DUP1 PUSH4 0x430694CF EQ PUSH2 0x5233 JUMPI DUP1 PUSH4 0x4A4E3BD5 EQ PUSH2 0x51C8 JUMPI DUP1 PUSH4 0x4A5BCBF8 EQ PUSH2 0x51AA JUMPI DUP1 PUSH4 0x4A7221A0 EQ PUSH2 0x5008 JUMPI DUP1 PUSH4 0x4C68AE63 EQ PUSH2 0x4FE4 JUMPI DUP1 PUSH4 0x4D104ADF EQ PUSH2 0x4FA9 JUMPI DUP1 PUSH4 0x4ECAC430 EQ PUSH2 0x4F80 JUMPI DUP1 PUSH4 0x51858E27 EQ PUSH2 0x4F26 JUMPI DUP1 PUSH4 0x5392C157 EQ PUSH2 0x4E1F JUMPI DUP1 PUSH4 0x58C039CD EQ PUSH2 0x4A87 JUMPI DUP1 PUSH4 0x5C975ABB EQ PUSH2 0x4A64 JUMPI DUP1 PUSH4 0x5F29E6BE EQ PUSH2 0x4A41 JUMPI DUP1 PUSH4 0x5FF474C2 EQ PUSH2 0x4A18 JUMPI DUP1 PUSH4 0x612F2A21 EQ PUSH2 0x49D4 JUMPI DUP1 PUSH4 0x61D027B3 EQ PUSH2 0x49AB JUMPI DUP1 PUSH4 0x62AF3DA3 EQ PUSH2 0x46E0 JUMPI DUP1 PUSH4 0x65BDB2EC EQ PUSH2 0x453D JUMPI DUP1 PUSH4 0x66CFA599 EQ PUSH2 0x3DE2 JUMPI DUP1 PUSH4 0x692776EA EQ PUSH2 0x3DA9 JUMPI DUP1 PUSH4 0x6C66F07D EQ PUSH2 0x3D6E JUMPI DUP1 PUSH4 0x712255EC EQ PUSH2 0x3D4A JUMPI DUP1 PUSH4 0x72B60AFC EQ PUSH2 0x395A JUMPI DUP1 PUSH4 0x72FAD066 EQ PUSH2 0x3244 JUMPI DUP1 PUSH4 0x75B238FC EQ PUSH2 0x3209 JUMPI DUP1 PUSH4 0x78D52FDE EQ PUSH2 0x30CE JUMPI DUP1 PUSH4 0x78FAB260 EQ PUSH2 0x30A5 JUMPI DUP1 PUSH4 0x7B7A91DD EQ PUSH2 0x3087 JUMPI DUP1 PUSH4 0x7CDFCC02 EQ PUSH2 0x2E13 JUMPI DUP1 PUSH4 0x7FAA19F3 EQ PUSH2 0x2CB6 JUMPI DUP1 PUSH4 0x87DB9A3E EQ PUSH2 0x26C2 JUMPI DUP1 PUSH4 0x9098B373 EQ PUSH2 0x26A6 JUMPI DUP1 PUSH4 0x91D14854 EQ PUSH2 0x265B JUMPI DUP1 PUSH4 0x95ADDB90 EQ PUSH2 0x2458 JUMPI DUP1 PUSH4 0x95E8C136 EQ PUSH2 0x2364 JUMPI DUP1 PUSH4 0xA217FDDF EQ PUSH2 0x2348 JUMPI DUP1 PUSH4 0xA674B197 EQ PUSH2 0x232A JUMPI DUP1 PUSH4 0xAAA44E5C EQ PUSH2 0x2276 JUMPI DUP1 PUSH4 0xAADC3B72 EQ PUSH2 0x222A JUMPI DUP1 PUSH4 0xAC346451 EQ PUSH2 0x2204 JUMPI DUP1 PUSH4 0xAE5B545F EQ PUSH2 0x1ABD JUMPI DUP1 PUSH4 0xAEB2A19F EQ PUSH2 0x19C9 JUMPI DUP1 PUSH4 0xB70739C6 EQ PUSH2 0x1907 JUMPI DUP1 PUSH4 0xB93793E9 EQ PUSH2 0x187B JUMPI DUP1 PUSH4 0xBD61F0A6 EQ PUSH2 0x1756 JUMPI DUP1 PUSH4 0xBEA5B914 EQ PUSH2 0x1738 JUMPI DUP1 PUSH4 0xC0F87302 EQ PUSH2 0x1714 JUMPI DUP1 PUSH4 0xC1BA4E59 EQ PUSH2 0x1665 JUMPI DUP1 PUSH4 0xC35E452C EQ PUSH2 0x15B9 JUMPI DUP1 PUSH4 0xC601F7AF EQ PUSH2 0x157E JUMPI DUP1 PUSH4 0xD19D3661 EQ PUSH2 0x139A JUMPI DUP1 PUSH4 0xD213C0F2 EQ PUSH2 0x137D JUMPI DUP1 PUSH4 0xD547741F EQ PUSH2 0x133C JUMPI DUP1 PUSH4 0xEDE25AD7 EQ PUSH2 0x12DB JUMPI DUP1 PUSH4 0xEFB50135 EQ PUSH2 0x10BE JUMPI DUP1 PUSH4 0xF0F44260 EQ PUSH2 0x1003 JUMPI DUP1 PUSH4 0xF1E99F66 EQ PUSH2 0xFE7 JUMPI DUP1 PUSH4 0xF51AC7AB EQ PUSH2 0x507 JUMPI DUP1 PUSH4 0xF585DC57 EQ PUSH2 0x4E9 JUMPI DUP1 PUSH4 0xF8BB87F1 EQ PUSH2 0x477 JUMPI DUP1 PUSH4 0xF98E1FF9 EQ PUSH2 0x3C6 JUMPI DUP1 PUSH4 0xFFA1AD74 EQ PUSH2 0x3AA JUMPI PUSH4 0xFFD703B7 EQ PUSH2 0x37C JUMPI PUSH1 0x0 DUP1 REVERT JUMPDEST CALLVALUE PUSH2 0x3A7 JUMPI PUSH1 0x20 CALLDATASIZE PUSH1 0x3 NOT ADD SLT PUSH2 0x3A7 JUMPI PUSH1 0x20 PUSH2 0x39F PUSH2 0x39A PUSH2 0x64EC JUMP JUMPDEST PUSH2 0x6E84 JUMP JUMPDEST PUSH1 0x40 MLOAD SWAP1 DUP2 MSTORE RETURN JUMPDEST DUP1 REVERT JUMPDEST POP CALLVALUE PUSH2 0x3A7 JUMPI DUP1 PUSH1 0x3 NOT CALLDATASIZE ADD SLT PUSH2 0x3A7 JUMPI PUSH1 0x20 PUSH1 0x40 MLOAD PUSH1 0xC8 DUP2 MSTORE RETURN JUMPDEST POP CALLVALUE PUSH2 0x3A7 JUMPI PUSH32 0x7D4EA258F63DB7BB769C68FD97437A0C9F2FCE679E638112FAD99C01514ADC6C PUSH2 0x3F6 CALLDATASIZE PUSH2 0x68D5 JUMP JUMPDEST PUSH2 0x401 SWAP4 SWAP3 SWAP4 PUSH2 0x6964 JUMP JUMPDEST DUP4 DUP6 MSTORE PUSH1 0x2 PUSH1 0x20 MSTORE PUSH2 0x41B PUSH1 0x4 PUSH1 0x40 DUP8 KECCAK256 ADD SLOAD ISZERO ISZERO PUSH2 0x6EE6 JUMP JUMPDEST DUP4 DUP6 MSTORE PUSH1 0x2 PUSH1 0x20 DUP2 DUP2 MSTORE PUSH1 0x40 DUP1 DUP9 KECCAK256 PUSH1 0x6 SWAP1 DUP2 ADD DUP1 SLOAD PUSH1 0xFF PUSH1 0xA0 SHL NOT AND PUSH1 0x1 PUSH1 0xA2 SHL OR SWAP1 SSTORE DUP8 DUP10 MSTORE SWAP3 DUP3 MSTORE DUP1 DUP9 KECCAK256 SWAP1 SWAP3 ADD DUP1 SLOAD PUSH1 0xFF PUSH1 0xA8 SHL NOT AND PUSH1 0x1 PUSH1 0xAA SHL OR SWAP1 SSTORE SWAP1 MLOAD DUP2 DUP2 MSTORE SWAP3 DUP4 SWAP3 PUSH2 0x471 SWAP3 DUP5 ADD SWAP2 PUSH2 0x6CE2 JUMP JUMPDEST SUB SWAP1 LOG2 DUP1 RETURN JUMPDEST POP CALLVALUE PUSH2 0x3A7 JUMPI PUSH32 0xB8B67A3A7C2783F0EB7FC53165288F1B9597B04DA28B2221F1B6B3C3F2591FAA PUSH2 0x4A7 CALLDATASIZE PUSH2 0x68D5 JUMP JUMPDEST PUSH2 0x4B2 SWAP4 SWAP3 SWAP4 PUSH2 0x6964 JUMP JUMPDEST DUP4 DUP6 MSTORE PUSH1 0x2 PUSH1 0x20 MSTORE PUSH1 0xC PUSH1 0x40 DUP7 KECCAK256 ADD PUSH1 0x1 PUSH1 0xFF NOT DUP3 SLOAD AND OR SWAP1 SSTORE PUSH2 0x471 PUSH1 0x40 MLOAD SWAP3 DUP4 SWAP3 CALLER DUP5 MSTORE PUSH1 0x40 PUSH1 0x20 DUP6 ADD MSTORE PUSH1 0x40 DUP5 ADD SWAP2 PUSH2 0x6CE2 JUMP JUMPDEST POP CALLVALUE PUSH2 0x3A7 JUMPI DUP1 PUSH1 0x3 NOT CALLDATASIZE ADD SLT PUSH2 0x3A7 JUMPI PUSH1 0x20 PUSH1 0x40 MLOAD PUSH3 0x2A300 DUP2 MSTORE RETURN JUMPDEST POP CALLVALUE PUSH2 0x3A7 JUMPI PUSH1 0xA0 CALLDATASIZE PUSH1 0x3 NOT ADD SLT PUSH2 0x3A7 JUMPI PUSH1 0x4 CALLDATALOAD PUSH1 0x1 PUSH1 0x1 PUSH1 0x40 SHL SUB DUP2 GT PUSH2 0xFE3 JUMPI PUSH2 0x538 SWAP1 CALLDATASIZE SWAP1 PUSH1 0x4 ADD PUSH2 0x67BF JUMP JUMPDEST SWAP1 PUSH1 0x24 CALLDATALOAD PUSH1 0x1 PUSH1 0x1 PUSH1 0x40 SHL SUB DUP2 GT PUSH2 0xFDF JUMPI PUSH2 0x558 SWAP1 CALLDATASIZE SWAP1 PUSH1 0x4 ADD PUSH2 0x67BF JUMP JUMPDEST SWAP3 SWAP1 PUSH1 0x44 CALLDATALOAD PUSH1 0x1 PUSH1 0x1 PUSH1 0x40 SHL SUB DUP2 GT PUSH2 0xFDB JUMPI PUSH2 0x579 SWAP1 CALLDATASIZE SWAP1 PUSH1 0x4 ADD PUSH2 0x67BF JUMP JUMPDEST PUSH1 0x3 PUSH1 0x84 SWAP7 SWAP3 SWAP7 CALLDATALOAD LT ISZERO PUSH2 0xFD7 JUMPI PUSH2 0x58F PUSH2 0x6D03 JUMP JUMPDEST DUP4 ISZERO PUSH2 0xFA4 JUMPI PUSH2 0x118 DUP5 GT PUSH2 0xF6E JUMPI PUSH2 0x5A9 DUP3 ISZERO ISZERO PUSH2 0x6C0D JUMP JUMPDEST TIMESTAMP PUSH1 0x64 CALLDATALOAD GT ISZERO PUSH2 0xF29 JUMPI PUSH4 0x1E13380 TIMESTAMP ADD DUP1 TIMESTAMP GT PUSH2 0xF15 JUMPI PUSH1 0x64 CALLDATALOAD GT PUSH2 0xEDD JUMPI PUSH1 0x40 MLOAD PUSH1 0x20 DUP2 ADD SWAP1 DUP6 DUP8 DUP4 CALLDATACOPY PUSH2 0x607 PUSH1 0x94 DUP3 DUP9 DUP2 ADD CALLER PUSH1 0x60 SHL PUSH1 0x20 DUP3 ADD MSTORE TIMESTAMP PUSH1 0x34 DUP3 ADD MSTORE CHAINID PUSH1 0x54 DUP3 ADD MSTORE NUMBER PUSH1 0x74 DUP3 ADD MSTORE SUB PUSH1 0x74 DUP2 ADD DUP5 MSTORE ADD DUP3 PUSH2 0x65D9 JUMP JUMPDEST MLOAD SWAP1 KECCAK256 SWAP6 DUP7 DUP9 MSTORE PUSH1 0x2 PUSH1 0x20 MSTORE PUSH1 0x4 PUSH1 0x40 DUP10 KECCAK256 ADD SLOAD PUSH2 0xEA3 JUMPI PUSH2 0x65A SWAP1 PUSH1 0x40 MLOAD SWAP3 PUSH2 0x630 DUP5 PUSH2 0x656B JUMP JUMPDEST DUP9 DUP5 MSTORE PUSH2 0x63E CALLDATASIZE DUP9 DUP11 PUSH2 0x65FA JUMP JUMPDEST PUSH1 0x20 DUP6 ADD MSTORE PUSH2 0x64E CALLDATASIZE DUP7 DUP9 PUSH2 0x65FA JUMP JUMPDEST PUSH1 0x40 DUP6 ADD MSTORE CALLDATASIZE SWAP2 PUSH2 0x65FA JUMP JUMPDEST PUSH1 0x60 DUP3 ADD MSTORE TIMESTAMP PUSH1 0x80 DUP3 ADD MSTORE PUSH1 0x64 CALLDATALOAD PUSH1 0xA0 DUP3 ADD MSTORE CALLER PUSH1 0xC0 DUP3 ADD MSTORE DUP7 PUSH1 0xE0 DUP3 ADD MSTORE DUP7 PUSH2 0x100 DUP3 ADD MSTORE PUSH1 0x40 MLOAD PUSH2 0x68C DUP2 PUSH2 0x65A3 JUMP JUMPDEST DUP8 DUP2 MSTORE PUSH2 0x120 DUP3 ADD MSTORE PUSH1 0x40 MLOAD PUSH2 0x6A1 DUP2 PUSH2 0x65A3 JUMP JUMPDEST DUP8 DUP2 MSTORE PUSH2 0x140 DUP3 ADD MSTORE DUP7 PUSH2 0x160 DUP3 ADD MSTORE DUP7 PUSH2 0x180 DUP3 ADD MSTORE DUP7 PUSH2 0x1A0 DUP3 ADD MSTORE DUP7 PUSH2 0x1C0 DUP3 ADD MSTORE DUP7 PUSH2 0x1E0 DUP3 ADD MSTORE PUSH2 0x6D8 PUSH1 0x84 CALLDATALOAD PUSH2 0x67EC JUMP JUMPDEST PUSH1 0x84 CALLDATALOAD PUSH2 0x200 DUP3 ADD MSTORE DUP7 PUSH2 0x220 DUP3 ADD MSTORE DUP7 PUSH2 0x240 DUP3 ADD MSTORE PUSH1 0x40 MLOAD PUSH2 0x6FB DUP2 PUSH2 0x65A3 JUMP JUMPDEST DUP8 DUP2 MSTORE PUSH2 0x260 DUP3 ADD MSTORE DUP6 DUP8 MSTORE PUSH1 0x2 PUSH1 0x20 MSTORE PUSH1 0x40 DUP8 KECCAK256 SWAP1 DUP1 MLOAD DUP3 SSTORE PUSH1 0x20 DUP2 ADD MLOAD DUP1 MLOAD SWAP1 PUSH1 0x1 PUSH1 0x1 PUSH1 0x40 SHL SUB DUP3 GT PUSH2 0xCA7 JUMPI DUP2 SWAP1 PUSH2 0x747 DUP3 PUSH2 0x73E PUSH1 0x1 DUP9 ADD SLOAD PUSH2 0x6640 JUMP JUMPDEST PUSH1 0x1 DUP9 ADD PUSH2 0x6C6A JUMP JUMPDEST PUSH1 0x20 SWAP1 PUSH1 0x1F DUP4 GT PUSH1 0x1 EQ PUSH2 0xE34 JUMPI DUP12 SWAP3 PUSH2 0xE29 JUMPI JUMPDEST POP POP DUP2 PUSH1 0x1 SHL SWAP2 PUSH1 0x0 NOT SWAP1 PUSH1 0x3 SHL SHR NOT AND OR PUSH1 0x1 DUP4 ADD SSTORE JUMPDEST PUSH1 0x40 DUP2 ADD MLOAD DUP1 MLOAD SWAP1 PUSH1 0x1 PUSH1 0x1 PUSH1 0x40 SHL SUB DUP3 GT PUSH2 0xCA7 JUMPI DUP2 SWAP1 PUSH2 0x7A6 DUP3 PUSH2 0x79D PUSH1 0x2 DUP9 ADD SLOAD PUSH2 0x6640 JUMP JUMPDEST PUSH1 0x2 DUP9 ADD PUSH2 0x6C6A JUMP JUMPDEST PUSH1 0x20 SWAP1 PUSH1 0x1F DUP4 GT PUSH1 0x1 EQ PUSH2 0xDBA JUMPI DUP12 SWAP3 PUSH2 0xDAF JUMPI JUMPDEST POP POP DUP2 PUSH1 0x1 SHL SWAP2 PUSH1 0x0 NOT SWAP1 PUSH1 0x3 SHL SHR NOT AND OR PUSH1 0x2 DUP4 ADD SSTORE JUMPDEST PUSH1 0x60 DUP2 ADD MLOAD DUP1 MLOAD SWAP1 PUSH1 0x1 PUSH1 0x1 PUSH1 0x40 SHL SUB DUP3 GT PUSH2 0xCA7 JUMPI DUP2 SWAP1 PUSH2 0x805 DUP3 PUSH2 0x7FC PUSH1 0x3 DUP9 ADD SLOAD PUSH2 0x6640 JUMP JUMPDEST PUSH1 0x3 DUP9 ADD PUSH2 0x6C6A JUMP JUMPDEST PUSH1 0x20 SWAP1 PUSH1 0x1F DUP4 GT PUSH1 0x1 EQ PUSH2 0xD40 JUMPI DUP12 SWAP3 PUSH2 0xD35 JUMPI JUMPDEST POP POP DUP2 PUSH1 0x1 SHL SWAP2 PUSH1 0x0 NOT SWAP1 PUSH1 0x3 SHL SHR NOT AND OR PUSH1 0x3 DUP4 ADD SSTORE JUMPDEST PUSH1 0x80 DUP2 ADD MLOAD PUSH1 0x4 DUP4 ADD SSTORE PUSH1 0xA0 DUP2 ADD MLOAD PUSH1 0x5 DUP4 ADD SSTORE PUSH1 0xC0 DUP2 ADD MLOAD PUSH1 0x6 DUP4 ADD DUP1 SLOAD PUSH1 0xE0 DUP5 ADD MLOAD PUSH2 0x8A7 SWAP4 PUSH1 0x1 PUSH1 0x1 PUSH1 0xA0 SHL SUB AND SWAP1 PUSH2 0x86D DUP2 PUSH2 0x6720 JUMP JUMPDEST PUSH2 0x876 DUP2 PUSH2 0x6720 JUMP JUMPDEST PUSH1 0x1 PUSH1 0x1 PUSH1 0xA8 SHL SUB NOT SWAP1 SWAP3 AND OR PUSH1 0xA0 SWAP2 SWAP1 SWAP2 SHL PUSH1 0xFF PUSH1 0xA0 SHL AND OR DUP2 SSTORE PUSH2 0x100 DUP4 ADD MLOAD SWAP1 PUSH2 0x8A2 DUP3 PUSH2 0x6720 JUMP JUMPDEST PUSH2 0x6CBE JUMP JUMPDEST PUSH2 0x120 DUP2 ADD MLOAD DUP1 MLOAD SWAP1 PUSH1 0x1 PUSH1 0x1 PUSH1 0x40 SHL SUB DUP3 GT PUSH2 0xCA7 JUMPI DUP2 SWAP1 PUSH2 0x8DA DUP3 PUSH2 0x8D1 PUSH1 0x7 DUP9 ADD SLOAD PUSH2 0x6640 JUMP JUMPDEST PUSH1 0x7 DUP9 ADD PUSH2 0x6C6A JUMP JUMPDEST PUSH1 0x20 SWAP1 PUSH1 0x1F DUP4 GT PUSH1 0x1 EQ PUSH2 0xCC6 JUMPI DUP12 SWAP3 PUSH2 0xCBB JUMPI JUMPDEST POP POP DUP2 PUSH1 0x1 SHL SWAP2 PUSH1 0x0 NOT SWAP1 PUSH1 0x3 SHL SHR NOT AND OR PUSH1 0x7 DUP4 ADD SSTORE JUMPDEST PUSH2 0x140 DUP2 ADD MLOAD DUP1 MLOAD SWAP1 PUSH1 0x1 PUSH1 0x1 PUSH1 0x40 SHL SUB DUP3 GT PUSH2 0xCA7 JUMPI DUP2 SWAP1 PUSH2 0x93A DUP3 PUSH2 0x931 PUSH1 0x8 DUP9 ADD SLOAD PUSH2 0x6640 JUMP JUMPDEST PUSH1 0x8 DUP9 ADD PUSH2 0x6C6A JUMP JUMPDEST PUSH1 0x20 SWAP1 PUSH1 0x1F DUP4 GT PUSH1 0x1 EQ PUSH2 0xC38 JUMPI DUP12 SWAP3 PUSH2 0xC2D JUMPI JUMPDEST POP POP DUP2 PUSH1 0x1 SHL SWAP2 PUSH1 0x0 NOT SWAP1 PUSH1 0x3 SHL SHR NOT AND OR PUSH1 0x8 DUP4 ADD SSTORE JUMPDEST PUSH2 0x160 DUP2 ADD MLOAD PUSH1 0x9 DUP4 ADD SSTORE PUSH1 0xA DUP3 ADD PUSH1 0x1 DUP1 PUSH1 0xA0 SHL SUB PUSH2 0x180 DUP4 ADD MLOAD AND PUSH1 0x1 PUSH1 0x1 PUSH1 0x60 SHL SUB PUSH1 0xA0 SHL DUP3 SLOAD AND OR SWAP1 SSTORE PUSH2 0x1A0 DUP2 ADD MLOAD PUSH1 0xB DUP4 ADD SSTORE PUSH2 0x9C0 PUSH2 0x1C0 DUP3 ADD MLOAD ISZERO ISZERO PUSH1 0xC DUP5 ADD SWAP1 PUSH1 0xFF DUP1 NOT DUP4 SLOAD AND SWAP2 ISZERO ISZERO AND OR SWAP1 SSTORE JUMP JUMPDEST PUSH2 0x1E0 DUP2 ADD MLOAD PUSH1 0xD DUP4 ADD SSTORE PUSH1 0xE DUP3 ADD PUSH2 0x200 DUP3 ADD MLOAD PUSH2 0x9DE DUP2 PUSH2 0x67EC JUMP JUMPDEST PUSH2 0x9E7 DUP2 PUSH2 0x67EC JUMP JUMPDEST DUP2 SLOAD PUSH2 0x220 DUP5 ADD MLOAD PUSH1 0x4 DUP2 LT ISZERO PUSH2 0xC19 JUMPI SWAP1 PUSH1 0xFF PUSH2 0xFF00 PUSH2 0x260 SWAP7 SWAP6 SWAP5 SWAP4 PUSH1 0x8 SHL AND SWAP3 AND SWAP1 PUSH2 0xFFFF NOT AND OR OR SWAP1 SSTORE PUSH2 0x240 DUP2 ADD MLOAD PUSH1 0xF DUP5 ADD SSTORE ADD MLOAD SWAP1 DUP2 MLOAD SWAP1 PUSH1 0x1 PUSH1 0x1 PUSH1 0x40 SHL SUB DUP3 GT PUSH2 0xC05 JUMPI PUSH1 0x10 DUP3 SWAP2 ADD SWAP3 PUSH2 0xA4E DUP3 PUSH2 0xA48 DUP7 SLOAD PUSH2 0x6640 JUMP JUMPDEST DUP7 PUSH2 0x6C6A JUMP JUMPDEST PUSH1 0x20 SWAP1 PUSH1 0x1F DUP4 GT PUSH1 0x1 EQ PUSH2 0xBA1 JUMPI DUP11 SWAP3 PUSH2 0xB96 JUMPI JUMPDEST POP POP DUP2 PUSH1 0x1 SHL SWAP2 PUSH1 0x0 NOT SWAP1 PUSH1 0x3 SHL SHR NOT AND OR SWAP1 SSTORE JUMPDEST PUSH1 0xB SLOAD PUSH1 0x1 PUSH1 0x40 SHL DUP2 LT ISZERO PUSH2 0xB82 JUMPI SWAP3 PUSH2 0xB0A PUSH32 0x731DC1616EC6F75DAE0FF18B928864E626CB6E808A72E7CD2BE60C39D26E97F7 SWAP4 PUSH1 0x20 SWAP9 SWAP7 SWAP4 PUSH2 0xAC3 DUP8 PUSH1 0x1 DUP12 SWAP10 ADD PUSH1 0xB SSTORE PUSH2 0x6850 JUMP JUMPDEST DUP2 SLOAD SWAP1 PUSH1 0x3 SHL SWAP1 DUP10 DUP3 SHL SWAP2 PUSH1 0x0 NOT SWAP1 SHL NOT AND OR SWAP1 SSTORE PUSH2 0xAEF PUSH1 0x40 MLOAD SWAP6 DUP7 SWAP6 PUSH1 0xA0 DUP8 MSTORE PUSH1 0xA0 DUP8 ADD SWAP2 PUSH2 0x6CE2 JUMP JUMPDEST SWAP2 CALLER DUP12 DUP7 ADD MSTORE PUSH1 0x64 CALLDATALOAD PUSH1 0x40 DUP7 ADD MSTORE DUP5 DUP4 SUB PUSH1 0x60 DUP7 ADD MSTORE PUSH2 0x6CE2 JUMP JUMPDEST PUSH2 0xB15 PUSH1 0x84 CALLDATALOAD PUSH2 0x67EC JUMP JUMPDEST PUSH1 0x84 CALLDATALOAD PUSH1 0x80 DUP4 ADD MSTORE SUB SWAP1 LOG2 PUSH2 0xB2B PUSH1 0x84 CALLDATALOAD PUSH2 0x67EC JUMP JUMPDEST PUSH1 0x84 CALLDATALOAD ISZERO PUSH2 0xB3D JUMPI JUMPDEST POP PUSH1 0x40 MLOAD SWAP1 DUP2 MSTORE RETURN JUMPDEST DUP2 DUP2 MSTORE PUSH1 0x2 DUP4 MSTORE PUSH1 0x40 SWAP1 DUP2 SWAP1 KECCAK256 PUSH1 0x6 ADD DUP1 SLOAD PUSH1 0xFF PUSH1 0xA0 SHL NOT AND PUSH1 0x5 PUSH1 0xA0 SHL OR SWAP1 SSTORE DUP1 MLOAD PUSH1 0x0 DUP1 DUP3 MSTORE DUP2 DUP6 ADD MSTORE DUP3 SWAP2 PUSH1 0x0 DUP1 MLOAD PUSH1 0x20 PUSH2 0x7499 DUP4 CODECOPY DUP2 MLOAD SWAP2 MSTORE SWAP2 LOG2 CODESIZE PUSH2 0xB34 JUMP JUMPDEST PUSH4 0x4E487B71 PUSH1 0xE0 SHL DUP8 MSTORE PUSH1 0x41 PUSH1 0x4 MSTORE PUSH1 0x24 DUP8 REVERT JUMPDEST ADD MLOAD SWAP1 POP CODESIZE DUP1 PUSH2 0xA63 JUMP JUMPDEST DUP5 DUP12 MSTORE PUSH1 0x20 DUP12 KECCAK256 SWAP3 POP PUSH1 0x1F NOT DUP5 AND DUP12 JUMPDEST DUP2 DUP2 LT PUSH2 0xBED JUMPI POP SWAP1 DUP5 PUSH1 0x1 SWAP6 SWAP5 SWAP4 SWAP3 LT PUSH2 0xBD4 JUMPI JUMPDEST POP POP POP DUP2 SHL ADD SWAP1 SSTORE PUSH2 0xA78 JUMP JUMPDEST ADD MLOAD PUSH1 0x0 NOT PUSH1 0xF8 DUP5 PUSH1 0x3 SHL AND SHR NOT AND SWAP1 SSTORE CODESIZE DUP1 DUP1 PUSH2 0xBC7 JUMP JUMPDEST SWAP3 SWAP4 PUSH1 0x20 PUSH1 0x1 DUP2 SWAP3 DUP8 DUP7 ADD MLOAD DUP2 SSTORE ADD SWAP6 ADD SWAP4 ADD PUSH2 0xBB1 JUMP JUMPDEST PUSH4 0x4E487B71 PUSH1 0xE0 SHL DUP10 MSTORE PUSH1 0x41 PUSH1 0x4 MSTORE PUSH1 0x24 DUP10 REVERT JUMPDEST PUSH4 0x4E487B71 PUSH1 0xE0 SHL DUP13 MSTORE PUSH1 0x21 PUSH1 0x4 MSTORE PUSH1 0x24 DUP13 REVERT JUMPDEST ADD MLOAD SWAP1 POP CODESIZE DUP1 PUSH2 0x94F JUMP JUMPDEST SWAP3 POP PUSH1 0x8 DUP6 ADD DUP12 MSTORE PUSH1 0x20 DUP12 KECCAK256 SWAP1 DUP12 SWAP4 JUMPDEST PUSH1 0x1F NOT DUP5 AND DUP6 LT PUSH2 0xC8C JUMPI PUSH1 0x1 SWAP5 POP DUP4 PUSH1 0x1F NOT DUP2 AND LT PUSH2 0xC73 JUMPI JUMPDEST POP POP POP DUP2 SHL ADD PUSH1 0x8 DUP4 ADD SSTORE PUSH2 0x967 JUMP JUMPDEST ADD MLOAD PUSH1 0x0 NOT PUSH1 0xF8 DUP5 PUSH1 0x3 SHL AND SHR NOT AND SWAP1 SSTORE CODESIZE DUP1 DUP1 PUSH2 0xC63 JUMP JUMPDEST DUP2 DUP2 ADD MLOAD DUP4 SSTORE PUSH1 0x20 SWAP5 DUP6 ADD SWAP5 PUSH1 0x1 SWAP1 SWAP4 ADD SWAP3 SWAP1 SWAP2 ADD SWAP1 PUSH2 0xC48 JUMP JUMPDEST PUSH4 0x4E487B71 PUSH1 0xE0 SHL DUP11 MSTORE PUSH1 0x41 PUSH1 0x4 MSTORE PUSH1 0x24 DUP11 REVERT JUMPDEST ADD MLOAD SWAP1 POP CODESIZE DUP1 PUSH2 0x8EF JUMP JUMPDEST SWAP3 POP PUSH1 0x7 DUP6 ADD DUP12 MSTORE PUSH1 0x20 DUP12 KECCAK256 SWAP1 DUP12 SWAP4 JUMPDEST PUSH1 0x1F NOT DUP5 AND DUP6 LT PUSH2 0xD1A JUMPI PUSH1 0x1 SWAP5 POP DUP4 PUSH1 0x1F NOT DUP2 AND LT PUSH2 0xD01 JUMPI JUMPDEST POP POP POP DUP2 SHL ADD PUSH1 0x7 DUP4 ADD SSTORE PUSH2 0x907 JUMP JUMPDEST ADD MLOAD PUSH1 0x0 NOT PUSH1 0xF8 DUP5 PUSH1 0x3 SHL AND SHR NOT AND SWAP1 SSTORE CODESIZE DUP1 DUP1 PUSH2 0xCF1 JUMP JUMPDEST DUP2 DUP2 ADD MLOAD DUP4 SSTORE PUSH1 0x20 SWAP5 DUP6 ADD SWAP5 PUSH1 0x1 SWAP1 SWAP4 ADD SWAP3 SWAP1 SWAP2 ADD SWAP1 PUSH2 0xCD6 JUMP JUMPDEST ADD MLOAD SWAP1 POP CODESIZE DUP1 PUSH2 0x81A JUMP JUMPDEST SWAP3 POP PUSH1 0x3 DUP6 ADD DUP12 MSTORE PUSH1 0x20 DUP12 KECCAK256 SWAP1 DUP12 SWAP4 JUMPDEST PUSH1 0x1F NOT DUP5 AND DUP6 LT PUSH2 0xD94 JUMPI PUSH1 0x1 SWAP5 POP DUP4 PUSH1 0x1F NOT DUP2 AND LT PUSH2 0xD7B JUMPI JUMPDEST POP POP POP DUP2 SHL ADD PUSH1 0x3 DUP4 ADD SSTORE PUSH2 0x832 JUMP JUMPDEST ADD MLOAD PUSH1 0x0 NOT PUSH1 0xF8 DUP5 PUSH1 0x3 SHL AND SHR NOT AND SWAP1 SSTORE CODESIZE DUP1 DUP1 PUSH2 0xD6B JUMP JUMPDEST DUP2 DUP2 ADD MLOAD DUP4 SSTORE PUSH1 0x20 SWAP5 DUP6 ADD SWAP5 PUSH1 0x1 SWAP1 SWAP4 ADD SWAP3 SWAP1 SWAP2 ADD SWAP1 PUSH2 0xD50 JUMP JUMPDEST ADD MLOAD SWAP1 POP CODESIZE DUP1 PUSH2 0x7BB JUMP JUMPDEST SWAP3 POP PUSH1 0x2 DUP6 ADD DUP12 MSTORE PUSH1 0x20 DUP12 KECCAK256 SWAP1 DUP12 SWAP4 JUMPDEST PUSH1 0x1F NOT DUP5 AND DUP6 LT PUSH2 0xE0E JUMPI PUSH1 0x1 SWAP5 POP DUP4 PUSH1 0x1F NOT DUP2 AND LT PUSH2 0xDF5 JUMPI JUMPDEST POP POP POP DUP2 SHL ADD PUSH1 0x2 DUP4 ADD SSTORE PUSH2 0x7D3 JUMP JUMPDEST ADD MLOAD PUSH1 0x0 NOT PUSH1 0xF8 DUP5 PUSH1 0x3 SHL AND SHR NOT AND SWAP1 SSTORE CODESIZE DUP1 DUP1 PUSH2 0xDE5 JUMP JUMPDEST DUP2 DUP2 ADD MLOAD DUP4 SSTORE PUSH1 0x20 SWAP5 DUP6 ADD SWAP5 PUSH1 0x1 SWAP1 SWAP4 ADD SWAP3 SWAP1 SWAP2 ADD SWAP1 PUSH2 0xDCA JUMP JUMPDEST ADD MLOAD SWAP1 POP CODESIZE DUP1 PUSH2 0x75C JUMP JUMPDEST SWAP3 POP PUSH1 0x1 DUP6 ADD DUP12 MSTORE PUSH1 0x20 DUP12 KECCAK256 SWAP1 DUP12 SWAP4 JUMPDEST PUSH1 0x1F NOT DUP5 AND DUP6 LT PUSH2 0xE88 JUMPI PUSH1 0x1 SWAP5 POP DUP4 PUSH1 0x1F NOT DUP2 AND LT PUSH2 0xE6F JUMPI JUMPDEST POP POP POP DUP2 SHL ADD PUSH1 0x1 DUP4 ADD SSTORE PUSH2 0x774 JUMP JUMPDEST ADD MLOAD PUSH1 0x0 NOT PUSH1 0xF8 DUP5 PUSH1 0x3 SHL AND SHR NOT AND SWAP1 SSTORE CODESIZE DUP1 DUP1 PUSH2 0xE5F JUMP JUMPDEST DUP2 DUP2 ADD MLOAD DUP4 SSTORE PUSH1 0x20 SWAP5 DUP6 ADD SWAP5 PUSH1 0x1 SWAP1 SWAP4 ADD SWAP3 SWAP1 SWAP2 ADD SWAP1 PUSH2 0xE44 JUMP JUMPDEST PUSH1 0x40 MLOAD PUSH3 0x461BCD PUSH1 0xE5 SHL DUP2 MSTORE PUSH1 0x20 PUSH1 0x4 DUP3 ADD MSTORE PUSH1 0x12 PUSH1 0x24 DUP3 ADD MSTORE PUSH18 0x223AB83634B1B0BA329038BAB2B9BA34B7B7 PUSH1 0x71 SHL PUSH1 0x44 DUP3 ADD MSTORE PUSH1 0x64 SWAP1 REVERT JUMPDEST PUSH1 0x40 MLOAD PUSH3 0x461BCD PUSH1 0xE5 SHL DUP2 MSTORE PUSH1 0x20 PUSH1 0x4 DUP3 ADD MSTORE PUSH1 0x10 PUSH1 0x24 DUP3 ADD MSTORE PUSH16 0x2232B0B23634B732903A37B7903330B9 PUSH1 0x81 SHL PUSH1 0x44 DUP3 ADD MSTORE PUSH1 0x64 SWAP1 REVERT JUMPDEST PUSH4 0x4E487B71 PUSH1 0xE0 SHL DUP9 MSTORE PUSH1 0x11 PUSH1 0x4 MSTORE PUSH1 0x24 DUP9 REVERT JUMPDEST PUSH1 0x40 MLOAD PUSH3 0x461BCD PUSH1 0xE5 SHL DUP2 MSTORE PUSH1 0x20 PUSH1 0x4 DUP3 ADD MSTORE PUSH1 0x1A PUSH1 0x24 DUP3 ADD MSTORE PUSH32 0x446561646C696E65206D75737420626520696E20667574757265000000000000 PUSH1 0x44 DUP3 ADD MSTORE PUSH1 0x64 SWAP1 REVERT JUMPDEST PUSH1 0x40 MLOAD PUSH3 0x461BCD PUSH1 0xE5 SHL DUP2 MSTORE PUSH1 0x20 PUSH1 0x4 DUP3 ADD MSTORE PUSH1 0xE PUSH1 0x24 DUP3 ADD MSTORE PUSH14 0x5469746C6520746F6F206C6F6E67 PUSH1 0x90 SHL PUSH1 0x44 DUP3 ADD MSTORE PUSH1 0x64 SWAP1 REVERT JUMPDEST PUSH1 0x40 MLOAD PUSH3 0x461BCD PUSH1 0xE5 SHL DUP2 MSTORE PUSH1 0x20 PUSH1 0x4 DUP3 ADD MSTORE PUSH1 0xB PUSH1 0x24 DUP3 ADD MSTORE PUSH11 0x456D707479207469746C65 PUSH1 0xA8 SHL PUSH1 0x44 DUP3 ADD MSTORE PUSH1 0x64 SWAP1 REVERT JUMPDEST DUP7 DUP1 REVERT JUMPDEST DUP6 DUP1 REVERT JUMPDEST DUP4 DUP1 REVERT JUMPDEST POP DUP1 REVERT JUMPDEST POP CALLVALUE PUSH2 0x3A7 JUMPI DUP1 PUSH1 0x3 NOT CALLDATASIZE ADD SLT PUSH2 0x3A7 JUMPI PUSH1 0x20 PUSH1 0x40 MLOAD PUSH1 0x1 DUP2 MSTORE RETURN JUMPDEST POP CALLVALUE PUSH2 0x3A7 JUMPI PUSH1 0x20 CALLDATASIZE PUSH1 0x3 NOT ADD SLT PUSH2 0x3A7 JUMPI PUSH2 0x101D PUSH2 0x64EC JUMP JUMPDEST PUSH2 0x1025 PUSH2 0x6964 JUMP JUMPDEST PUSH1 0x1 PUSH1 0x1 PUSH1 0xA0 SHL SUB SWAP1 DUP2 AND DUP1 ISZERO PUSH2 0x1087 JUMPI PUSH32 0x749A8050935FEB73A55AB4641C867C4DACC84430990FCAADA1D12BA9072AD02E SWAP2 PUSH1 0x60 SWAP2 PUSH1 0x12 SLOAD SWAP2 DUP2 PUSH1 0x1 PUSH1 0x1 PUSH1 0x60 SHL SUB PUSH1 0xA0 SHL DUP5 AND OR PUSH1 0x12 SSTORE PUSH1 0x40 MLOAD SWAP3 AND DUP3 MSTORE PUSH1 0x20 DUP3 ADD MSTORE CALLER PUSH1 0x40 DUP3 ADD MSTORE LOG1 DUP1 RETURN JUMPDEST PUSH1 0x40 MLOAD PUSH3 0x461BCD PUSH1 0xE5 SHL DUP2 MSTORE PUSH1 0x20 PUSH1 0x4 DUP3 ADD MSTORE PUSH1 0xF PUSH1 0x24 DUP3 ADD MSTORE PUSH15 0x496E76616C69642061646472657373 PUSH1 0x88 SHL PUSH1 0x44 DUP3 ADD MSTORE PUSH1 0x64 SWAP1 REVERT JUMPDEST POP CALLVALUE PUSH2 0x3A7 JUMPI PUSH1 0x20 DUP1 PUSH1 0x3 NOT CALLDATASIZE ADD SLT PUSH2 0xFE3 JUMPI PUSH1 0x4 CALLDATALOAD SWAP1 PUSH2 0x10DD PUSH2 0x6D86 JUMP JUMPDEST PUSH2 0x10E5 PUSH2 0x6D03 JUMP JUMPDEST PUSH9 0x3635C9ADC5DEA00000 DUP3 LT PUSH2 0x129E JUMPI PUSH1 0x10 SLOAD PUSH1 0x40 MLOAD PUSH4 0x23B872DD PUSH1 0xE0 SHL DUP2 MSTORE CALLER PUSH1 0x4 DUP3 ADD MSTORE ADDRESS PUSH1 0x24 DUP3 ADD MSTORE PUSH1 0x44 DUP2 ADD DUP5 SWAP1 MSTORE PUSH1 0x1 PUSH1 0x1 PUSH1 0xA0 SHL SUB SWAP2 DUP4 SWAP1 DUP3 SWAP1 PUSH1 0x64 SWAP1 DUP3 SWAP1 DUP10 SWAP1 DUP8 AND GAS CALL DUP1 ISZERO PUSH2 0x1293 JUMPI PUSH2 0x1147 SWAP2 DUP7 SWAP2 PUSH2 0x1266 JUMPI JUMPDEST POP PUSH2 0x6D39 JUMP JUMPDEST CALLER DUP5 MSTORE PUSH1 0x9 DUP3 MSTORE PUSH1 0x40 DUP5 KECCAK256 PUSH1 0x3 DUP2 ADD PUSH2 0x1161 DUP6 DUP3 SLOAD PUSH2 0x6C47 JUMP JUMPDEST SWAP1 SSTORE PUSH1 0x5 DUP2 ADD DUP1 SLOAD PUSH1 0xFF NOT AND PUSH1 0x1 OR SWAP1 SSTORE PUSH1 0x6 DUP2 ADD DUP1 SLOAD DUP1 PUSH2 0x1260 JUMPI POP TIMESTAMP SWAP1 JUMPDEST SSTORE PUSH1 0x7 TIMESTAMP SWAP2 ADD SSTORE PUSH1 0x0 DUP1 MLOAD PUSH1 0x20 PUSH2 0x7479 DUP4 CODECOPY DUP2 MLOAD SWAP2 MSTORE DUP5 MSTORE DUP4 DUP3 MSTORE PUSH1 0x40 DUP5 KECCAK256 CALLER PUSH1 0x0 MSTORE DUP3 MSTORE PUSH1 0xFF PUSH1 0x40 PUSH1 0x0 KECCAK256 SLOAD AND ISZERO PUSH2 0x11FC JUMPI JUMPDEST POP PUSH1 0x40 MLOAD SWAP2 DUP3 MSTORE CALLER SWAP1 DUP3 ADD MSTORE PUSH32 0x54E2805007919DEE52F88694F4C6F06BFD679D5D9784EE95AE44F4FF9020523E PUSH1 0x40 CALLER SWAP3 LOG2 PUSH1 0x1 PUSH1 0x0 DUP1 MLOAD PUSH1 0x20 PUSH2 0x74B9 DUP4 CODECOPY DUP2 MLOAD SWAP2 MSTORE SSTORE DUP1 RETURN JUMPDEST PUSH2 0x1205 CALLER PUSH2 0x69E6 JUMP JUMPDEST POP PUSH1 0xC SLOAD PUSH1 0x1 PUSH1 0x40 SHL DUP2 LT ISZERO PUSH2 0x124C JUMPI DUP1 PUSH1 0x1 PUSH2 0x1225 SWAP3 ADD PUSH1 0xC SSTORE PUSH2 0x6803 JUMP JUMPDEST DUP2 SWAP3 SWAP2 SLOAD SWAP1 PUSH1 0x3 SHL SWAP2 CALLER DUP4 SHL SWAP3 SHL NOT AND OR SWAP1 SSTORE PUSH2 0x1243 PUSH1 0xD SLOAD PUSH2 0x6D77 JUMP JUMPDEST PUSH1 0xD SSTORE CODESIZE PUSH2 0x11B5 JUMP JUMPDEST PUSH4 0x4E487B71 PUSH1 0xE0 SHL DUP6 MSTORE PUSH1 0x41 PUSH1 0x4 MSTORE PUSH1 0x24 DUP6 REVERT JUMPDEST SWAP1 PUSH2 0x1181 JUMP JUMPDEST PUSH2 0x1286 SWAP2 POP DUP5 RETURNDATASIZE DUP7 GT PUSH2 0x128C JUMPI JUMPDEST PUSH2 0x127E DUP2 DUP4 PUSH2 0x65D9 JUMP JUMPDEST DUP2 ADD SWAP1 PUSH2 0x6D21 JUMP JUMPDEST CODESIZE PUSH2 0x1141 JUMP JUMPDEST POP RETURNDATASIZE PUSH2 0x1274 JUMP JUMPDEST PUSH1 0x40 MLOAD RETURNDATASIZE DUP8 DUP3 RETURNDATACOPY RETURNDATASIZE SWAP1 REVERT JUMPDEST PUSH1 0x64 SWAP1 PUSH1 0x40 MLOAD SWAP1 PUSH3 0x461BCD PUSH1 0xE5 SHL DUP3 MSTORE PUSH1 0x4 DUP3 ADD MSTORE PUSH1 0x16 PUSH1 0x24 DUP3 ADD MSTORE PUSH22 0x135A5B9A5B5D5B481CDD185AD9481C995C5D5A5C9959 PUSH1 0x52 SHL PUSH1 0x44 DUP3 ADD MSTORE REVERT JUMPDEST POP CALLVALUE PUSH2 0x3A7 JUMPI PUSH1 0x20 CALLDATASIZE PUSH1 0x3 NOT ADD SLT PUSH2 0x3A7 JUMPI PUSH1 0x4 CALLDATALOAD PUSH2 0x12F8 PUSH2 0x6964 JUMP JUMPDEST DUP1 DUP3 MSTORE PUSH1 0x2 PUSH1 0x20 MSTORE PUSH1 0xC PUSH1 0x40 DUP4 KECCAK256 ADD PUSH1 0xFF NOT DUP2 SLOAD AND SWAP1 SSTORE PUSH32 0xAE8810C687C7C61215A3919FC6781795C6C0BE077823DBE9B123996FD3AA082B PUSH1 0x20 PUSH1 0x40 MLOAD CALLER DUP2 MSTORE LOG2 DUP1 RETURN JUMPDEST POP CALLVALUE PUSH2 0x3A7 JUMPI PUSH1 0x40 CALLDATASIZE PUSH1 0x3 NOT ADD SLT PUSH2 0x3A7 JUMPI PUSH2 0x1379 PUSH1 0x4 CALLDATALOAD PUSH2 0x135C PUSH2 0x6502 JUMP JUMPDEST SWAP1 DUP1 DUP5 MSTORE DUP4 PUSH1 0x20 MSTORE PUSH2 0x1374 PUSH1 0x1 PUSH1 0x40 DUP7 KECCAK256 ADD SLOAD PUSH2 0x69C0 JUMP JUMPDEST PUSH2 0x6B98 JUMP JUMPDEST POP DUP1 RETURN JUMPDEST POP CALLVALUE PUSH2 0x3A7 JUMPI DUP1 PUSH1 0x3 NOT CALLDATASIZE ADD SLT PUSH2 0x3A7 JUMPI PUSH1 0x20 PUSH1 0x40 MLOAD PUSH2 0x2710 DUP2 MSTORE RETURN JUMPDEST POP CALLVALUE PUSH2 0x3A7 JUMPI PUSH1 0x20 SWAP1 DUP2 PUSH1 0x3 NOT CALLDATASIZE ADD SLT PUSH2 0x3A7 JUMPI SWAP1 PUSH1 0x4 CALLDATALOAD DUP3 MSTORE PUSH1 0x5 SWAP2 DUP3 DUP3 MSTORE PUSH1 0x40 DUP2 KECCAK256 SWAP1 DUP2 SLOAD PUSH2 0x13CA DUP2 PUSH2 0x7441 JUMP JUMPDEST SWAP1 PUSH2 0x13D8 PUSH1 0x40 MLOAD SWAP3 DUP4 PUSH2 0x65D9 JUMP JUMPDEST DUP1 DUP3 MSTORE DUP5 DUP3 ADD DUP1 SWAP5 DUP5 MSTORE DUP6 DUP5 KECCAK256 DUP5 SWAP2 JUMPDEST DUP4 DUP4 LT PUSH2 0x14D3 JUMPI POP POP POP POP PUSH1 0x40 MLOAD SWAP4 DUP1 DUP6 ADD SWAP2 DUP2 DUP7 MSTORE MLOAD DUP1 SWAP3 MSTORE PUSH1 0x40 DUP3 DUP2 DUP8 ADD SWAP8 SHL DUP7 ADD ADD SWAP4 SWAP3 SWAP6 JUMPDEST DUP3 DUP8 LT PUSH2 0x141E JUMPI DUP6 DUP6 SUB DUP7 RETURN JUMPDEST SWAP1 SWAP2 SWAP3 SWAP4 DUP3 DUP1 PUSH1 0x1 SWAP3 PUSH1 0x3F NOT DUP10 DUP3 SUB ADD DUP6 MSTORE DUP8 MLOAD SWAP1 DUP2 MLOAD DUP2 MSTORE DUP5 DUP1 PUSH1 0xA0 SHL SUB DUP4 DUP4 ADD MLOAD AND DUP4 DUP3 ADD MSTORE PUSH2 0x14A1 PUSH2 0x1478 PUSH2 0x1465 PUSH1 0x40 DUP6 ADD MLOAD PUSH2 0x140 DUP1 PUSH1 0x40 DUP8 ADD MSTORE DUP6 ADD SWAP1 PUSH2 0x672A JUMP JUMPDEST PUSH1 0x60 DUP1 DUP7 ADD MLOAD SWAP1 DUP6 DUP4 SUB SWAP1 DUP7 ADD MSTORE PUSH2 0x672A JUMP JUMPDEST PUSH1 0x80 DUP1 DUP6 ADD MLOAD SWAP1 DUP5 ADD MSTORE PUSH1 0xA0 DUP1 DUP6 ADD MLOAD ISZERO ISZERO SWAP1 DUP5 ADD MSTORE PUSH1 0xC0 DUP1 DUP6 ADD MLOAD SWAP1 DUP5 DUP4 SUB SWAP1 DUP6 ADD MSTORE PUSH2 0x672A JUMP JUMPDEST SWAP2 PUSH1 0xE0 DUP2 ADD MLOAD PUSH1 0xE0 DUP4 ADD MSTORE PUSH2 0x100 DUP1 DUP3 ADD MLOAD ISZERO ISZERO SWAP1 DUP4 ADD MSTORE PUSH2 0x120 DUP1 SWAP2 ADD MLOAD SWAP2 ADD MSTORE SWAP7 ADD SWAP3 ADD SWAP7 ADD SWAP6 SWAP3 SWAP2 SWAP1 SWAP3 PUSH2 0x1411 JUMP JUMPDEST PUSH1 0xA DUP9 PUSH1 0x1 SWAP3 PUSH1 0x40 SWAP11 SWAP8 SWAP9 SWAP11 MLOAD PUSH2 0x14E9 DUP2 PUSH2 0x6518 JUMP JUMPDEST DUP6 SLOAD DUP2 MSTORE DUP5 DUP1 PUSH1 0xA0 SHL SUB DUP6 DUP8 ADD SLOAD AND DUP4 DUP3 ADD MSTORE PUSH2 0x1508 PUSH1 0x2 DUP8 ADD PUSH2 0x667A JUMP JUMPDEST PUSH1 0x40 DUP3 ADD MSTORE PUSH2 0x1519 PUSH1 0x3 DUP8 ADD PUSH2 0x667A JUMP JUMPDEST PUSH1 0x60 DUP3 ADD MSTORE PUSH1 0x4 DUP7 ADD SLOAD PUSH1 0x80 DUP3 ADD MSTORE DUP13 PUSH1 0xFF DUP1 SWAP2 DUP9 ADD SLOAD AND ISZERO ISZERO PUSH1 0xA0 DUP4 ADD MSTORE PUSH2 0x1544 PUSH1 0x6 DUP9 ADD PUSH2 0x667A JUMP JUMPDEST PUSH1 0xC0 DUP4 ADD MSTORE PUSH1 0x7 DUP8 ADD SLOAD PUSH1 0xE0 DUP4 ADD MSTORE PUSH1 0x8 DUP8 ADD SLOAD AND ISZERO ISZERO PUSH2 0x100 DUP3 ADD MSTORE PUSH1 0x9 DUP7 ADD SLOAD PUSH2 0x120 DUP3 ADD MSTORE DUP2 MSTORE ADD SWAP3 ADD SWAP3 ADD SWAP2 SWAP1 SWAP7 SWAP5 SWAP4 SWAP7 PUSH2 0x13E8 JUMP JUMPDEST POP CALLVALUE PUSH2 0x3A7 JUMPI DUP1 PUSH1 0x3 NOT CALLDATASIZE ADD SLT PUSH2 0x3A7 JUMPI PUSH1 0x20 PUSH1 0x40 MLOAD PUSH32 0x482648E7878E9FA54C0A2F67FFD22D00EBC37CF7A03E060E428D2AB0CD6735CC DUP2 MSTORE RETURN JUMPDEST POP CALLVALUE PUSH2 0x3A7 JUMPI PUSH1 0x20 CALLDATASIZE PUSH1 0x3 NOT ADD SLT PUSH2 0x3A7 JUMPI PUSH1 0x4 CALLDATALOAD PUSH2 0x15D6 PUSH2 0x6964 JUMP JUMPDEST PUSH2 0x2710 DUP2 GT PUSH2 0x162C JUMPI PUSH1 0xF DUP1 SLOAD SWAP1 DUP3 SWAP1 SSTORE PUSH1 0x40 DUP1 MLOAD SWAP2 DUP3 MSTORE PUSH1 0x20 DUP3 ADD SWAP3 SWAP1 SWAP3 MSTORE CALLER SWAP2 DUP2 ADD SWAP2 SWAP1 SWAP2 MSTORE PUSH32 0x79DB36DB82B401E84BAD578E25B5069E451718A8758AA72CEDF8A6D705E491B3 SWAP1 DUP1 PUSH1 0x60 DUP2 ADD JUMPDEST SUB SWAP1 LOG1 DUP1 RETURN JUMPDEST PUSH1 0x40 MLOAD PUSH3 0x461BCD PUSH1 0xE5 SHL DUP2 MSTORE PUSH1 0x20 PUSH1 0x4 DUP3 ADD MSTORE PUSH1 0x11 PUSH1 0x24 DUP3 ADD MSTORE PUSH17 0x125B9D985B1A59081D1A1C995CDA1BDB19 PUSH1 0x7A SHL PUSH1 0x44 DUP3 ADD MSTORE PUSH1 0x64 SWAP1 REVERT JUMPDEST POP CALLVALUE PUSH2 0x3A7 JUMPI PUSH1 0x20 CALLDATASIZE PUSH1 0x3 NOT ADD SLT PUSH2 0x3A7 JUMPI PUSH1 0x4 CALLDATALOAD PUSH2 0x1682 PUSH2 0x6964 JUMP JUMPDEST DUP1 ISZERO ISZERO DUP1 PUSH2 0x1708 JUMPI JUMPDEST ISZERO PUSH2 0x16D2 JUMPI PUSH1 0xE SLOAD PUSH1 0x40 DUP1 MLOAD SWAP2 DUP3 MSTORE PUSH1 0x20 DUP3 ADD DUP4 SWAP1 MSTORE CALLER SWAP1 DUP3 ADD MSTORE PUSH32 0xACBE3EA4C87F72EBA6DF80FC6E259F534F49EDF4AE4B1BFFF5CD9CD93B925A7A SWAP1 PUSH1 0x60 SWAP1 LOG1 PUSH1 0xE SSTORE DUP1 RETURN JUMPDEST PUSH1 0x40 MLOAD PUSH3 0x461BCD PUSH1 0xE5 SHL DUP2 MSTORE PUSH1 0x20 PUSH1 0x4 DUP3 ADD MSTORE PUSH1 0xE PUSH1 0x24 DUP3 ADD MSTORE PUSH14 0x496E76616C69642071756F72756D PUSH1 0x90 SHL PUSH1 0x44 DUP3 ADD MSTORE PUSH1 0x64 SWAP1 REVERT JUMPDEST POP PUSH1 0xD SLOAD DUP2 GT ISZERO PUSH2 0x168B JUMP JUMPDEST POP CALLVALUE PUSH2 0x3A7 JUMPI DUP1 PUSH1 0x3 NOT CALLDATASIZE ADD SLT PUSH2 0x3A7 JUMPI PUSH1 0x20 PUSH1 0x40 MLOAD PUSH9 0x56BC75E2D63100000 DUP2 MSTORE RETURN JUMPDEST POP CALLVALUE PUSH2 0x3A7 JUMPI DUP1 PUSH1 0x3 NOT CALLDATASIZE ADD SLT PUSH2 0x3A7 JUMPI PUSH1 0x20 PUSH1 0xB SLOAD PUSH1 0x40 MLOAD SWAP1 DUP2 MSTORE RETURN JUMPDEST POP CALLVALUE PUSH2 0x3A7 JUMPI PUSH1 0x40 CALLDATASIZE PUSH1 0x3 NOT ADD SLT PUSH2 0x3A7 JUMPI PUSH2 0x1770 PUSH2 0x64EC JUMP JUMPDEST CALLER PUSH1 0x0 SWAP1 DUP2 MSTORE PUSH32 0xAD3228B676F7D3CD4284A5443F17F1962B36E491B30A40B2405849E597BA5FB5 PUSH1 0x20 MSTORE PUSH1 0x40 SWAP1 KECCAK256 SLOAD PUSH1 0x24 CALLDATALOAD SWAP1 PUSH1 0xFF AND ISZERO PUSH2 0x185C JUMPI PUSH1 0x40 MLOAD PUSH4 0xA9059CBB PUSH1 0xE0 SHL DUP2 MSTORE CALLER PUSH1 0x4 DUP3 ADD MSTORE PUSH1 0x24 DUP2 ADD DUP3 SWAP1 MSTORE SWAP2 PUSH1 0x20 DUP4 PUSH1 0x44 DUP2 DUP8 PUSH1 0x1 PUSH1 0x1 PUSH1 0xA0 SHL SUB DUP7 AND GAS CALL SWAP3 DUP4 ISZERO PUSH2 0x1851 JUMPI PUSH32 0xE191EE1E354192688AF5EC7DA0CC3D7F54ECB056E6418D42E73DDC4C37D3637 SWAP4 PUSH2 0x1812 SWAP2 DUP7 SWAP2 PUSH2 0x1839 JUMPI POP PUSH2 0x6D39 JUMP JUMPDEST PUSH1 0x40 DUP1 MLOAD PUSH1 0x1 PUSH1 0x1 PUSH1 0xA0 SHL SUB SWAP1 SWAP3 AND DUP3 MSTORE CALLER PUSH1 0x20 DUP4 ADD MSTORE DUP2 ADD SWAP2 SWAP1 SWAP2 MSTORE DUP1 PUSH1 0x60 DUP2 ADD PUSH2 0x1626 JUMP JUMPDEST PUSH2 0x1286 SWAP2 POP PUSH1 0x20 RETURNDATASIZE DUP2 GT PUSH2 0x128C JUMPI PUSH2 0x127E DUP2 DUP4 PUSH2 0x65D9 JUMP JUMPDEST PUSH1 0x40 MLOAD RETURNDATASIZE DUP7 DUP3 RETURNDATACOPY RETURNDATASIZE SWAP1 REVERT JUMPDEST PUSH1 0x40 MLOAD PUSH4 0xE2517D3F PUSH1 0xE0 SHL DUP2 MSTORE CALLER PUSH1 0x4 DUP3 ADD MSTORE PUSH1 0x0 PUSH1 0x24 DUP3 ADD MSTORE PUSH1 0x44 SWAP1 REVERT JUMPDEST POP CALLVALUE PUSH2 0x3A7 JUMPI PUSH1 0x20 CALLDATASIZE PUSH1 0x3 NOT ADD SLT PUSH2 0x3A7 JUMPI PUSH2 0x100 SWAP1 PUSH1 0x40 SWAP1 PUSH1 0x1 PUSH1 0x1 PUSH1 0xA0 SHL SUB PUSH2 0x18A4 PUSH2 0x64EC JUMP JUMPDEST AND DUP2 MSTORE PUSH1 0x9 PUSH1 0x20 MSTORE KECCAK256 DUP1 SLOAD SWAP1 PUSH1 0x1 DUP2 ADD SLOAD SWAP1 PUSH1 0x2 DUP2 ADD SLOAD PUSH1 0x3 DUP3 ADD SLOAD PUSH1 0x4 DUP4 ADD SLOAD SWAP1 PUSH1 0xFF PUSH1 0x5 DUP6 ADD SLOAD AND SWAP3 PUSH1 0x7 PUSH1 0x6 DUP7 ADD SLOAD SWAP6 ADD SLOAD SWAP6 PUSH1 0x40 MLOAD SWAP8 DUP9 MSTORE PUSH1 0x20 DUP9 ADD MSTORE PUSH1 0x40 DUP8 ADD MSTORE PUSH1 0x60 DUP7 ADD MSTORE PUSH1 0x80 DUP6 ADD MSTORE ISZERO ISZERO PUSH1 0xA0 DUP5 ADD MSTORE PUSH1 0xC0 DUP4 ADD MSTORE PUSH1 0xE0 DUP3 ADD MSTORE RETURN JUMPDEST POP CALLVALUE PUSH2 0x3A7 JUMPI PUSH2 0x1916 CALLDATASIZE PUSH2 0x6887 JUMP JUMPDEST SWAP2 SWAP1 DUP2 MSTORE PUSH1 0x3 PUSH1 0x20 MSTORE PUSH1 0x40 DUP2 KECCAK256 SWAP1 DUP2 SLOAD DUP4 LT ISZERO PUSH2 0x3A7 JUMPI PUSH2 0x1992 PUSH2 0x193A DUP5 DUP5 PUSH2 0x68B9 JUMP JUMPDEST POP PUSH2 0x1944 DUP2 PUSH2 0x667A JUMP JUMPDEST SWAP1 PUSH2 0x1951 PUSH1 0x1 DUP3 ADD PUSH2 0x667A JUMP JUMPDEST PUSH1 0x1 DUP1 PUSH1 0xA0 SHL SUB PUSH1 0x2 DUP4 ADD SLOAD AND SWAP2 PUSH1 0x3 DUP2 ADD SLOAD PUSH1 0xFF PUSH1 0x4 DUP4 ADD SLOAD AND SWAP1 PUSH2 0x19A0 PUSH1 0xFF PUSH1 0x6 PUSH1 0x5 DUP7 ADD SLOAD SWAP6 ADD SLOAD AND SWAP5 PUSH1 0x40 MLOAD SWAP9 DUP10 SWAP9 PUSH1 0xE0 DUP11 MSTORE PUSH1 0xE0 DUP11 ADD SWAP1 PUSH2 0x672A JUMP JUMPDEST SWAP1 DUP9 DUP3 SUB PUSH1 0x20 DUP11 ADD MSTORE PUSH2 0x672A JUMP JUMPDEST SWAP5 PUSH1 0x40 DUP8 ADD MSTORE PUSH1 0x60 DUP7 ADD MSTORE PUSH2 0x19B4 DUP2 PUSH2 0x67EC JUMP JUMPDEST PUSH1 0x80 DUP6 ADD MSTORE PUSH1 0xA0 DUP5 ADD MSTORE ISZERO ISZERO PUSH1 0xC0 DUP4 ADD MSTORE SUB SWAP1 RETURN JUMPDEST POP CALLVALUE PUSH2 0x3A7 JUMPI PUSH2 0x19D8 CALLDATASIZE PUSH2 0x6887 JUMP JUMPDEST SWAP1 DUP3 MSTORE PUSH1 0x5 PUSH1 0x20 MSTORE PUSH1 0x40 DUP3 KECCAK256 DUP1 SLOAD DUP3 LT ISZERO PUSH2 0x1AB9 JUMPI PUSH2 0x19F7 SWAP3 POP PUSH2 0x689D JUMP JUMPDEST POP DUP1 SLOAD PUSH1 0x1 DUP3 ADD SLOAD PUSH1 0x1 PUSH1 0x1 PUSH1 0xA0 SHL SUB AND SWAP2 PUSH2 0x1A15 PUSH1 0x2 DUP3 ADD PUSH2 0x667A JUMP JUMPDEST PUSH2 0x1A21 PUSH1 0x3 DUP4 ADD PUSH2 0x667A JUMP JUMPDEST SWAP2 PUSH2 0x1AA1 PUSH1 0x4 DUP3 ADD SLOAD PUSH1 0xFF PUSH1 0x5 DUP5 ADD SLOAD AND PUSH2 0x1A3E PUSH1 0x6 DUP6 ADD PUSH2 0x667A JUMP JUMPDEST SWAP1 PUSH2 0x1A87 PUSH1 0x7 DUP7 ADD SLOAD SWAP8 PUSH2 0x1A79 PUSH1 0x9 PUSH1 0xFF PUSH1 0x8 DUP11 ADD SLOAD AND SWAP9 ADD SLOAD SWAP9 PUSH1 0x40 MLOAD SWAP13 DUP14 SWAP13 DUP14 MSTORE PUSH1 0x20 DUP14 ADD MSTORE PUSH1 0x40 DUP13 PUSH2 0x140 SWAP2 DUP3 SWAP2 ADD MSTORE DUP13 ADD SWAP1 PUSH2 0x672A JUMP JUMPDEST SWAP1 DUP11 DUP3 SUB PUSH1 0x60 DUP13 ADD MSTORE PUSH2 0x672A JUMP JUMPDEST SWAP3 PUSH1 0x80 DUP10 ADD MSTORE ISZERO ISZERO PUSH1 0xA0 DUP9 ADD MSTORE DUP7 DUP3 SUB PUSH1 0xC0 DUP9 ADD MSTORE PUSH2 0x672A JUMP JUMPDEST SWAP3 PUSH1 0xE0 DUP6 ADD MSTORE ISZERO ISZERO PUSH2 0x100 DUP5 ADD MSTORE PUSH2 0x120 DUP4 ADD MSTORE SUB SWAP1 RETURN JUMPDEST DUP3 DUP1 REVERT JUMPDEST POP CALLVALUE PUSH2 0x3A7 JUMPI PUSH1 0x80 CALLDATASIZE PUSH1 0x3 NOT ADD SLT PUSH2 0x3A7 JUMPI PUSH1 0x1 PUSH1 0x1 PUSH1 0x40 SHL SUB PUSH1 0x44 CALLDATALOAD DUP2 DUP2 GT PUSH2 0x1AB9 JUMPI PUSH2 0x1AEF SWAP1 CALLDATASIZE SWAP1 PUSH1 0x4 ADD PUSH2 0x67BF JUMP JUMPDEST PUSH1 0x64 SWAP3 SWAP2 SWAP3 CALLDATALOAD ISZERO ISZERO PUSH1 0x64 CALLDATALOAD SUB PUSH2 0xFDF JUMPI PUSH2 0x1B07 PUSH2 0x6D86 JUMP JUMPDEST PUSH2 0x1B0F PUSH2 0x6908 JUMP JUMPDEST PUSH1 0x4 CALLDATALOAD DUP5 MSTORE PUSH1 0x5 PUSH1 0x20 MSTORE PUSH1 0x40 DUP5 KECCAK256 SLOAD PUSH1 0x24 CALLDATALOAD LT ISZERO PUSH2 0x21CF JUMPI PUSH1 0x4 CALLDATALOAD DUP5 MSTORE PUSH1 0x5 PUSH1 0x20 MSTORE PUSH2 0x1B40 PUSH1 0x24 CALLDATALOAD PUSH1 0x40 DUP7 KECCAK256 PUSH2 0x689D JUMP JUMPDEST POP SWAP2 PUSH1 0x5 DUP4 ADD DUP1 SLOAD PUSH1 0xFF DUP2 AND PUSH2 0x2197 JUMPI PUSH1 0xFF NOT AND PUSH1 0x1 OR SWAP1 SSTORE DUP2 GT PUSH2 0x2183 JUMPI PUSH2 0x1B79 DUP2 PUSH2 0x1B70 PUSH1 0x6 DUP6 ADD SLOAD PUSH2 0x6640 JUMP JUMPDEST PUSH1 0x6 DUP6 ADD PUSH2 0x6C6A JUMP JUMPDEST DUP1 DUP5 PUSH1 0x1F DUP3 GT PUSH1 0x1 EQ PUSH2 0x2119 JUMPI DUP6 SWAP2 PUSH2 0x210E JUMPI JUMPDEST POP DUP2 PUSH1 0x1 SHL SWAP1 PUSH1 0x0 NOT DUP4 PUSH1 0x3 SHL SHR NOT AND OR PUSH1 0x6 DUP4 ADD SSTORE JUMPDEST PUSH1 0x64 CALLDATALOAD ISZERO PUSH2 0x1FC4 JUMPI PUSH1 0x10 SLOAD PUSH1 0x1 DUP4 ADD SLOAD PUSH1 0x40 MLOAD PUSH4 0xA9059CBB PUSH1 0xE0 SHL DUP2 MSTORE PUSH1 0x1 PUSH1 0x1 PUSH1 0xA0 SHL SUB SWAP2 DUP3 AND PUSH1 0x4 DUP3 ADD MSTORE PUSH9 0x410D586A20A4C0000 PUSH1 0x24 DUP3 ADD MSTORE SWAP2 PUSH1 0x20 SWAP2 DUP4 SWAP2 PUSH1 0x44 SWAP2 DUP4 SWAP2 DUP11 SWAP2 AND GAS CALL SWAP1 DUP2 ISZERO PUSH2 0x1293 JUMPI DUP6 SWAP2 PUSH2 0x1FA5 JUMPI JUMPDEST POP ISZERO PUSH2 0x1F67 JUMPI PUSH1 0x8 DUP3 ADD PUSH1 0x1 PUSH1 0xFF NOT DUP3 SLOAD AND OR SWAP1 SSTORE PUSH1 0x1 DUP1 PUSH1 0xA0 SHL SUB PUSH1 0x1 DUP4 ADD SLOAD AND PUSH32 0xB4F8E0B2D5A55A9EECC8E79ED079D1E2A8316B0C826EE836043AF5DEFB111AB4 PUSH1 0x80 PUSH1 0x40 MLOAD PUSH9 0x410D586A20A4C0000 DUP2 MSTORE PUSH1 0x40 PUSH1 0x20 DUP3 ADD MSTORE PUSH1 0xD PUSH1 0x40 DUP3 ADD MSTORE PUSH13 0x56616C69642064697370757465 PUSH1 0x98 SHL PUSH1 0x60 DUP3 ADD MSTORE LOG2 PUSH1 0x4 CALLDATALOAD DUP5 MSTORE PUSH1 0x2 PUSH1 0x20 MSTORE PUSH1 0x40 DUP5 KECCAK256 PUSH1 0x3 PUSH1 0xFF PUSH1 0x6 DUP4 ADD SLOAD PUSH1 0xA0 SHR AND PUSH2 0x1C9B DUP2 PUSH2 0x6720 JUMP JUMPDEST EQ PUSH2 0x1D0F JUMPI JUMPDEST POP PUSH2 0x1CEA PUSH1 0xFF PUSH1 0x8 PUSH32 0xC5ADDCB5970870012A6DD9468CD494E0DA2C83F94D4F510EC17AB0A307A27554 SWAP5 JUMPDEST ADD SLOAD AND SWAP4 PUSH1 0x40 MLOAD SWAP3 PUSH1 0x24 CALLDATALOAD DUP5 MSTORE PUSH1 0x60 PUSH1 0x20 DUP6 ADD MSTORE PUSH1 0x60 DUP5 ADD SWAP2 PUSH2 0x6CE2 JUMP JUMPDEST SWAP3 ISZERO ISZERO PUSH1 0x40 DUP3 ADD MSTORE DUP1 PUSH1 0x4 CALLDATALOAD SWAP4 SUB SWAP1 LOG2 PUSH1 0x1 PUSH1 0x0 DUP1 MLOAD PUSH1 0x20 PUSH2 0x74B9 DUP4 CODECOPY DUP2 MLOAD SWAP2 MSTORE SSTORE DUP1 RETURN JUMPDEST PUSH1 0xA ADD SLOAD PUSH1 0x1 PUSH1 0x1 PUSH1 0xA0 SHL SUB AND DUP1 ISZERO ISZERO DUP1 PUSH2 0x1F4F JUMPI JUMPDEST ISZERO PUSH2 0x1CA1 JUMPI SWAP2 PUSH1 0x40 MLOAD SWAP3 PUSH2 0x1D38 DUP5 PUSH2 0x65BE JUMP JUMPDEST PUSH1 0x20 DUP5 MSTORE PUSH32 0x56616C6964206469737075746520616761696E7374207265736F6C7574696F6E PUSH1 0x20 DUP6 ADD MSTORE PUSH2 0x1D6A PUSH2 0x6D86 JUMP JUMPDEST PUSH2 0x1D72 PUSH2 0x6908 JUMP JUMPDEST DUP1 DUP7 MSTORE PUSH1 0x9 PUSH1 0x20 MSTORE PUSH1 0x40 DUP7 KECCAK256 PUSH1 0x3 DUP2 ADD SLOAD SWAP3 DUP4 ISZERO PUSH2 0x1F16 JUMPI DUP8 SWAP3 PUSH2 0x1E1E SWAP3 PUSH9 0x2B5E3AF16B1880000 DUP7 DUP2 GT ISZERO PUSH2 0x1F01 JUMPI POP PUSH9 0x3635C9ADC5DEA00000 PUSH2 0x1DB7 DUP8 DUP1 PUSH2 0x6DF7 JUMP JUMPDEST DUP1 PUSH1 0x3 DUP5 ADD SSTORE PUSH1 0x4 DUP4 ADD PUSH2 0x1DCB DUP2 SLOAD PUSH2 0x6D77 JUMP JUMPDEST SWAP1 SSTORE PUSH2 0x1DD6 DUP4 PUSH2 0x6E24 JUMP JUMPDEST DUP4 SSTORE LT PUSH2 0x1ED8 JUMPI JUMPDEST POP PUSH1 0x10 SLOAD PUSH1 0x12 SLOAD PUSH1 0x40 MLOAD PUSH4 0xA9059CBB PUSH1 0xE0 SHL DUP2 MSTORE PUSH1 0x1 PUSH1 0x1 PUSH1 0xA0 SHL SUB SWAP2 DUP3 AND PUSH1 0x4 DUP3 ADD MSTORE PUSH1 0x24 DUP2 ADD DUP9 SWAP1 MSTORE SWAP5 PUSH1 0x20 SWAP3 DUP7 SWAP3 AND SWAP1 DUP3 SWAP1 DUP9 SWAP1 DUP3 SWAP1 PUSH1 0x44 DUP3 ADD SWAP1 JUMP JUMPDEST SUB SWAP3 GAS CALL SWAP3 DUP4 ISZERO PUSH2 0x1851 JUMPI PUSH32 0xC5ADDCB5970870012A6DD9468CD494E0DA2C83F94D4F510EC17AB0A307A27554 SWAP8 PUSH2 0x1CEA SWAP7 PUSH2 0x1E85 PUSH1 0x8 SWAP7 PUSH32 0xED9E5190E975AA4403C276297E605B40D5A99683C8D2482166C8EFBD1A89265F SWAP5 PUSH1 0xFF SWAP10 SWAP2 PUSH2 0x1EBF JUMPI POP PUSH2 0x6D39 JUMP JUMPDEST PUSH2 0x1EA1 PUSH1 0x40 MLOAD SWAP3 DUP4 SWAP3 DUP4 MSTORE PUSH1 0x40 PUSH1 0x20 DUP5 ADD MSTORE PUSH1 0x40 DUP4 ADD SWAP1 PUSH2 0x672A JUMP JUMPDEST SUB SWAP1 LOG2 PUSH1 0x1 PUSH1 0x0 DUP1 MLOAD PUSH1 0x20 PUSH2 0x74B9 DUP4 CODECOPY DUP2 MLOAD SWAP2 MSTORE SSTORE SWAP5 POP POP POP PUSH2 0x1CA1 JUMP JUMPDEST PUSH2 0x1286 SWAP2 POP PUSH1 0x20 RETURNDATASIZE PUSH1 0x20 GT PUSH2 0x128C JUMPI PUSH2 0x127E DUP2 DUP4 PUSH2 0x65D9 JUMP JUMPDEST PUSH1 0x5 ADD DUP1 SLOAD PUSH1 0xFF NOT AND SWAP1 SSTORE PUSH2 0x1EEC DUP2 PUSH2 0x6AFF JUMP JUMPDEST POP PUSH2 0x1EF8 PUSH1 0xD SLOAD PUSH2 0x6E04 JUMP JUMPDEST PUSH1 0xD SSTORE CODESIZE PUSH2 0x1DDE JUMP JUMPDEST PUSH2 0x1DB7 PUSH9 0x3635C9ADC5DEA00000 SWAP2 DUP1 SWAP9 PUSH2 0x6DF7 JUMP JUMPDEST PUSH1 0x40 MLOAD PUSH3 0x461BCD PUSH1 0xE5 SHL DUP2 MSTORE PUSH1 0x20 PUSH1 0x4 DUP3 ADD MSTORE PUSH1 0x11 PUSH1 0x24 DUP3 ADD MSTORE PUSH17 0x9CDE40E6E8C2D6CA40E8DE40E6D8C2E6D PUSH1 0x7B SHL PUSH1 0x44 DUP3 ADD MSTORE PUSH1 0x64 SWAP1 REVERT JUMPDEST POP DUP1 DUP6 MSTORE PUSH1 0x9 PUSH1 0x20 MSTORE PUSH1 0x3 PUSH1 0x40 DUP7 KECCAK256 ADD SLOAD ISZERO ISZERO PUSH2 0x1D25 JUMP JUMPDEST PUSH1 0x40 MLOAD PUSH3 0x461BCD PUSH1 0xE5 SHL DUP2 MSTORE PUSH1 0x20 PUSH1 0x4 DUP3 ADD MSTORE PUSH1 0x16 PUSH1 0x24 DUP3 ADD MSTORE PUSH22 0x14995DD85C99081D1C985B9CD9995C8819985A5B1959 PUSH1 0x52 SHL PUSH1 0x44 DUP3 ADD MSTORE PUSH1 0x64 SWAP1 REVERT JUMPDEST PUSH2 0x1FBE SWAP2 POP PUSH1 0x20 RETURNDATASIZE PUSH1 0x20 GT PUSH2 0x128C JUMPI PUSH2 0x127E DUP2 DUP4 PUSH2 0x65D9 JUMP JUMPDEST CODESIZE PUSH2 0x1BFE JUMP JUMPDEST PUSH1 0x10 SLOAD PUSH1 0x12 SLOAD PUSH1 0x7 DUP5 ADD DUP1 SLOAD PUSH1 0x40 MLOAD PUSH4 0xA9059CBB PUSH1 0xE0 SHL DUP2 MSTORE PUSH1 0x1 PUSH1 0x1 PUSH1 0xA0 SHL SUB SWAP4 DUP5 AND PUSH1 0x4 DUP3 ADD MSTORE PUSH1 0x24 DUP2 ADD SWAP2 SWAP1 SWAP2 MSTORE SWAP2 SWAP5 SWAP3 SWAP1 SWAP2 SWAP1 PUSH1 0x20 SWAP1 DUP3 SWAP1 PUSH1 0x44 SWAP1 DUP3 SWAP1 DUP12 SWAP1 DUP11 AND GAS CALL SWAP1 DUP2 ISZERO PUSH2 0x2103 JUMPI DUP8 SWAP2 PUSH2 0x20E4 JUMPI JUMPDEST POP ISZERO PUSH2 0x20A7 JUMPI PUSH1 0x8 DUP3 PUSH1 0xFF SWAP3 PUSH32 0xE2CBFE201904CD941CA5C637D8F0D492AF08888EE9CA4F81D1F757616F31FF79 PUSH1 0x80 PUSH32 0xC5ADDCB5970870012A6DD9468CD494E0DA2C83F94D4F510EC17AB0A307A27554 SWAP9 PUSH1 0x1 PUSH2 0x1CEA SWAP9 ADD SLOAD AND SWAP3 SLOAD PUSH1 0x40 MLOAD SWAP1 DUP2 MSTORE PUSH1 0x40 PUSH1 0x20 DUP3 ADD MSTORE PUSH1 0xF PUSH1 0x40 DUP3 ADD MSTORE PUSH15 0x496E76616C69642064697370757465 PUSH1 0x88 SHL PUSH1 0x60 DUP3 ADD MSTORE LOG2 PUSH2 0x1CCC JUMP JUMPDEST PUSH1 0x40 MLOAD PUSH3 0x461BCD PUSH1 0xE5 SHL DUP2 MSTORE PUSH1 0x20 PUSH1 0x4 DUP3 ADD MSTORE PUSH1 0x15 PUSH1 0x24 DUP3 ADD MSTORE PUSH21 0x14D95A5E99481D1C985B9CD9995C8819985A5B1959 PUSH1 0x5A SHL PUSH1 0x44 DUP3 ADD MSTORE PUSH1 0x64 SWAP1 REVERT JUMPDEST PUSH2 0x20FD SWAP2 POP PUSH1 0x20 RETURNDATASIZE PUSH1 0x20 GT PUSH2 0x128C JUMPI PUSH2 0x127E DUP2 DUP4 PUSH2 0x65D9 JUMP JUMPDEST CODESIZE PUSH2 0x2019 JUMP JUMPDEST PUSH1 0x40 MLOAD RETURNDATASIZE DUP10 DUP3 RETURNDATACOPY RETURNDATASIZE SWAP1 REVERT JUMPDEST SWAP1 POP DUP4 ADD CALLDATALOAD CODESIZE PUSH2 0x1B8D JUMP JUMPDEST PUSH1 0x6 DUP5 ADD DUP7 MSTORE PUSH1 0x20 DUP7 KECCAK256 SWAP2 POP DUP6 JUMPDEST PUSH1 0x1F NOT DUP5 AND DUP2 LT PUSH2 0x216B JUMPI POP DUP3 PUSH1 0x1F NOT DUP2 AND LT PUSH2 0x2151 JUMPI JUMPDEST POP POP PUSH1 0x1 DUP2 DUP2 SHL ADD PUSH1 0x6 DUP4 ADD SSTORE PUSH2 0x1BA4 JUMP JUMPDEST DUP5 ADD CALLDATALOAD PUSH1 0x0 NOT PUSH1 0x3 DUP5 SWAP1 SHL PUSH1 0xF8 AND SHR NOT AND SWAP1 SSTORE CODESIZE DUP1 PUSH2 0x213F JUMP JUMPDEST SWAP1 SWAP2 PUSH1 0x20 PUSH1 0x1 DUP2 SWAP3 DUP6 DUP10 ADD CALLDATALOAD DUP2 SSTORE ADD SWAP4 ADD SWAP2 ADD PUSH2 0x2127 JUMP JUMPDEST PUSH4 0x4E487B71 PUSH1 0xE0 SHL DUP5 MSTORE PUSH1 0x41 PUSH1 0x4 MSTORE PUSH1 0x24 DUP5 REVERT JUMPDEST PUSH1 0x40 MLOAD PUSH3 0x461BCD PUSH1 0xE5 SHL DUP2 MSTORE PUSH1 0x20 PUSH1 0x4 DUP3 ADD MSTORE PUSH1 0x10 PUSH1 0x24 DUP3 ADD MSTORE PUSH16 0x105B1C9958591E481C995CDBDB1D9959 PUSH1 0x82 SHL PUSH1 0x44 DUP3 ADD MSTORE PUSH1 0x64 SWAP1 REVERT JUMPDEST PUSH1 0x40 MLOAD PUSH3 0x461BCD PUSH1 0xE5 SHL DUP2 MSTORE PUSH1 0x20 PUSH1 0x4 DUP3 ADD MSTORE PUSH1 0xD PUSH1 0x24 DUP3 ADD MSTORE PUSH13 0x92DCECC2D8D2C840D2DCC8CAF PUSH1 0x9B SHL PUSH1 0x44 DUP3 ADD MSTORE PUSH1 0x64 SWAP1 REVERT JUMPDEST POP CALLVALUE PUSH2 0x3A7 JUMPI DUP1 PUSH1 0x3 NOT CALLDATASIZE ADD SLT PUSH2 0x3A7 JUMPI PUSH1 0x20 PUSH1 0xFF PUSH1 0x11 SLOAD PUSH1 0xA0 SHR AND PUSH1 0x40 MLOAD SWAP1 ISZERO ISZERO DUP2 MSTORE RETURN JUMPDEST POP CALLVALUE PUSH2 0x3A7 JUMPI PUSH1 0x40 CALLDATASIZE PUSH1 0x3 NOT ADD SLT PUSH2 0x3A7 JUMPI PUSH1 0x40 PUSH2 0x2246 PUSH2 0x6502 JUMP JUMPDEST SWAP2 PUSH1 0x4 CALLDATALOAD DUP2 MSTORE PUSH1 0x8 PUSH1 0x20 MSTORE KECCAK256 SWAP1 PUSH1 0x1 DUP1 PUSH1 0xA0 SHL SUB AND PUSH1 0x0 MSTORE PUSH1 0x20 MSTORE PUSH1 0x20 PUSH1 0xFF PUSH1 0x40 PUSH1 0x0 KECCAK256 SLOAD AND PUSH1 0x40 MLOAD SWAP1 ISZERO ISZERO DUP2 MSTORE RETURN JUMPDEST POP CALLVALUE PUSH2 0x3A7 JUMPI DUP1 PUSH1 0x3 NOT CALLDATASIZE ADD SLT PUSH2 0x3A7 JUMPI PUSH1 0x40 MLOAD DUP1 SWAP2 PUSH1 0xB SLOAD SWAP1 DUP2 DUP4 MSTORE PUSH1 0x20 DUP1 SWAP4 ADD DUP1 SWAP3 PUSH1 0xB DUP4 MSTORE PUSH32 0x175B7A638427703F0DBE7BB9BBF987A2551717B34E79F33B5B1008D1FA01DB9 SWAP1 DUP4 JUMPDEST DUP2 DUP2 LT PUSH2 0x2316 JUMPI POP POP POP DUP5 PUSH2 0x22D8 SWAP2 SUB DUP6 PUSH2 0x65D9 JUMP JUMPDEST PUSH1 0x40 MLOAD SWAP4 DUP4 DUP6 SWAP5 DUP6 ADD SWAP2 DUP2 DUP7 MSTORE MLOAD DUP1 SWAP3 MSTORE PUSH1 0x40 DUP6 ADD SWAP4 SWAP3 JUMPDEST DUP3 DUP2 LT PUSH2 0x22FF JUMPI POP POP POP POP SUB SWAP1 RETURN JUMPDEST DUP4 MLOAD DUP6 MSTORE DUP7 SWAP6 POP SWAP4 DUP2 ADD SWAP4 SWAP3 DUP2 ADD SWAP3 PUSH1 0x1 ADD PUSH2 0x22F0 JUMP JUMPDEST DUP3 SLOAD DUP5 MSTORE SWAP3 DUP7 ADD SWAP3 PUSH1 0x1 SWAP3 DUP4 ADD SWAP3 ADD PUSH2 0x22C2 JUMP JUMPDEST POP CALLVALUE PUSH2 0x3A7 JUMPI DUP1 PUSH1 0x3 NOT CALLDATASIZE ADD SLT PUSH2 0x3A7 JUMPI PUSH1 0x20 PUSH1 0xD SLOAD PUSH1 0x40 MLOAD SWAP1 DUP2 MSTORE RETURN JUMPDEST POP CALLVALUE PUSH2 0x3A7 JUMPI DUP1 PUSH1 0x3 NOT CALLDATASIZE ADD SLT PUSH2 0x3A7 JUMPI PUSH1 0x20 SWAP1 PUSH1 0x40 MLOAD SWAP1 DUP2 MSTORE RETURN JUMPDEST POP CALLVALUE PUSH2 0x3A7 JUMPI PUSH1 0x20 CALLDATASIZE PUSH1 0x3 NOT ADD SLT PUSH2 0x3A7 JUMPI PUSH2 0x237E PUSH2 0x64EC JUMP JUMPDEST PUSH2 0x2386 PUSH2 0x6964 JUMP JUMPDEST PUSH1 0x11 SLOAD SWAP1 PUSH1 0xFF DUP3 PUSH1 0xA0 SHR AND PUSH2 0x241D JUMPI PUSH1 0x1 PUSH1 0x1 PUSH1 0xA0 SHL SUB AND SWAP1 DUP2 ISZERO PUSH2 0x23E9 JUMPI PUSH1 0x1 PUSH1 0x1 PUSH1 0xA8 SHL SUB NOT AND DUP2 OR PUSH1 0x1 PUSH1 0xA0 SHL OR PUSH1 0x11 SSTORE PUSH1 0x40 MLOAD SWAP1 DUP2 MSTORE PUSH32 0xB4F2F50C3998314BC5A2D80CFB92738911A03DD332990E845089915C12A7B4D SWAP1 PUSH1 0x20 SWAP1 LOG1 DUP1 RETURN JUMPDEST PUSH1 0x40 MLOAD PUSH3 0x461BCD PUSH1 0xE5 SHL DUP2 MSTORE PUSH1 0x20 PUSH1 0x4 DUP3 ADD MSTORE PUSH1 0xC PUSH1 0x24 DUP3 ADD MSTORE PUSH12 0x5A65726F2061646472657373 PUSH1 0xA0 SHL PUSH1 0x44 DUP3 ADD MSTORE PUSH1 0x64 SWAP1 REVERT JUMPDEST PUSH1 0x40 MLOAD PUSH3 0x461BCD PUSH1 0xE5 SHL DUP2 MSTORE PUSH1 0x20 PUSH1 0x4 DUP3 ADD MSTORE PUSH1 0x13 PUSH1 0x24 DUP3 ADD MSTORE PUSH19 0x15535048185B1C9958591E48195B98589B1959 PUSH1 0x6A SHL PUSH1 0x44 DUP3 ADD MSTORE PUSH1 0x64 SWAP1 REVERT JUMPDEST POP CALLVALUE PUSH2 0x3A7 JUMPI PUSH1 0x20 CALLDATASIZE PUSH1 0x3 NOT ADD SLT PUSH2 0x3A7 JUMPI PUSH1 0x4 CALLDATALOAD DUP2 MSTORE PUSH1 0x2 PUSH1 0x20 MSTORE PUSH1 0x40 SWAP1 KECCAK256 DUP1 SLOAD SWAP1 PUSH2 0x2487 PUSH1 0x1 DUP3 ADD PUSH2 0x667A JUMP JUMPDEST PUSH1 0xA0 MSTORE PUSH2 0x2496 PUSH1 0x2 DUP3 ADD PUSH2 0x667A JUMP JUMPDEST PUSH1 0xC0 MSTORE DUP1 PUSH2 0x24A6 PUSH1 0x3 DUP3 ADD PUSH2 0x667A JUMP JUMPDEST SWAP3 PUSH1 0x4 DUP3 ADD SLOAD SWAP4 PUSH1 0x5 DUP4 ADD SLOAD PUSH1 0x6 DUP5 ADD SLOAD PUSH1 0x7 DUP6 ADD PUSH2 0x24C4 SWAP1 PUSH2 0x667A JUMP JUMPDEST PUSH2 0x24D0 PUSH1 0x8 DUP8 ADD PUSH2 0x667A JUMP JUMPDEST SWAP1 PUSH1 0x9 DUP8 ADD SLOAD SWAP9 PUSH1 0x1 PUSH1 0xA0 SHL PUSH1 0x1 SWAP1 SUB SWAP4 DUP5 PUSH1 0xA DUP11 ADD SLOAD AND SWAP5 PUSH1 0xB DUP11 ADD SLOAD SWAP7 PUSH1 0xC DUP12 ADD SLOAD PUSH1 0xFF AND SWAP9 PUSH1 0xD DUP13 ADD SLOAD SWAP11 PUSH1 0xE DUP14 ADD SLOAD SWAP13 PUSH1 0xF ADD SLOAD SWAP14 PUSH1 0x10 ADD PUSH2 0x2515 SWAP1 PUSH2 0x667A JUMP JUMPDEST PUSH1 0x80 MSTORE PUSH1 0x40 MLOAD DUP1 PUSH1 0xE0 MSTORE MSTORE PUSH2 0x280 DUP1 PUSH1 0xE0 MLOAD PUSH1 0x20 ADD MSTORE PUSH1 0xE0 MLOAD ADD PUSH1 0xA0 MLOAD SWAP1 PUSH2 0x253C SWAP2 PUSH2 0x672A JUMP JUMPDEST PUSH1 0xE0 MLOAD DUP1 DUP3 SUB SWAP1 PUSH1 0x40 ADD MSTORE PUSH1 0xC0 MLOAD SWAP1 PUSH2 0x2554 SWAP2 PUSH2 0x672A JUMP JUMPDEST PUSH1 0xE0 MLOAD DUP1 DUP3 SUB SWAP1 PUSH1 0x60 ADD MSTORE PUSH2 0x2568 SWAP2 PUSH2 0x672A JUMP JUMPDEST SWAP4 PUSH1 0xE0 MLOAD PUSH1 0x80 ADD MSTORE PUSH1 0xE0 MLOAD PUSH1 0xA0 ADD MSTORE DUP2 AND PUSH1 0xE0 MLOAD PUSH1 0xC0 ADD MSTORE DUP1 PUSH1 0xA0 SHR PUSH1 0xFF AND PUSH2 0x2590 DUP2 PUSH2 0x6720 JUMP JUMPDEST PUSH1 0xE0 MLOAD PUSH1 0xE0 ADD MSTORE PUSH1 0xA8 SHR PUSH1 0xFF AND PUSH2 0x25A6 DUP2 PUSH2 0x6720 JUMP JUMPDEST PUSH1 0xE0 MLOAD PUSH2 0x100 ADD MSTORE PUSH1 0xE0 MLOAD DUP1 DUP3 SUB SWAP1 PUSH2 0x120 ADD MSTORE PUSH2 0x25C3 SWAP2 PUSH2 0x672A JUMP JUMPDEST PUSH1 0xE0 MLOAD DUP1 DUP3 SUB SWAP1 PUSH2 0x140 ADD MSTORE PUSH2 0x25D8 SWAP2 PUSH2 0x672A JUMP JUMPDEST SWAP7 PUSH1 0xE0 MLOAD PUSH2 0x160 ADD MSTORE PUSH1 0xE0 MLOAD PUSH2 0x180 ADD MSTORE PUSH1 0xE0 MLOAD PUSH2 0x1A0 ADD MSTORE ISZERO ISZERO PUSH1 0xE0 MLOAD PUSH2 0x1C0 ADD MSTORE PUSH1 0xE0 MLOAD PUSH2 0x1E0 ADD MSTORE PUSH1 0xFF DUP2 AND PUSH2 0x2610 DUP2 PUSH2 0x67EC JUMP JUMPDEST PUSH1 0xE0 MLOAD PUSH2 0x200 ADD MSTORE PUSH1 0xE0 MLOAD PUSH2 0x220 ADD SWAP1 PUSH1 0x8 SHR PUSH1 0xFF AND SWAP1 PUSH2 0x2630 SWAP2 PUSH2 0x67F6 JUMP JUMPDEST PUSH1 0xE0 MLOAD PUSH2 0x240 ADD MSTORE PUSH1 0xE0 MLOAD DUP1 DUP3 SUB SWAP1 PUSH2 0x260 ADD MSTORE PUSH1 0xE0 MLOAD SWAP1 PUSH1 0x80 MLOAD SWAP1 PUSH2 0x2655 SWAP2 PUSH2 0x672A JUMP JUMPDEST SUB PUSH1 0xE0 MLOAD RETURN JUMPDEST POP CALLVALUE PUSH2 0x3A7 JUMPI PUSH1 0x40 CALLDATASIZE PUSH1 0x3 NOT ADD SLT PUSH2 0x3A7 JUMPI PUSH1 0x40 PUSH2 0x2677 PUSH2 0x6502 JUMP JUMPDEST SWAP2 PUSH1 0x4 CALLDATALOAD DUP2 MSTORE DUP1 PUSH1 0x20 MSTORE KECCAK256 SWAP1 PUSH1 0x1 DUP1 PUSH1 0xA0 SHL SUB AND PUSH1 0x0 MSTORE PUSH1 0x20 MSTORE PUSH1 0x20 PUSH1 0xFF PUSH1 0x40 PUSH1 0x0 KECCAK256 SLOAD AND PUSH1 0x40 MLOAD SWAP1 ISZERO ISZERO DUP2 MSTORE RETURN JUMPDEST POP CALLVALUE PUSH2 0x3A7 JUMPI DUP1 PUSH1 0x3 NOT CALLDATASIZE ADD SLT PUSH2 0x3A7 JUMPI PUSH1 0x20 PUSH1 0x40 MLOAD PUSH1 0x3 DUP2 MSTORE RETURN JUMPDEST POP CALLVALUE PUSH2 0x3A7 JUMPI PUSH1 0x80 CALLDATASIZE PUSH1 0x3 NOT ADD SLT PUSH2 0x3A7 JUMPI PUSH1 0x24 CALLDATALOAD PUSH1 0x1 PUSH1 0x1 PUSH1 0x40 SHL SUB DUP2 GT PUSH2 0xFE3 JUMPI PUSH2 0x26F3 SWAP1 CALLDATASIZE SWAP1 PUSH1 0x4 ADD PUSH2 0x67BF JUMP JUMPDEST SWAP1 PUSH1 0x44 CALLDATALOAD PUSH1 0x1 PUSH1 0x1 PUSH1 0x40 SHL SUB DUP2 GT PUSH2 0xFDF JUMPI PUSH2 0x2713 SWAP1 CALLDATASIZE SWAP1 PUSH1 0x4 ADD PUSH2 0x67BF JUMP JUMPDEST PUSH1 0x3 PUSH1 0x64 SWAP4 SWAP3 SWAP4 CALLDATALOAD LT ISZERO PUSH2 0x2CB2 JUMPI PUSH2 0x2729 PUSH2 0x6D86 JUMP JUMPDEST PUSH2 0x2731 PUSH2 0x6D03 JUMP JUMPDEST PUSH1 0x4 CALLDATALOAD DUP6 MSTORE PUSH1 0x2 PUSH1 0x20 MSTORE PUSH2 0x274D PUSH1 0x4 PUSH1 0x40 DUP8 KECCAK256 ADD SLOAD ISZERO ISZERO PUSH2 0x6EE6 JUMP JUMPDEST PUSH1 0x4 CALLDATALOAD DUP6 MSTORE PUSH1 0x2 PUSH1 0x20 MSTORE PUSH2 0x276B PUSH1 0xFF PUSH1 0xC PUSH1 0x40 DUP9 KECCAK256 ADD SLOAD AND ISZERO PUSH2 0x70D8 JUMP JUMPDEST PUSH1 0x4 CALLDATALOAD DUP6 MSTORE PUSH1 0x2 PUSH1 0x20 MSTORE PUSH1 0xFF PUSH1 0x6 PUSH1 0x40 DUP8 KECCAK256 ADD SLOAD PUSH1 0xA0 SHR AND PUSH2 0x278C DUP2 PUSH2 0x6720 JUMP JUMPDEST DUP1 ISZERO SWAP1 DUP2 ISZERO PUSH2 0x2C9D JUMPI JUMPDEST DUP2 ISZERO PUSH2 0x2C88 JUMPI JUMPDEST DUP2 ISZERO PUSH2 0x2C74 JUMPI JUMPDEST POP ISZERO PUSH2 0x2C3D JUMPI PUSH2 0x27B5 DUP5 ISZERO ISZERO PUSH2 0x6C0D JUMP JUMPDEST PUSH1 0x64 DUP5 GT PUSH2 0x2C09 JUMPI PUSH1 0x10 SLOAD PUSH1 0x40 MLOAD PUSH4 0x6EB1769F PUSH1 0xE1 SHL DUP2 MSTORE CALLER PUSH1 0x4 DUP3 ADD MSTORE ADDRESS PUSH1 0x24 DUP3 ADD MSTORE PUSH8 0x8AC7230489E80000 SWAP5 SWAP2 PUSH1 0x1 PUSH1 0x1 PUSH1 0xA0 SHL SUB AND SWAP1 PUSH1 0x20 DUP2 PUSH1 0x44 DUP2 DUP6 GAS STATICCALL DUP1 ISZERO PUSH2 0x2BFE JUMPI DUP7 SWAP2 DUP10 SWAP2 PUSH2 0x2BC4 JUMPI JUMPDEST POP LT PUSH2 0x2BBB JUMPI PUSH1 0x40 MLOAD PUSH4 0x23B872DD PUSH1 0xE0 SHL DUP2 MSTORE CALLER PUSH1 0x4 DUP3 ADD MSTORE ADDRESS PUSH1 0x24 DUP3 ADD MSTORE PUSH1 0x44 DUP2 ADD DUP7 SWAP1 MSTORE SWAP1 PUSH1 0x20 SWAP1 DUP3 SWAP1 PUSH1 0x64 SWAP1 DUP3 SWAP1 DUP12 SWAP1 GAS CALL DUP1 ISZERO PUSH2 0x2103 JUMPI PUSH2 0x2852 SWAP2 DUP9 SWAP2 PUSH2 0x2B9C JUMPI JUMPDEST POP PUSH2 0x7119 JUMP JUMPDEST PUSH1 0x4 CALLDATALOAD DUP7 MSTORE PUSH1 0x3 PUSH1 0x20 MSTORE PUSH2 0x2885 PUSH1 0x40 DUP8 KECCAK256 SWAP2 PUSH1 0x40 MLOAD SWAP4 PUSH2 0x2871 DUP6 PUSH2 0x6534 JUMP JUMPDEST PUSH2 0x287C CALLDATASIZE DUP10 DUP9 PUSH2 0x65FA JUMP JUMPDEST DUP6 MSTORE CALLDATASIZE SWAP2 PUSH2 0x65FA JUMP JUMPDEST PUSH1 0x20 DUP4 ADD MSTORE CALLER PUSH1 0x40 DUP4 ADD MSTORE TIMESTAMP PUSH1 0x60 DUP4 ADD MSTORE PUSH2 0x28A1 PUSH1 0x64 CALLDATALOAD PUSH2 0x67EC JUMP JUMPDEST PUSH1 0x64 CALLDATALOAD PUSH1 0x80 DUP4 ADD MSTORE DUP4 PUSH1 0xA0 DUP4 ADD MSTORE DUP6 PUSH1 0xC0 DUP4 ADD MSTORE DUP1 SLOAD SWAP1 PUSH1 0x1 PUSH1 0x40 SHL DUP3 LT ISZERO PUSH2 0xB82 JUMPI SWAP1 PUSH2 0x28D4 SWAP2 PUSH1 0x1 DUP3 ADD DUP2 SSTORE PUSH2 0x68B9 JUMP JUMPDEST SWAP2 SWAP1 SWAP2 PUSH2 0x2B88 JUMPI DUP1 MLOAD DUP1 MLOAD SWAP1 PUSH1 0x1 PUSH1 0x1 PUSH1 0x40 SHL SUB DUP3 GT PUSH2 0x2B00 JUMPI DUP2 SWAP1 PUSH2 0x2904 DUP3 PUSH2 0x28FE DUP8 SLOAD PUSH2 0x6640 JUMP JUMPDEST DUP8 PUSH2 0x6C6A JUMP JUMPDEST PUSH1 0x20 SWAP1 PUSH1 0x1F DUP4 GT PUSH1 0x1 EQ PUSH2 0x2B1F JUMPI DUP10 SWAP3 PUSH2 0x2B14 JUMPI JUMPDEST POP POP DUP2 PUSH1 0x1 SHL SWAP2 PUSH1 0x0 NOT SWAP1 PUSH1 0x3 SHL SHR NOT AND OR DUP3 SSTORE JUMPDEST PUSH1 0x20 DUP2 ADD MLOAD DUP1 MLOAD SWAP1 PUSH1 0x1 PUSH1 0x1 PUSH1 0x40 SHL SUB DUP3 GT PUSH2 0x2B00 JUMPI PUSH2 0x295E DUP3 PUSH2 0x2955 PUSH1 0x1 DUP8 ADD SLOAD PUSH2 0x6640 JUMP JUMPDEST PUSH1 0x1 DUP8 ADD PUSH2 0x6C6A JUMP JUMPDEST PUSH1 0x20 SWAP1 PUSH1 0x1F DUP4 GT PUSH1 0x1 EQ PUSH2 0x2A86 JUMPI PUSH2 0x2A10 SWAP4 DUP4 PUSH2 0x2A22 SWAP8 SWAP7 SWAP5 PUSH1 0x6 SWAP5 PUSH1 0xC0 SWAP5 DUP14 SWAP3 PUSH2 0x2A7B JUMPI JUMPDEST POP POP DUP2 PUSH1 0x1 SHL SWAP2 PUSH1 0x0 NOT SWAP1 PUSH1 0x3 SHL SHR NOT AND OR PUSH1 0x1 DUP6 ADD SSTORE JUMPDEST PUSH1 0x2 DUP5 ADD PUSH1 0x1 DUP1 PUSH1 0xA0 SHL SUB PUSH1 0x40 DUP4 ADD MLOAD AND PUSH1 0x1 PUSH1 0x1 PUSH1 0x60 SHL SUB PUSH1 0xA0 SHL DUP3 SLOAD AND OR SWAP1 SSTORE PUSH1 0x60 DUP2 ADD MLOAD PUSH1 0x3 DUP6 ADD SSTORE PUSH1 0x4 DUP5 ADD PUSH1 0x80 DUP3 ADD MLOAD PUSH2 0x29DA DUP2 PUSH2 0x67EC JUMP JUMPDEST PUSH2 0x29E3 DUP2 PUSH2 0x67EC JUMP JUMPDEST PUSH1 0xFF DUP1 NOT DUP4 SLOAD AND SWAP2 AND OR SWAP1 SSTORE PUSH1 0xA0 DUP2 ADD MLOAD PUSH1 0x5 DUP6 ADD SSTORE ADD MLOAD ISZERO ISZERO SWAP2 ADD SWAP1 PUSH1 0xFF DUP1 NOT DUP4 SLOAD AND SWAP2 ISZERO ISZERO AND OR SWAP1 SSTORE JUMP JUMPDEST PUSH1 0x40 MLOAD SWAP4 PUSH1 0x60 DUP6 MSTORE PUSH1 0x60 DUP6 ADD SWAP2 PUSH2 0x6CE2 JUMP JUMPDEST SWAP1 PUSH2 0x2A2E PUSH1 0x64 CALLDATALOAD PUSH2 0x67EC JUMP JUMPDEST PUSH1 0x64 CALLDATALOAD PUSH1 0x20 DUP5 ADD MSTORE PUSH1 0x40 DUP4 ADD MSTORE PUSH32 0xACD0E7117719D795FBB07B0714F8D273E84A06E7D4601D1EDE596603E48A637F CALLER SWAP3 DUP1 PUSH1 0x4 CALLDATALOAD SWAP4 SUB SWAP1 LOG3 PUSH1 0x1 PUSH1 0x0 DUP1 MLOAD PUSH1 0x20 PUSH2 0x74B9 DUP4 CODECOPY DUP2 MLOAD SWAP2 MSTORE SSTORE DUP1 RETURN JUMPDEST ADD MLOAD SWAP1 POP CODESIZE DUP1 PUSH2 0x2984 JUMP JUMPDEST SWAP1 PUSH1 0x1 DUP6 ADD DUP10 MSTORE PUSH1 0x20 DUP10 KECCAK256 SWAP2 DUP10 JUMPDEST PUSH1 0x1F NOT DUP6 AND DUP2 LT PUSH2 0x2AE8 JUMPI POP SWAP4 PUSH1 0x1 DUP5 PUSH1 0x6 SWAP5 PUSH1 0xC0 SWAP5 PUSH2 0x2A10 SWAP9 PUSH2 0x2A22 SWAP12 SWAP11 SWAP9 PUSH1 0x1F NOT DUP2 AND LT PUSH2 0x2ACF JUMPI JUMPDEST POP POP POP DUP2 SHL ADD PUSH1 0x1 DUP6 ADD SSTORE PUSH2 0x299C JUMP JUMPDEST ADD MLOAD PUSH1 0x0 NOT PUSH1 0xF8 DUP5 PUSH1 0x3 SHL AND SHR NOT AND SWAP1 SSTORE CODESIZE DUP1 DUP1 PUSH2 0x2ABF JUMP JUMPDEST SWAP2 SWAP3 PUSH1 0x20 PUSH1 0x1 DUP2 SWAP3 DUP7 DUP6 ADD MLOAD DUP2 SSTORE ADD SWAP5 ADD SWAP3 ADD PUSH2 0x2A94 JUMP JUMPDEST PUSH4 0x4E487B71 PUSH1 0xE0 SHL DUP9 MSTORE PUSH1 0x41 PUSH1 0x4 MSTORE PUSH1 0x24 DUP9 REVERT JUMPDEST ADD MLOAD SWAP1 POP CODESIZE DUP1 PUSH2 0x2919 JUMP JUMPDEST SWAP3 POP DUP5 DUP10 MSTORE PUSH1 0x20 DUP10 KECCAK256 SWAP1 DUP10 SWAP4 JUMPDEST PUSH1 0x1F NOT DUP5 AND DUP6 LT PUSH2 0x2B6D JUMPI PUSH1 0x1 SWAP5 POP DUP4 PUSH1 0x1F NOT DUP2 AND LT PUSH2 0x2B54 JUMPI JUMPDEST POP POP POP DUP2 SHL ADD DUP3 SSTORE PUSH2 0x292E JUMP JUMPDEST ADD MLOAD PUSH1 0x0 NOT PUSH1 0xF8 DUP5 PUSH1 0x3 SHL AND SHR NOT AND SWAP1 SSTORE CODESIZE DUP1 DUP1 PUSH2 0x2B47 JUMP JUMPDEST DUP2 DUP2 ADD MLOAD DUP4 SSTORE PUSH1 0x20 SWAP5 DUP6 ADD SWAP5 PUSH1 0x1 SWAP1 SWAP4 ADD SWAP3 SWAP1 SWAP2 ADD SWAP1 PUSH2 0x2B2C JUMP JUMPDEST PUSH4 0x4E487B71 PUSH1 0xE0 SHL DUP7 MSTORE PUSH1 0x4 DUP7 SWAP1 MSTORE PUSH1 0x24 DUP7 REVERT JUMPDEST PUSH2 0x2BB5 SWAP2 POP PUSH1 0x20 RETURNDATASIZE PUSH1 0x20 GT PUSH2 0x128C JUMPI PUSH2 0x127E DUP2 DUP4 PUSH2 0x65D9 JUMP JUMPDEST CODESIZE PUSH2 0x284C JUMP JUMPDEST POP DUP6 SWAP4 POP PUSH2 0x2852 JUMP JUMPDEST SWAP2 POP POP PUSH1 0x20 DUP2 RETURNDATASIZE PUSH1 0x20 GT PUSH2 0x2BF6 JUMPI JUMPDEST DUP2 PUSH2 0x2BE0 PUSH1 0x20 SWAP4 DUP4 PUSH2 0x65D9 JUMP JUMPDEST DUP2 ADD SUB SLT PUSH2 0x2BF1 JUMPI DUP6 SWAP1 MLOAD CODESIZE PUSH2 0x2806 JUMP JUMPDEST PUSH1 0x0 DUP1 REVERT JUMPDEST RETURNDATASIZE SWAP2 POP PUSH2 0x2BD3 JUMP JUMPDEST PUSH1 0x40 MLOAD RETURNDATASIZE DUP11 DUP3 RETURNDATACOPY RETURNDATASIZE SWAP1 REVERT JUMPDEST PUSH1 0x40 MLOAD PUSH3 0x461BCD PUSH1 0xE5 SHL DUP2 MSTORE PUSH1 0x20 PUSH1 0x4 DUP3 ADD MSTORE PUSH1 0xC PUSH1 0x24 DUP3 ADD MSTORE PUSH12 0x43494420746F6F206C6F6E67 PUSH1 0xA0 SHL PUSH1 0x44 DUP3 ADD MSTORE PUSH1 0x64 SWAP1 REVERT JUMPDEST PUSH1 0x40 MLOAD PUSH3 0x461BCD PUSH1 0xE5 SHL DUP2 MSTORE PUSH1 0x20 PUSH1 0x4 DUP3 ADD MSTORE PUSH1 0xF PUSH1 0x24 DUP3 ADD MSTORE PUSH15 0x145D595CDD1A5BDB8818DB1BDCD959 PUSH1 0x8A SHL PUSH1 0x44 DUP3 ADD MSTORE PUSH1 0x64 SWAP1 REVERT JUMPDEST PUSH1 0x6 SWAP2 POP PUSH2 0x2C81 DUP2 PUSH2 0x6720 JUMP JUMPDEST EQ CODESIZE PUSH2 0x27A4 JUMP JUMPDEST SWAP1 POP PUSH2 0x2C93 DUP2 PUSH2 0x6720 JUMP JUMPDEST PUSH1 0x5 DUP2 EQ SWAP1 PUSH2 0x279D JUMP JUMPDEST SWAP1 POP PUSH2 0x2CA8 DUP2 PUSH2 0x6720 JUMP JUMPDEST PUSH1 0x1 DUP2 EQ SWAP1 PUSH2 0x2796 JUMP JUMPDEST DUP5 DUP1 REVERT JUMPDEST POP CALLVALUE PUSH2 0x3A7 JUMPI PUSH1 0x20 SWAP1 DUP2 PUSH1 0x3 NOT CALLDATASIZE ADD SLT PUSH2 0x3A7 JUMPI PUSH1 0x40 DUP1 MLOAD SWAP2 PUSH2 0x2CD8 DUP4 PUSH2 0x6587 JUMP JUMPDEST DUP1 DUP4 MSTORE DUP1 DUP5 DUP5 ADD MSTORE DUP1 DUP3 DUP5 ADD MSTORE PUSH1 0x60 DUP1 DUP5 ADD MSTORE DUP1 PUSH1 0x80 DUP5 ADD MSTORE PUSH1 0x60 PUSH1 0xA0 DUP5 ADD MSTORE DUP1 PUSH1 0xC0 DUP5 ADD MSTORE DUP1 PUSH1 0xE0 DUP5 ADD MSTORE DUP1 PUSH2 0x100 DUP1 SWAP5 ADD MSTORE PUSH1 0x4 CALLDATALOAD DUP2 MSTORE PUSH1 0x6 DUP5 MSTORE KECCAK256 SWAP1 PUSH1 0x40 MLOAD SWAP2 PUSH2 0x2D24 DUP4 PUSH2 0x6587 JUMP JUMPDEST DUP1 SLOAD DUP4 MSTORE PUSH1 0x1 DUP2 ADD SLOAD DUP5 DUP5 ADD SWAP1 DUP2 MSTORE PUSH1 0xFF PUSH1 0x2 DUP4 ADD SLOAD AND SWAP3 PUSH1 0x40 DUP6 ADD SWAP4 PUSH2 0x2D4A DUP2 PUSH2 0x6720 JUMP JUMPDEST DUP5 MSTORE PUSH2 0x2D58 PUSH1 0x3 DUP5 ADD PUSH2 0x667A JUMP JUMPDEST SWAP3 PUSH1 0x60 DUP7 ADD SWAP4 DUP5 MSTORE PUSH2 0x2DFE PUSH1 0x4 DUP3 ADD SLOAD PUSH1 0x80 DUP9 ADD SWAP1 DUP2 MSTORE PUSH2 0x2D7B PUSH1 0x5 DUP5 ADD PUSH2 0x667A JUMP JUMPDEST SWAP6 PUSH1 0xA0 DUP10 ADD SWAP7 DUP8 MSTORE PUSH1 0x6 DUP5 ADD SLOAD SWAP8 PUSH1 0xC0 DUP11 ADD SWAP9 DUP10 MSTORE PUSH1 0x8 PUSH1 0x7 DUP7 ADD SLOAD SWAP6 PUSH1 0xE0 DUP13 ADD SWAP7 DUP8 MSTORE ADD SLOAD SWAP7 DUP7 DUP12 ADD SWAP8 DUP9 MSTORE PUSH1 0x40 MLOAD SWAP12 DUP13 SWAP12 DUP2 DUP14 MSTORE MLOAD SWAP1 DUP13 ADD MSTORE MLOAD PUSH1 0x40 DUP12 ADD MSTORE MLOAD PUSH2 0x2DC6 DUP2 PUSH2 0x6720 JUMP JUMPDEST PUSH1 0x60 DUP11 ADD MSTORE MLOAD SWAP6 PUSH2 0x2DE5 PUSH2 0x120 SWAP8 DUP9 PUSH1 0x80 DUP13 ADD MSTORE PUSH2 0x140 DUP12 ADD SWAP1 PUSH2 0x672A JUMP JUMPDEST SWAP2 MLOAD PUSH1 0xA0 DUP11 ADD MSTORE MLOAD DUP9 DUP3 SUB PUSH1 0x1F NOT ADD PUSH1 0xC0 DUP11 ADD MSTORE PUSH2 0x672A JUMP JUMPDEST SWAP5 MLOAD PUSH1 0xE0 DUP8 ADD MSTORE MLOAD SWAP1 DUP6 ADD MSTORE MLOAD SWAP1 DUP4 ADD MSTORE SUB SWAP1 RETURN JUMPDEST POP CALLVALUE PUSH2 0x3A7 JUMPI PUSH1 0x40 CALLDATASIZE PUSH1 0x3 NOT ADD SLT PUSH2 0x3A7 JUMPI PUSH1 0x4 CALLDATALOAD PUSH1 0x24 CALLDATALOAD PUSH1 0x7 DUP2 LT ISZERO PUSH2 0x1AB9 JUMPI PUSH2 0x2E3C PUSH2 0x6D86 JUMP JUMPDEST PUSH2 0x2E44 PUSH2 0x6D03 JUMP JUMPDEST DUP2 DUP4 MSTORE PUSH1 0x20 SWAP1 PUSH1 0x2 DUP3 MSTORE PUSH2 0x2E60 PUSH1 0x4 PUSH1 0x40 DUP7 KECCAK256 ADD SLOAD ISZERO ISZERO PUSH2 0x6EE6 JUMP JUMPDEST DUP3 DUP5 MSTORE PUSH1 0x2 DUP3 MSTORE PUSH2 0x2E7B PUSH1 0xFF PUSH1 0xC PUSH1 0x40 DUP8 KECCAK256 ADD SLOAD AND ISZERO PUSH2 0x70D8 JUMP JUMPDEST DUP3 DUP5 MSTORE PUSH1 0x2 DUP3 MSTORE PUSH2 0x2EA3 PUSH1 0x6 PUSH1 0xFF DUP2 PUSH1 0x40 DUP9 KECCAK256 ADD SLOAD PUSH1 0xA0 SHR AND PUSH2 0x2E9D DUP2 PUSH2 0x6720 JUMP JUMPDEST EQ PUSH2 0x715C JUMP JUMPDEST PUSH2 0x2EAC DUP2 PUSH2 0x6720 JUMP JUMPDEST PUSH1 0x1 DUP2 EQ DUP1 ISZERO PUSH2 0x3074 JUMPI JUMPDEST ISZERO PUSH2 0x3040 JUMPI DUP3 DUP5 MSTORE PUSH1 0x8 DUP3 MSTORE PUSH1 0x40 DUP5 KECCAK256 CALLER PUSH1 0x0 MSTORE DUP3 MSTORE PUSH1 0xFF PUSH1 0x40 PUSH1 0x0 KECCAK256 SLOAD AND PUSH2 0x300B JUMPI PUSH1 0x10 SLOAD PUSH1 0x40 MLOAD PUSH4 0x70A08231 PUSH1 0xE0 SHL DUP2 MSTORE CALLER PUSH1 0x4 DUP3 ADD MSTORE SWAP1 DUP4 SWAP1 DUP3 SWAP1 PUSH1 0x24 SWAP1 DUP3 SWAP1 PUSH1 0x1 PUSH1 0x1 PUSH1 0xA0 SHL SUB AND GAS STATICCALL SWAP1 DUP2 ISZERO PUSH2 0x1293 JUMPI DUP6 SWAP2 PUSH2 0x2FDE JUMPI JUMPDEST POP DUP1 ISZERO PUSH2 0x2FA7 JUMPI SWAP2 PUSH1 0x60 SWAP2 PUSH32 0x20B295C42B4D6CF36CEA7092F92052D23220CC3649DC9B353A9EC563DB6B74E5 SWAP4 DUP6 DUP8 MSTORE PUSH1 0x8 DUP4 MSTORE PUSH1 0x40 DUP8 KECCAK256 CALLER PUSH1 0x0 MSTORE DUP4 MSTORE PUSH1 0x40 PUSH1 0x0 KECCAK256 PUSH1 0x1 PUSH1 0xFF NOT DUP3 SLOAD AND OR SWAP1 SSTORE DUP6 DUP8 MSTORE PUSH1 0xA DUP4 MSTORE PUSH1 0x40 DUP8 KECCAK256 CALLER PUSH1 0x0 MSTORE DUP4 MSTORE DUP1 PUSH1 0x40 PUSH1 0x0 KECCAK256 SSTORE PUSH1 0x40 MLOAD SWAP3 CALLER DUP5 MSTORE DUP4 ADD MSTORE PUSH2 0x2F8C DUP2 PUSH2 0x6720 JUMP JUMPDEST PUSH1 0x40 DUP3 ADD MSTORE LOG2 PUSH1 0x1 PUSH1 0x0 DUP1 MLOAD PUSH1 0x20 PUSH2 0x74B9 DUP4 CODECOPY DUP2 MLOAD SWAP2 MSTORE SSTORE DUP1 RETURN JUMPDEST PUSH1 0x40 MLOAD PUSH3 0x461BCD PUSH1 0xE5 SHL DUP2 MSTORE PUSH1 0x4 DUP2 ADD DUP5 SWAP1 MSTORE PUSH1 0xF PUSH1 0x24 DUP3 ADD MSTORE PUSH15 0x4E6F20504C4B5920746F20766F7465 PUSH1 0x88 SHL PUSH1 0x44 DUP3 ADD MSTORE PUSH1 0x64 SWAP1 REVERT JUMPDEST SWAP1 POP DUP3 DUP2 DUP2 RETURNDATASIZE DUP4 GT PUSH2 0x3004 JUMPI JUMPDEST PUSH2 0x2FF5 DUP2 DUP4 PUSH2 0x65D9 JUMP JUMPDEST DUP2 ADD SUB SLT PUSH2 0x2BF1 JUMPI MLOAD CODESIZE PUSH2 0x2F13 JUMP JUMPDEST POP RETURNDATASIZE PUSH2 0x2FEB JUMP JUMPDEST PUSH1 0x40 MLOAD PUSH3 0x461BCD PUSH1 0xE5 SHL DUP2 MSTORE PUSH1 0x4 DUP2 ADD DUP4 SWAP1 MSTORE PUSH1 0xD PUSH1 0x24 DUP3 ADD MSTORE PUSH13 0x105B1C9958591E481D9BDD1959 PUSH1 0x9A SHL PUSH1 0x44 DUP3 ADD MSTORE PUSH1 0x64 SWAP1 REVERT JUMPDEST PUSH1 0x40 MLOAD PUSH3 0x461BCD PUSH1 0xE5 SHL DUP2 MSTORE PUSH1 0x4 DUP2 ADD DUP4 SWAP1 MSTORE PUSH1 0xC PUSH1 0x24 DUP3 ADD MSTORE PUSH12 0x496E76616C696420766F7465 PUSH1 0xA0 SHL PUSH1 0x44 DUP3 ADD MSTORE PUSH1 0x64 SWAP1 REVERT JUMPDEST POP PUSH2 0x307E DUP2 PUSH2 0x6720 JUMP JUMPDEST PUSH1 0x2 DUP2 EQ PUSH2 0x2EB7 JUMP JUMPDEST POP CALLVALUE PUSH2 0x3A7 JUMPI DUP1 PUSH1 0x3 NOT CALLDATASIZE ADD SLT PUSH2 0x3A7 JUMPI PUSH1 0x20 PUSH1 0xE SLOAD PUSH1 0x40 MLOAD SWAP1 DUP2 MSTORE RETURN JUMPDEST POP CALLVALUE PUSH2 0x3A7 JUMPI DUP1 PUSH1 0x3 NOT CALLDATASIZE ADD SLT PUSH2 0x3A7 JUMPI PUSH1 0x20 PUSH1 0x40 MLOAD PUSH1 0x0 DUP1 MLOAD PUSH1 0x20 PUSH2 0x7479 DUP4 CODECOPY DUP2 MLOAD SWAP2 MSTORE DUP2 MSTORE RETURN JUMPDEST POP CALLVALUE PUSH2 0x3A7 JUMPI PUSH1 0x20 CALLDATASIZE PUSH1 0x3 NOT ADD SLT PUSH2 0x3A7 JUMPI PUSH1 0x4 CALLDATALOAD DUP1 DUP3 MSTORE PUSH1 0x2 PUSH1 0x20 MSTORE PUSH2 0x30FD PUSH1 0x4 PUSH1 0x40 DUP5 KECCAK256 ADD SLOAD ISZERO ISZERO PUSH2 0x6EE6 JUMP JUMPDEST DUP1 DUP3 MSTORE PUSH1 0x2 PUSH1 0x20 MSTORE PUSH1 0x40 DUP3 KECCAK256 SWAP1 PUSH1 0x6 DUP3 ADD SWAP2 DUP3 SLOAD SWAP1 PUSH2 0x3127 PUSH1 0x6 PUSH1 0xFF DUP5 PUSH1 0xA0 SHR AND PUSH2 0x2E9D DUP2 PUSH2 0x6720 JUMP JUMPDEST PUSH1 0x4 DUP2 ADD SLOAD PUSH3 0x15180 DUP2 ADD DUP1 SWAP2 GT PUSH2 0x31F5 JUMPI TIMESTAMP LT PUSH2 0x31B9 JUMPI PUSH1 0xE SWAP1 DUP4 PUSH32 0x235B7A8C5CC4B155456DB1CADFA05F9E87CB669DC56B69E2C4FD6091D301023F PUSH1 0x60 PUSH1 0x40 MLOAD PUSH1 0x2 DUP2 MSTORE DUP10 PUSH1 0x20 DUP3 ADD MSTORE DUP10 PUSH1 0x40 DUP3 ADD MSTORE LOG2 ADD SWAP3 DUP4 SLOAD SWAP2 PUSH1 0xFF DUP4 AND PUSH2 0x318C DUP2 PUSH2 0x67EC JUMP JUMPDEST PUSH2 0x31A0 JUMPI POP POP POP PUSH2 0x319D SWAP2 POP PUSH2 0x6F7C JUMP JUMPDEST DUP1 RETURN JUMPDEST PUSH1 0xFF PUSH1 0xA0 SHL NOT AND SWAP1 SSTORE PUSH2 0xFF00 NOT AND PUSH2 0x200 OR SWAP1 SWAP2 SSTORE POP DUP1 RETURN JUMPDEST PUSH1 0x40 MLOAD PUSH3 0x461BCD PUSH1 0xE5 SHL DUP2 MSTORE PUSH1 0x20 PUSH1 0x4 DUP3 ADD MSTORE PUSH1 0x14 PUSH1 0x24 DUP3 ADD MSTORE PUSH20 0x566F74696E6720706572696F6420616374697665 PUSH1 0x60 SHL PUSH1 0x44 DUP3 ADD MSTORE PUSH1 0x64 SWAP1 REVERT JUMPDEST PUSH4 0x4E487B71 PUSH1 0xE0 SHL DUP7 MSTORE PUSH1 0x11 PUSH1 0x4 MSTORE PUSH1 0x24 DUP7 REVERT JUMPDEST POP CALLVALUE PUSH2 0x3A7 JUMPI DUP1 PUSH1 0x3 NOT CALLDATASIZE ADD SLT PUSH2 0x3A7 JUMPI PUSH1 0x20 PUSH1 0x40 MLOAD PUSH32 0xA49807205CE4D355092EF5A8A18F56E8913CF4A201FBE287825B095693C21775 DUP2 MSTORE RETURN JUMPDEST POP CALLVALUE PUSH2 0x3A7 JUMPI PUSH1 0x80 CALLDATASIZE PUSH1 0x3 NOT ADD SLT PUSH2 0x3A7 JUMPI PUSH1 0x7 PUSH1 0x24 CALLDATALOAD LT ISZERO PUSH2 0x3A7 JUMPI PUSH1 0x44 CALLDATALOAD PUSH1 0x1 PUSH1 0x1 PUSH1 0x40 SHL SUB DUP2 GT PUSH2 0xFE3 JUMPI PUSH2 0x3280 SWAP1 CALLDATASIZE SWAP1 PUSH1 0x4 ADD PUSH2 0x67BF JUMP JUMPDEST SWAP2 SWAP1 PUSH1 0x64 CALLDATALOAD PUSH1 0x1 PUSH1 0x1 PUSH1 0x40 SHL SUB DUP2 GT PUSH2 0x1AB9 JUMPI PUSH2 0x32A1 SWAP1 CALLDATASIZE SWAP1 PUSH1 0x4 ADD PUSH2 0x67BF JUMP JUMPDEST SWAP1 SWAP4 PUSH2 0x32AB PUSH2 0x6D86 JUMP JUMPDEST CALLER DUP5 MSTORE PUSH1 0x9 PUSH1 0x20 MSTORE PUSH2 0x32C6 PUSH1 0xFF PUSH1 0x5 PUSH1 0x40 DUP8 KECCAK256 ADD SLOAD AND PUSH2 0x71A0 JUMP JUMPDEST CALLER DUP5 MSTORE PUSH1 0x9 PUSH1 0x20 MSTORE PUSH2 0x32EA PUSH9 0x3635C9ADC5DEA00000 PUSH1 0x3 PUSH1 0x40 DUP8 KECCAK256 ADD SLOAD LT ISZERO PUSH2 0x6DB6 JUMP JUMPDEST PUSH2 0x32F2 PUSH2 0x6D03 JUMP JUMPDEST PUSH1 0x4 CALLDATALOAD DUP5 MSTORE PUSH1 0x2 PUSH1 0x20 MSTORE PUSH2 0x330E PUSH1 0x4 PUSH1 0x40 DUP7 KECCAK256 ADD SLOAD ISZERO ISZERO PUSH2 0x6EE6 JUMP JUMPDEST PUSH1 0x4 CALLDATALOAD DUP5 MSTORE PUSH1 0x2 PUSH1 0x20 MSTORE PUSH2 0x332C PUSH1 0xFF PUSH1 0xC PUSH1 0x40 DUP8 KECCAK256 ADD SLOAD AND ISZERO PUSH2 0x70D8 JUMP JUMPDEST PUSH1 0x4 CALLDATALOAD DUP5 MSTORE PUSH1 0x2 PUSH1 0x20 MSTORE PUSH1 0x40 DUP5 KECCAK256 SWAP3 PUSH1 0xFF PUSH1 0x6 DUP6 ADD SLOAD PUSH1 0xA0 SHR AND PUSH2 0x334F DUP2 PUSH2 0x6720 JUMP JUMPDEST PUSH2 0x392A JUMPI PUSH2 0x335E PUSH1 0x24 CALLDATALOAD PUSH2 0x6720 JUMP JUMPDEST PUSH1 0x24 CALLDATALOAD ISZERO ISZERO DUP1 PUSH2 0x3912 JUMPI JUMPDEST DUP1 PUSH2 0x38FA JUMPI JUMPDEST ISZERO PUSH2 0x38C3 JUMPI DUP2 ISZERO PUSH2 0x388E JUMPI PUSH1 0x4 CALLDATALOAD DUP6 MSTORE PUSH1 0x3 PUSH1 0x20 MSTORE PUSH1 0x1 PUSH1 0x40 DUP7 KECCAK256 SLOAD LT PUSH2 0x3859 JUMPI PUSH1 0xE DUP5 ADD SLOAD PUSH1 0xFF DUP2 PUSH1 0x8 SHR AND PUSH1 0x4 DUP2 LT ISZERO PUSH2 0x3845 JUMPI PUSH1 0x2 EQ SWAP1 DUP2 ISZERO PUSH2 0x382E JUMPI JUMPDEST POP ISZERO PUSH2 0x37FC JUMPI PUSH1 0x10 SLOAD PUSH1 0x40 MLOAD PUSH4 0x23B872DD PUSH1 0xE0 SHL DUP2 MSTORE CALLER PUSH1 0x4 DUP3 ADD MSTORE ADDRESS PUSH1 0x24 DUP3 ADD MSTORE PUSH9 0x56BC75E2D63100000 PUSH1 0x44 DUP3 ADD MSTORE SWAP1 PUSH1 0x20 SWAP1 DUP3 SWAP1 PUSH1 0x64 SWAP1 DUP3 SWAP1 DUP11 SWAP1 PUSH1 0x1 PUSH1 0x1 PUSH1 0xA0 SHL SUB AND GAS CALL SWAP1 DUP2 ISZERO PUSH2 0x37F1 JUMPI SWAP1 PUSH2 0x3411 SWAP2 DUP8 SWAP2 PUSH2 0x2B9C JUMPI POP PUSH2 0x7119 JUMP JUMPDEST PUSH1 0x40 MLOAD PUSH1 0x4 CALLDATALOAD PUSH1 0x20 DUP3 ADD MSTORE PUSH2 0x3427 PUSH1 0x24 CALLDATALOAD PUSH2 0x6720 JUMP JUMPDEST PUSH1 0x24 CALLDATALOAD PUSH1 0xF8 SHL PUSH1 0x40 DUP3 ADD MSTORE CALLER PUSH1 0x60 SHL PUSH1 0x41 DUP3 ADD MSTORE TIMESTAMP PUSH1 0x55 DUP3 ADD MSTORE NUMBER PUSH1 0x75 DUP3 ADD MSTORE PUSH1 0x75 DUP2 MSTORE DUP1 PUSH1 0xA0 DUP2 ADD LT PUSH1 0x1 PUSH1 0x1 PUSH1 0x40 SHL SUB PUSH1 0xA0 DUP4 ADD GT OR PUSH2 0x37DB JUMPI PUSH1 0xA0 DUP2 ADD PUSH1 0x40 MSTORE PUSH1 0x20 DUP2 MLOAD SWAP2 ADD KECCAK256 SWAP2 DUP3 DUP7 MSTORE PUSH1 0x4 PUSH1 0x20 MSTORE PUSH1 0x40 DUP7 KECCAK256 SWAP4 PUSH2 0x348B PUSH1 0x24 CALLDATALOAD DUP7 PUSH2 0x6F64 JUMP JUMPDEST DUP5 SLOAD PUSH2 0x100 PUSH1 0x1 PUSH1 0xA8 SHL SUB NOT AND CALLER PUSH1 0x8 SHL PUSH2 0x100 PUSH1 0x1 PUSH1 0xA8 SHL SUB AND OR DUP6 SSTORE TIMESTAMP PUSH1 0x1 DUP7 ADD DUP2 SWAP1 SSTORE PUSH3 0x15180 DUP2 ADD LT PUSH2 0x37C7 JUMPI PUSH3 0x15180 TIMESTAMP ADD PUSH1 0x2 DUP7 ADD SSTORE PUSH1 0x1 PUSH1 0x1 PUSH1 0x40 SHL SUB DUP3 GT PUSH2 0xB82 JUMPI PUSH2 0x34E6 DUP3 PUSH2 0x7FC PUSH1 0x3 DUP9 ADD SLOAD PUSH2 0x6640 JUMP JUMPDEST DUP2 DUP8 PUSH1 0x1F DUP3 GT PUSH1 0x1 EQ PUSH2 0x375D JUMPI DUP9 SWAP2 PUSH2 0x3752 JUMPI JUMPDEST POP DUP3 PUSH1 0x1 SHL SWAP1 PUSH1 0x0 NOT DUP5 PUSH1 0x3 SHL SHR NOT AND OR PUSH1 0x3 DUP7 ADD SSTORE JUMPDEST PUSH1 0x1 PUSH1 0x4 DUP7 ADD SSTORE CALLER PUSH1 0x0 MSTORE PUSH1 0x7 DUP6 ADD PUSH1 0x20 MSTORE PUSH1 0x40 PUSH1 0x0 KECCAK256 PUSH1 0xFF NOT SWAP1 PUSH1 0x1 DUP3 DUP3 SLOAD AND OR SWAP1 SSTORE PUSH1 0x5 DUP7 ADD SWAP1 DUP2 SLOAD AND SWAP1 SSTORE PUSH2 0x3548 CALLER PUSH2 0x6E84 JUMP JUMPDEST CALLER PUSH1 0x0 MSTORE PUSH1 0x8 DUP7 ADD PUSH1 0x20 MSTORE DUP1 PUSH1 0x40 PUSH1 0x0 KECCAK256 SSTORE PUSH1 0x6 DUP7 ADD SSTORE PUSH1 0x1 PUSH1 0xA0 SHL PUSH1 0xFF PUSH1 0xA0 SHL NOT PUSH1 0x6 DUP9 ADD SLOAD AND OR PUSH1 0x6 DUP8 ADD SSTORE DUP4 PUSH1 0xD DUP8 ADD SSTORE PUSH1 0x1 PUSH1 0x1 PUSH1 0x40 SHL SUB DUP2 GT PUSH2 0xB82 JUMPI PUSH2 0x35A4 DUP2 PUSH2 0x359B PUSH1 0x8 DUP10 ADD SLOAD PUSH2 0x6640 JUMP JUMPDEST PUSH1 0x8 DUP10 ADD PUSH2 0x6C6A JUMP JUMPDEST DUP7 PUSH1 0x1F DUP3 GT PUSH1 0x1 EQ PUSH2 0x36BF JUMPI SWAP1 DUP1 PUSH32 0x5141BEF9784DE07E10F623A11FC3522B473590CE0E5612F3F38907D30B6D9DD2 SWAP4 SWAP3 DUP10 SWAP11 PUSH1 0x6 SWAP10 SWAP11 SWAP3 PUSH2 0x36B4 JUMPI JUMPDEST POP POP DUP2 PUSH1 0x1 SHL SWAP2 PUSH1 0x0 NOT SWAP1 PUSH1 0x3 SHL SHR NOT AND OR PUSH1 0x8 DUP9 ADD SSTORE JUMPDEST CALLER DUP9 MSTORE PUSH1 0x9 PUSH1 0x20 MSTORE TIMESTAMP PUSH1 0x7 PUSH1 0x40 DUP11 KECCAK256 ADD SSTORE PUSH2 0x363E PUSH1 0x2 DUP7 ADD SLOAD SWAP4 PUSH1 0x40 MLOAD SWAP3 PUSH2 0x3622 PUSH1 0x24 CALLDATALOAD PUSH2 0x6720 JUMP JUMPDEST PUSH1 0x24 CALLDATALOAD DUP5 MSTORE CALLER PUSH1 0x20 DUP6 ADD MSTORE PUSH1 0x80 PUSH1 0x40 DUP6 ADD MSTORE PUSH1 0x80 DUP5 ADD SWAP2 PUSH2 0x6CE2 JUMP JUMPDEST SWAP3 PUSH1 0x60 DUP3 ADD MSTORE DUP1 PUSH1 0x4 CALLDATALOAD SWAP4 SUB SWAP1 LOG3 ADD SLOAD PUSH1 0xE SLOAD PUSH1 0xD SLOAD DUP1 ISZERO PUSH2 0x36A0 JUMPI SWAP1 PUSH2 0x3669 SWAP2 PUSH2 0x2710 DIV SWAP1 PUSH2 0x6E11 JUMP JUMPDEST GT ISZERO PUSH2 0x3686 JUMPI JUMPDEST POP PUSH1 0x1 PUSH1 0x0 DUP1 MLOAD PUSH1 0x20 PUSH2 0x74B9 DUP4 CODECOPY DUP2 MLOAD SWAP2 MSTORE SSTORE DUP1 RETURN JUMPDEST PUSH1 0x6 ADD DUP1 SLOAD PUSH1 0xFF PUSH1 0xA0 SHL NOT AND PUSH1 0x1 PUSH1 0xA1 SHL OR SWAP1 SSTORE CODESIZE PUSH2 0x3670 JUMP JUMPDEST PUSH4 0x4E487B71 PUSH1 0xE0 SHL DUP6 MSTORE PUSH1 0x12 PUSH1 0x4 MSTORE PUSH1 0x24 DUP6 REVERT JUMPDEST ADD CALLDATALOAD SWAP1 POP CODESIZE DUP1 PUSH2 0x35E1 JUMP JUMPDEST PUSH1 0x8 DUP8 ADD DUP9 MSTORE PUSH1 0x20 DUP9 KECCAK256 SWAP1 DUP9 JUMPDEST PUSH1 0x1F NOT DUP5 AND DUP2 LT PUSH2 0x373A JUMPI POP SWAP2 PUSH1 0x1 SWAP2 PUSH1 0x6 SWAP9 SWAP10 SWAP11 PUSH32 0x5141BEF9784DE07E10F623A11FC3522B473590CE0E5612F3F38907D30B6D9DD2 SWAP6 SWAP5 DUP4 PUSH1 0x1F NOT DUP2 AND LT PUSH2 0x3720 JUMPI JUMPDEST POP POP POP DUP2 SHL ADD PUSH1 0x8 DUP9 ADD SSTORE PUSH2 0x35F9 JUMP JUMPDEST ADD CALLDATALOAD PUSH1 0x0 NOT PUSH1 0x3 DUP5 SWAP1 SHL PUSH1 0xF8 AND SHR NOT AND SWAP1 SSTORE CODESIZE DUP1 DUP1 PUSH2 0x3710 JUMP JUMPDEST SWAP1 SWAP2 PUSH1 0x20 PUSH1 0x1 DUP2 SWAP3 DUP6 DUP15 ADD CALLDATALOAD DUP2 SSTORE ADD SWAP4 ADD SWAP2 ADD PUSH2 0x36CC JUMP JUMPDEST SWAP1 POP DUP4 ADD CALLDATALOAD CODESIZE PUSH2 0x34FA JUMP JUMPDEST PUSH1 0x3 DUP8 ADD DUP10 MSTORE PUSH1 0x20 DUP10 KECCAK256 SWAP2 POP DUP9 JUMPDEST PUSH1 0x1F NOT DUP6 AND DUP2 LT PUSH2 0x37AF JUMPI POP DUP4 PUSH1 0x1F NOT DUP2 AND LT PUSH2 0x3795 JUMPI JUMPDEST POP POP PUSH1 0x1 DUP3 DUP2 SHL ADD PUSH1 0x3 DUP7 ADD SSTORE PUSH2 0x3511 JUMP JUMPDEST DUP5 ADD CALLDATALOAD PUSH1 0x0 NOT PUSH1 0x3 DUP6 SWAP1 SHL PUSH1 0xF8 AND SHR NOT AND SWAP1 SSTORE CODESIZE DUP1 PUSH2 0x3783 JUMP JUMPDEST SWAP1 SWAP2 PUSH1 0x20 PUSH1 0x1 DUP2 SWAP3 DUP6 DUP10 ADD CALLDATALOAD DUP2 SSTORE ADD SWAP4 ADD SWAP2 ADD PUSH2 0x376B JUMP JUMPDEST PUSH4 0x4E487B71 PUSH1 0xE0 SHL DUP8 MSTORE PUSH1 0x11 PUSH1 0x4 MSTORE PUSH1 0x24 DUP8 REVERT JUMPDEST PUSH4 0x4E487B71 PUSH1 0xE0 SHL PUSH1 0x0 MSTORE PUSH1 0x41 PUSH1 0x4 MSTORE PUSH1 0x24 PUSH1 0x0 REVERT JUMPDEST PUSH1 0x40 MLOAD RETURNDATASIZE DUP9 DUP3 RETURNDATACOPY RETURNDATASIZE SWAP1 REVERT JUMPDEST PUSH1 0x40 MLOAD PUSH3 0x461BCD PUSH1 0xE5 SHL DUP2 MSTORE PUSH1 0x20 PUSH1 0x4 DUP3 ADD MSTORE PUSH1 0xA PUSH1 0x24 DUP3 ADD MSTORE PUSH10 0x57726F6E67207374657 PUSH1 0xB4 SHL PUSH1 0x44 DUP3 ADD MSTORE PUSH1 0x64 SWAP1 REVERT JUMPDEST PUSH1 0x2 SWAP2 POP PUSH1 0xFF AND PUSH2 0x383E DUP2 PUSH2 0x67EC JUMP JUMPDEST EQ CODESIZE PUSH2 0x33B0 JUMP JUMPDEST PUSH4 0x4E487B71 PUSH1 0xE0 SHL DUP8 MSTORE PUSH1 0x21 PUSH1 0x4 MSTORE PUSH1 0x24 DUP8 REVERT JUMPDEST PUSH1 0x40 MLOAD PUSH3 0x461BCD PUSH1 0xE5 SHL DUP2 MSTORE PUSH1 0x20 PUSH1 0x4 DUP3 ADD MSTORE PUSH1 0xD PUSH1 0x24 DUP3 ADD MSTORE PUSH13 0x4E6565642065766964656E6365 PUSH1 0x98 SHL PUSH1 0x44 DUP3 ADD MSTORE PUSH1 0x64 SWAP1 REVERT JUMPDEST PUSH1 0x40 MLOAD PUSH3 0x461BCD PUSH1 0xE5 SHL DUP2 MSTORE PUSH1 0x20 PUSH1 0x4 DUP3 ADD MSTORE PUSH1 0xD PUSH1 0x24 DUP3 ADD MSTORE PUSH13 0x139BC81C99585CDBDB8810D251 PUSH1 0x9A SHL PUSH1 0x44 DUP3 ADD MSTORE PUSH1 0x64 SWAP1 REVERT JUMPDEST PUSH1 0x40 MLOAD PUSH3 0x461BCD PUSH1 0xE5 SHL DUP2 MSTORE PUSH1 0x20 PUSH1 0x4 DUP3 ADD MSTORE PUSH1 0xF PUSH1 0x24 DUP3 ADD MSTORE PUSH15 0x496E76616C6964206F7574636F6D65 PUSH1 0x88 SHL PUSH1 0x44 DUP3 ADD MSTORE PUSH1 0x64 SWAP1 REVERT JUMPDEST POP PUSH2 0x3906 PUSH1 0x24 CALLDATALOAD PUSH2 0x6720 JUMP JUMPDEST PUSH1 0x6 PUSH1 0x24 CALLDATALOAD EQ ISZERO PUSH2 0x336F JUMP JUMPDEST POP PUSH2 0x391E PUSH1 0x24 CALLDATALOAD PUSH2 0x6720 JUMP JUMPDEST PUSH1 0x5 PUSH1 0x24 CALLDATALOAD EQ ISZERO PUSH2 0x3369 JUMP JUMPDEST PUSH1 0x40 MLOAD PUSH3 0x461BCD PUSH1 0xE5 SHL DUP2 MSTORE PUSH1 0x20 PUSH1 0x4 DUP3 ADD MSTORE PUSH1 0x8 PUSH1 0x24 DUP3 ADD MSTORE PUSH8 0x2737BA1037B832B7 PUSH1 0xC1 SHL PUSH1 0x44 DUP3 ADD MSTORE PUSH1 0x64 SWAP1 REVERT JUMPDEST POP CALLVALUE PUSH2 0x3A7 JUMPI PUSH1 0x20 SWAP1 DUP2 PUSH1 0x3 NOT CALLDATASIZE ADD SLT PUSH2 0x3A7 JUMPI PUSH1 0x4 CALLDATALOAD PUSH2 0x3979 PUSH2 0x6D86 JUMP JUMPDEST PUSH2 0x3981 PUSH2 0x6D03 JUMP JUMPDEST DUP1 DUP3 MSTORE PUSH1 0x2 DUP1 DUP5 MSTORE PUSH2 0x399B PUSH1 0x4 PUSH1 0x40 DUP6 KECCAK256 ADD SLOAD ISZERO ISZERO PUSH2 0x6EE6 JUMP JUMPDEST DUP2 DUP4 MSTORE DUP1 DUP5 MSTORE PUSH1 0xFF PUSH2 0x39B6 DUP2 PUSH1 0xC PUSH1 0x40 DUP8 KECCAK256 ADD SLOAD AND ISZERO PUSH2 0x70D8 JUMP JUMPDEST DUP3 DUP5 MSTORE DUP2 DUP6 MSTORE PUSH1 0x40 DUP5 KECCAK256 SWAP2 PUSH1 0x6 DUP4 ADD SWAP1 DUP1 DUP4 DUP4 SLOAD PUSH1 0xA0 SHR AND PUSH2 0x39D7 DUP2 PUSH2 0x6720 JUMP JUMPDEST SUB PUSH2 0x3D13 JUMPI PUSH1 0xD DUP5 ADD SLOAD DUP1 DUP8 MSTORE PUSH1 0x4 DUP9 MSTORE PUSH1 0x40 DUP8 KECCAK256 SWAP3 DUP3 DUP5 ADD SLOAD TIMESTAMP LT PUSH2 0x3CDC JUMPI PUSH1 0x6 DUP5 ADD SLOAD PUSH1 0xE SLOAD PUSH1 0xD SLOAD DUP1 ISZERO PUSH2 0x3CC8 JUMPI SWAP1 PUSH2 0x3A17 SWAP2 PUSH2 0x2710 DIV SWAP1 PUSH2 0x6E11 JUMP JUMPDEST GT PUSH2 0x3C94 JUMPI PUSH1 0x5 DUP5 ADD DUP1 SLOAD DUP7 DUP2 AND PUSH2 0x3C69 JUMPI PUSH1 0xFF NOT AND PUSH1 0x1 OR SWAP1 SSTORE DUP1 SLOAD PUSH1 0xFF PUSH1 0xA0 SHL NOT AND PUSH1 0x3 PUSH1 0xA0 SHL OR DUP2 SSTORE DUP4 SLOAD PUSH2 0x3A52 SWAP2 SWAP1 DUP7 AND SWAP1 PUSH2 0x6CBE JUMP JUMPDEST PUSH1 0xA PUSH1 0x3 DUP5 ADD SWAP6 PUSH2 0x3A66 DUP8 PUSH1 0x7 DUP4 ADD PUSH2 0x71E5 JUMP JUMPDEST TIMESTAMP PUSH1 0x9 DUP3 ADD SSTORE ADD CALLER PUSH1 0x1 PUSH1 0x1 PUSH1 0x60 SHL SUB PUSH1 0xA0 SHL DUP3 SLOAD AND OR SWAP1 SSTORE DUP1 DUP8 MSTORE PUSH1 0x4 DUP9 MSTORE PUSH1 0x40 DUP8 KECCAK256 SWAP2 PUSH1 0x1 DUP1 PUSH1 0xA0 SHL SUB SWAP3 DUP4 SWAP2 DUP3 DUP3 SLOAD PUSH1 0x8 SHR AND DUP11 MSTORE PUSH1 0x9 DUP12 MSTORE PUSH1 0x1 PUSH1 0x40 DUP12 KECCAK256 ADD PUSH2 0x3AB3 DUP2 SLOAD PUSH2 0x6D77 JUMP JUMPDEST SWAP1 SSTORE DUP2 SLOAD PUSH1 0x3 DUP9 DUP3 AND PUSH2 0x3AC5 DUP2 PUSH2 0x6720 JUMP JUMPDEST SUB PUSH2 0x3C1F JUMPI JUMPDEST POP POP POP POP DUP7 MSTORE PUSH1 0x4 DUP8 MSTORE PUSH1 0x40 DUP7 KECCAK256 SWAP1 DUP1 PUSH1 0x10 SLOAD AND SWAP2 DUP2 DUP2 SLOAD PUSH1 0x8 SHR AND PUSH1 0x40 MLOAD SWAP1 PUSH4 0xA9059CBB PUSH1 0xE0 SHL DUP3 MSTORE PUSH1 0x4 DUP3 ADD MSTORE DUP10 DUP2 PUSH1 0x44 DUP2 DUP13 PUSH9 0x56BC75E2D63100000 SWAP9 DUP10 PUSH1 0x24 DUP5 ADD MSTORE GAS CALL SWAP1 DUP2 ISZERO PUSH2 0x3C14 JUMPI DUP10 SWAP2 PUSH2 0x3BF7 JUMPI JUMPDEST POP ISZERO PUSH2 0x3BBD JUMPI PUSH1 0x0 DUP1 MLOAD PUSH1 0x20 PUSH2 0x7459 DUP4 CODECOPY DUP2 MLOAD SWAP2 MSTORE SWAP7 SWAP8 SWAP9 SWAP3 PUSH1 0x40 PUSH32 0xB4F8E0B2D5A55A9EECC8E79ED079D1E2A8316B0C826EE836043AF5DEFB111AB4 SWAP4 PUSH1 0x80 SWAP4 SLOAD PUSH1 0x8 SHR AND SWAP5 DUP2 MLOAD SWAP3 DUP4 MSTORE DUP3 ADD MSTORE PUSH1 0x10 PUSH1 0x40 DUP3 ADD MSTORE PUSH16 0x15995C991A58DD08195E1958DD5D1959 PUSH1 0x82 SHL PUSH1 0x60 DUP3 ADD MSTORE LOG2 SLOAD AND PUSH2 0x3BA5 PUSH1 0x40 MLOAD SWAP3 DUP4 SWAP3 TIMESTAMP SWAP2 CALLER SWAP2 DUP6 PUSH2 0x72BD JUMP JUMPDEST SUB SWAP1 LOG2 PUSH1 0x1 PUSH1 0x0 DUP1 MLOAD PUSH1 0x20 PUSH2 0x74B9 DUP4 CODECOPY DUP2 MLOAD SWAP2 MSTORE SSTORE DUP1 RETURN JUMPDEST PUSH1 0x40 MLOAD PUSH3 0x461BCD PUSH1 0xE5 SHL DUP2 MSTORE PUSH1 0x4 DUP2 ADD DUP11 SWAP1 MSTORE PUSH1 0x12 PUSH1 0x24 DUP3 ADD MSTORE PUSH18 0x109BDB99081C995D1D5C9B8819985A5B1959 PUSH1 0x72 SHL PUSH1 0x44 DUP3 ADD MSTORE PUSH1 0x64 SWAP1 REVERT JUMPDEST PUSH2 0x3C0E SWAP2 POP DUP11 RETURNDATASIZE DUP13 GT PUSH2 0x128C JUMPI PUSH2 0x127E DUP2 DUP4 PUSH2 0x65D9 JUMP JUMPDEST CODESIZE PUSH2 0x3B21 JUMP JUMPDEST PUSH1 0x40 MLOAD RETURNDATASIZE DUP12 DUP3 RETURNDATACOPY RETURNDATASIZE SWAP1 REVERT JUMPDEST DUP4 SWAP1 PUSH1 0x8 SHR AND DUP11 MSTORE PUSH1 0x9 DUP12 MSTORE PUSH1 0x40 DUP11 KECCAK256 ADD PUSH2 0x3C3A DUP2 SLOAD PUSH2 0x6D77 JUMP JUMPDEST SWAP1 SSTORE SLOAD PUSH1 0x8 SHR AND DUP1 DUP9 MSTORE PUSH1 0x9 DUP10 MSTORE PUSH2 0x3C54 PUSH1 0x40 DUP10 KECCAK256 PUSH2 0x6E24 JUMP JUMPDEST SWAP1 DUP9 MSTORE PUSH1 0x9 DUP10 MSTORE PUSH1 0x40 DUP9 KECCAK256 SSTORE DUP2 CODESIZE DUP1 DUP1 PUSH2 0x3ACB JUMP JUMPDEST PUSH1 0x40 MLOAD PUSH3 0x461BCD PUSH1 0xE5 SHL DUP2 MSTORE PUSH1 0x4 DUP1 DUP3 ADD DUP14 SWAP1 MSTORE PUSH1 0x24 DUP3 ADD MSTORE PUSH4 0x446F6E65 PUSH1 0xE0 SHL PUSH1 0x44 DUP3 ADD MSTORE PUSH1 0x64 SWAP1 REVERT JUMPDEST PUSH1 0x40 MLOAD PUSH3 0x461BCD PUSH1 0xE5 SHL DUP2 MSTORE PUSH1 0x4 DUP2 ADD DUP11 SWAP1 MSTORE PUSH1 0xC PUSH1 0x24 DUP3 ADD MSTORE PUSH12 0x556E6465722071756F72756D PUSH1 0xA0 SHL PUSH1 0x44 DUP3 ADD MSTORE PUSH1 0x64 SWAP1 REVERT JUMPDEST PUSH4 0x4E487B71 PUSH1 0xE0 SHL DUP12 MSTORE PUSH1 0x12 PUSH1 0x4 MSTORE PUSH1 0x24 DUP12 REVERT JUMPDEST PUSH1 0x40 MLOAD PUSH3 0x461BCD PUSH1 0xE5 SHL DUP2 MSTORE PUSH1 0x4 DUP2 ADD DUP11 SWAP1 MSTORE PUSH1 0xF PUSH1 0x24 DUP3 ADD MSTORE PUSH15 0x54696D656C6F636B20616374697665 PUSH1 0x88 SHL PUSH1 0x44 DUP3 ADD MSTORE PUSH1 0x64 SWAP1 REVERT JUMPDEST PUSH1 0x40 MLOAD PUSH3 0x461BCD PUSH1 0xE5 SHL DUP2 MSTORE PUSH1 0x4 DUP2 ADD DUP9 SWAP1 MSTORE PUSH1 0xF PUSH1 0x24 DUP3 ADD MSTORE PUSH15 0x4E6F7420696E2074696D656C6F636B PUSH1 0x88 SHL PUSH1 0x44 DUP3 ADD MSTORE PUSH1 0x64 SWAP1 REVERT JUMPDEST POP CALLVALUE PUSH2 0x3A7 JUMPI DUP1 PUSH1 0x3 NOT CALLDATASIZE ADD SLT PUSH2 0x3A7 JUMPI PUSH1 0x20 PUSH1 0x40 MLOAD PUSH9 0x3635C9ADC5DEA00000 DUP2 MSTORE RETURN JUMPDEST POP CALLVALUE PUSH2 0x3A7 JUMPI DUP1 PUSH1 0x3 NOT CALLDATASIZE ADD SLT PUSH2 0x3A7 JUMPI PUSH1 0x20 PUSH1 0x40 MLOAD PUSH32 0x79F8A4099C742DA5530B52D1BB648FC05FDD82941A0DB55645D2ECEB3AB801B DUP2 MSTORE RETURN JUMPDEST POP CALLVALUE PUSH2 0x3A7 JUMPI PUSH1 0x20 CALLDATASIZE PUSH1 0x3 NOT ADD SLT PUSH2 0x3A7 JUMPI PUSH1 0x4 CALLDATALOAD SWAP1 PUSH1 0xB SLOAD DUP3 LT ISZERO PUSH2 0x3A7 JUMPI PUSH1 0x20 PUSH2 0x3DD4 DUP4 PUSH2 0x6850 JUMP JUMPDEST SWAP1 SLOAD PUSH1 0x40 MLOAD SWAP2 PUSH1 0x3 SHL SHR DUP2 MSTORE RETURN JUMPDEST POP CALLVALUE PUSH2 0x3A7 JUMPI PUSH1 0xE0 CALLDATASIZE PUSH1 0x3 NOT ADD SLT PUSH2 0x3A7 JUMPI PUSH1 0x7 PUSH1 0x44 CALLDATALOAD LT ISZERO PUSH2 0x3A7 JUMPI PUSH1 0x64 CALLDATALOAD PUSH1 0x1 PUSH1 0x1 PUSH1 0x40 SHL SUB DUP2 GT PUSH2 0xFE3 JUMPI PUSH2 0x3E1E SWAP1 CALLDATASIZE SWAP1 PUSH1 0x4 ADD PUSH2 0x67BF JUMP JUMPDEST CALLER PUSH1 0x0 SWAP1 DUP2 MSTORE PUSH32 0xC1C604B5ADD75B59252BCA1E4E4EC4AB21F3921B1DDCF7A43ABE69724BCE555D PUSH1 0x20 MSTORE PUSH1 0x40 SWAP1 KECCAK256 SLOAD SWAP1 SWAP3 SWAP2 SWAP1 PUSH32 0x482648E7878E9FA54C0A2F67FFD22D00EBC37CF7A03E060E428D2AB0CD6735CC SWAP1 PUSH1 0xFF AND ISZERO PUSH2 0x451F JUMPI POP PUSH1 0x4 CALLDATALOAD DUP3 MSTORE PUSH1 0x2 PUSH1 0x20 MSTORE PUSH2 0x3E98 PUSH1 0x4 PUSH1 0x40 DUP5 KECCAK256 ADD SLOAD ISZERO ISZERO PUSH2 0x6EE6 JUMP JUMPDEST PUSH1 0x24 SWAP3 PUSH2 0x2710 DUP5 CALLDATALOAD GT PUSH2 0x44E6 JUMPI DUP1 ISZERO PUSH2 0x44B9 JUMPI PUSH1 0x4 CALLDATALOAD DUP4 MSTORE PUSH1 0x2 PUSH1 0x20 MSTORE PUSH1 0x40 DUP4 KECCAK256 PUSH2 0x3EE2 PUSH1 0xFF PUSH1 0x6 DUP4 ADD SLOAD PUSH1 0xA0 SHR AND PUSH2 0x3ED0 DUP2 PUSH2 0x6720 JUMP JUMPDEST PUSH1 0x5 DUP2 EQ SWAP1 DUP2 ISZERO PUSH2 0x44A7 JUMPI JUMPDEST POP PUSH2 0x6F27 JUMP JUMPDEST PUSH1 0x40 MLOAD PUSH2 0x3EEE DUP2 PUSH2 0x6587 JUMP JUMPDEST PUSH1 0x4 CALLDATALOAD DUP2 MSTORE PUSH1 0x20 DUP2 ADD SWAP1 DUP7 CALLDATALOAD DUP3 MSTORE PUSH2 0x3F07 PUSH1 0x44 CALLDATALOAD PUSH2 0x6720 JUMP JUMPDEST PUSH1 0x40 DUP2 ADD PUSH1 0x44 CALLDATALOAD DUP2 MSTORE PUSH2 0x3F93 PUSH2 0x3F1E CALLDATASIZE DUP8 DUP10 PUSH2 0x65FA JUMP JUMPDEST SWAP2 PUSH1 0x60 DUP5 ADD SWAP3 DUP4 MSTORE TIMESTAMP PUSH1 0x80 DUP6 ADD MSTORE PUSH1 0x40 MLOAD PUSH2 0x3F38 DUP2 PUSH2 0x65BE JUMP JUMPDEST PUSH1 0x4 DUP2 MSTORE PUSH4 0x76322E3 PUSH1 0xE4 SHL PUSH1 0x20 DUP3 ADD MSTORE PUSH1 0xA0 DUP6 ADD MSTORE PUSH1 0x84 CALLDATALOAD PUSH1 0xC0 DUP6 ADD MSTORE PUSH1 0xA4 CALLDATALOAD PUSH1 0xE0 DUP6 ADD MSTORE PUSH1 0xC4 CALLDATALOAD PUSH2 0x100 DUP6 ADD MSTORE PUSH1 0x4 CALLDATALOAD DUP10 MSTORE PUSH1 0x6 PUSH1 0x20 MSTORE PUSH1 0x40 DUP10 KECCAK256 SWAP5 DUP5 MLOAD DUP7 SSTORE MLOAD PUSH1 0x1 DUP7 ADD SSTORE MLOAD PUSH2 0x3F8A DUP2 PUSH2 0x6720 JUMP JUMPDEST PUSH1 0x2 DUP6 ADD PUSH2 0x6F64 JUMP JUMPDEST MLOAD DUP1 MLOAD SWAP1 PUSH1 0x1 PUSH1 0x1 PUSH1 0x40 SHL SUB DUP3 GT PUSH2 0x441A JUMPI DUP2 SWAP1 PUSH2 0x3FB8 DUP3 PUSH2 0x7FC PUSH1 0x3 DUP9 ADD SLOAD PUSH2 0x6640 JUMP JUMPDEST PUSH1 0x20 SWAP1 PUSH1 0x1F DUP4 GT PUSH1 0x1 EQ PUSH2 0x4438 JUMPI DUP10 SWAP3 PUSH2 0x442D JUMPI JUMPDEST POP POP DUP2 PUSH1 0x1 SHL SWAP2 PUSH1 0x0 NOT SWAP1 PUSH1 0x3 SHL SHR NOT AND OR PUSH1 0x3 DUP4 ADD SSTORE JUMPDEST PUSH1 0x80 DUP2 ADD MLOAD PUSH1 0x4 DUP4 ADD SSTORE PUSH1 0xA0 DUP2 ADD MLOAD DUP1 MLOAD SWAP1 PUSH1 0x1 PUSH1 0x1 PUSH1 0x40 SHL SUB DUP3 GT PUSH2 0x441A JUMPI PUSH2 0x401F DUP3 PUSH2 0x4016 PUSH1 0x5 DUP8 ADD SLOAD PUSH2 0x6640 JUMP JUMPDEST PUSH1 0x5 DUP8 ADD PUSH2 0x6C6A JUMP JUMPDEST PUSH1 0x20 SWAP1 PUSH1 0x1F DUP4 GT PUSH1 0x1 EQ PUSH2 0x43A7 JUMPI SWAP2 DUP1 PUSH1 0x8 SWAP5 SWAP3 PUSH2 0x100 SWAP5 DUP12 SWAP3 PUSH2 0x439C JUMPI JUMPDEST POP POP DUP2 PUSH1 0x1 SHL SWAP2 PUSH1 0x0 NOT SWAP1 PUSH1 0x3 SHL SHR NOT AND OR PUSH1 0x5 DUP6 ADD SSTORE JUMPDEST PUSH1 0xC0 DUP2 ADD MLOAD PUSH1 0x6 DUP6 ADD SSTORE PUSH1 0xE0 DUP2 ADD MLOAD PUSH1 0x7 DUP6 ADD SSTORE ADD MLOAD SWAP2 ADD SSTORE DUP5 CALLDATALOAD PUSH1 0xF DUP3 ADD SSTORE PUSH1 0x1 PUSH1 0x1 PUSH1 0x40 SHL SUB DUP3 GT PUSH2 0x4388 JUMPI PUSH2 0x409E DUP3 PUSH2 0x4095 PUSH1 0x10 DUP5 ADD SLOAD PUSH2 0x6640 JUMP JUMPDEST PUSH1 0x10 DUP5 ADD PUSH2 0x6C6A JUMP JUMPDEST DUP2 DUP5 PUSH1 0x1F DUP3 GT PUSH1 0x1 EQ PUSH2 0x4317 JUMPI SWAP2 PUSH1 0xE SWAP2 PUSH1 0xFF SWAP4 DUP8 SWAP2 PUSH2 0x430C JUMPI JUMPDEST POP DUP5 PUSH1 0x1 SHL SWAP1 PUSH1 0x0 NOT DUP7 PUSH1 0x3 SHL SHR NOT AND OR PUSH1 0x10 DUP3 ADD SSTORE JUMPDEST PUSH1 0x40 MLOAD DUP8 CALLDATALOAD DUP2 MSTORE PUSH2 0x40E2 PUSH1 0x44 CALLDATALOAD PUSH2 0x6720 JUMP JUMPDEST PUSH1 0x44 CALLDATALOAD PUSH1 0x20 DUP3 ADD MSTORE PUSH1 0x60 PUSH1 0x40 DUP3 ADD MSTORE PUSH32 0x3162616FC702DA032B25B5CAA9CFD7EEFB5CA67D65B974F97FE1E509A77614A PUSH1 0x4 CALLDATALOAD SWAP2 DUP1 PUSH2 0x4125 PUSH1 0x60 DUP3 ADD DUP10 DUP12 PUSH2 0x6CE2 JUMP JUMPDEST SUB SWAP1 LOG2 ADD SLOAD AND PUSH2 0x4134 DUP2 PUSH2 0x67EC JUMP JUMPDEST ISZERO DUP1 PUSH2 0x42FF JUMPI JUMPDEST ISZERO PUSH2 0x42F0 JUMPI SWAP1 PUSH2 0x414C SWAP2 CALLDATASIZE SWAP2 PUSH2 0x65FA JUMP JUMPDEST PUSH1 0x4 CALLDATALOAD DUP3 MSTORE PUSH1 0x2 PUSH1 0x20 MSTORE PUSH1 0x40 DUP3 KECCAK256 PUSH1 0x6 DUP2 ADD DUP1 SLOAD PUSH1 0xFF PUSH1 0xA0 SHL NOT AND PUSH1 0x3 PUSH1 0xA0 SHL OR DUP2 SSTORE PUSH2 0x417C SWAP1 PUSH1 0x44 CALLDATALOAD SWAP1 PUSH2 0x6CBE JUMP JUMPDEST PUSH1 0x7 DUP2 ADD DUP3 MLOAD SWAP5 PUSH1 0x1 PUSH1 0x1 PUSH1 0x40 SHL SUB DUP7 GT PUSH2 0x42DE JUMPI POP PUSH2 0x41A6 DUP6 PUSH2 0x41A0 DUP4 SLOAD PUSH2 0x6640 JUMP JUMPDEST DUP4 PUSH2 0x6C6A JUMP JUMPDEST PUSH1 0x20 PUSH1 0x1F DUP7 GT PUSH1 0x1 EQ PUSH2 0x4279 JUMPI SWAP5 DUP1 DUP6 SWAP7 PUSH1 0xE SWAP6 SWAP7 SWAP2 PUSH2 0x426E JUMPI JUMPDEST POP DUP2 PUSH1 0x1 SHL SWAP2 PUSH1 0x0 NOT SWAP1 PUSH1 0x3 SHL SHR NOT AND OR SWAP1 SSTORE JUMPDEST TIMESTAMP PUSH1 0x9 DUP3 ADD SSTORE PUSH1 0xA DUP2 ADD DUP1 SLOAD PUSH1 0x1 PUSH1 0x1 PUSH1 0xA0 SHL SUB NOT AND ADDRESS OR SWAP1 SSTORE ADD DUP1 SLOAD PUSH2 0xFF00 NOT AND SWAP1 SSTORE PUSH1 0x40 MLOAD SWAP1 PUSH1 0x0 DUP1 MLOAD PUSH1 0x20 PUSH2 0x7459 DUP4 CODECOPY DUP2 MLOAD SWAP2 MSTORE SWAP1 PUSH2 0x4232 SWAP1 PUSH2 0x421C PUSH1 0x44 CALLDATALOAD PUSH2 0x6720 JUMP JUMPDEST PUSH1 0x44 CALLDATALOAD DUP5 MSTORE PUSH1 0x80 PUSH1 0x20 DUP6 ADD MSTORE PUSH1 0x80 DUP5 ADD SWAP1 PUSH2 0x672A JUMP JUMPDEST SWAP2 ADDRESS PUSH1 0x40 DUP3 ADD MSTORE TIMESTAMP PUSH1 0x60 DUP3 ADD MSTORE DUP1 PUSH1 0x4 CALLDATALOAD SWAP4 SUB SWAP1 LOG2 PUSH1 0x40 MLOAD PUSH1 0x0 DUP2 MSTORE PUSH1 0x0 PUSH1 0x20 DUP3 ADD MSTORE PUSH1 0x0 DUP1 MLOAD PUSH1 0x20 PUSH2 0x7499 DUP4 CODECOPY DUP2 MLOAD SWAP2 MSTORE PUSH1 0x40 PUSH1 0x4 CALLDATALOAD SWAP3 LOG2 DUP1 RETURN JUMPDEST SWAP1 POP DUP6 ADD MLOAD CODESIZE PUSH2 0x41C1 JUMP JUMPDEST DUP2 DUP6 MSTORE PUSH1 0x20 DUP6 KECCAK256 SWAP1 PUSH1 0x1F NOT DUP8 AND DUP7 JUMPDEST DUP2 DUP2 LT PUSH2 0x42C6 JUMPI POP SWAP2 DUP8 SWAP2 PUSH1 0xE SWAP7 SWAP8 SWAP9 PUSH1 0x1 SWAP5 LT PUSH2 0x42AD JUMPI JUMPDEST POP POP DUP2 SHL ADD SWAP1 SSTORE PUSH2 0x41D5 JUMP JUMPDEST DUP8 ADD MLOAD PUSH1 0x0 NOT PUSH1 0xF8 DUP5 PUSH1 0x3 SHL AND SHR NOT AND SWAP1 SSTORE CODESIZE DUP1 PUSH2 0x42A1 JUMP JUMPDEST SWAP2 SWAP3 PUSH1 0x20 PUSH1 0x1 DUP2 SWAP3 DUP7 DUP11 ADD MLOAD DUP2 SSTORE ADD SWAP5 ADD SWAP3 ADD PUSH2 0x4288 JUMP JUMPDEST PUSH4 0x4E487B71 PUSH1 0xE0 SHL DUP6 MSTORE PUSH1 0x41 PUSH1 0x4 MSTORE DUP5 REVERT JUMPDEST POP POP SWAP1 POP PUSH2 0x319D PUSH1 0x4 CALLDATALOAD PUSH2 0x6F7C JUMP JUMPDEST POP PUSH1 0xF SLOAD DUP5 CALLDATALOAD LT ISZERO PUSH2 0x413B JUMP JUMPDEST SWAP1 POP DUP6 ADD CALLDATALOAD CODESIZE PUSH2 0x40B9 JUMP JUMPDEST PUSH1 0x10 DUP4 ADD DUP7 MSTORE PUSH1 0x20 DUP7 KECCAK256 SWAP2 POP DUP6 JUMPDEST PUSH1 0x1F NOT DUP6 AND DUP2 LT PUSH2 0x4370 JUMPI POP SWAP2 PUSH1 0xE SWAP2 PUSH1 0xFF SWAP4 DUP6 PUSH1 0x1F NOT DUP2 AND LT PUSH2 0x4356 JUMPI JUMPDEST POP POP PUSH1 0x1 DUP5 DUP2 SHL ADD PUSH1 0x10 DUP3 ADD SSTORE PUSH2 0x40D0 JUMP JUMPDEST DUP7 ADD CALLDATALOAD PUSH1 0x0 NOT PUSH1 0x3 DUP8 SWAP1 SHL PUSH1 0xF8 AND SHR NOT AND SWAP1 SSTORE CODESIZE DUP1 PUSH2 0x4344 JUMP JUMPDEST SWAP1 SWAP2 PUSH1 0x20 PUSH1 0x1 DUP2 SWAP3 DUP6 DUP10 ADD CALLDATALOAD DUP2 SSTORE ADD SWAP4 ADD SWAP2 ADD PUSH2 0x4325 JUMP JUMPDEST POP POP PUSH4 0x4E487B71 PUSH1 0xE0 SHL DUP3 MSTORE POP PUSH1 0x41 PUSH1 0x4 MSTORE REVERT JUMPDEST ADD MLOAD SWAP1 POP CODESIZE DUP1 PUSH2 0x403E JUMP JUMPDEST SWAP1 PUSH1 0x5 DUP6 ADD DUP10 MSTORE PUSH1 0x20 DUP10 KECCAK256 SWAP2 DUP10 JUMPDEST PUSH1 0x1F NOT DUP6 AND DUP2 LT PUSH2 0x4402 JUMPI POP SWAP3 PUSH1 0x8 SWAP5 SWAP3 PUSH1 0x1 SWAP3 PUSH2 0x100 SWAP6 DUP4 PUSH1 0x1F NOT DUP2 AND LT PUSH2 0x43E9 JUMPI JUMPDEST POP POP POP DUP2 SHL ADD PUSH1 0x5 DUP6 ADD SSTORE PUSH2 0x4056 JUMP JUMPDEST ADD MLOAD PUSH1 0x0 NOT PUSH1 0xF8 DUP5 PUSH1 0x3 SHL AND SHR NOT AND SWAP1 SSTORE CODESIZE DUP1 DUP1 PUSH2 0x43D9 JUMP JUMPDEST SWAP2 SWAP3 PUSH1 0x20 PUSH1 0x1 DUP2 SWAP3 DUP7 DUP6 ADD MLOAD DUP2 SSTORE ADD SWAP5 ADD SWAP3 ADD PUSH2 0x43B5 JUMP JUMPDEST PUSH4 0x4E487B71 PUSH1 0xE0 SHL DUP9 MSTORE PUSH1 0x41 PUSH1 0x4 MSTORE DUP9 DUP9 REVERT JUMPDEST ADD MLOAD SWAP1 POP CODESIZE DUP1 PUSH2 0x3FCD JUMP JUMPDEST SWAP3 POP PUSH1 0x3 DUP6 ADD DUP10 MSTORE PUSH1 0x20 DUP10 KECCAK256 SWAP1 DUP10 SWAP4 JUMPDEST PUSH1 0x1F NOT DUP5 AND DUP6 LT PUSH2 0x448C JUMPI PUSH1 0x1 SWAP5 POP DUP4 PUSH1 0x1F NOT DUP2 AND LT PUSH2 0x4473 JUMPI JUMPDEST POP POP POP DUP2 SHL ADD PUSH1 0x3 DUP4 ADD SSTORE PUSH2 0x3FE5 JUMP JUMPDEST ADD MLOAD PUSH1 0x0 NOT PUSH1 0xF8 DUP5 PUSH1 0x3 SHL AND SHR NOT AND SWAP1 SSTORE CODESIZE DUP1 DUP1 PUSH2 0x4463 JUMP JUMPDEST DUP2 DUP2 ADD MLOAD DUP4 SSTORE PUSH1 0x20 SWAP5 DUP6 ADD SWAP5 PUSH1 0x1 SWAP1 SWAP4 ADD SWAP3 SWAP1 SWAP2 ADD SWAP1 PUSH2 0x4448 JUMP JUMPDEST SWAP1 POP PUSH2 0x44B2 DUP2 PUSH2 0x6720 JUMP JUMPDEST ISZERO CODESIZE PUSH2 0x3EDC JUMP JUMPDEST PUSH1 0x40 MLOAD PUSH3 0x461BCD PUSH1 0xE5 SHL DUP2 MSTORE PUSH1 0x20 PUSH1 0x4 DUP3 ADD MSTORE PUSH1 0x6 DUP2 DUP7 ADD MSTORE PUSH6 0x139BC810D251 PUSH1 0xD2 SHL PUSH1 0x44 DUP3 ADD MSTORE PUSH1 0x64 SWAP1 REVERT JUMPDEST PUSH1 0x40 MLOAD PUSH3 0x461BCD PUSH1 0xE5 SHL DUP2 MSTORE PUSH1 0x20 PUSH1 0x4 DUP3 ADD MSTORE PUSH1 0x12 DUP2 DUP7 ADD MSTORE PUSH18 0x496E76616C696420636F6E666964656E6365 PUSH1 0x70 SHL PUSH1 0x44 DUP3 ADD MSTORE PUSH1 0x64 SWAP1 REVERT JUMPDEST PUSH1 0x44 SWAP1 PUSH1 0x40 MLOAD SWAP1 PUSH4 0xE2517D3F PUSH1 0xE0 SHL DUP3 MSTORE CALLER PUSH1 0x4 DUP4 ADD MSTORE PUSH1 0x24 DUP3 ADD MSTORE REVERT JUMPDEST POP CALLVALUE PUSH2 0x3A7 JUMPI PUSH1 0x20 DUP1 PUSH1 0x3 NOT CALLDATASIZE ADD SLT PUSH2 0xFE3 JUMPI PUSH1 0x4 CALLDATALOAD PUSH2 0x455B PUSH2 0x6D86 JUMP JUMPDEST CALLER DUP4 MSTORE PUSH1 0x9 DUP3 MSTORE PUSH1 0x40 DUP4 KECCAK256 PUSH1 0x3 DUP2 ADD DUP1 SLOAD SWAP1 PUSH2 0x4579 DUP5 DUP4 LT ISZERO PUSH2 0x6DB6 JUMP JUMPDEST PUSH9 0x3635C9ADC5DEA00000 SWAP2 DUP3 PUSH2 0x458F DUP7 DUP4 PUSH2 0x6DF7 JUMP JUMPDEST LT DUP1 ISZERO SWAP1 PUSH2 0x46D7 JUMPI JUMPDEST ISZERO PUSH2 0x46A2 JUMPI SWAP3 PUSH2 0x45F4 SWAP3 DUP6 SWAP3 PUSH2 0x45B0 DUP10 SWAP8 DUP10 SWAP8 PUSH2 0x6DF7 JUMP JUMPDEST DUP1 SWAP2 SSTORE LT PUSH2 0x464E JUMPI JUMPDEST POP PUSH1 0x10 SLOAD PUSH1 0x40 MLOAD PUSH4 0xA9059CBB PUSH1 0xE0 SHL DUP2 MSTORE CALLER PUSH1 0x4 DUP3 ADD MSTORE PUSH1 0x24 DUP2 ADD SWAP3 SWAP1 SWAP3 MSTORE SWAP1 SWAP4 DUP5 SWAP3 PUSH1 0x1 PUSH1 0x1 PUSH1 0xA0 SHL SUB SWAP1 SWAP3 AND SWAP2 DUP4 SWAP2 SWAP1 DUP3 SWAP1 PUSH1 0x44 DUP3 ADD SWAP1 JUMP JUMPDEST SUB SWAP3 GAS CALL SWAP1 DUP2 ISZERO PUSH2 0x4643 JUMPI PUSH2 0x4611 SWAP3 DUP5 SWAP3 PUSH2 0x4626 JUMPI JUMPDEST POP POP PUSH2 0x6D39 JUMP JUMPDEST PUSH1 0x1 PUSH1 0x0 DUP1 MLOAD PUSH1 0x20 PUSH2 0x74B9 DUP4 CODECOPY DUP2 MLOAD SWAP2 MSTORE SSTORE DUP1 RETURN JUMPDEST PUSH2 0x463C SWAP3 POP DUP1 RETURNDATASIZE LT PUSH2 0x128C JUMPI PUSH2 0x127E DUP2 DUP4 PUSH2 0x65D9 JUMP JUMPDEST CODESIZE DUP1 PUSH2 0x460A JUMP JUMPDEST PUSH1 0x40 MLOAD RETURNDATASIZE DUP6 DUP3 RETURNDATACOPY RETURNDATASIZE SWAP1 REVERT JUMPDEST PUSH1 0x5 ADD DUP1 SLOAD PUSH1 0xFF NOT AND SWAP1 SSTORE PUSH2 0x4662 CALLER PUSH2 0x6AFF JUMP JUMPDEST POP PUSH2 0x466E PUSH1 0xD SLOAD PUSH2 0x6E04 JUMP JUMPDEST PUSH1 0xD SSTORE PUSH1 0x40 MLOAD CALLER DUP2 MSTORE PUSH32 0xAC03556895E66A64A8C5388670B854F2097FD3A74D8A8AF8B7D6755269F16D19 DUP5 CALLER SWAP3 LOG2 CODESIZE PUSH2 0x45B9 JUMP JUMPDEST PUSH1 0x40 MLOAD PUSH3 0x461BCD PUSH1 0xE5 SHL DUP2 MSTORE PUSH1 0x4 DUP2 ADD DUP8 SWAP1 MSTORE PUSH1 0xD PUSH1 0x24 DUP3 ADD MSTORE PUSH13 0x42656C6F77206D696E696D756D PUSH1 0x98 SHL PUSH1 0x44 DUP3 ADD MSTORE PUSH1 0x64 SWAP1 REVERT JUMPDEST POP DUP1 DUP6 EQ PUSH2 0x4598 JUMP JUMPDEST POP CALLVALUE PUSH2 0x3A7 JUMPI PUSH1 0x40 CALLDATASIZE PUSH1 0x3 NOT ADD SLT PUSH2 0x3A7 JUMPI PUSH1 0x4 CALLDATALOAD PUSH1 0x24 DUP1 CALLDATALOAD PUSH2 0x4701 PUSH2 0x6D86 JUMP JUMPDEST CALLER DUP5 MSTORE PUSH1 0x20 SWAP1 PUSH1 0x9 DUP3 MSTORE PUSH2 0x471E PUSH1 0xFF PUSH1 0x5 PUSH1 0x40 DUP9 KECCAK256 ADD SLOAD AND PUSH2 0x71A0 JUMP JUMPDEST CALLER DUP6 MSTORE PUSH1 0x9 DUP3 MSTORE PUSH2 0x4741 PUSH9 0x3635C9ADC5DEA00000 PUSH1 0x3 PUSH1 0x40 DUP9 KECCAK256 ADD SLOAD LT ISZERO PUSH2 0x6DB6 JUMP JUMPDEST PUSH2 0x4749 PUSH2 0x6D03 JUMP JUMPDEST DUP4 DUP6 MSTORE PUSH1 0x2 DUP3 MSTORE PUSH2 0x4762 PUSH1 0x4 PUSH1 0x40 DUP8 KECCAK256 ADD SLOAD ISZERO ISZERO PUSH2 0x6EE6 JUMP JUMPDEST DUP4 DUP6 MSTORE PUSH1 0x2 DUP3 MSTORE PUSH2 0x477D PUSH1 0xFF PUSH1 0xC PUSH1 0x40 DUP9 KECCAK256 ADD SLOAD AND ISZERO PUSH2 0x70D8 JUMP JUMPDEST DUP4 DUP6 MSTORE PUSH1 0x2 DUP3 MSTORE PUSH1 0x40 DUP6 KECCAK256 SWAP4 PUSH1 0x6 DUP6 ADD SWAP5 PUSH1 0x1 PUSH1 0xFF DUP8 SLOAD PUSH1 0xA0 SHR AND PUSH2 0x47A1 DUP2 PUSH2 0x6720 JUMP JUMPDEST SUB PUSH2 0x4978 JUMPI PUSH1 0xD DUP4 SWAP2 ADD SLOAD SUB PUSH2 0x4943 JUMPI DUP2 DUP7 MSTORE PUSH1 0x4 DUP4 MSTORE PUSH1 0x40 DUP7 KECCAK256 SWAP3 PUSH1 0x7 DUP5 ADD CALLER PUSH1 0x0 MSTORE DUP1 DUP3 MSTORE PUSH1 0xFF PUSH1 0x40 PUSH1 0x0 KECCAK256 SLOAD AND PUSH2 0x490E JUMPI PUSH1 0xFF PUSH1 0x5 DUP7 ADD SLOAD AND PUSH2 0x48DF JUMPI PUSH32 0xCECC42AD27BB3D523AE3A1D6143C96711339F6DD07B50C1D0C85B64E55993F60 SWAP2 PUSH1 0x60 SWAP2 PUSH2 0x480F CALLER PUSH2 0x6E84 JUMP JUMPDEST SWAP1 CALLER PUSH1 0x0 MSTORE DUP3 MSTORE PUSH1 0x40 PUSH1 0x0 KECCAK256 PUSH1 0x1 PUSH1 0xFF NOT DUP3 SLOAD AND OR SWAP1 SSTORE PUSH1 0x6 PUSH1 0x4 DUP9 ADD SWAP8 PUSH2 0x4837 DUP10 SLOAD PUSH2 0x6D77 JUMP JUMPDEST DUP10 SSTORE CALLER PUSH1 0x0 MSTORE PUSH1 0x8 DUP2 ADD DUP5 MSTORE DUP3 PUSH1 0x40 PUSH1 0x0 KECCAK256 SSTORE ADD SWAP7 PUSH2 0x4857 DUP3 DUP10 SLOAD PUSH2 0x6C47 JUMP JUMPDEST DUP9 SSTORE CALLER DUP12 MSTORE PUSH1 0x9 DUP4 MSTORE TIMESTAMP PUSH1 0x7 PUSH1 0x40 DUP14 KECCAK256 ADD SSTORE SLOAD PUSH1 0x40 MLOAD SWAP3 CALLER DUP5 MSTORE DUP4 ADD MSTORE PUSH1 0x40 DUP3 ADD MSTORE LOG3 SLOAD SWAP1 PUSH1 0xE SLOAD SWAP1 PUSH1 0xD SLOAD SWAP1 DUP2 ISZERO PUSH2 0x48CD JUMPI POP SWAP1 PUSH2 0x489A SWAP2 PUSH2 0x2710 DIV SWAP1 PUSH2 0x6E11 JUMP JUMPDEST GT ISZERO PUSH2 0x48B6 JUMPI POP PUSH1 0x1 PUSH1 0x0 DUP1 MLOAD PUSH1 0x20 PUSH2 0x74B9 DUP4 CODECOPY DUP2 MLOAD SWAP2 MSTORE SSTORE DUP1 RETURN JUMPDEST DUP1 SLOAD PUSH1 0xFF PUSH1 0xA0 SHL NOT AND PUSH1 0x1 PUSH1 0xA1 SHL OR SWAP1 SSTORE CODESIZE PUSH2 0x3670 JUMP JUMPDEST PUSH4 0x4E487B71 PUSH1 0xE0 SHL DUP7 MSTORE PUSH1 0x12 PUSH1 0x4 MSTORE DUP6 REVERT JUMPDEST PUSH1 0x40 MLOAD PUSH3 0x461BCD PUSH1 0xE5 SHL DUP2 MSTORE PUSH1 0x4 DUP2 ADD DUP4 SWAP1 MSTORE PUSH1 0x8 DUP2 DUP9 ADD MSTORE PUSH8 0x115E1958DD5D1959 PUSH1 0xC2 SHL PUSH1 0x44 DUP3 ADD MSTORE PUSH1 0x64 SWAP1 REVERT JUMPDEST PUSH1 0x40 MLOAD PUSH3 0x461BCD PUSH1 0xE5 SHL DUP2 MSTORE PUSH1 0x4 DUP2 ADD DUP4 SWAP1 MSTORE PUSH1 0xE DUP2 DUP9 ADD MSTORE PUSH14 0x105B1C9958591E481CDA59DB9959 PUSH1 0x92 SHL PUSH1 0x44 DUP3 ADD MSTORE PUSH1 0x64 SWAP1 REVERT JUMPDEST PUSH1 0x40 MLOAD PUSH3 0x461BCD PUSH1 0xE5 SHL DUP2 MSTORE PUSH1 0x4 DUP2 ADD DUP5 SWAP1 MSTORE PUSH1 0xE DUP2 DUP7 ADD MSTORE PUSH14 0x15DC9BDB99C81C1C9BDC1BDCD85B PUSH1 0x92 SHL PUSH1 0x44 DUP3 ADD MSTORE PUSH1 0x64 SWAP1 REVERT JUMPDEST PUSH1 0x40 MLOAD PUSH3 0x461BCD PUSH1 0xE5 SHL DUP2 MSTORE PUSH1 0x4 DUP2 ADD DUP6 SWAP1 MSTORE PUSH1 0xC DUP2 DUP8 ADD MSTORE PUSH12 0x139BDD081C1C9BDC1BDCD959 PUSH1 0xA2 SHL PUSH1 0x44 DUP3 ADD MSTORE PUSH1 0x64 SWAP1 REVERT JUMPDEST POP CALLVALUE PUSH2 0x3A7 JUMPI DUP1 PUSH1 0x3 NOT CALLDATASIZE ADD SLT PUSH2 0x3A7 JUMPI PUSH1 0x12 SLOAD PUSH1 0x40 MLOAD PUSH1 0x1 PUSH1 0x1 PUSH1 0xA0 SHL SUB SWAP1 SWAP2 AND DUP2 MSTORE PUSH1 0x20 SWAP1 RETURN JUMPDEST POP CALLVALUE PUSH2 0x3A7 JUMPI PUSH1 0x20 CALLDATASIZE PUSH1 0x3 NOT ADD SLT PUSH2 0x3A7 JUMPI PUSH1 0x4 CALLDATALOAD SWAP1 PUSH1 0xC SLOAD DUP3 LT ISZERO PUSH2 0x3A7 JUMPI PUSH1 0x20 PUSH2 0x49FF DUP4 PUSH2 0x6803 JUMP JUMPDEST SWAP1 SLOAD PUSH1 0x40 MLOAD PUSH1 0x3 SWAP3 SWAP1 SWAP3 SHL SHR PUSH1 0x1 PUSH1 0x1 PUSH1 0xA0 SHL SUB AND DUP2 MSTORE RETURN JUMPDEST POP CALLVALUE PUSH2 0x3A7 JUMPI DUP1 PUSH1 0x3 NOT CALLDATASIZE ADD SLT PUSH2 0x3A7 JUMPI PUSH1 0x11 SLOAD PUSH1 0x40 MLOAD PUSH1 0x1 PUSH1 0x1 PUSH1 0xA0 SHL SUB SWAP1 SWAP2 AND DUP2 MSTORE PUSH1 0x20 SWAP1 RETURN JUMPDEST POP CALLVALUE PUSH2 0x3A7 JUMPI DUP1 PUSH1 0x3 NOT CALLDATASIZE ADD SLT PUSH2 0x3A7 JUMPI PUSH1 0x20 PUSH1 0x40 MLOAD PUSH8 0x8AC7230489E80000 DUP2 MSTORE RETURN JUMPDEST POP CALLVALUE PUSH2 0x3A7 JUMPI DUP1 PUSH1 0x3 NOT CALLDATASIZE ADD SLT PUSH2 0x3A7 JUMPI PUSH1 0x20 PUSH1 0xFF PUSH1 0x1 SLOAD AND PUSH1 0x40 MLOAD SWAP1 ISZERO ISZERO DUP2 MSTORE RETURN JUMPDEST POP CALLVALUE PUSH2 0x3A7 JUMPI PUSH1 0x20 CALLDATASIZE PUSH1 0x3 NOT ADD SLT PUSH2 0x3A7 JUMPI PUSH1 0x40 SWAP1 PUSH1 0x60 PUSH2 0x260 DUP4 MLOAD PUSH2 0x4AAC DUP2 PUSH2 0x656B JUMP JUMPDEST DUP4 DUP2 MSTORE DUP3 PUSH1 0x20 DUP3 ADD MSTORE DUP3 DUP6 DUP3 ADD MSTORE DUP3 DUP1 DUP3 ADD MSTORE DUP4 PUSH1 0x80 DUP3 ADD MSTORE DUP4 PUSH1 0xA0 DUP3 ADD MSTORE DUP4 PUSH1 0xC0 DUP3 ADD MSTORE DUP4 PUSH1 0xE0 DUP3 ADD MSTORE DUP4 PUSH2 0x100 DUP3 ADD MSTORE DUP3 PUSH2 0x120 DUP3 ADD MSTORE DUP3 PUSH2 0x140 DUP3 ADD MSTORE DUP4 PUSH2 0x160 DUP3 ADD MSTORE DUP4 PUSH2 0x180 DUP3 ADD MSTORE DUP4 PUSH2 0x1A0 DUP3 ADD MSTORE DUP4 PUSH2 0x1C0 DUP3 ADD MSTORE DUP4 PUSH2 0x1E0 DUP3 ADD MSTORE DUP4 PUSH2 0x200 DUP3 ADD MSTORE DUP4 PUSH2 0x220 DUP3 ADD MSTORE DUP4 PUSH2 0x240 DUP3 ADD MSTORE ADD MSTORE PUSH1 0x4 CALLDATALOAD DUP2 MSTORE PUSH1 0x2 PUSH1 0x20 MSTORE KECCAK256 PUSH1 0x40 MLOAD PUSH2 0x4B3D DUP2 PUSH2 0x656B JUMP JUMPDEST DUP2 SLOAD DUP2 MSTORE PUSH2 0x4B4D PUSH1 0x1 DUP4 ADD PUSH2 0x667A JUMP JUMPDEST PUSH1 0x20 DUP3 ADD MSTORE PUSH2 0x4B5E PUSH1 0x2 DUP4 ADD PUSH2 0x667A JUMP JUMPDEST PUSH1 0x40 DUP3 ADD MSTORE PUSH2 0x4B6F PUSH1 0x3 DUP4 ADD PUSH2 0x667A JUMP JUMPDEST PUSH1 0x60 DUP3 ADD MSTORE PUSH1 0x4 DUP3 ADD SLOAD PUSH1 0x80 DUP3 ADD MSTORE PUSH1 0x5 DUP3 ADD SLOAD PUSH1 0xA0 DUP3 ADD MSTORE PUSH1 0xFF PUSH1 0x6 DUP4 ADD SLOAD PUSH1 0x1 DUP1 PUSH1 0xA0 SHL SUB DUP2 AND PUSH1 0xC0 DUP5 ADD MSTORE PUSH2 0x4BAB DUP3 DUP3 PUSH1 0xA0 SHR AND PUSH2 0x6720 JUMP JUMPDEST DUP2 DUP2 PUSH1 0xA0 SHR AND PUSH1 0xE0 DUP5 ADD MSTORE PUSH2 0x4BC4 DUP3 DUP3 PUSH1 0xA8 SHR AND PUSH2 0x6720 JUMP JUMPDEST PUSH1 0xA8 SHR AND PUSH2 0x100 DUP3 ADD MSTORE PUSH2 0x4BDA PUSH1 0x7 DUP4 ADD PUSH2 0x667A JUMP JUMPDEST PUSH2 0x120 DUP3 ADD MSTORE PUSH2 0x4BEC PUSH1 0x8 DUP4 ADD PUSH2 0x667A JUMP JUMPDEST PUSH2 0x140 DUP3 ADD MSTORE PUSH1 0x9 DUP3 ADD SLOAD PUSH2 0x160 DUP3 ADD MSTORE PUSH1 0xA DUP3 ADD SLOAD PUSH1 0x1 PUSH1 0x1 PUSH1 0xA0 SHL SUB AND PUSH2 0x180 DUP3 ADD MSTORE PUSH1 0xB DUP3 ADD SLOAD PUSH2 0x1A0 DUP3 ADD MSTORE PUSH1 0xC DUP3 ADD SLOAD PUSH1 0xFF SWAP1 DUP2 AND ISZERO ISZERO PUSH2 0x1C0 DUP4 ADD MSTORE PUSH1 0xD DUP4 ADD SLOAD PUSH2 0x1E0 DUP4 ADD MSTORE PUSH1 0xE DUP4 ADD SLOAD SWAP3 SWAP1 PUSH2 0x4C4B SWAP1 DUP5 AND PUSH2 0x67EC JUMP JUMPDEST PUSH1 0xFF DUP4 AND PUSH2 0x200 DUP4 ADD MSTORE PUSH1 0x4 PUSH1 0xFF DUP5 PUSH1 0x8 SHR AND LT ISZERO PUSH2 0x4E09 JUMPI PUSH1 0x10 PUSH2 0x4C8B SWAP2 PUSH1 0xFF PUSH2 0x4E05 SWAP6 PUSH1 0x8 SHR AND PUSH2 0x220 DUP6 ADD MSTORE PUSH1 0xF DUP2 ADD SLOAD PUSH2 0x240 DUP6 ADD MSTORE ADD PUSH2 0x667A JUMP JUMPDEST PUSH2 0x260 DUP3 ADD MSTORE PUSH1 0x40 MLOAD SWAP2 DUP3 SWAP2 PUSH1 0x20 DUP4 MSTORE DUP1 MLOAD PUSH1 0x20 DUP5 ADD MSTORE PUSH2 0x260 PUSH2 0x4D77 PUSH2 0x4D5F PUSH2 0x4CF8 PUSH2 0x4CE2 PUSH2 0x4CCC PUSH1 0x20 DUP8 ADD MLOAD PUSH2 0x280 PUSH1 0x40 DUP12 ADD MSTORE PUSH2 0x2A0 DUP11 ADD SWAP1 PUSH2 0x672A JUMP JUMPDEST PUSH1 0x40 DUP8 ADD MLOAD DUP10 DUP3 SUB PUSH1 0x1F NOT ADD PUSH1 0x60 DUP12 ADD MSTORE PUSH2 0x672A JUMP JUMPDEST PUSH1 0x60 DUP7 ADD MLOAD DUP9 DUP3 SUB PUSH1 0x1F NOT ADD PUSH1 0x80 DUP11 ADD MSTORE PUSH2 0x672A JUMP JUMPDEST PUSH1 0x80 DUP6 ADD MLOAD PUSH1 0xA0 DUP9 ADD MSTORE PUSH1 0xA0 DUP6 ADD MLOAD PUSH1 0xC0 DUP9 ADD MSTORE PUSH1 0x1 DUP1 PUSH1 0xA0 SHL SUB PUSH1 0xC0 DUP7 ADD MLOAD AND PUSH1 0xE0 DUP9 ADD MSTORE PUSH1 0xE0 DUP6 ADD MLOAD PUSH2 0x4D2C DUP2 PUSH2 0x6720 JUMP JUMPDEST PUSH2 0x100 DUP9 ADD MSTORE PUSH2 0x100 DUP6 ADD MLOAD PUSH2 0x4D41 DUP2 PUSH2 0x6720 JUMP JUMPDEST PUSH2 0x120 DUP9 ADD MSTORE PUSH2 0x120 DUP6 ADD MLOAD PUSH1 0x1F NOT DUP9 DUP4 SUB ADD PUSH2 0x140 DUP10 ADD MSTORE PUSH2 0x672A JUMP JUMPDEST PUSH2 0x140 DUP5 ADD MLOAD DUP7 DUP3 SUB PUSH1 0x1F NOT ADD PUSH2 0x160 DUP9 ADD MSTORE PUSH2 0x672A JUMP JUMPDEST SWAP2 PUSH2 0x160 DUP2 ADD MLOAD PUSH2 0x180 DUP7 ADD MSTORE PUSH1 0x1 DUP1 PUSH1 0xA0 SHL SUB PUSH2 0x180 DUP3 ADD MLOAD AND PUSH2 0x1A0 DUP7 ADD MSTORE PUSH2 0x1A0 DUP2 ADD MLOAD PUSH2 0x1C0 DUP7 ADD MSTORE PUSH2 0x1C0 DUP2 ADD MLOAD ISZERO ISZERO PUSH2 0x1E0 DUP7 ADD MSTORE PUSH2 0x1E0 DUP2 ADD MLOAD PUSH2 0x200 DUP7 ADD MSTORE PUSH2 0x200 DUP2 ADD MLOAD PUSH2 0x4DCD DUP2 PUSH2 0x67EC JUMP JUMPDEST PUSH2 0x220 DUP7 ADD MSTORE PUSH2 0x4DE7 PUSH2 0x220 DUP3 ADD MLOAD PUSH2 0x240 DUP8 ADD SWAP1 PUSH2 0x67F6 JUMP JUMPDEST PUSH2 0x240 DUP2 ADD MLOAD DUP6 DUP4 ADD MSTORE ADD MLOAD DUP4 DUP3 SUB PUSH1 0x1F NOT ADD PUSH2 0x280 DUP6 ADD MSTORE PUSH2 0x672A JUMP JUMPDEST SUB SWAP1 RETURN JUMPDEST PUSH4 0x4E487B71 PUSH1 0xE0 SHL PUSH1 0x0 MSTORE PUSH1 0x21 PUSH1 0x4 MSTORE PUSH1 0x24 PUSH1 0x0 REVERT JUMPDEST POP CALLVALUE PUSH2 0x3A7 JUMPI PUSH1 0x20 CALLDATASIZE PUSH1 0x3 NOT ADD SLT PUSH2 0x3A7 JUMPI PUSH1 0x40 PUSH2 0x100 SWAP2 PUSH2 0x4E3F PUSH2 0x64EC JUMP JUMPDEST DUP2 PUSH1 0xE0 DUP5 MLOAD PUSH2 0x4E4D DUP2 PUSH2 0x654F JUMP JUMPDEST DUP3 DUP2 MSTORE DUP3 PUSH1 0x20 DUP3 ADD MSTORE DUP3 DUP7 DUP3 ADD MSTORE DUP3 PUSH1 0x60 DUP3 ADD MSTORE DUP3 PUSH1 0x80 DUP3 ADD MSTORE DUP3 PUSH1 0xA0 DUP3 ADD MSTORE DUP3 PUSH1 0xC0 DUP3 ADD MSTORE ADD MSTORE PUSH1 0x1 DUP1 PUSH1 0xA0 SHL SUB AND DUP2 MSTORE PUSH1 0x9 PUSH1 0x20 MSTORE KECCAK256 PUSH1 0x40 MLOAD PUSH2 0x4E91 DUP2 PUSH2 0x654F JUMP JUMPDEST DUP2 SLOAD SWAP2 DUP3 DUP3 MSTORE PUSH1 0x1 DUP2 ADD SLOAD PUSH1 0x20 DUP4 ADD SWAP1 DUP2 MSTORE PUSH1 0x2 DUP3 ADD SLOAD PUSH1 0x40 DUP5 ADD SWAP1 DUP2 MSTORE PUSH1 0x3 DUP4 ADD SLOAD PUSH1 0x60 DUP6 ADD SWAP1 DUP2 MSTORE PUSH1 0x4 DUP5 ADD SLOAD SWAP2 PUSH1 0x80 DUP7 ADD SWAP3 DUP4 MSTORE PUSH1 0xFF PUSH1 0x5 DUP7 ADD SLOAD AND SWAP4 PUSH1 0xA0 DUP8 ADD SWAP5 ISZERO ISZERO DUP6 MSTORE PUSH1 0xE0 PUSH1 0x7 PUSH1 0x6 DUP9 ADD SLOAD SWAP8 PUSH1 0xC0 DUP11 ADD SWAP9 DUP10 MSTORE ADD SLOAD SWAP8 ADD SWAP7 DUP8 MSTORE PUSH1 0x40 MLOAD SWAP8 DUP9 MSTORE MLOAD PUSH1 0x20 DUP9 ADD MSTORE MLOAD PUSH1 0x40 DUP8 ADD MSTORE MLOAD PUSH1 0x60 DUP7 ADD MSTORE MLOAD PUSH1 0x80 DUP6 ADD MSTORE MLOAD ISZERO ISZERO PUSH1 0xA0 DUP5 ADD MSTORE MLOAD PUSH1 0xC0 DUP4 ADD MSTORE MLOAD PUSH1 0xE0 DUP3 ADD MSTORE RETURN JUMPDEST POP CALLVALUE PUSH2 0x3A7 JUMPI DUP1 PUSH1 0x3 NOT CALLDATASIZE ADD SLT PUSH2 0x3A7 JUMPI PUSH2 0x4F3F PUSH2 0x6964 JUMP JUMPDEST PUSH2 0x4F47 PUSH2 0x6D03 JUMP JUMPDEST PUSH1 0x1 PUSH1 0xFF NOT DUP2 SLOAD AND OR PUSH1 0x1 SSTORE PUSH32 0x62E78CEA01BEE320CD4E420270B5EA74000D11B0C9F74754EBDBFC544B05A258 PUSH1 0x20 PUSH1 0x40 MLOAD CALLER DUP2 MSTORE LOG1 DUP1 RETURN JUMPDEST POP CALLVALUE PUSH2 0x3A7 JUMPI DUP1 PUSH1 0x3 NOT CALLDATASIZE ADD SLT PUSH2 0x3A7 JUMPI PUSH1 0x10 SLOAD PUSH1 0x40 MLOAD PUSH1 0x1 PUSH1 0x1 PUSH1 0xA0 SHL SUB SWAP1 SWAP2 AND DUP2 MSTORE PUSH1 0x20 SWAP1 RETURN JUMPDEST POP CALLVALUE PUSH2 0x3A7 JUMPI DUP1 PUSH1 0x3 NOT CALLDATASIZE ADD SLT PUSH2 0x3A7 JUMPI PUSH1 0x20 PUSH1 0x40 MLOAD PUSH32 0xBB08418A67729A078F87BBC8D02A770929BB68F5BFDF134AE2EAD6ED38E2F4AE DUP2 MSTORE RETURN JUMPDEST POP CALLVALUE PUSH2 0x3A7 JUMPI DUP1 PUSH1 0x3 NOT CALLDATASIZE ADD SLT PUSH2 0x3A7 JUMPI PUSH1 0x20 PUSH1 0x40 MLOAD PUSH9 0x2B5E3AF16B1880000 DUP2 MSTORE RETURN JUMPDEST POP CALLVALUE PUSH2 0x3A7 JUMPI PUSH1 0x20 DUP1 PUSH1 0x3 NOT CALLDATASIZE ADD SLT PUSH2 0xFE3 JUMPI SWAP1 PUSH1 0x4 CALLDATALOAD DUP2 MSTORE PUSH1 0x3 SWAP1 DUP2 DUP4 MSTORE PUSH1 0x40 DUP2 KECCAK256 SWAP1 DUP2 SLOAD PUSH2 0x5037 DUP2 PUSH2 0x7441 JUMP JUMPDEST SWAP4 PUSH2 0x5045 PUSH1 0x40 MLOAD SWAP6 DUP7 PUSH2 0x65D9 JUMP JUMPDEST DUP2 DUP6 MSTORE DUP6 DUP6 ADD SWAP1 DUP2 SWAP5 DUP5 MSTORE DUP7 DUP5 KECCAK256 SWAP1 DUP5 SWAP3 JUMPDEST DUP5 DUP5 LT PUSH2 0x5120 JUMPI POP POP POP POP POP PUSH1 0x40 MLOAD SWAP3 DUP5 DUP5 ADD SWAP1 DUP6 DUP6 MSTORE MLOAD DUP1 SWAP2 MSTORE PUSH1 0x40 DUP5 ADD SWAP5 PUSH1 0x40 DUP3 PUSH1 0x5 SHL DUP7 ADD ADD SWAP4 SWAP3 SWAP6 JUMPDEST DUP3 DUP8 LT PUSH2 0x5091 JUMPI DUP6 DUP6 SUB DUP7 RETURN JUMPDEST SWAP1 SWAP2 SWAP3 SWAP4 DUP3 DUP1 PUSH1 0x1 SWAP3 PUSH1 0x3F NOT DUP10 DUP3 SUB ADD DUP6 MSTORE DUP8 MLOAD SWAP1 PUSH2 0x50CC PUSH2 0x50BC DUP4 MLOAD PUSH1 0xE0 DUP5 MSTORE PUSH1 0xE0 DUP5 ADD SWAP1 PUSH2 0x672A JUMP JUMPDEST DUP5 DUP5 ADD MLOAD DUP4 DUP3 SUB DUP7 DUP6 ADD MSTORE PUSH2 0x672A JUMP JUMPDEST SWAP2 DUP6 DUP1 PUSH1 0xA0 SHL SUB PUSH1 0x40 DUP3 ADD MLOAD AND PUSH1 0x40 DUP4 ADD MSTORE PUSH1 0x60 DUP1 DUP3 ADD MLOAD SWAP1 DUP4 ADD MSTORE PUSH1 0x80 DUP1 DUP3 ADD MLOAD SWAP1 PUSH2 0x50F8 DUP3 PUSH2 0x67EC JUMP JUMPDEST DUP4 ADD MSTORE PUSH1 0xA0 DUP1 DUP3 ADD MLOAD SWAP1 DUP4 ADD MSTORE PUSH1 0xC0 DUP1 SWAP2 ADD MLOAD ISZERO ISZERO SWAP2 ADD MSTORE SWAP7 ADD SWAP3 ADD SWAP7 ADD SWAP6 SWAP3 SWAP2 SWAP1 SWAP3 PUSH2 0x5084 JUMP JUMPDEST PUSH1 0x7 DUP10 PUSH1 0x1 SWAP3 PUSH1 0x40 SWAP12 SWAP11 SWAP9 SWAP12 MLOAD PUSH2 0x5136 DUP2 PUSH2 0x6534 JUMP JUMPDEST PUSH2 0x513F DUP8 PUSH2 0x667A JUMP JUMPDEST DUP2 MSTORE PUSH2 0x514C DUP6 DUP9 ADD PUSH2 0x667A JUMP JUMPDEST DUP4 DUP3 ADD MSTORE DUP5 DUP1 PUSH1 0xA0 SHL SUB PUSH1 0x2 DUP9 ADD SLOAD AND PUSH1 0x40 DUP3 ADD MSTORE DUP6 DUP8 ADD SLOAD PUSH1 0x60 DUP3 ADD MSTORE PUSH1 0xFF DUP1 PUSH1 0x4 DUP10 ADD SLOAD AND PUSH2 0x517C DUP2 PUSH2 0x67EC JUMP JUMPDEST PUSH1 0x80 DUP4 ADD MSTORE PUSH1 0x5 DUP9 ADD SLOAD PUSH1 0xA0 DUP4 ADD MSTORE PUSH1 0x6 DUP9 ADD SLOAD AND ISZERO ISZERO PUSH1 0xC0 DUP3 ADD MSTORE DUP2 MSTORE ADD SWAP4 ADD SWAP4 ADD SWAP3 SWAP2 SWAP8 SWAP5 SWAP7 SWAP8 PUSH2 0x5057 JUMP JUMPDEST POP CALLVALUE PUSH2 0x3A7 JUMPI DUP1 PUSH1 0x3 NOT CALLDATASIZE ADD SLT PUSH2 0x3A7 JUMPI PUSH1 0x20 PUSH1 0x40 MLOAD PUSH3 0x15180 DUP2 MSTORE RETURN JUMPDEST POP CALLVALUE PUSH2 0x3A7 JUMPI DUP1 PUSH1 0x3 NOT CALLDATASIZE ADD SLT PUSH2 0x3A7 JUMPI PUSH2 0x51E1 PUSH2 0x6964 JUMP JUMPDEST PUSH1 0x1 SLOAD PUSH1 0xFF DUP2 AND ISZERO PUSH2 0x5221 JUMPI PUSH1 0xFF NOT AND PUSH1 0x1 SSTORE PUSH32 0x5DB9EE0A495BF2E6FF9C91A7834C1BA4FDD244A5E8AA4E537BD38AEAE4B073AA PUSH1 0x20 PUSH1 0x40 MLOAD CALLER DUP2 MSTORE LOG1 DUP1 RETURN JUMPDEST PUSH1 0x40 MLOAD PUSH4 0x8DFC202B PUSH1 0xE0 SHL DUP2 MSTORE PUSH1 0x4 SWAP1 REVERT JUMPDEST POP CALLVALUE PUSH2 0x3A7 JUMPI PUSH1 0x20 CALLDATASIZE PUSH1 0x3 NOT ADD SLT PUSH2 0x3A7 JUMPI PUSH1 0x40 SWAP1 PUSH1 0x4 CALLDATALOAD DUP2 MSTORE PUSH1 0x4 PUSH1 0x20 MSTORE KECCAK256 DUP1 SLOAD PUSH2 0x4E05 PUSH1 0x1 DUP4 ADD SLOAD SWAP3 PUSH1 0x2 DUP2 ADD SLOAD PUSH1 0x4 DUP3 ADD SLOAD PUSH1 0xFF PUSH1 0x5 DUP5 ADD SLOAD AND SWAP2 PUSH2 0x5282 PUSH1 0x3 PUSH1 0x6 DUP7 ADD SLOAD SWAP6 ADD PUSH2 0x667A JUMP JUMPDEST PUSH1 0x40 MLOAD SWAP8 DUP9 SWAP8 SWAP2 SWAP3 SWAP2 PUSH1 0x8 DUP2 SWAP1 SHR PUSH1 0x1 PUSH1 0x1 PUSH1 0xA0 SHL SUB AND SWAP1 PUSH1 0xFF AND DUP10 PUSH2 0x676A JUMP JUMPDEST POP CALLVALUE PUSH2 0x3A7 JUMPI PUSH1 0x60 CALLDATASIZE PUSH1 0x3 NOT ADD SLT PUSH2 0x3A7 JUMPI PUSH1 0x24 CALLDATALOAD PUSH1 0x1 PUSH1 0x1 PUSH1 0x40 SHL SUB DUP2 GT PUSH2 0xFE3 JUMPI PUSH2 0x52D4 SWAP1 CALLDATASIZE SWAP1 PUSH1 0x4 ADD PUSH2 0x67BF JUMP JUMPDEST PUSH1 0x44 SWAP3 SWAP2 SWAP3 CALLDATALOAD PUSH1 0x1 PUSH1 0x1 PUSH1 0x40 SHL SUB DUP2 GT PUSH2 0x1AB9 JUMPI PUSH2 0x52F6 SWAP1 CALLDATASIZE SWAP1 PUSH1 0x4 ADD PUSH2 0x67BF JUMP JUMPDEST PUSH2 0x52FE PUSH2 0x6D86 JUMP JUMPDEST PUSH2 0x5306 PUSH2 0x6D03 JUMP JUMPDEST PUSH1 0x4 CALLDATALOAD DUP5 MSTORE PUSH1 0x2 PUSH1 0x20 MSTORE PUSH2 0x5322 PUSH1 0x4 PUSH1 0x40 DUP7 KECCAK256 ADD SLOAD ISZERO ISZERO PUSH2 0x6EE6 JUMP JUMPDEST PUSH1 0x4 CALLDATALOAD DUP5 MSTORE PUSH1 0x7 PUSH1 0x20 MSTORE PUSH1 0x40 DUP5 KECCAK256 CALLER PUSH1 0x0 MSTORE PUSH1 0x20 MSTORE PUSH1 0xFF PUSH1 0x40 PUSH1 0x0 KECCAK256 SLOAD AND PUSH2 0x59E0 JUMPI DUP3 ISZERO PUSH2 0x59AF JUMPI PUSH1 0x4 CALLDATALOAD DUP5 MSTORE PUSH1 0x2 PUSH1 0x20 MSTORE PUSH1 0x40 DUP5 KECCAK256 SWAP5 PUSH1 0xFF PUSH1 0x6 DUP8 ADD SLOAD PUSH1 0xA0 SHR AND PUSH2 0x536D DUP2 PUSH2 0x6720 JUMP JUMPDEST PUSH1 0x1 DUP2 EQ SWAP1 DUP2 ISZERO PUSH2 0x599A JUMPI JUMPDEST DUP2 ISZERO PUSH2 0x5985 JUMPI JUMPDEST DUP2 ISZERO PUSH2 0x5950 JUMPI JUMPDEST POP ISZERO PUSH2 0x591A JUMPI PUSH1 0x10 SLOAD PUSH1 0x40 MLOAD PUSH4 0x23B872DD PUSH1 0xE0 SHL DUP2 MSTORE CALLER PUSH1 0x4 DUP3 ADD MSTORE ADDRESS PUSH1 0x24 DUP3 ADD MSTORE PUSH9 0x2B5E3AF16B1880000 PUSH1 0x44 DUP3 ADD MSTORE SWAP1 PUSH1 0x20 SWAP1 DUP3 SWAP1 PUSH1 0x64 SWAP1 DUP3 SWAP1 DUP11 SWAP1 PUSH1 0x1 PUSH1 0x1 PUSH1 0xA0 SHL SUB AND GAS CALL SWAP1 DUP2 ISZERO PUSH2 0x37F1 JUMPI SWAP1 PUSH2 0x53E8 SWAP2 DUP8 SWAP2 PUSH2 0x2B9C JUMPI POP PUSH2 0x7119 JUMP JUMPDEST PUSH1 0x4 CALLDATALOAD DUP6 MSTORE PUSH1 0x7 PUSH1 0x20 MSTORE PUSH1 0x40 DUP6 KECCAK256 CALLER PUSH1 0x0 MSTORE PUSH1 0x20 MSTORE PUSH1 0x40 PUSH1 0x0 KECCAK256 PUSH1 0x1 PUSH1 0xFF NOT DUP3 SLOAD AND OR SWAP1 SSTORE PUSH2 0x541A PUSH1 0xB DUP8 ADD SLOAD PUSH2 0x6D77 JUMP JUMPDEST PUSH1 0xB DUP8 ADD SSTORE PUSH1 0x4 CALLDATALOAD DUP6 MSTORE PUSH1 0x5 PUSH1 0x20 MSTORE PUSH1 0x40 DUP6 KECCAK256 SWAP6 DUP7 SLOAD PUSH1 0x40 MLOAD SWAP8 PUSH2 0x543D DUP10 PUSH2 0x6518 JUMP JUMPDEST PUSH1 0x4 CALLDATALOAD DUP10 MSTORE CALLER PUSH1 0x20 DUP11 ADD MSTORE PUSH2 0x5453 CALLDATASIZE DUP9 DUP7 PUSH2 0x65FA JUMP JUMPDEST PUSH1 0x40 DUP11 ADD MSTORE PUSH2 0x5463 CALLDATASIZE DUP7 DUP9 PUSH2 0x65FA JUMP JUMPDEST PUSH1 0x60 DUP11 ADD MSTORE TIMESTAMP PUSH1 0x80 DUP11 ADD MSTORE DUP8 PUSH1 0xA0 DUP11 ADD MSTORE PUSH1 0x40 MLOAD PUSH2 0x5480 DUP2 PUSH2 0x65A3 JUMP JUMPDEST DUP9 DUP2 MSTORE PUSH1 0xC0 DUP11 ADD MSTORE PUSH9 0x2B5E3AF16B1880000 PUSH1 0xE0 DUP11 ADD MSTORE DUP8 PUSH2 0x100 DUP11 ADD MSTORE DUP2 PUSH2 0x120 DUP11 ADD MSTORE PUSH1 0x1 PUSH1 0x40 SHL DUP3 LT ISZERO PUSH2 0x2B00 JUMPI SWAP1 PUSH2 0x54C1 SWAP2 PUSH1 0x1 DUP3 ADD DUP2 SSTORE PUSH2 0x689D JUMP JUMPDEST PUSH2 0x5906 JUMPI DUP8 MLOAD DUP2 SSTORE PUSH1 0x1 DUP2 ADD PUSH1 0x1 DUP1 PUSH1 0xA0 SHL SUB PUSH1 0x20 DUP11 ADD MLOAD AND PUSH1 0x1 PUSH1 0x1 PUSH1 0x60 SHL SUB PUSH1 0xA0 SHL DUP3 SLOAD AND OR SWAP1 SSTORE PUSH1 0x40 DUP9 ADD MLOAD DUP1 MLOAD SWAP1 PUSH1 0x1 PUSH1 0x1 PUSH1 0x40 SHL SUB DUP3 GT PUSH2 0xC05 JUMPI DUP2 SWAP1 PUSH2 0x551D DUP3 PUSH2 0x5514 PUSH1 0x2 DUP8 ADD SLOAD PUSH2 0x6640 JUMP JUMPDEST PUSH1 0x2 DUP8 ADD PUSH2 0x6C6A JUMP JUMPDEST PUSH1 0x20 SWAP1 PUSH1 0x1F DUP4 GT PUSH1 0x1 EQ PUSH2 0x5897 JUMPI DUP11 SWAP3 PUSH2 0x588C JUMPI JUMPDEST POP POP DUP2 PUSH1 0x1 SHL SWAP2 PUSH1 0x0 NOT SWAP1 PUSH1 0x3 SHL SHR NOT AND OR PUSH1 0x2 DUP3 ADD SSTORE JUMPDEST PUSH1 0x60 DUP9 ADD MLOAD DUP1 MLOAD SWAP1 PUSH1 0x1 PUSH1 0x1 PUSH1 0x40 SHL SUB DUP3 GT PUSH2 0xC05 JUMPI DUP2 SWAP1 PUSH2 0x557C DUP3 PUSH2 0x5573 PUSH1 0x3 DUP8 ADD SLOAD PUSH2 0x6640 JUMP JUMPDEST PUSH1 0x3 DUP8 ADD PUSH2 0x6C6A JUMP JUMPDEST PUSH1 0x20 SWAP1 PUSH1 0x1F DUP4 GT PUSH1 0x1 EQ PUSH2 0x581D JUMPI DUP11 SWAP3 PUSH2 0x5812 JUMPI JUMPDEST POP POP DUP2 PUSH1 0x1 SHL SWAP2 PUSH1 0x0 NOT SWAP1 PUSH1 0x3 SHL SHR NOT AND OR PUSH1 0x3 DUP3 ADD SSTORE JUMPDEST PUSH1 0x80 DUP9 ADD MLOAD PUSH1 0x4 DUP3 ADD SSTORE PUSH2 0x55D2 PUSH1 0xA0 DUP10 ADD MLOAD ISZERO ISZERO PUSH1 0x5 DUP4 ADD SWAP1 PUSH1 0xFF DUP1 NOT DUP4 SLOAD AND SWAP2 ISZERO ISZERO AND OR SWAP1 SSTORE JUMP JUMPDEST PUSH1 0xC0 DUP9 ADD MLOAD SWAP8 DUP9 MLOAD PUSH1 0x1 PUSH1 0x1 PUSH1 0x40 SHL SUB DUP2 GT PUSH2 0xC05 JUMPI PUSH2 0x5602 DUP2 PUSH2 0x55F9 PUSH1 0x6 DUP7 ADD SLOAD PUSH2 0x6640 JUMP JUMPDEST PUSH1 0x6 DUP7 ADD PUSH2 0x6C6A JUMP JUMPDEST PUSH1 0x20 PUSH1 0x1F DUP3 GT PUSH1 0x1 EQ PUSH2 0x5795 JUMPI PUSH2 0x5699 SWAP6 SWAP5 SWAP4 SWAP3 DUP3 PUSH1 0x9 SWAP4 PUSH2 0x120 SWAP4 DUP14 SWAP15 PUSH2 0x56A7 SWAP14 SWAP15 SWAP3 PUSH2 0x578A JUMPI JUMPDEST POP POP DUP2 PUSH1 0x1 SHL SWAP2 PUSH1 0x0 NOT SWAP1 PUSH1 0x3 SHL SHR NOT AND OR PUSH1 0x6 DUP6 ADD SSTORE JUMPDEST PUSH1 0xE0 DUP2 ADD MLOAD PUSH1 0x7 DUP6 ADD SSTORE PUSH2 0x566D PUSH2 0x100 DUP3 ADD MLOAD ISZERO ISZERO PUSH1 0x8 DUP7 ADD SWAP1 PUSH1 0xFF DUP1 NOT DUP4 SLOAD AND SWAP2 ISZERO ISZERO AND OR SWAP1 SSTORE JUMP JUMPDEST ADD MLOAD SWAP2 ADD SSTORE PUSH1 0x3 PUSH1 0xB DUP3 ADD SLOAD LT ISZERO DUP1 PUSH2 0x577B JUMPI JUMPDEST PUSH2 0x56F6 JUMPI JUMPDEST POP PUSH1 0x40 MLOAD SWAP6 PUSH1 0x60 DUP8 MSTORE PUSH1 0x60 DUP8 ADD SWAP2 PUSH2 0x6CE2 JUMP JUMPDEST SWAP2 DUP5 DUP4 SUB PUSH1 0x20 DUP7 ADD MSTORE PUSH2 0x6CE2 JUMP JUMPDEST PUSH9 0x2B5E3AF16B1880000 PUSH1 0x40 DUP4 ADD MSTORE PUSH32 0x700AA38276AACBB9899B61E5CBBCAA431DBF983A04BFA5FFB4171907F06769E9 CALLER SWAP3 DUP1 PUSH1 0x4 CALLDATALOAD SWAP4 SUB SWAP1 LOG3 PUSH1 0x1 PUSH1 0x0 DUP1 MLOAD PUSH1 0x20 PUSH2 0x74B9 DUP4 CODECOPY DUP2 MLOAD SWAP2 MSTORE SSTORE DUP1 RETURN JUMPDEST PUSH1 0xC ADD PUSH1 0x1 PUSH1 0xFF NOT DUP3 SLOAD AND OR SWAP1 SSTORE PUSH1 0x40 MLOAD ADDRESS DUP2 MSTORE PUSH1 0x40 PUSH1 0x20 DUP3 ADD MSTORE PUSH1 0x26 PUSH1 0x40 DUP3 ADD MSTORE PUSH32 0x4175746F2D66726F7A656E3A2064697370757465207468726573686F6C642072 PUSH1 0x60 DUP3 ADD MSTORE PUSH6 0x195858DA1959 PUSH1 0xD2 SHL PUSH1 0x80 DUP3 ADD MSTORE PUSH32 0xB8B67A3A7C2783F0EB7FC53165288F1B9597B04DA28B2221F1B6B3C3F2591FAA PUSH1 0xA0 PUSH1 0x4 CALLDATALOAD SWAP3 LOG2 CODESIZE PUSH2 0x5686 JUMP JUMPDEST POP PUSH1 0xFF PUSH1 0xC DUP3 ADD SLOAD AND ISZERO PUSH2 0x5681 JUMP JUMPDEST ADD MLOAD SWAP1 POP CODESIZE DUP1 PUSH2 0x562B JUMP JUMPDEST PUSH1 0x6 DUP5 ADD DUP11 MSTORE PUSH1 0x20 DUP11 KECCAK256 SWAP11 DUP11 JUMPDEST PUSH1 0x1F NOT DUP5 AND DUP2 LT PUSH2 0x57FA JUMPI POP SWAP3 PUSH1 0x1 DUP4 PUSH2 0x56A7 SWAP12 SWAP13 SWAP14 PUSH2 0x120 SWAP5 PUSH2 0x5699 SWAP11 SWAP10 SWAP9 SWAP8 PUSH1 0x9 SWAP8 PUSH1 0x1F NOT DUP2 AND LT PUSH2 0x57E1 JUMPI JUMPDEST POP POP POP DUP2 SHL ADD PUSH1 0x6 DUP6 ADD SSTORE PUSH2 0x5643 JUMP JUMPDEST ADD MLOAD PUSH1 0x0 NOT PUSH1 0xF8 DUP5 PUSH1 0x3 SHL AND SHR NOT AND SWAP1 SSTORE CODESIZE DUP1 DUP1 PUSH2 0x57D1 JUMP JUMPDEST DUP3 DUP3 ADD MLOAD DUP14 SSTORE PUSH1 0x1 SWAP1 SWAP13 ADD SWAP12 PUSH1 0x20 SWAP3 DUP4 ADD SWAP3 ADD PUSH2 0x57A2 JUMP JUMPDEST ADD MLOAD SWAP1 POP CODESIZE DUP1 PUSH2 0x5591 JUMP JUMPDEST SWAP3 POP PUSH1 0x3 DUP5 ADD DUP11 MSTORE PUSH1 0x20 DUP11 KECCAK256 SWAP1 DUP11 SWAP4 JUMPDEST PUSH1 0x1F NOT DUP5 AND DUP6 LT PUSH2 0x5871 JUMPI PUSH1 0x1 SWAP5 POP DUP4 PUSH1 0x1F NOT DUP2 AND LT PUSH2 0x5858 JUMPI JUMPDEST POP POP POP DUP2 SHL ADD PUSH1 0x3 DUP3 ADD SSTORE PUSH2 0x55A9 JUMP JUMPDEST ADD MLOAD PUSH1 0x0 NOT PUSH1 0xF8 DUP5 PUSH1 0x3 SHL AND SHR NOT AND SWAP1 SSTORE CODESIZE DUP1 DUP1 PUSH2 0x5848 JUMP JUMPDEST DUP2 DUP2 ADD MLOAD DUP4 SSTORE PUSH1 0x20 SWAP5 DUP6 ADD SWAP5 PUSH1 0x1 SWAP1 SWAP4 ADD SWAP3 SWAP1 SWAP2 ADD SWAP1 PUSH2 0x582D JUMP JUMPDEST ADD MLOAD SWAP1 POP CODESIZE DUP1 PUSH2 0x5532 JUMP JUMPDEST SWAP3 POP PUSH1 0x2 DUP5 ADD DUP11 MSTORE PUSH1 0x20 DUP11 KECCAK256 SWAP1 DUP11 SWAP4 JUMPDEST PUSH1 0x1F NOT DUP5 AND DUP6 LT PUSH2 0x58EB JUMPI PUSH1 0x1 SWAP5 POP DUP4 PUSH1 0x1F NOT DUP2 AND LT PUSH2 0x58D2 JUMPI JUMPDEST POP POP POP DUP2 SHL ADD PUSH1 0x2 DUP3 ADD SSTORE PUSH2 0x554A JUMP JUMPDEST ADD MLOAD PUSH1 0x0 NOT PUSH1 0xF8 DUP5 PUSH1 0x3 SHL AND SHR NOT AND SWAP1 SSTORE CODESIZE DUP1 DUP1 PUSH2 0x58C2 JUMP JUMPDEST DUP2 DUP2 ADD MLOAD DUP4 SSTORE PUSH1 0x20 SWAP5 DUP6 ADD SWAP5 PUSH1 0x1 SWAP1 SWAP4 ADD SWAP3 SWAP1 SWAP2 ADD SWAP1 PUSH2 0x58A7 JUMP JUMPDEST PUSH4 0x4E487B71 PUSH1 0xE0 SHL DUP8 MSTORE PUSH1 0x4 DUP8 SWAP1 MSTORE PUSH1 0x24 DUP8 REVERT JUMPDEST PUSH1 0x40 MLOAD PUSH3 0x461BCD PUSH1 0xE5 SHL DUP2 MSTORE PUSH1 0x20 PUSH1 0x4 DUP3 ADD MSTORE PUSH1 0xE PUSH1 0x24 DUP3 ADD MSTORE PUSH14 0x43616E6E6F742064697370757465 PUSH1 0x90 SHL PUSH1 0x44 DUP3 ADD MSTORE PUSH1 0x64 SWAP1 REVERT JUMPDEST PUSH1 0x3 SWAP2 POP PUSH2 0x595D DUP2 PUSH2 0x6720 JUMP JUMPDEST EQ DUP1 PUSH2 0x596A JUMPI JUMPDEST CODESIZE PUSH2 0x5387 JUMP JUMPDEST POP PUSH1 0x9 DUP7 ADD SLOAD PUSH3 0x2A300 DUP2 ADD DUP1 SWAP2 GT PUSH2 0x31F5 JUMPI TIMESTAMP GT ISZERO PUSH2 0x5964 JUMP JUMPDEST SWAP1 POP PUSH2 0x5990 DUP2 PUSH2 0x6720 JUMP JUMPDEST PUSH1 0x6 DUP2 EQ SWAP1 PUSH2 0x5380 JUMP JUMPDEST SWAP1 POP PUSH2 0x59A5 DUP2 PUSH2 0x6720 JUMP JUMPDEST PUSH1 0x2 DUP2 EQ SWAP1 PUSH2 0x5379 JUMP JUMPDEST PUSH1 0x40 MLOAD PUSH3 0x461BCD PUSH1 0xE5 SHL DUP2 MSTORE PUSH1 0x20 PUSH1 0x4 DUP3 ADD MSTORE PUSH1 0x9 PUSH1 0x24 DUP3 ADD MSTORE PUSH9 0x2737903932B0B9B7B7 PUSH1 0xB9 SHL PUSH1 0x44 DUP3 ADD MSTORE PUSH1 0x64 SWAP1 REVERT JUMPDEST PUSH1 0x40 MLOAD PUSH3 0x461BCD PUSH1 0xE5 SHL DUP2 MSTORE PUSH1 0x20 PUSH1 0x4 DUP3 ADD MSTORE PUSH1 0x10 PUSH1 0x24 DUP3 ADD MSTORE PUSH16 0x105B1C9958591E48191A5CDC1D5D1959 PUSH1 0x82 SHL PUSH1 0x44 DUP3 ADD MSTORE PUSH1 0x64 SWAP1 REVERT JUMPDEST POP CALLVALUE PUSH2 0x3A7 JUMPI PUSH1 0x40 CALLDATASIZE PUSH1 0x3 NOT ADD SLT PUSH2 0x3A7 JUMPI PUSH1 0x40 PUSH2 0x5A34 PUSH2 0x6502 JUMP JUMPDEST SWAP2 PUSH1 0x4 CALLDATALOAD DUP2 MSTORE PUSH1 0x7 PUSH1 0x20 MSTORE KECCAK256 SWAP1 PUSH1 0x1 DUP1 PUSH1 0xA0 SHL SUB AND PUSH1 0x0 MSTORE PUSH1 0x20 MSTORE PUSH1 0x20 PUSH1 0xFF PUSH1 0x40 PUSH1 0x0 KECCAK256 SLOAD AND PUSH1 0x40 MLOAD SWAP1 ISZERO ISZERO DUP2 MSTORE RETURN JUMPDEST POP CALLVALUE PUSH2 0x3A7 JUMPI PUSH1 0x40 CALLDATASIZE PUSH1 0x3 NOT ADD SLT PUSH2 0x3A7 JUMPI PUSH2 0x5A7E PUSH2 0x6502 JUMP JUMPDEST CALLER PUSH1 0x1 PUSH1 0x1 PUSH1 0xA0 SHL SUB DUP3 AND SUB PUSH2 0x5A9A JUMPI PUSH2 0x1379 SWAP1 PUSH1 0x4 CALLDATALOAD PUSH2 0x6B98 JUMP JUMPDEST PUSH1 0x40 MLOAD PUSH4 0x334BD919 PUSH1 0xE1 SHL DUP2 MSTORE PUSH1 0x4 SWAP1 REVERT JUMPDEST POP CALLVALUE PUSH2 0x3A7 JUMPI PUSH1 0x20 CALLDATASIZE PUSH1 0x3 NOT ADD SLT PUSH2 0x3A7 JUMPI PUSH1 0x40 SWAP1 PUSH1 0x4 CALLDATALOAD DUP2 MSTORE PUSH1 0x4 PUSH1 0x20 MSTORE KECCAK256 DUP1 SLOAD PUSH2 0x4E05 PUSH1 0x1 DUP4 ADD SLOAD SWAP3 PUSH1 0x2 DUP2 ADD SLOAD SWAP1 PUSH2 0x5AE9 PUSH1 0x3 DUP3 ADD PUSH2 0x667A JUMP JUMPDEST PUSH1 0x4 DUP3 ADD SLOAD SWAP1 PUSH1 0x6 PUSH1 0xFF PUSH1 0x5 DUP6 ADD SLOAD AND SWAP4 ADD SLOAD SWAP4 PUSH1 0x40 MLOAD SWAP8 DUP9 SWAP8 PUSH1 0xFF PUSH1 0x1 DUP1 PUSH1 0xA0 SHL SUB DUP3 PUSH1 0x8 SHR AND SWAP2 AND DUP10 PUSH2 0x676A JUMP JUMPDEST POP CALLVALUE PUSH2 0x3A7 JUMPI PUSH1 0x40 CALLDATASIZE PUSH1 0x3 NOT ADD SLT PUSH2 0x3A7 JUMPI PUSH2 0x1379 PUSH1 0x4 CALLDATALOAD PUSH2 0x5B39 PUSH2 0x6502 JUMP JUMPDEST SWAP1 DUP1 DUP5 MSTORE DUP4 PUSH1 0x20 MSTORE PUSH2 0x5B51 PUSH1 0x1 PUSH1 0x40 DUP7 KECCAK256 ADD SLOAD PUSH2 0x69C0 JUMP JUMPDEST PUSH2 0x6A86 JUMP JUMPDEST POP CALLVALUE PUSH2 0x3A7 JUMPI PUSH1 0x20 CALLDATASIZE PUSH1 0x3 NOT ADD SLT PUSH2 0x3A7 JUMPI PUSH1 0x1 PUSH1 0x40 PUSH1 0x20 SWAP3 PUSH1 0x4 CALLDATALOAD DUP2 MSTORE DUP1 DUP5 MSTORE KECCAK256 ADD SLOAD PUSH1 0x40 MLOAD SWAP1 DUP2 MSTORE RETURN JUMPDEST POP CALLVALUE PUSH2 0x3A7 JUMPI PUSH1 0x40 CALLDATASIZE PUSH1 0x3 NOT ADD SLT PUSH2 0x3A7 JUMPI PUSH1 0x7 PUSH1 0x40 PUSH2 0x5BA0 PUSH2 0x6502 JUMP JUMPDEST SWAP3 PUSH1 0x4 CALLDATALOAD DUP2 MSTORE PUSH1 0x4 PUSH1 0x20 MSTORE KECCAK256 ADD SWAP1 PUSH1 0x1 DUP1 PUSH1 0xA0 SHL SUB AND PUSH1 0x0 MSTORE PUSH1 0x20 MSTORE PUSH1 0x20 PUSH1 0xFF PUSH1 0x40 PUSH1 0x0 KECCAK256 SLOAD AND PUSH1 0x40 MLOAD SWAP1 ISZERO ISZERO DUP2 MSTORE RETURN JUMPDEST POP CALLVALUE PUSH2 0x3A7 JUMPI PUSH1 0x20 SWAP1 DUP2 PUSH1 0x3 NOT CALLDATASIZE ADD SLT PUSH2 0x3A7 JUMPI PUSH1 0x4 CALLDATALOAD PUSH2 0x5BF0 PUSH2 0x6D86 JUMP JUMPDEST DUP1 DUP3 MSTORE PUSH1 0x2 SWAP3 DUP4 DUP2 MSTORE PUSH2 0x5C0B PUSH1 0x4 PUSH1 0x40 DUP6 KECCAK256 ADD SLOAD ISZERO ISZERO PUSH2 0x6EE6 JUMP JUMPDEST PUSH1 0x11 SLOAD PUSH2 0x5C1D PUSH1 0xFF DUP3 PUSH1 0xA0 SHR AND PUSH2 0x7380 JUMP JUMPDEST DUP3 DUP5 MSTORE DUP5 DUP3 MSTORE PUSH1 0x6 PUSH1 0xFF DUP2 PUSH1 0x40 DUP8 KECCAK256 ADD SLOAD PUSH1 0xA8 SHR AND PUSH2 0x5C3B DUP2 PUSH2 0x6720 JUMP JUMPDEST SUB PUSH2 0x5EA2 JUMPI PUSH2 0x5C63 SWAP5 DUP4 DUP6 MSTORE DUP1 DUP4 MSTORE PUSH2 0x5C71 PUSH1 0x1 PUSH1 0x40 DUP8 KECCAK256 ADD PUSH1 0x40 MLOAD SWAP8 DUP9 SWAP2 DUP7 DUP4 ADD SWAP1 PUSH2 0x73BE JUMP JUMPDEST SUB PUSH1 0x1F NOT DUP2 ADD DUP9 MSTORE DUP8 PUSH2 0x65D9 JUMP JUMPDEST PUSH1 0x1 DUP1 PUSH1 0xA0 SHL SUB DUP1 SWAP3 AND DUP5 DUP7 MSTORE DUP2 DUP5 MSTORE PUSH1 0x4 PUSH1 0x40 DUP8 KECCAK256 ADD SLOAD PUSH1 0x40 MLOAD PUSH4 0xB551CD5 PUSH1 0xE4 SHL DUP2 MSTORE PUSH32 0x79F8A4099C742DA5530B52D1BB648FC05FDD82941A0DB55645D2ECEB3AB801B SWAP2 DUP3 PUSH1 0x4 DUP4 ADD MSTORE PUSH1 0x24 DUP3 ADD MSTORE PUSH1 0x60 PUSH1 0x44 DUP3 ADD MSTORE DUP6 DUP2 DUP1 PUSH2 0x5CDA PUSH1 0x64 DUP3 ADD DUP14 PUSH2 0x672A JUMP JUMPDEST SUB DUP2 DUP7 GAS STATICCALL SWAP1 DUP2 ISZERO PUSH2 0x2BFE JUMPI DUP9 SWAP2 PUSH2 0x5E85 JUMPI JUMPDEST POP ISZERO PUSH2 0x5E4A JUMPI DUP7 SWAP8 DUP8 SWAP3 DUP7 SWAP3 DUP9 PUSH2 0x5D3C SWAP10 SWAP11 MSTORE DUP6 DUP5 MSTORE DUP5 PUSH1 0x4 PUSH1 0x40 DUP3 KECCAK256 ADD SLOAD SWAP2 PUSH1 0x40 MLOAD SWAP11 DUP12 SWAP6 DUP7 SWAP5 DUP6 SWAP4 PUSH4 0x53B59239 PUSH1 0xE0 SHL DUP6 MSTORE PUSH1 0x4 DUP6 ADD MSTORE PUSH1 0x24 DUP5 ADD MSTORE PUSH1 0x60 PUSH1 0x44 DUP5 ADD MSTORE PUSH1 0x64 DUP4 ADD SWAP1 PUSH2 0x672A JUMP JUMPDEST SUB SWAP3 GAS CALL DUP1 ISZERO PUSH2 0x5E3D JUMPI DUP2 SWAP1 PUSH2 0x5E02 JUMPI JUMPDEST PUSH1 0x0 DUP1 MLOAD PUSH1 0x20 PUSH2 0x7459 DUP4 CODECOPY DUP2 MLOAD SWAP2 MSTORE SWAP6 POP SGT ISZERO PUSH2 0x5DFB JUMPI PUSH1 0x1 SWAP3 JUMPDEST DUP6 DUP8 MSTORE DUP2 DUP2 MSTORE PUSH1 0x40 DUP1 DUP9 KECCAK256 PUSH1 0x6 SWAP1 DUP2 ADD DUP1 SLOAD PUSH1 0xFF PUSH1 0xA0 SHL NOT AND PUSH1 0x3 PUSH1 0xA0 SHL OR SWAP1 SSTORE DUP8 DUP10 MSTORE DUP4 DUP4 MSTORE SWAP1 DUP9 KECCAK256 PUSH2 0x5D9E SWAP2 DUP7 SWAP2 ADD PUSH2 0x6CBE JUMP JUMPDEST DUP6 DUP8 MSTORE DUP2 DUP2 MSTORE PUSH2 0x5DD9 PUSH1 0x40 DUP9 KECCAK256 TIMESTAMP PUSH1 0x9 DUP3 ADD SSTORE DUP5 PUSH1 0x11 SLOAD AND PUSH1 0xA DUP3 ADD SWAP1 PUSH1 0x1 PUSH1 0x1 PUSH1 0x60 SHL SUB PUSH1 0xA0 SHL DUP3 SLOAD AND OR SWAP1 SSTORE PUSH1 0x7 PUSH1 0x10 DUP3 ADD SWAP2 ADD PUSH2 0x71E5 JUMP JUMPDEST DUP6 DUP8 MSTORE MSTORE PUSH2 0x3BA5 PUSH1 0x7 PUSH1 0x40 DUP8 KECCAK256 ADD SWAP2 PUSH1 0x11 SLOAD AND SWAP3 PUSH1 0x40 MLOAD SWAP4 DUP5 SWAP4 TIMESTAMP SWAP3 DUP6 PUSH2 0x72BD JUMP JUMPDEST DUP1 SWAP3 PUSH2 0x5D68 JUMP JUMPDEST POP DUP4 DUP6 DUP2 RETURNDATASIZE DUP4 GT PUSH2 0x5E36 JUMPI JUMPDEST PUSH2 0x5E18 DUP2 DUP4 PUSH2 0x65D9 JUMP JUMPDEST DUP2 ADD SUB SLT PUSH2 0x3A7 JUMPI PUSH1 0x0 DUP1 MLOAD PUSH1 0x20 PUSH2 0x7459 DUP4 CODECOPY DUP2 MLOAD SWAP2 MSTORE SWAP5 MLOAD PUSH2 0x5D4D JUMP JUMPDEST POP RETURNDATASIZE PUSH2 0x5E0E JUMP JUMPDEST POP PUSH1 0x40 MLOAD SWAP1 RETURNDATASIZE SWAP1 DUP3 RETURNDATACOPY RETURNDATASIZE SWAP1 REVERT JUMPDEST PUSH1 0x40 MLOAD PUSH3 0x461BCD PUSH1 0xE5 SHL DUP2 MSTORE PUSH1 0x4 DUP2 ADD DUP7 SWAP1 MSTORE PUSH1 0x13 PUSH1 0x24 DUP3 ADD MSTORE PUSH19 0x5072696365206E6F7420617661696C61626C65 PUSH1 0x68 SHL PUSH1 0x44 DUP3 ADD MSTORE PUSH1 0x64 SWAP1 REVERT JUMPDEST PUSH2 0x5E9C SWAP2 POP DUP7 RETURNDATASIZE DUP9 GT PUSH2 0x128C JUMPI PUSH2 0x127E DUP2 DUP4 PUSH2 0x65D9 JUMP JUMPDEST CODESIZE PUSH2 0x5CED JUMP JUMPDEST PUSH1 0x40 MLOAD PUSH3 0x461BCD PUSH1 0xE5 SHL DUP2 MSTORE PUSH1 0x4 DUP2 ADD DUP4 SWAP1 MSTORE PUSH1 0x10 PUSH1 0x24 DUP3 ADD MSTORE PUSH16 0x4E6F74206177616974696E6720554D41 PUSH1 0x80 SHL PUSH1 0x44 DUP3 ADD MSTORE PUSH1 0x64 SWAP1 REVERT JUMPDEST POP CALLVALUE PUSH2 0x3A7 JUMPI PUSH1 0x20 CALLDATASIZE PUSH1 0x3 NOT ADD SLT PUSH2 0x3A7 JUMPI PUSH1 0x40 SWAP1 PUSH1 0x4 CALLDATALOAD DUP2 MSTORE PUSH1 0x6 PUSH1 0x20 MSTORE KECCAK256 DUP1 SLOAD PUSH1 0x1 DUP3 ADD SLOAD SWAP2 PUSH1 0xFF PUSH1 0x2 DUP3 ADD SLOAD AND PUSH2 0x5F16 PUSH1 0x3 DUP4 ADD PUSH2 0x667A JUMP JUMPDEST SWAP2 PUSH2 0x5F7E PUSH1 0x4 DUP3 ADD SLOAD PUSH2 0x5F2B PUSH1 0x5 DUP5 ADD PUSH2 0x667A JUMP JUMPDEST PUSH2 0x5F6B PUSH1 0x6 DUP6 ADD SLOAD SWAP7 PUSH1 0x8 PUSH1 0x7 DUP8 ADD SLOAD SWAP7 ADD SLOAD SWAP7 PUSH1 0x40 MLOAD SWAP11 DUP12 SWAP11 DUP12 MSTORE PUSH1 0x20 DUP12 ADD MSTORE PUSH2 0x5F55 DUP2 PUSH2 0x6720 JUMP JUMPDEST PUSH1 0x40 DUP11 ADD MSTORE PUSH2 0x120 DUP1 PUSH1 0x60 DUP12 ADD MSTORE DUP10 ADD SWAP1 PUSH2 0x672A JUMP JUMPDEST SWAP2 PUSH1 0x80 DUP9 ADD MSTORE DUP7 DUP3 SUB PUSH1 0xA0 DUP9 ADD MSTORE PUSH2 0x672A JUMP JUMPDEST SWAP3 PUSH1 0xC0 DUP6 ADD MSTORE PUSH1 0xE0 DUP5 ADD MSTORE PUSH2 0x100 DUP4 ADD MSTORE SUB SWAP1 RETURN JUMPDEST POP CALLVALUE PUSH2 0x3A7 JUMPI PUSH1 0x40 CALLDATASIZE PUSH1 0x3 NOT ADD SLT PUSH2 0x3A7 JUMPI PUSH1 0x40 PUSH2 0x5FAF PUSH2 0x6502 JUMP JUMPDEST SWAP2 PUSH1 0x4 CALLDATALOAD DUP2 MSTORE PUSH1 0xA PUSH1 0x20 MSTORE KECCAK256 SWAP1 PUSH1 0x1 DUP1 PUSH1 0xA0 SHL SUB AND PUSH1 0x0 MSTORE PUSH1 0x20 MSTORE PUSH1 0x20 PUSH1 0x40 PUSH1 0x0 KECCAK256 SLOAD PUSH1 0x40 MLOAD SWAP1 DUP2 MSTORE RETURN JUMPDEST POP CALLVALUE PUSH2 0x3A7 JUMPI DUP1 PUSH1 0x3 NOT CALLDATASIZE ADD SLT PUSH2 0x3A7 JUMPI PUSH1 0x20 PUSH1 0x40 MLOAD PUSH2 0x1F4 DUP2 MSTORE RETURN JUMPDEST POP CALLVALUE PUSH2 0x3A7 JUMPI DUP1 PUSH1 0x3 NOT CALLDATASIZE ADD SLT PUSH2 0x3A7 JUMPI PUSH1 0x20 PUSH1 0xF SLOAD PUSH1 0x40 MLOAD SWAP1 DUP2 MSTORE RETURN JUMPDEST POP CALLVALUE PUSH2 0x3A7 JUMPI PUSH1 0x20 DUP1 PUSH1 0x3 NOT CALLDATASIZE ADD SLT PUSH2 0xFE3 JUMPI PUSH2 0x6128 PUSH1 0x4 CALLDATALOAD SWAP2 CALLER DUP5 MSTORE PUSH1 0x9 DUP2 MSTORE PUSH2 0x6049 PUSH1 0xFF PUSH1 0x5 PUSH1 0x40 DUP8 KECCAK256 ADD SLOAD AND PUSH2 0x71A0 JUMP JUMPDEST CALLER DUP5 MSTORE PUSH1 0x9 DUP2 MSTORE PUSH2 0x606C PUSH9 0x3635C9ADC5DEA00000 PUSH1 0x3 PUSH1 0x40 DUP8 KECCAK256 ADD SLOAD LT ISZERO PUSH2 0x6DB6 JUMP JUMPDEST DUP3 DUP5 MSTORE PUSH1 0x2 DUP2 MSTORE PUSH2 0x6085 PUSH1 0x4 PUSH1 0x40 DUP7 KECCAK256 ADD SLOAD ISZERO ISZERO PUSH2 0x6EE6 JUMP JUMPDEST DUP3 DUP5 MSTORE PUSH1 0x2 DUP2 MSTORE PUSH2 0x60A0 PUSH1 0xFF PUSH1 0xC PUSH1 0x40 DUP8 KECCAK256 ADD SLOAD AND ISZERO PUSH2 0x70D8 JUMP JUMPDEST PUSH2 0x60B1 PUSH1 0xFF PUSH1 0x11 SLOAD PUSH1 0xA0 SHR AND PUSH2 0x7380 JUMP JUMPDEST DUP3 DUP5 MSTORE PUSH1 0x2 DUP2 MSTORE PUSH1 0xFF PUSH1 0x6 PUSH1 0x40 DUP7 KECCAK256 ADD SLOAD PUSH1 0xA0 SHR AND PUSH2 0x60CF DUP2 PUSH2 0x6720 JUMP JUMPDEST ISZERO DUP1 ISZERO PUSH2 0x624F JUMPI JUMPDEST PUSH2 0x60E0 SWAP1 PUSH2 0x6F27 JUMP JUMPDEST DUP3 DUP5 MSTORE PUSH1 0x2 DUP2 MSTORE PUSH1 0x40 DUP1 DUP6 KECCAK256 PUSH1 0x6 DUP2 ADD DUP1 SLOAD PUSH1 0xFF PUSH1 0xA8 SHL NOT AND PUSH1 0x3 PUSH1 0xA9 SHL OR SWAP1 SSTORE PUSH1 0xE DUP2 ADD DUP1 SLOAD PUSH2 0xFF00 NOT AND PUSH2 0x300 OR SWAP1 SSTORE SWAP1 MLOAD SWAP3 PUSH2 0x6136 SWAP2 DUP5 SWAP2 SWAP1 DUP3 DUP6 ADD SWAP1 PUSH1 0x1 ADD PUSH2 0x73BE JUMP JUMPDEST SUB PUSH1 0x1F NOT DUP2 ADD DUP5 MSTORE DUP4 PUSH2 0x65D9 JUMP JUMPDEST PUSH1 0x11 SLOAD PUSH1 0x10 SLOAD DUP6 SWAP2 PUSH1 0x1 PUSH1 0x1 PUSH1 0xA0 SHL SUB SWAP1 DUP2 AND SWAP2 AND DUP2 EXTCODESIZE ISZERO PUSH2 0x1AB9 JUMPI DUP3 SWAP2 PUSH1 0x40 MLOAD DUP1 SWAP5 DUP2 DUP1 SWAP5 PUSH4 0x11DF92F1 PUSH1 0xE0 SHL DUP3 MSTORE PUSH2 0x61A8 PUSH32 0x79F8A4099C742DA5530B52D1BB648FC05FDD82941A0DB55645D2ECEB3AB801B SWAP11 DUP12 PUSH1 0x4 DUP6 ADD MSTORE TIMESTAMP PUSH1 0x24 DUP6 ADD MSTORE PUSH1 0xA0 PUSH1 0x44 DUP6 ADD MSTORE PUSH1 0xA4 DUP5 ADD SWAP1 PUSH2 0x672A JUMP JUMPDEST SWAP1 PUSH1 0x64 DUP4 ADD MSTORE PUSH9 0x56BC75E2D63100000 PUSH1 0x84 DUP4 ADD MSTORE SUB SWAP3 GAS CALL DUP1 ISZERO PUSH2 0x1293 JUMPI PUSH2 0x6200 JUMPI JUMPDEST POP PUSH32 0x8C347D84355C2B48F5ABC21C986A0B7BB250A907A6422ECDC8D0590B0E7E94D SWAP2 PUSH1 0x40 SWAP2 DUP3 MLOAD SWAP2 DUP3 MSTORE TIMESTAMP SWAP1 DUP3 ADD MSTORE LOG2 DUP1 RETURN JUMPDEST PUSH1 0x1 PUSH1 0x1 PUSH1 0x40 SHL SUB DUP2 SWAP6 SWAP3 SWAP6 GT PUSH2 0x623B JUMPI PUSH1 0x40 MSTORE SWAP3 PUSH32 0x8C347D84355C2B48F5ABC21C986A0B7BB250A907A6422ECDC8D0590B0E7E94D PUSH2 0x61CC JUMP JUMPDEST PUSH4 0x4E487B71 PUSH1 0xE0 SHL DUP3 MSTORE PUSH1 0x41 PUSH1 0x4 MSTORE PUSH1 0x24 DUP3 REVERT JUMPDEST POP DUP3 DUP5 MSTORE PUSH1 0x2 DUP2 MSTORE PUSH2 0x60E0 PUSH1 0x1 PUSH1 0xFF PUSH1 0x6 PUSH1 0x40 DUP9 KECCAK256 ADD SLOAD PUSH1 0xA0 SHR AND PUSH2 0x6273 DUP2 PUSH2 0x6720 JUMP JUMPDEST EQ SWAP1 POP PUSH2 0x60D7 JUMP JUMPDEST POP CALLVALUE PUSH2 0x3A7 JUMPI PUSH1 0x20 CALLDATASIZE PUSH1 0x3 NOT ADD SLT PUSH2 0x3A7 JUMPI PUSH1 0x6 PUSH1 0x40 PUSH1 0x20 SWAP3 PUSH1 0x4 CALLDATALOAD DUP2 MSTORE PUSH1 0x4 DUP5 MSTORE KECCAK256 ADD SLOAD PUSH1 0x40 MLOAD SWAP1 DUP2 MSTORE RETURN JUMPDEST POP CALLVALUE PUSH2 0x3A7 JUMPI PUSH1 0x60 CALLDATASIZE PUSH1 0x3 NOT ADD SLT PUSH2 0x3A7 JUMPI PUSH2 0x62C2 PUSH2 0x64EC JUMP JUMPDEST PUSH1 0x24 CALLDATALOAD SWAP1 PUSH1 0x44 CALLDATALOAD PUSH1 0x1 PUSH1 0x1 PUSH1 0x40 SHL SUB DUP2 GT PUSH2 0xFDF JUMPI CALLDATASIZE PUSH1 0x23 DUP3 ADD SLT ISZERO PUSH2 0xFDF JUMPI PUSH2 0x62F6 SWAP1 CALLDATASIZE SWAP1 PUSH1 0x24 DUP2 PUSH1 0x4 ADD CALLDATALOAD SWAP2 ADD PUSH2 0x65FA JUMP JUMPDEST PUSH2 0x62FE PUSH2 0x6D86 JUMP JUMPDEST PUSH2 0x6306 PUSH2 0x6908 JUMP JUMPDEST PUSH1 0x1 DUP1 PUSH1 0xA0 SHL SUB SWAP3 DUP4 DUP4 AND SWAP4 DUP5 DUP7 MSTORE PUSH1 0x20 SWAP4 PUSH1 0x9 DUP6 MSTORE PUSH1 0x40 DUP8 KECCAK256 SWAP1 PUSH1 0x3 DUP3 ADD DUP1 SLOAD SWAP5 DUP6 ISZERO PUSH2 0x645E JUMPI SWAP3 PUSH2 0x635C SWAP6 SWAP3 PUSH9 0x3635C9ADC5DEA00000 DUP10 SWAP9 SWAP7 SWAP4 PUSH2 0x63BE SWAP11 SWAP7 DUP7 DUP2 GT PUSH1 0x0 EQ PUSH2 0x6455 JUMPI POP DUP6 SWAP9 DUP10 DUP1 SWAP8 PUSH2 0x6DF7 JUMP JUMPDEST DUP1 SWAP2 SSTORE PUSH1 0x4 DUP5 ADD PUSH2 0x636D DUP2 SLOAD PUSH2 0x6D77 JUMP JUMPDEST SWAP1 SSTORE PUSH2 0x6378 DUP5 PUSH2 0x6E24 JUMP JUMPDEST DUP5 SSTORE LT PUSH2 0x642B JUMPI JUMPDEST POP POP DUP1 PUSH1 0x10 SLOAD AND SWAP1 PUSH1 0x12 SLOAD AND DUP10 PUSH1 0x40 MLOAD DUP1 SWAP10 DUP2 SWAP6 DUP3 SWAP5 PUSH4 0xA9059CBB PUSH1 0xE0 SHL DUP5 MSTORE PUSH1 0x4 DUP5 ADD PUSH1 0x20 SWAP1 SWAP4 SWAP3 SWAP2 SWAP4 PUSH1 0x40 DUP2 ADD SWAP5 PUSH1 0x1 DUP1 PUSH1 0xA0 SHL SUB AND DUP2 MSTORE ADD MSTORE JUMP JUMPDEST SUB SWAP3 GAS CALL SWAP1 DUP2 ISZERO PUSH2 0x37F1 JUMPI PUSH2 0x63FE PUSH2 0x3BA5 SWAP3 PUSH32 0xED9E5190E975AA4403C276297E605B40D5A99683C8D2482166C8EFBD1A89265F SWAP7 DUP10 SWAP2 PUSH2 0x6414 JUMPI POP PUSH2 0x6D39 JUMP JUMPDEST PUSH1 0x40 DUP1 MLOAD SWAP5 DUP6 SWAP5 DUP6 MSTORE DUP5 ADD MSTORE PUSH1 0x40 DUP4 ADD SWAP1 PUSH2 0x672A JUMP JUMPDEST PUSH2 0x1286 SWAP2 POP DUP7 RETURNDATASIZE DUP9 GT PUSH2 0x128C JUMPI PUSH2 0x127E DUP2 DUP4 PUSH2 0x65D9 JUMP JUMPDEST PUSH1 0x5 PUSH2 0x643F SWAP3 ADD PUSH1 0xFF NOT DUP2 SLOAD AND SWAP1 SSTORE PUSH2 0x6AFF JUMP JUMPDEST POP PUSH2 0x644B PUSH1 0xD SLOAD PUSH2 0x6E04 JUMP JUMPDEST PUSH1 0xD SSTORE CODESIZE DUP1 PUSH2 0x6380 JUMP JUMPDEST SWAP9 DUP10 DUP1 SWAP8 PUSH2 0x6DF7 JUMP JUMPDEST PUSH1 0x40 MLOAD PUSH3 0x461BCD PUSH1 0xE5 SHL DUP2 MSTORE PUSH1 0x4 DUP2 ADD DUP10 SWAP1 MSTORE PUSH1 0x11 PUSH1 0x24 DUP3 ADD MSTORE PUSH17 0x9CDE40E6E8C2D6CA40E8DE40E6D8C2E6D PUSH1 0x7B SHL PUSH1 0x44 DUP3 ADD MSTORE PUSH1 0x64 SWAP1 REVERT JUMPDEST SWAP1 POP CALLVALUE PUSH2 0xFE3 JUMPI PUSH1 0x20 CALLDATASIZE PUSH1 0x3 NOT ADD SLT PUSH2 0xFE3 JUMPI PUSH1 0x4 CALLDATALOAD PUSH4 0xFFFFFFFF PUSH1 0xE0 SHL DUP2 AND DUP1 SWAP2 SUB PUSH2 0x1AB9 JUMPI PUSH1 0x20 SWAP3 POP PUSH4 0x7965DB0B PUSH1 0xE0 SHL DUP2 EQ SWAP1 DUP2 ISZERO PUSH2 0x64DB JUMPI JUMPDEST POP ISZERO ISZERO DUP2 MSTORE RETURN JUMPDEST PUSH4 0x1FFC9A7 PUSH1 0xE0 SHL EQ SWAP1 POP CODESIZE PUSH2 0x64D4 JUMP JUMPDEST PUSH1 0x4 CALLDATALOAD SWAP1 PUSH1 0x1 PUSH1 0x1 PUSH1 0xA0 SHL SUB DUP3 AND DUP3 SUB PUSH2 0x2BF1 JUMPI JUMP JUMPDEST PUSH1 0x24 CALLDATALOAD SWAP1 PUSH1 0x1 PUSH1 0x1 PUSH1 0xA0 SHL SUB DUP3 AND DUP3 SUB PUSH2 0x2BF1 JUMPI JUMP JUMPDEST PUSH2 0x140 DUP2 ADD SWAP1 DUP2 LT PUSH1 0x1 PUSH1 0x1 PUSH1 0x40 SHL SUB DUP3 GT OR PUSH2 0x37DB JUMPI PUSH1 0x40 MSTORE JUMP JUMPDEST PUSH1 0xE0 DUP2 ADD SWAP1 DUP2 LT PUSH1 0x1 PUSH1 0x1 PUSH1 0x40 SHL SUB DUP3 GT OR PUSH2 0x37DB JUMPI PUSH1 0x40 MSTORE JUMP JUMPDEST PUSH2 0x100 DUP2 ADD SWAP1 DUP2 LT PUSH1 0x1 PUSH1 0x1 PUSH1 0x40 SHL SUB DUP3 GT OR PUSH2 0x37DB JUMPI PUSH1 0x40 MSTORE JUMP JUMPDEST PUSH2 0x280 DUP2 ADD SWAP1 DUP2 LT PUSH1 0x1 PUSH1 0x1 PUSH1 0x40 SHL SUB DUP3 GT OR PUSH2 0x37DB JUMPI PUSH1 0x40 MSTORE JUMP JUMPDEST PUSH2 0x120 DUP2 ADD SWAP1 DUP2 LT PUSH1 0x1 PUSH1 0x1 PUSH1 0x40 SHL SUB DUP3 GT OR PUSH2 0x37DB JUMPI PUSH1 0x40 MSTORE JUMP JUMPDEST PUSH1 0x20 DUP2 ADD SWAP1 DUP2 LT PUSH1 0x1 PUSH1 0x1 PUSH1 0x40 SHL SUB DUP3 GT OR PUSH2 0x37DB JUMPI PUSH1 0x40 MSTORE JUMP JUMPDEST PUSH1 0x40 DUP2 ADD SWAP1 DUP2 LT PUSH1 0x1 PUSH1 0x1 PUSH1 0x40 SHL SUB DUP3 GT OR PUSH2 0x37DB JUMPI PUSH1 0x40 MSTORE JUMP JUMPDEST SWAP1 PUSH1 0x1F DUP1 NOT SWAP2 ADD AND DUP2 ADD SWAP1 DUP2 LT PUSH1 0x1 PUSH1 0x1 PUSH1 0x40 SHL SUB DUP3 GT OR PUSH2 0x37DB JUMPI PUSH1 0x40 MSTORE JUMP JUMPDEST SWAP3 SWAP2 SWAP3 PUSH1 0x1 PUSH1 0x1 PUSH1 0x40 SHL SUB DUP3 GT PUSH2 0x37DB JUMPI PUSH1 0x40 MLOAD SWAP2 PUSH2 0x6623 PUSH1 0x1F DUP3 ADD PUSH1 0x1F NOT AND PUSH1 0x20 ADD DUP5 PUSH2 0x65D9 JUMP JUMPDEST DUP3 SWAP5 DUP2 DUP5 MSTORE DUP2 DUP4 ADD GT PUSH2 0x2BF1 JUMPI DUP3 DUP2 PUSH1 0x20 SWAP4 DUP5 PUSH1 0x0 SWAP7 ADD CALLDATACOPY ADD ADD MSTORE JUMP JUMPDEST SWAP1 PUSH1 0x1 DUP3 DUP2 SHR SWAP3 AND DUP1 ISZERO PUSH2 0x6670 JUMPI JUMPDEST PUSH1 0x20 DUP4 LT EQ PUSH2 0x665A JUMPI JUMP JUMPDEST PUSH4 0x4E487B71 PUSH1 0xE0 SHL PUSH1 0x0 MSTORE PUSH1 0x22 PUSH1 0x4 MSTORE PUSH1 0x24 PUSH1 0x0 REVERT JUMPDEST SWAP2 PUSH1 0x7F AND SWAP2 PUSH2 0x664F JUMP JUMPDEST SWAP1 PUSH1 0x40 MLOAD SWAP2 DUP3 PUSH1 0x0 DUP3 SLOAD SWAP3 PUSH2 0x668E DUP5 PUSH2 0x6640 JUMP JUMPDEST SWAP1 DUP2 DUP5 MSTORE PUSH1 0x1 SWAP5 DUP6 DUP2 AND SWAP1 DUP2 PUSH1 0x0 EQ PUSH2 0x66FD JUMPI POP PUSH1 0x1 EQ PUSH2 0x66BA JUMPI JUMPDEST POP POP PUSH2 0x66B8 SWAP3 POP SUB DUP4 PUSH2 0x65D9 JUMP JUMPDEST JUMP JUMPDEST SWAP1 SWAP4 SWAP2 POP PUSH1 0x0 MSTORE PUSH1 0x20 SWAP1 DUP2 PUSH1 0x0 KECCAK256 SWAP4 PUSH1 0x0 SWAP2 JUMPDEST DUP2 DUP4 LT PUSH2 0x66E5 JUMPI POP POP PUSH2 0x66B8 SWAP4 POP DUP3 ADD ADD CODESIZE DUP1 PUSH2 0x66AA JUMP JUMPDEST DUP6 SLOAD DUP9 DUP5 ADD DUP6 ADD MSTORE SWAP5 DUP6 ADD SWAP5 DUP8 SWAP5 POP SWAP2 DUP4 ADD SWAP2 PUSH2 0x66CD JUMP JUMPDEST SWAP2 POP POP PUSH2 0x66B8 SWAP5 POP PUSH1 0x20 SWAP3 POP PUSH1 0xFF NOT AND DUP3 DUP5 ADD MSTORE ISZERO ISZERO PUSH1 0x5 SHL DUP3 ADD ADD CODESIZE DUP1 PUSH2 0x66AA JUMP JUMPDEST PUSH1 0x7 GT ISZERO PUSH2 0x4E09 JUMPI JUMP JUMPDEST SWAP2 SWAP1 DUP3 MLOAD SWAP3 DUP4 DUP3 MSTORE PUSH1 0x0 JUMPDEST DUP5 DUP2 LT PUSH2 0x6756 JUMPI POP POP DUP3 PUSH1 0x0 PUSH1 0x20 DUP1 SWAP5 SWAP6 DUP5 ADD ADD MSTORE PUSH1 0x1F DUP1 NOT SWAP2 ADD AND ADD ADD SWAP1 JUMP JUMPDEST PUSH1 0x20 DUP2 DUP4 ADD DUP2 ADD MLOAD DUP5 DUP4 ADD DUP3 ADD MSTORE ADD PUSH2 0x6735 JUMP JUMPDEST SWAP5 SWAP2 SWAP3 PUSH2 0x67AE SWAP4 PUSH1 0xE0 SWAP8 SWAP11 SWAP10 SWAP9 SWAP6 SWAP3 PUSH2 0x6782 DUP2 PUSH2 0x6720 JUMP JUMPDEST DUP8 MSTORE PUSH1 0x1 PUSH1 0x1 PUSH1 0xA0 SHL SUB AND PUSH1 0x20 DUP8 ADD MSTORE PUSH1 0x40 DUP7 ADD MSTORE PUSH1 0x60 DUP6 ADD MSTORE PUSH2 0x100 PUSH1 0x80 DUP6 ADD DUP2 SWAP1 MSTORE DUP5 ADD SWAP1 PUSH2 0x672A JUMP JUMPDEST SWAP6 PUSH1 0xA0 DUP4 ADD MSTORE ISZERO ISZERO PUSH1 0xC0 DUP3 ADD MSTORE ADD MSTORE JUMP JUMPDEST SWAP2 DUP2 PUSH1 0x1F DUP5 ADD SLT ISZERO PUSH2 0x2BF1 JUMPI DUP3 CALLDATALOAD SWAP2 PUSH1 0x1 PUSH1 0x1 PUSH1 0x40 SHL SUB DUP4 GT PUSH2 0x2BF1 JUMPI PUSH1 0x20 DUP4 DUP2 DUP7 ADD SWAP6 ADD ADD GT PUSH2 0x2BF1 JUMPI JUMP JUMPDEST PUSH1 0x3 GT ISZERO PUSH2 0x4E09 JUMPI JUMP JUMPDEST SWAP1 PUSH1 0x4 DUP3 LT ISZERO PUSH2 0x4E09 JUMPI MSTORE JUMP JUMPDEST PUSH1 0xC SLOAD DUP2 LT ISZERO PUSH2 0x683A JUMPI PUSH1 0xC PUSH1 0x0 MSTORE PUSH32 0xDF6966C971051C3D54EC59162606531493A51404A002842F56009D7E5CF4A8C7 ADD SWAP1 PUSH1 0x0 SWAP1 JUMP JUMPDEST PUSH4 0x4E487B71 PUSH1 0xE0 SHL PUSH1 0x0 MSTORE PUSH1 0x32 PUSH1 0x4 MSTORE PUSH1 0x24 PUSH1 0x0 REVERT JUMPDEST PUSH1 0xB SLOAD DUP2 LT ISZERO PUSH2 0x683A JUMPI PUSH1 0xB PUSH1 0x0 MSTORE PUSH32 0x175B7A638427703F0DBE7BB9BBF987A2551717B34E79F33B5B1008D1FA01DB9 ADD SWAP1 PUSH1 0x0 SWAP1 JUMP JUMPDEST PUSH1 0x40 SWAP1 PUSH1 0x3 NOT ADD SLT PUSH2 0x2BF1 JUMPI PUSH1 0x4 CALLDATALOAD SWAP1 PUSH1 0x24 CALLDATALOAD SWAP1 JUMP JUMPDEST DUP1 SLOAD DUP3 LT ISZERO PUSH2 0x683A JUMPI PUSH1 0x0 MSTORE PUSH1 0xA PUSH1 0x20 PUSH1 0x0 KECCAK256 SWAP2 MUL ADD SWAP1 PUSH1 0x0 SWAP1 JUMP JUMPDEST DUP1 SLOAD DUP3 LT ISZERO PUSH2 0x683A JUMPI PUSH1 0x0 MSTORE PUSH1 0x7 PUSH1 0x20 PUSH1 0x0 KECCAK256 SWAP2 MUL ADD SWAP1 PUSH1 0x0 SWAP1 JUMP JUMPDEST SWAP1 PUSH1 0x40 PUSH1 0x3 NOT DUP4 ADD SLT PUSH2 0x2BF1 JUMPI PUSH1 0x4 CALLDATALOAD SWAP2 PUSH1 0x24 CALLDATALOAD SWAP1 PUSH1 0x1 PUSH1 0x1 PUSH1 0x40 SHL SUB DUP3 GT PUSH2 0x2BF1 JUMPI PUSH2 0x6904 SWAP2 PUSH1 0x4 ADD PUSH2 0x67BF JUMP JUMPDEST SWAP1 SWAP2 JUMP JUMPDEST CALLER PUSH1 0x0 SWAP1 DUP2 MSTORE PUSH32 0x89777FFFB7045C97177D1161CD08D871365CB73D0B18F242761255A7718434CF PUSH1 0x20 MSTORE PUSH1 0x40 SWAP1 KECCAK256 SLOAD PUSH32 0xBB08418A67729A078F87BBC8D02A770929BB68F5BFDF134AE2EAD6ED38E2F4AE SWAP1 PUSH1 0xFF AND ISZERO PUSH2 0x451F JUMPI POP JUMP JUMPDEST CALLER PUSH1 0x0 SWAP1 DUP2 MSTORE PUSH32 0x7D7FFB7A348E1C6A02869081A26547B49160DD3DF72D1D75A570EB9B698292EC PUSH1 0x20 MSTORE PUSH1 0x40 SWAP1 KECCAK256 SLOAD PUSH32 0xA49807205CE4D355092EF5A8A18F56E8913CF4A201FBE287825B095693C21775 SWAP1 PUSH1 0xFF AND ISZERO PUSH2 0x451F JUMPI POP JUMP JUMPDEST DUP1 PUSH1 0x0 MSTORE PUSH1 0x0 PUSH1 0x20 MSTORE PUSH1 0x40 PUSH1 0x0 KECCAK256 CALLER PUSH1 0x0 MSTORE PUSH1 0x20 MSTORE PUSH1 0xFF PUSH1 0x40 PUSH1 0x0 KECCAK256 SLOAD AND ISZERO PUSH2 0x451F JUMPI POP JUMP JUMPDEST PUSH1 0x1 PUSH1 0x1 PUSH1 0xA0 SHL SUB AND PUSH1 0x0 DUP2 DUP2 MSTORE PUSH32 0x40DA0F42A661166D5434D4603ECBFF423639C47E2526AD0538D7C3517A623890 PUSH1 0x20 MSTORE PUSH1 0x40 DUP2 KECCAK256 SLOAD SWAP1 SWAP2 SWAP1 PUSH1 0x0 DUP1 MLOAD PUSH1 0x20 PUSH2 0x7479 DUP4 CODECOPY DUP2 MLOAD SWAP2 MSTORE SWAP1 PUSH1 0xFF AND PUSH2 0x6A81 JUMPI DUP1 DUP4 MSTORE DUP3 PUSH1 0x20 MSTORE PUSH1 0x40 DUP4 KECCAK256 DUP3 DUP5 MSTORE PUSH1 0x20 MSTORE PUSH1 0x40 DUP4 KECCAK256 PUSH1 0x1 PUSH1 0xFF NOT DUP3 SLOAD AND OR SWAP1 SSTORE PUSH32 0x2F8788117E7EFF1D82E926EC794901D17C78024A50270940304540A733656F0D CALLER SWAP4 DUP1 LOG4 PUSH1 0x1 SWAP1 JUMP JUMPDEST POP POP SWAP1 JUMP JUMPDEST SWAP1 PUSH1 0x0 SWAP2 DUP1 DUP4 MSTORE DUP3 PUSH1 0x20 MSTORE PUSH1 0x40 DUP4 KECCAK256 SWAP2 PUSH1 0x1 DUP1 PUSH1 0xA0 SHL SUB AND SWAP2 DUP3 DUP5 MSTORE PUSH1 0x20 MSTORE PUSH1 0xFF PUSH1 0x40 DUP5 KECCAK256 SLOAD AND ISZERO PUSH1 0x0 EQ PUSH2 0x6A81 JUMPI DUP1 DUP4 MSTORE DUP3 PUSH1 0x20 MSTORE PUSH1 0x40 DUP4 KECCAK256 DUP3 DUP5 MSTORE PUSH1 0x20 MSTORE PUSH1 0x40 DUP4 KECCAK256 PUSH1 0x1 PUSH1 0xFF NOT DUP3 SLOAD AND OR SWAP1 SSTORE PUSH32 0x2F8788117E7EFF1D82E926EC794901D17C78024A50270940304540A733656F0D CALLER SWAP4 DUP1 LOG4 PUSH1 0x1 SWAP1 JUMP JUMPDEST PUSH1 0x1 PUSH1 0x1 PUSH1 0xA0 SHL SUB AND PUSH1 0x0 DUP2 DUP2 MSTORE PUSH32 0x40DA0F42A661166D5434D4603ECBFF423639C47E2526AD0538D7C3517A623890 PUSH1 0x20 MSTORE PUSH1 0x40 DUP2 KECCAK256 SLOAD SWAP1 SWAP2 SWAP1 PUSH1 0x0 DUP1 MLOAD PUSH1 0x20 PUSH2 0x7479 DUP4 CODECOPY DUP2 MLOAD SWAP2 MSTORE SWAP1 PUSH1 0xFF AND ISZERO PUSH2 0x6A81 JUMPI DUP1 DUP4 MSTORE DUP3 PUSH1 0x20 MSTORE PUSH1 0x40 DUP4 KECCAK256 DUP3 DUP5 MSTORE PUSH1 0x20 MSTORE PUSH1 0x40 DUP4 KECCAK256 PUSH1 0xFF NOT DUP2 SLOAD AND SWAP1 SSTORE PUSH32 0xF6391F5C32D9C69D2A47EA670B442974B53935D1EDC7FD64EB21E047A839171B CALLER SWAP4 DUP1 LOG4 PUSH1 0x1 SWAP1 JUMP JUMPDEST SWAP1 PUSH1 0x0 SWAP2 DUP1 DUP4 MSTORE DUP3 PUSH1 0x20 MSTORE PUSH1 0x40 DUP4 KECCAK256 SWAP2 PUSH1 0x1 DUP1 PUSH1 0xA0 SHL SUB AND SWAP2 DUP3 DUP5 MSTORE PUSH1 0x20 MSTORE PUSH1 0xFF PUSH1 0x40 DUP5 KECCAK256 SLOAD AND PUSH1 0x0 EQ PUSH2 0x6A81 JUMPI DUP1 DUP4 MSTORE DUP3 PUSH1 0x20 MSTORE PUSH1 0x40 DUP4 KECCAK256 DUP3 DUP5 MSTORE PUSH1 0x20 MSTORE PUSH1 0x40 DUP4 KECCAK256 PUSH1 0xFF NOT DUP2 SLOAD AND SWAP1 SSTORE PUSH32 0xF6391F5C32D9C69D2A47EA670B442974B53935D1EDC7FD64EB21E047A839171B CALLER SWAP4 DUP1 LOG4 PUSH1 0x1 SWAP1 JUMP JUMPDEST ISZERO PUSH2 0x6C14 JUMPI JUMP JUMPDEST PUSH1 0x40 MLOAD PUSH3 0x461BCD PUSH1 0xE5 SHL DUP2 MSTORE PUSH1 0x20 PUSH1 0x4 DUP3 ADD MSTORE PUSH1 0xB PUSH1 0x24 DUP3 ADD MSTORE PUSH11 0x139BC812541194C810D251 PUSH1 0xAA SHL PUSH1 0x44 DUP3 ADD MSTORE PUSH1 0x64 SWAP1 REVERT JUMPDEST SWAP2 SWAP1 DUP3 ADD DUP1 SWAP3 GT PUSH2 0x6C54 JUMPI JUMP JUMPDEST PUSH4 0x4E487B71 PUSH1 0xE0 SHL PUSH1 0x0 MSTORE PUSH1 0x11 PUSH1 0x4 MSTORE PUSH1 0x24 PUSH1 0x0 REVERT JUMPDEST SWAP1 PUSH1 0x1F DUP2 GT PUSH2 0x6C78 JUMPI POP POP POP JUMP JUMPDEST PUSH1 0x0 SWAP2 DUP3 MSTORE PUSH1 0x20 DUP3 KECCAK256 SWAP1 PUSH1 0x20 PUSH1 0x1F DUP6 ADD PUSH1 0x5 SHR DUP4 ADD SWAP5 LT PUSH2 0x6CB4 JUMPI JUMPDEST PUSH1 0x1F ADD PUSH1 0x5 SHR ADD SWAP2 JUMPDEST DUP3 DUP2 LT PUSH2 0x6CA9 JUMPI POP POP POP JUMP JUMPDEST DUP2 DUP2 SSTORE PUSH1 0x1 ADD PUSH2 0x6C9D JUMP JUMPDEST SWAP1 SWAP3 POP DUP3 SWAP1 PUSH2 0x6C94 JUMP JUMPDEST SWAP1 PUSH2 0x6CC8 DUP2 PUSH2 0x6720 JUMP JUMPDEST DUP2 SLOAD PUSH1 0xFF PUSH1 0xA8 SHL NOT AND PUSH1 0xA8 SWAP2 SWAP1 SWAP2 SHL PUSH1 0xFF PUSH1 0xA8 SHL AND OR SWAP1 SSTORE JUMP JUMPDEST SWAP1 DUP1 PUSH1 0x20 SWAP4 SWAP3 DUP2 DUP5 MSTORE DUP5 DUP5 ADD CALLDATACOPY PUSH1 0x0 DUP3 DUP3 ADD DUP5 ADD MSTORE PUSH1 0x1F ADD PUSH1 0x1F NOT AND ADD ADD SWAP1 JUMP JUMPDEST PUSH1 0xFF PUSH1 0x1 SLOAD AND PUSH2 0x6D0F JUMPI JUMP JUMPDEST PUSH1 0x40 MLOAD PUSH4 0xD93C0665 PUSH1 0xE0 SHL DUP2 MSTORE PUSH1 0x4 SWAP1 REVERT JUMPDEST SWAP1 DUP2 PUSH1 0x20 SWAP2 SUB SLT PUSH2 0x2BF1 JUMPI MLOAD DUP1 ISZERO ISZERO DUP2 SUB PUSH2 0x2BF1 JUMPI SWAP1 JUMP JUMPDEST ISZERO PUSH2 0x6D40 JUMPI JUMP JUMPDEST PUSH1 0x40 MLOAD PUSH3 0x461BCD PUSH1 0xE5 SHL DUP2 MSTORE PUSH1 0x20 PUSH1 0x4 DUP3 ADD MSTORE PUSH1 0xF PUSH1 0x24 DUP3 ADD MSTORE PUSH15 0x151C985B9CD9995C8819985A5B1959 PUSH1 0x8A SHL PUSH1 0x44 DUP3 ADD MSTORE PUSH1 0x64 SWAP1 REVERT JUMPDEST PUSH1 0x0 NOT DUP2 EQ PUSH2 0x6C54 JUMPI PUSH1 0x1 ADD SWAP1 JUMP JUMPDEST PUSH1 0x0 DUP1 MLOAD PUSH1 0x20 PUSH2 0x74B9 DUP4 CODECOPY DUP2 MLOAD SWAP2 MSTORE PUSH1 0x2 DUP2 SLOAD EQ PUSH2 0x6DA4 JUMPI PUSH1 0x2 SWAP1 SSTORE JUMP JUMPDEST PUSH1 0x40 MLOAD PUSH4 0x3EE5AEB5 PUSH1 0xE0 SHL DUP2 MSTORE PUSH1 0x4 SWAP1 REVERT JUMPDEST ISZERO PUSH2 0x6DBD JUMPI JUMP JUMPDEST PUSH1 0x40 MLOAD PUSH3 0x461BCD PUSH1 0xE5 SHL DUP2 MSTORE PUSH1 0x20 PUSH1 0x4 DUP3 ADD MSTORE PUSH1 0x12 PUSH1 0x24 DUP3 ADD MSTORE PUSH18 0x496E73756666696369656E74207374616B65 PUSH1 0x70 SHL PUSH1 0x44 DUP3 ADD MSTORE PUSH1 0x64 SWAP1 REVERT JUMPDEST SWAP2 SWAP1 DUP3 SUB SWAP2 DUP3 GT PUSH2 0x6C54 JUMPI JUMP JUMPDEST DUP1 ISZERO PUSH2 0x6C54 JUMPI PUSH1 0x0 NOT ADD SWAP1 JUMP JUMPDEST DUP2 DUP2 MUL SWAP3 SWAP2 DUP2 ISZERO SWAP2 DUP5 DIV EQ OR ISZERO PUSH2 0x6C54 JUMPI JUMP JUMPDEST PUSH1 0x1 DUP2 ADD SLOAD DUP1 ISZERO PUSH2 0x6E7C JUMPI PUSH1 0x2 DUP3 ADD SLOAD SWAP1 PUSH2 0x2710 SWAP2 DUP3 DUP2 MUL SWAP3 DUP2 DUP5 DIV EQ SWAP1 ISZERO OR ISZERO PUSH2 0x6C54 JUMPI PUSH1 0x4 SWAP2 DIV SWAP2 ADD SLOAD PUSH2 0x1F4 SWAP1 DUP2 DUP2 MUL SWAP2 DUP2 DUP4 DIV EQ SWAP1 ISZERO OR ISZERO PUSH2 0x6C54 JUMPI PUSH1 0x0 SWAP2 DUP2 DUP2 GT ISZERO PUSH2 0x6A81 JUMPI PUSH2 0x6E79 SWAP3 POP PUSH2 0x6DF7 JUMP JUMPDEST SWAP1 JUMP JUMPDEST POP POP PUSH2 0x1388 SWAP1 JUMP JUMPDEST PUSH1 0x1 PUSH1 0x1 PUSH1 0xA0 SHL SUB AND PUSH1 0x0 SWAP1 DUP2 MSTORE PUSH1 0x9 PUSH1 0x20 MSTORE PUSH1 0x40 SWAP1 KECCAK256 PUSH1 0x5 DUP2 ADD SLOAD PUSH1 0xFF AND ISZERO PUSH2 0x6EE0 JUMPI PUSH1 0x3 DUP2 SLOAD SWAP2 ADD SLOAD SWAP1 PUSH2 0x2710 SWAP2 DUP3 DUP2 MUL SWAP3 DUP2 DUP5 DIV EQ SWAP1 ISZERO OR ISZERO PUSH2 0x6C54 JUMPI PUSH10 0x21E19E0C9BAB2400000 PUSH2 0x6EDA SWAP3 DIV SWAP1 PUSH2 0x6C47 JUMP JUMPDEST PUSH1 0x1 SHR SWAP1 JUMP JUMPDEST POP PUSH1 0x0 SWAP1 JUMP JUMPDEST ISZERO PUSH2 0x6EED JUMPI JUMP JUMPDEST PUSH1 0x40 MLOAD PUSH3 0x461BCD PUSH1 0xE5 SHL DUP2 MSTORE PUSH1 0x20 PUSH1 0x4 DUP3 ADD MSTORE PUSH1 0x12 PUSH1 0x24 DUP3 ADD MSTORE PUSH18 0x145D595CDD1A5BDB881B9BDD08199BDD5B99 PUSH1 0x72 SHL PUSH1 0x44 DUP3 ADD MSTORE PUSH1 0x64 SWAP1 REVERT JUMPDEST ISZERO PUSH2 0x6F2E JUMPI JUMP JUMPDEST PUSH1 0x40 MLOAD PUSH3 0x461BCD PUSH1 0xE5 SHL DUP2 MSTORE PUSH1 0x20 PUSH1 0x4 DUP3 ADD MSTORE PUSH1 0xE PUSH1 0x24 DUP3 ADD MSTORE PUSH14 0x496E76616C696420737461747573 PUSH1 0x90 SHL PUSH1 0x44 DUP3 ADD MSTORE PUSH1 0x64 SWAP1 REVERT JUMPDEST SWAP1 PUSH2 0x6F6E DUP2 PUSH2 0x6720 JUMP JUMPDEST PUSH1 0xFF DUP1 NOT DUP4 SLOAD AND SWAP2 AND OR SWAP1 SSTORE JUMP JUMPDEST PUSH1 0x0 DUP2 DUP2 MSTORE PUSH1 0x2 PUSH1 0x20 MSTORE PUSH1 0x40 DUP2 KECCAK256 PUSH1 0xE DUP2 ADD SWAP1 DUP2 SLOAD SWAP3 PUSH1 0xFF DUP5 PUSH1 0x8 SHR AND SWAP4 PUSH1 0xFF DUP2 AND PUSH2 0x6FA7 DUP2 PUSH2 0x67EC JUMP JUMPDEST DUP1 PUSH2 0x705E JUMPI POP POP PUSH1 0x4 DUP5 LT ISZERO PUSH2 0x704A JUMPI POP SWAP2 PUSH2 0x7017 PUSH1 0xFF PUSH1 0x40 SWAP4 PUSH1 0x0 DUP1 MLOAD PUSH1 0x20 PUSH2 0x7499 DUP4 CODECOPY DUP2 MLOAD SWAP2 MSTORE SWAP6 DUP5 ISZERO PUSH1 0x0 EQ PUSH2 0x701A JUMPI DUP2 SLOAD PUSH2 0xFF00 NOT AND PUSH2 0x100 OR DUP3 SSTORE PUSH1 0x6 ADD DUP1 SLOAD PUSH1 0xA0 DUP5 SWAP1 SHL NOT AND PUSH1 0x3 PUSH1 0xA1 SHL OR SWAP1 SSTORE JUMPDEST SLOAD PUSH1 0x8 SHR AND PUSH2 0x700D DUP5 MLOAD DUP1 SWAP5 PUSH2 0x67F6 JUMP JUMPDEST PUSH1 0x20 DUP4 ADD SWAP1 PUSH2 0x67F6 JUMP JUMPDEST LOG2 JUMP JUMPDEST PUSH1 0x1 DUP6 EQ PUSH2 0x7029 JUMPI JUMPDEST POP PUSH2 0x6FFC JUMP JUMPDEST DUP2 SLOAD PUSH2 0xFF00 NOT AND PUSH2 0x200 OR DUP3 SSTORE PUSH1 0x6 ADD DUP1 SLOAD PUSH1 0xA0 DUP5 SWAP1 SHL NOT AND SWAP1 SSTORE CODESIZE PUSH2 0x7023 JUMP JUMPDEST PUSH4 0x4E487B71 PUSH1 0xE0 SHL DUP2 MSTORE PUSH1 0x21 PUSH1 0x4 MSTORE PUSH1 0x24 SWAP1 REVERT JUMPDEST DUP1 PUSH2 0x706A PUSH1 0x1 SWAP3 PUSH2 0x67EC JUMP JUMPDEST SUB PUSH2 0x709F JUMPI POP PUSH1 0x4 DUP5 LT ISZERO PUSH2 0x704A JUMPI POP SWAP2 PUSH2 0x7017 PUSH1 0xFF PUSH1 0x40 SWAP4 PUSH1 0x0 DUP1 MLOAD PUSH1 0x20 PUSH2 0x7499 DUP4 CODECOPY DUP2 MLOAD SWAP2 MSTORE SWAP6 DUP5 ISZERO PUSH2 0x7029 JUMPI POP PUSH2 0x6FFC JUMP JUMPDEST PUSH2 0xFF00 NOT AND PUSH2 0x200 OR DUP4 SSTORE POP PUSH1 0x6 ADD DUP1 SLOAD PUSH1 0xFF PUSH1 0xA0 SHL NOT AND SWAP1 SSTORE PUSH1 0x0 DUP1 MLOAD PUSH1 0x20 PUSH2 0x7499 DUP4 CODECOPY DUP2 MLOAD SWAP2 MSTORE SWAP2 PUSH1 0x40 SWAP2 PUSH2 0x7017 SWAP1 PUSH1 0xFF SWAP1 PUSH2 0x6FFC JUMP JUMPDEST ISZERO PUSH2 0x70DF JUMPI JUMP JUMPDEST PUSH1 0x40 MLOAD PUSH3 0x461BCD PUSH1 0xE5 SHL DUP2 MSTORE PUSH1 0x20 PUSH1 0x4 DUP3 ADD MSTORE PUSH1 0x12 PUSH1 0x24 DUP3 ADD MSTORE PUSH18 0x28BAB2B9BA34B7B71034B990333937BD32B7 PUSH1 0x71 SHL PUSH1 0x44 DUP3 ADD MSTORE PUSH1 0x64 SWAP1 REVERT JUMPDEST ISZERO PUSH2 0x7120 JUMPI JUMP JUMPDEST PUSH1 0x40 MLOAD PUSH3 0x461BCD PUSH1 0xE5 SHL DUP2 MSTORE PUSH1 0x20 PUSH1 0x4 DUP3 ADD MSTORE PUSH1 0x14 PUSH1 0x24 DUP3 ADD MSTORE PUSH20 0x109BDB99081D1C985B9CD9995C8819985A5B1959 PUSH1 0x62 SHL PUSH1 0x44 DUP3 ADD MSTORE PUSH1 0x64 SWAP1 REVERT JUMPDEST ISZERO PUSH2 0x7163 JUMPI JUMP JUMPDEST PUSH1 0x40 MLOAD PUSH3 0x461BCD PUSH1 0xE5 SHL DUP2 MSTORE PUSH1 0x20 PUSH1 0x4 DUP3 ADD MSTORE PUSH1 0x15 PUSH1 0x24 DUP3 ADD MSTORE PUSH21 0x4E6F7420696E20636F6D6D756E69747920766F7465 PUSH1 0x58 SHL PUSH1 0x44 DUP3 ADD MSTORE PUSH1 0x64 SWAP1 REVERT JUMPDEST ISZERO PUSH2 0x71A7 JUMPI JUMP JUMPDEST PUSH1 0x40 MLOAD PUSH3 0x461BCD PUSH1 0xE5 SHL DUP2 MSTORE PUSH1 0x20 PUSH1 0x4 DUP3 ADD MSTORE PUSH1 0x16 PUSH1 0x24 DUP3 ADD MSTORE PUSH22 0x2737BA1030B71030B1BA34BB32903932B9B7B63B32B9 PUSH1 0x51 SHL PUSH1 0x44 DUP3 ADD MSTORE PUSH1 0x64 SWAP1 REVERT JUMPDEST SWAP1 DUP1 DUP3 EQ PUSH2 0x72B9 JUMPI PUSH2 0x71F7 DUP2 SLOAD PUSH2 0x6640 JUMP JUMPDEST SWAP1 PUSH1 0x1 PUSH1 0x1 PUSH1 0x40 SHL SUB DUP3 GT PUSH2 0x37DB JUMPI DUP2 SWAP1 PUSH2 0x7216 DUP3 PUSH2 0xA48 DUP7 SLOAD PUSH2 0x6640 JUMP JUMPDEST PUSH1 0x0 SWAP1 PUSH1 0x1F DUP4 GT PUSH1 0x1 EQ PUSH2 0x724D JUMPI PUSH1 0x0 SWAP3 PUSH2 0x7242 JUMPI JUMPDEST POP POP DUP2 PUSH1 0x1 SHL SWAP2 PUSH1 0x0 NOT SWAP1 PUSH1 0x3 SHL SHR NOT AND OR SWAP1 SSTORE JUMP JUMPDEST ADD SLOAD SWAP1 POP CODESIZE DUP1 PUSH2 0x722C JUMP JUMPDEST DUP2 MSTORE PUSH1 0x20 DUP1 DUP3 KECCAK256 DUP6 DUP4 MSTORE DUP2 DUP4 KECCAK256 SWAP4 POP SWAP1 PUSH1 0x1F NOT DUP6 AND SWAP1 DUP4 SWAP1 JUMPDEST DUP3 DUP3 LT PUSH2 0x72A0 JUMPI POP POP SWAP1 DUP5 PUSH1 0x1 SWAP6 SWAP5 SWAP4 SWAP3 LT PUSH2 0x7287 JUMPI JUMPDEST POP POP POP DUP2 SHL ADD SWAP1 SSTORE JUMP JUMPDEST ADD SLOAD PUSH1 0x0 NOT PUSH1 0xF8 DUP5 PUSH1 0x3 SHL AND SHR NOT AND SWAP1 SSTORE CODESIZE DUP1 DUP1 PUSH2 0x727D JUMP JUMPDEST DUP5 SWAP6 DUP2 SWAP3 SWAP6 DUP6 ADD SLOAD DUP2 SSTORE PUSH1 0x1 DUP1 SWAP2 ADD SWAP7 ADD SWAP5 ADD SWAP1 PUSH2 0x7266 JUMP JUMPDEST POP POP JUMP JUMPDEST SWAP2 SWAP1 SWAP5 SWAP4 SWAP3 SWAP5 PUSH2 0x72CC DUP2 PUSH2 0x6720 JUMP JUMPDEST DUP3 MSTORE PUSH1 0x20 SWAP1 PUSH1 0x80 DUP3 DUP5 ADD MSTORE PUSH1 0x0 SWAP2 DUP2 SLOAD PUSH2 0x72E5 DUP2 PUSH2 0x6640 JUMP JUMPDEST SWAP3 DUP4 PUSH1 0x80 DUP8 ADD MSTORE PUSH1 0x1 SWAP2 DUP3 DUP2 AND SWAP1 DUP2 PUSH1 0x0 EQ PUSH2 0x7358 JUMPI POP PUSH1 0x1 EQ PUSH2 0x731E JUMPI JUMPDEST POP POP POP POP SWAP1 PUSH1 0x60 SWAP2 SWAP5 PUSH1 0x1 DUP1 PUSH1 0xA0 SHL SUB AND PUSH1 0x40 DUP3 ADD MSTORE ADD MSTORE JUMP JUMPDEST PUSH1 0x0 SWAP1 DUP2 MSTORE DUP3 DUP2 KECCAK256 SWAP1 SWAP5 POP JUMPDEST DUP4 DUP6 LT PUSH2 0x7344 JUMPI POP POP POP POP DUP2 ADD PUSH1 0xA0 ADD PUSH1 0x60 CODESIZE DUP1 DUP1 PUSH2 0x7304 JUMP JUMPDEST DUP1 SLOAD DUP7 DUP7 ADD PUSH1 0xA0 ADD MSTORE SWAP4 DUP3 ADD SWAP4 DUP2 ADD PUSH2 0x732A JUMP JUMPDEST SWAP3 POP POP POP PUSH1 0x60 SWAP5 SWAP4 POP PUSH1 0xA0 SWAP3 SWAP2 POP PUSH1 0xFF NOT AND DUP3 DUP5 ADD MSTORE ISZERO ISZERO PUSH1 0x5 SHL DUP3 ADD ADD SWAP1 SWAP2 CODESIZE DUP1 DUP1 PUSH2 0x7304 JUMP JUMPDEST ISZERO PUSH2 0x7387 JUMPI JUMP JUMPDEST PUSH1 0x40 MLOAD PUSH3 0x461BCD PUSH1 0xE5 SHL DUP2 MSTORE PUSH1 0x20 PUSH1 0x4 DUP3 ADD MSTORE PUSH1 0xF PUSH1 0x24 DUP3 ADD MSTORE PUSH15 0x155350481B9BDD08195B98589B1959 PUSH1 0x8A SHL PUSH1 0x44 DUP3 ADD MSTORE PUSH1 0x64 SWAP1 REVERT JUMPDEST PUSH1 0x0 SWAP3 SWAP2 DUP2 SLOAD PUSH2 0x73CD DUP2 PUSH2 0x6640 JUMP JUMPDEST SWAP3 PUSH1 0x1 SWAP2 DUP1 DUP4 AND SWAP1 DUP2 ISZERO PUSH2 0x7426 JUMPI POP PUSH1 0x1 EQ PUSH2 0x73EA JUMPI JUMPDEST POP POP POP POP JUMP JUMPDEST SWAP1 SWAP2 SWAP3 SWAP4 SWAP5 POP PUSH1 0x0 MSTORE PUSH1 0x20 SWAP1 DUP2 PUSH1 0x0 KECCAK256 SWAP1 PUSH1 0x0 SWAP2 JUMPDEST DUP6 DUP4 LT PUSH2 0x7415 JUMPI POP POP POP POP ADD SWAP1 CODESIZE DUP1 DUP1 DUP1 PUSH2 0x73E4 JUMP JUMPDEST DUP1 SLOAD DUP6 DUP5 ADD MSTORE SWAP2 DUP4 ADD SWAP2 DUP2 ADD PUSH2 0x73FF JUMP JUMPDEST PUSH1 0xFF NOT AND DUP5 MSTORE POP POP POP DUP2 ISZERO ISZERO SWAP1 SWAP2 MUL ADD SWAP2 POP CODESIZE DUP1 DUP1 DUP1 PUSH2 0x73E4 JUMP JUMPDEST PUSH1 0x1 PUSH1 0x1 PUSH1 0x40 SHL SUB DUP2 GT PUSH2 0x37DB JUMPI PUSH1 0x5 SHL PUSH1 0x20 ADD SWAP1 JUMP INVALID 0xEB BALANCE SAR SWAP4 SDIV 0xDB SWAP2 SWAP10 0xC9 NOT 0xB8 SWAP13 0xEB PUSH30 0x9490C670A46AE88045D04B3FF29589DB25C892A19C77D2EA87C7F81D50C7 PREVRANDAO SUB 0xCB 0x2F BLOCKHASH OR DUP1 RETURN 0xAD SWAP2 SWAP6 PUSH18 0x121EFE2BDB427EB1DB7FA502135A70AA8FEE EXTCODEHASH 0xAE SWAP12 0xAB STOP SWAP15 KECCAK256 SLT PUSH19 0xA173D618DA883281E0280FE9079B779B17422D 0xD 0xF9 0x22 0x23 ADD DUP12 ORIGIN 0xB4 0xD1 STATICCALL CHAINID 0xE0 PUSH18 0x723D6817E2486D003BECC55F00A264697066 PUSH20 0x5822122014CBB2A0402398C8A1CE3C8A2B649D8F 0xB4 BLOCKHASH 0xB4 PUSH0 0xC1 0x4F DUP9 LT ISZERO 0xB1 0xD6 INVALID DUP4 0xB3 0xD7 DUP13 PUSH5 0x736F6C6343 STOP ADDMOD EQ STOP CALLER 0x2F DUP8 DUP9 GT PUSH31 0x7EFF1D82E926EC794901D17C78024A50270940304540A733656F0D00000000 "},"methodIdentifiers":{"ADMIN_ROLE()":"75b238fc","AI_ORACLE_ROLE()":"c601f7af","ARBITER_ROLE()":"4d104adf","AUTO_FREEZE_THRESHOLD()":"9098b373","DEFAULT_ADMIN_ROLE()":"a217fddf","DISPUTE_BOND()":"4c68ae63","DISPUTE_WINDOW()":"f585dc57","EVIDENCE_BOND()":"5f29e6be","MAX_REPUTATION()":"d213c0f2","MIN_EVIDENCE()":"f1e99f66","MIN_RESOLVER_STAKE()":"712255ec","RESOLVER_ROLE()":"78fab260","SLASH_PENALTY()":"0dc7c70c","TIMELOCK_PERIOD()":"4a5bcbf8","VERDICT_BOND()":"c0f87302","VERSION()":"ffa1ad74","YES_OR_NO_IDENTIFIER()":"6c66f07d","aiAnalyses(bytes32)":"1c4c0155","aiConfidenceThreshold()":"0ba882c3","allIds(uint256)":"692776ea","approveVerdict(bytes32,bytes32)":"62af3da3","cancelQuestion(bytes32,string)":"f98e1ff9","castCommunityVote(bytes32,uint8)":"7cdfcc02","communityVotes(bytes32,address)":"0ff6d8fd","createQuestion(string,string,string,uint256,uint8)":"f51ac7ab","disputes(bytes32,uint256)":"aeb2a19f","emergencyPause()":"51858e27","emergencyUnpause()":"4a4e3bd5","enableUMA(address)":"95e8c136","evidence(bytes32,uint256)":"b70739c6","executeVerdict(bytes32)":"72b60afc","finalizeCommunityVote(bytes32)":"78d52fde","freezeQuestion(bytes32,string)":"f8bb87f1","getAIAnalysis(bytes32)":"7faa19f3","getAllIds()":"aaa44e5c","getDisputes(bytes32)":"d19d3661","getEvidence(bytes32)":"4a7221a0","getProposal(bytes32)":"430694cf","getProposalWeight(bytes32)":"09b3746e","getQuestion(bytes32)":"58c039cd","getResolver(address)":"5392c157","getResolverWeight(address)":"ffd703b7","getRoleAdmin(bytes32)":"248a9ca3","grantRole(bytes32,address)":"2f2ff15d","hasApproved(bytes32,address)":"23cdc3f1","hasDisputed(bytes32,address)":"38e7ed08","hasRole(bytes32,address)":"91d14854","hasVoted(bytes32,address)":"aadc3b72","paused()":"5c975abb","plkyToken()":"4ecac430","proposals(bytes32)":"32ed5b12","proposeVerdict(bytes32,uint8,string,string)":"72fad066","questions(bytes32)":"95addb90","quorumThreshold()":"7b7a91dd","raiseDispute(bytes32,string,string)":"3a8471f6","renounceRole(bytes32,address)":"36568abe","requestUMAResolution(bytes32)":"0adb6ca9","resolveDispute(bytes32,uint256,string,bool)":"ae5b545f","resolverCount()":"a674b197","resolverList(uint256)":"612f2a21","resolvers(address)":"b93793e9","revokeRole(bytes32,address)":"d547741f","setAIThreshold(uint256)":"c35e452c","setQuorum(uint256)":"c1ba4e59","setTreasury(address)":"f0f44260","settleUMAResolution(bytes32)":"200a3be1","slashResolver(address,uint256,string)":"08ee0005","stakeAsResolver(uint256)":"efb50135","submitAIAnalysis(bytes32,uint256,uint8,string,uint256,uint256,uint256)":"66cfa599","submitEvidence(bytes32,string,string,uint8)":"87db9a3e","supportsInterface(bytes4)":"01ffc9a7","totalQuestions()":"bea5b914","treasury()":"61d027b3","umaEnabled()":"ac346451","umaOracle()":"5ff474c2","unfreezeQuestion(bytes32)":"ede25ad7","unstakeAsResolver(uint256)":"65bdb2ec","withdrawStuckTokens(address,uint256)":"bd61f0a6"}}}}}