{"contracts/PlokyResolverLite.sol":{"PlokyResolverLite":{"abi":[{"inputs":[{"internalType":"address","name":"_plky","type":"address"},{"internalType":"address","name":"_admin","type":"address"},{"internalType":"uint256","name":"_quorum","type":"uint256"}],"stateMutability":"nonpayable","type":"constructor"},{"inputs":[],"name":"AccessControlBadConfirmation","type":"error"},{"inputs":[{"internalType":"address","name":"account","type":"address"},{"internalType":"bytes32","name":"neededRole","type":"bytes32"}],"name":"AccessControlUnauthorizedAccount","type":"error"},{"inputs":[],"name":"ReentrancyGuardReentrantCall","type":"error"},{"anonymous":false,"inputs":[{"indexed":false,"internalType":"bytes32","name":"qId","type":"bytes32"},{"indexed":false,"internalType":"uint256","name":"confidence","type":"uint256"},{"indexed":false,"internalType":"uint8","name":"outcome","type":"uint8"}],"name":"AIAnalysis","type":"event"},{"anonymous":false,"inputs":[{"indexed":false,"internalType":"bytes32","name":"qId","type":"bytes32"},{"indexed":false,"internalType":"uint256","name":"idx","type":"uint256"},{"indexed":false,"internalType":"address","name":"disputer","type":"address"}],"name":"DisputeRaised","type":"event"},{"anonymous":false,"inputs":[{"indexed":false,"internalType":"bytes32","name":"qId","type":"bytes32"},{"indexed":false,"internalType":"uint256","name":"idx","type":"uint256"},{"indexed":false,"internalType":"bool","name":"accepted","type":"bool"}],"name":"DisputeResolved","type":"event"},{"anonymous":false,"inputs":[{"indexed":false,"internalType":"bytes32","name":"qId","type":"bytes32"},{"indexed":false,"internalType":"address","name":"submitter","type":"address"},{"indexed":false,"internalType":"bytes32","name":"cid","type":"bytes32"},{"indexed":false,"internalType":"uint8","name":"etype","type":"uint8"}],"name":"EvidenceSubmitted","type":"event"},{"anonymous":false,"inputs":[{"indexed":false,"internalType":"bytes32","name":"id","type":"bytes32"},{"indexed":false,"internalType":"address","name":"by","type":"address"}],"name":"QuestionCancelled","type":"event"},{"anonymous":false,"inputs":[{"indexed":false,"internalType":"bytes32","name":"id","type":"bytes32"},{"indexed":false,"internalType":"string","name":"title","type":"string"},{"indexed":false,"internalType":"address","name":"creator","type":"address"},{"indexed":false,"internalType":"uint256","name":"time","type":"uint256"},{"indexed":false,"internalType":"string","name":"category","type":"string"},{"indexed":false,"internalType":"uint8","name":"tier","type":"uint8"}],"name":"QuestionCreated","type":"event"},{"anonymous":false,"inputs":[{"indexed":true,"internalType":"bytes32","name":"role","type":"bytes32"},{"indexed":true,"internalType":"bytes32","name":"previousAdminRole","type":"bytes32"},{"indexed":true,"internalType":"bytes32","name":"newAdminRole","type":"bytes32"}],"name":"RoleAdminChanged","type":"event"},{"anonymous":false,"inputs":[{"indexed":true,"internalType":"bytes32","name":"role","type":"bytes32"},{"indexed":true,"internalType":"address","name":"account","type":"address"},{"indexed":true,"internalType":"address","name":"sender","type":"address"}],"name":"RoleGranted","type":"event"},{"anonymous":false,"inputs":[{"indexed":true,"internalType":"bytes32","name":"role","type":"bytes32"},{"indexed":true,"internalType":"address","name":"account","type":"address"},{"indexed":true,"internalType":"address","name":"sender","type":"address"}],"name":"RoleRevoked","type":"event"},{"anonymous":false,"inputs":[{"indexed":false,"internalType":"address","name":"resolver","type":"address"},{"indexed":false,"internalType":"uint256","name":"amount","type":"uint256"}],"name":"Staked","type":"event"},{"anonymous":false,"inputs":[{"indexed":false,"internalType":"address","name":"resolver","type":"address"},{"indexed":false,"internalType":"uint256","name":"amount","type":"uint256"}],"name":"Unstaked","type":"event"},{"anonymous":false,"inputs":[{"indexed":false,"internalType":"bytes32","name":"qId","type":"bytes32"},{"indexed":false,"internalType":"bytes32","name":"pid","type":"bytes32"},{"indexed":false,"internalType":"address","name":"approver","type":"address"}],"name":"VerdictApproved","type":"event"},{"anonymous":false,"inputs":[{"indexed":false,"internalType":"bytes32","name":"qId","type":"bytes32"},{"indexed":false,"internalType":"uint8","name":"outcome","type":"uint8"},{"indexed":false,"internalType":"address","name":"executor","type":"address"}],"name":"VerdictExecuted","type":"event"},{"anonymous":false,"inputs":[{"indexed":false,"internalType":"bytes32","name":"qId","type":"bytes32"},{"indexed":false,"internalType":"bytes32","name":"pid","type":"bytes32"},{"indexed":false,"internalType":"uint8","name":"outcome","type":"uint8"},{"indexed":false,"internalType":"address","name":"proposer","type":"address"}],"name":"VerdictProposed","type":"event"},{"inputs":[],"name":"AI_ORACLE_ROLE","outputs":[{"internalType":"bytes32","name":"","type":"bytes32"}],"stateMutability":"view","type":"function"},{"inputs":[],"name":"ARBITER_ROLE","outputs":[{"internalType":"bytes32","name":"","type":"bytes32"}],"stateMutability":"view","type":"function"},{"inputs":[],"name":"DEFAULT_ADMIN_ROLE","outputs":[{"internalType":"bytes32","name":"","type":"bytes32"}],"stateMutability":"view","type":"function"},{"inputs":[],"name":"DISPUTE_BOND","outputs":[{"internalType":"uint256","name":"","type":"uint256"}],"stateMutability":"view","type":"function"},{"inputs":[],"name":"RESOLVER_ROLE","outputs":[{"internalType":"bytes32","name":"","type":"bytes32"}],"stateMutability":"view","type":"function"},{"inputs":[],"name":"STAKE_MIN","outputs":[{"internalType":"uint256","name":"","type":"uint256"}],"stateMutability":"view","type":"function"},{"inputs":[],"name":"VERDICT_BOND","outputs":[{"internalType":"uint256","name":"","type":"uint256"}],"stateMutability":"view","type":"function"},{"inputs":[{"internalType":"bytes32","name":"qId","type":"bytes32"},{"internalType":"bytes32","name":"pid","type":"bytes32"}],"name":"approveVerdict","outputs":[],"stateMutability":"nonpayable","type":"function"},{"inputs":[{"internalType":"bytes32","name":"qId","type":"bytes32"}],"name":"cancelQuestion","outputs":[],"stateMutability":"nonpayable","type":"function"},{"inputs":[{"internalType":"string","name":"title","type":"string"},{"internalType":"bytes32","name":"evidenceCID","type":"bytes32"},{"internalType":"string","name":"category","type":"string"},{"internalType":"uint256","name":"resolutionTime","type":"uint256"},{"internalType":"enum PlokyResolverLite.Tier","name":"tier","type":"uint8"}],"name":"createQuestion","outputs":[{"internalType":"bytes32","name":"","type":"bytes32"}],"stateMutability":"nonpayable","type":"function"},{"inputs":[{"internalType":"bytes32","name":"","type":"bytes32"},{"internalType":"uint256","name":"","type":"uint256"}],"name":"disputes","outputs":[{"internalType":"address","name":"disputer","type":"address"},{"internalType":"string","name":"reason","type":"string"},{"internalType":"bytes32","name":"evidenceCID","type":"bytes32"},{"internalType":"uint256","name":"bondAmount","type":"uint256"},{"internalType":"bool","name":"resolved","type":"bool"},{"internalType":"bool","name":"bondReturned","type":"bool"}],"stateMutability":"view","type":"function"},{"inputs":[{"internalType":"bytes32","name":"qId","type":"bytes32"}],"name":"executeVerdict","outputs":[],"stateMutability":"nonpayable","type":"function"},{"inputs":[],"name":"getAllIds","outputs":[{"internalType":"bytes32[]","name":"","type":"bytes32[]"}],"stateMutability":"view","type":"function"},{"inputs":[{"internalType":"bytes32","name":"qId","type":"bytes32"}],"name":"getDisputes","outputs":[{"components":[{"internalType":"address","name":"disputer","type":"address"},{"internalType":"string","name":"reason","type":"string"},{"internalType":"bytes32","name":"evidenceCID","type":"bytes32"},{"internalType":"uint256","name":"bondAmount","type":"uint256"},{"internalType":"bool","name":"resolved","type":"bool"},{"internalType":"bool","name":"bondReturned","type":"bool"}],"internalType":"struct PlokyResolverLite.Dispute[]","name":"","type":"tuple[]"}],"stateMutability":"view","type":"function"},{"inputs":[],"name":"getQuestionCount","outputs":[{"internalType":"uint256","name":"","type":"uint256"}],"stateMutability":"view","type":"function"},{"inputs":[{"internalType":"bytes32","name":"role","type":"bytes32"}],"name":"getRoleAdmin","outputs":[{"internalType":"bytes32","name":"","type":"bytes32"}],"stateMutability":"view","type":"function"},{"inputs":[{"internalType":"bytes32","name":"role","type":"bytes32"},{"internalType":"address","name":"account","type":"address"}],"name":"grantRole","outputs":[],"stateMutability":"nonpayable","type":"function"},{"inputs":[{"internalType":"bytes32","name":"role","type":"bytes32"},{"internalType":"address","name":"account","type":"address"}],"name":"hasRole","outputs":[{"internalType":"bool","name":"","type":"bool"}],"stateMutability":"view","type":"function"},{"inputs":[],"name":"plkyToken","outputs":[{"internalType":"contract IERC20","name":"","type":"address"}],"stateMutability":"view","type":"function"},{"inputs":[{"internalType":"bytes32","name":"","type":"bytes32"}],"name":"proposals","outputs":[{"internalType":"enum PlokyResolverLite.Outcome","name":"outcome","type":"uint8"},{"internalType":"bytes32","name":"reasonCID","type":"bytes32"},{"internalType":"uint256","name":"approvals","type":"uint256"},{"internalType":"uint256","name":"required","type":"uint256"},{"internalType":"uint256","name":"timelockUntil","type":"uint256"},{"internalType":"bool","name":"executed","type":"bool"},{"internalType":"address","name":"proposer","type":"address"}],"stateMutability":"view","type":"function"},{"inputs":[{"internalType":"bytes32","name":"qId","type":"bytes32"},{"internalType":"enum PlokyResolverLite.Outcome","name":"outcome","type":"uint8"},{"internalType":"bytes32","name":"reasonCID","type":"bytes32"}],"name":"proposeVerdict","outputs":[],"stateMutability":"nonpayable","type":"function"},{"inputs":[{"internalType":"uint256","name":"","type":"uint256"}],"name":"questionIds","outputs":[{"internalType":"bytes32","name":"","type":"bytes32"}],"stateMutability":"view","type":"function"},{"inputs":[{"internalType":"bytes32","name":"","type":"bytes32"}],"name":"questions","outputs":[{"internalType":"string","name":"title","type":"string"},{"internalType":"bytes32","name":"evidenceCID","type":"bytes32"},{"internalType":"uint256","name":"resolutionTime","type":"uint256"},{"internalType":"enum PlokyResolverLite.QStatus","name":"status","type":"uint8"},{"internalType":"enum PlokyResolverLite.Outcome","name":"outcome","type":"uint8"},{"internalType":"enum PlokyResolverLite.Tier","name":"tier","type":"uint8"},{"internalType":"uint256","name":"disputeCount","type":"uint256"},{"internalType":"bool","name":"isFrozen","type":"bool"},{"internalType":"address","name":"resolvedBy","type":"address"},{"internalType":"bytes32","name":"activeProposalId","type":"bytes32"},{"internalType":"uint256","name":"aiConfidence","type":"uint256"},{"internalType":"enum PlokyResolverLite.Outcome","name":"aiOutcome","type":"uint8"}],"stateMutability":"view","type":"function"},{"inputs":[],"name":"quorum","outputs":[{"internalType":"uint256","name":"","type":"uint256"}],"stateMutability":"view","type":"function"},{"inputs":[{"internalType":"bytes32","name":"qId","type":"bytes32"},{"internalType":"string","name":"reason","type":"string"},{"internalType":"bytes32","name":"evidenceCID","type":"bytes32"}],"name":"raiseDispute","outputs":[],"stateMutability":"nonpayable","type":"function"},{"inputs":[{"internalType":"bytes32","name":"role","type":"bytes32"},{"internalType":"address","name":"callerConfirmation","type":"address"}],"name":"renounceRole","outputs":[],"stateMutability":"nonpayable","type":"function"},{"inputs":[{"internalType":"bytes32","name":"qId","type":"bytes32"},{"internalType":"uint256","name":"idx","type":"uint256"},{"internalType":"bool","name":"accept","type":"bool"}],"name":"resolveDispute","outputs":[],"stateMutability":"nonpayable","type":"function"},{"inputs":[{"internalType":"bytes32","name":"role","type":"bytes32"},{"internalType":"address","name":"account","type":"address"}],"name":"revokeRole","outputs":[],"stateMutability":"nonpayable","type":"function"},{"inputs":[{"internalType":"uint256","name":"amount","type":"uint256"}],"name":"stake","outputs":[],"stateMutability":"nonpayable","type":"function"},{"inputs":[{"internalType":"address","name":"","type":"address"}],"name":"stakes","outputs":[{"internalType":"uint256","name":"","type":"uint256"}],"stateMutability":"view","type":"function"},{"inputs":[{"internalType":"bytes32","name":"qId","type":"bytes32"},{"internalType":"uint256","name":"confidence","type":"uint256"},{"internalType":"enum PlokyResolverLite.Outcome","name":"outcome","type":"uint8"}],"name":"submitAIAnalysis","outputs":[],"stateMutability":"nonpayable","type":"function"},{"inputs":[{"internalType":"bytes32","name":"qId","type":"bytes32"},{"internalType":"bytes32","name":"cid","type":"bytes32"},{"internalType":"uint8","name":"etype","type":"uint8"}],"name":"submitEvidence","outputs":[],"stateMutability":"nonpayable","type":"function"},{"inputs":[{"internalType":"bytes4","name":"interfaceId","type":"bytes4"}],"name":"supportsInterface","outputs":[{"internalType":"bool","name":"","type":"bool"}],"stateMutability":"view","type":"function"},{"inputs":[{"internalType":"uint256","name":"amount","type":"uint256"}],"name":"unstake","outputs":[],"stateMutability":"nonpayable","type":"function"}],"evm":{"bytecode":{"linkReferences":{},"object":"608034620000e757601f62002ab038819003918201601f19168301916001600160401b03831184841017620000ec57808492606094604052833981010312620000e7578062000052620000d69262000102565b6040620000626020840162000102565b92015160017f9b779b17422d0df92223018b32b4d1fa46e071723d6817e2486d003becc55f0081905580546001600160a01b0319166001600160a01b0390931692909217909155600255620000b78162000117565b50620000c38162000197565b50620000cf8162000239565b50620002d6565b5060405161271c9081620003748239f35b600080fd5b634e487b7160e01b600052604160045260246000fd5b51906001600160a01b0382168203620000e757565b6001600160a01b031660008181527fad3228b676f7d3cd4284a5443f17f1962b36e491b30a40b2405849e597ba5fb5602052604081205490919060ff166200019357818052816020526040822081835260205260408220600160ff19825416179055339160008051602062002a908339815191528180a4600190565b5090565b6001600160a01b031660008181527f40da0f42a661166d5434d4603ecbff423639c47e2526ad0538d7c3517a62389060205260408120549091907f92a19c77d2ea87c7f81d50c74403cb2f401780f3ad919571121efe2bdb427eb19060ff166200023457808352826020526040832082845260205260408320600160ff1982541617905560008051602062002a90833981519152339380a4600190565b505090565b6001600160a01b031660008181527fc1c604b5add75b59252bca1e4e4ec4ab21f3921b1ddcf7a43abe69724bce555d60205260408120549091907f482648e7878e9fa54c0a2f67ffd22d00ebc37cf7a03e060e428d2ab0cd6735cc9060ff166200023457808352826020526040832082845260205260408320600160ff1982541617905560008051602062002a90833981519152339380a4600190565b6001600160a01b031660008181527f89777fffb7045c97177d1161cd08d871365cb73d0b18f242761255a7718434cf60205260408120549091907fbb08418a67729a078f87bbc8d02a770929bb68f5bfdf134ae2ead6ed38e2f4ae9060ff166200023457808352826020526040832082845260205260408320600160ff1982541617905560008051602062002a90833981519152339380a460019056fe608080604052600436101561001357600080fd5b60003560e01c90816301ffc9a7146120305750806316934fc414611ff25780631703a01814611fd45780631f5a772214611e60578063248a9ca314611e315780632e17de7814611c945780632f2ff15d14611c5557806332ed5b1214611bd157806336568abe14611b8a5780634bd659f614611ad25780634c68ae6314611aae5780634d104adf14611a735780634ecac43014611a4a578063607d56e51461168c57806362af3da3146115ae57806372b60afc1461135257806378fab260146113295780637ce6407414610f4c57806391d1485414610eff578063929f834f14610edb57806395addb9014610ddf578063a217fddf14610dc3578063a3e4857714610ae4578063a694fc3a14610984578063a7d4bb14146108b2578063aaa44e5c146107fc578063aeb2a19f14610759578063c0f8730214610735578063c601f7af146106fa578063d19d36611461056c578063d547741f1461052b578063dd41cc2f1461050d578063f0347783146104d65763faf0bbbf1461019557600080fd5b346104d15760603660031901126104d1576044356004358115156024358184036104d1576101c1612557565b3360009081527f89777fffb7045c97177d1161cd08d871365cb73d0b18f242761255a7718434cf60209081526040909120549094907fbb08418a67729a078f87bbc8d02a770929bb68f5bfdf134ae2ead6ed38e2f4ae9060ff16156104b357508360005260058552610237826040600020612232565b506004810191825460ff811661047b5760ff19166001178355869190156103ad57906102b49160018060a01b0361027f60038260015416928454169301548060011c9061254a565b60405163a9059cbb60e01b81526001600160a01b03909316600484015260248301529092839190829060009082906044820190565b03925af19081156103a157600091610374575b501561033f57907f4c4db9ec7a9b95f2193bd78549ba39d5f8e8f8e9947e7d57eab72d3219bbf60494606094939261010061ff00198254161790558360005260038152600360406000200161ffff1981541690555b6040519384528301526040820152a160016000805160206126c783398151915255005b60405162461bcd60e51b815260048101869052600d60248201526c14995dd85c990819985a5b1959609a1b6044820152606490fd5b6103949150863d881161039a575b61038c818361212a565b810190612532565b386102c7565b503d610382565b6040513d6000823e3d90fd5b6001546003919091015460405163a9059cbb60e01b815230600482015260248101919091529250829060449082906000906001600160a01b03165af19081156103a15760009161045e575b501561042a5790606092917f4c4db9ec7a9b95f2193bd78549ba39d5f8e8f8e9947e7d57eab72d3219bbf6049461031c565b60405162461bcd60e51b815260048101859052600c60248201526b14d95a5e994819985a5b195960a21b6044820152606490fd5b6104759150853d871161039a5761038c818361212a565b386103f8565b60405162461bcd60e51b815260048101899052601060248201526f105b1c9958591e481c995cdbdb1d995960821b6044820152606490fd5b6044906040519063e2517d3f60e01b82523360048301526024820152fd5b600080fd5b346104d15760203660031901126104d1576004356007548110156104d1576104ff602091612264565b90546040519160031b1c8152f35b346104d15760003660031901126104d1576020600754604051908152f35b346104d15760403660031901126104d15761056a60043561054a612083565b908060005260006020526105656001604060002001546122e5565b6124bd565b005b346104d1576020806003193601126104d1576004356000526005908181526040600020805467ffffffffffffffff81116106e45791604051926105b38282871b018561212a565b808452818401809360005282600020866000925b848410610672575050505050604051928184019082855251809152604081818601961b85010192916000955b8287106106005785850386f35b909192938280600192603f19898203018552875190848060a01b0382511681526106368383015160c080868501528301906121f2565b91604081015160408301526060808201519083015260808082015115159083015260a080910151151591015296019201960195929190926105f3565b90856001926040999799516106868161210e565b848060a01b03865416815261069c85870161214c565b838201526002860154604082015260038601546060820152600486015460ff908181161515608084015260081c16151560a082015281520192019201919087909694966105c7565b634e487b7160e01b600052604160045260246000fd5b346104d15760003660031901126104d15760206040517f482648e7878e9fa54c0a2f67ffd22d00ebc37cf7a03e060e428d2ab0cd6735cc8152f35b346104d15760003660031901126104d157602060405168056bc75e2d631000008152f35b346104d15760403660031901126104d157602435600435600052600560205260406000209081548110156104d15761079091612232565b5080546001600160a01b03166107a86001830161214c565b9160ff60028201549160046003820154910154906107d8604051968796875260c0602088015260c08701906121f2565b93604086015260608501528181161515608085015260081c16151560a08301520390f35b346104d15760003660031901126104d157604051806007548083526020809301809160076000527fa66cc928b5edb82af9bd49922954155ab7b0942694bea4ce44661d9a8736c6889060005b8682821061089e57868661085e8288038361212a565b604051928392818401908285525180915260408401929160005b82811061088757505050500390f35b835185528695509381019392810192600101610878565b835485529093019260019283019201610848565b346104d15760603660031901126104d1576004356044359060ff82168092036104d15780600052600360205260ff60036040600020015416600581101561096e57158015610945575b907fe78589e8c3eacc2906e3c5484fe3387c76e6016007be979e4cc966584b71416692610929608093612626565b60405191825233602083015260243560408301526060820152a1005b5080600052600360205260ff6003604060002001541690600582101561096e57906001146108fb565b634e487b7160e01b600052602160045260246000fd5b346104d1576020806003193601126104d15760043590683635c9adc5dea000008210610ab0576001546040516323b872dd60e01b815233600482015230602482015260448101849052908290829060649082906000906001600160a01b03165af19081156103a157600091610a93575b5015610a60577f9e71bc8eea02a63969f509818f2dafb9254532904319f9dbda79b67bd34a5f3d916006610a5b9233600052526040600020610a3782825461254a565b9055610a423361230b565b5060408051338152602081019290925290918291820190565b0390a1005b6064906040519062461bcd60e51b82526004820152600c60248201526b14dd185ad94819985a5b195960a21b6044820152fd5b610aaa9150823d841161039a5761038c818361212a565b836109f4565b6064906040519062461bcd60e51b82526004820152600d60248201526c4d696e203130303020504c4b5960981b6044820152fd5b346104d15760603660031901126104d15760246004813510156104d157610b09612557565b610b1161229b565b6004356000526003602052604060002060ff6003820154166005811015610dae57610b3c9015612626565b6001546040516323b872dd60e01b8152336004820152308482015268056bc75e2d63100000604482015290602090829060649082906000906001600160a01b03165af180156103a157610b9791600091610d8f575b5061265d565b6040519060208201916004358352833560f81b60408201524260418201523360601b6061820152605581526080810167ffffffffffffffff9382821085831117610d7a5781604052825190209360025462015180420191824211610d6557610160850190811184821017610d50576040528635835260443560a0850152600160c085015260e0840152610100830152600061012083015233610140830152836000526004602052604060002090516004811015610d3b5792610cf660ff93600584610c87608099987f83e7e93d665db0ef8ef5842c60d072953ea5dfb0f407abff8befefe6f69066ab9b976125ed565b60a0830151600182015560c0830151600282015560e0830151600382015561010083015160048201550190610ccf6101208201511515839060ff801983541691151516179055565b61014001518154610100600160a81b03191660089190911b610100600160a81b0316179055565b836006820155600360018419828401541617910155604051926004358452602084015235166040820152336060820152a160016000805160206126c783398151915255005b85634e487b7160e01b60005260216004526000fd5b87634e487b7160e01b60005260416004526000fd5b87634e487b7160e01b60005260116004526000fd5b85634e487b7160e01b60005260416004526000fd5b610da8915060203d60201161039a5761038c818361212a565b84610b91565b82634e487b7160e01b60005260216004526000fd5b346104d15760003660031901126104d157602060405160008152f35b346104d15760203660031901126104d15760043560005260036020526040600020610e098161214c565b906001810154600282015460038301549060ff82169360ff8360101c169260048201549560058301549060068401549260ff600860078701549601541695610e5d6040519b8c6101808091528d01906121f2565b9860208c015260408b0152600582101561096e57610e8a9160608b015260ff60808b019160081c16612099565b600385101561096e578796610ed79560a089015260c088015260ff8116151560e088015260018060a01b039060081c16610100870152610120860152610140850152610160840190612099565b0390f35b346104d15760003660031901126104d1576020604051683635c9adc5dea000008152f35b346104d15760403660031901126104d157610f18612083565b600435600052600060205260406000209060018060a01b0316600052602052602060ff604060002054166040519015158152f35b346104d15760a03660031901126104d15760043567ffffffffffffffff81116104d157610f7d9036906004016120a6565b60443567ffffffffffffffff81116104d157610f9d9036906004016120a6565b9092600360843510156104d157604051602081019084838337610fdc6054828781014260208201523360601b604082015203603481018452018261212a565b51902092604051610180810181811067ffffffffffffffff8211176106e457604052611009368385612587565b815260243560208201526064356040820152600060608201526000608082015260843560a0820152600060c0820152600060e08201526000610100820152600061012082015260006101408201526000610160820152846000526003602052604060002090805180519067ffffffffffffffff82116106e457819061108e85546120d4565b601f81116112d9575b50602090601f831160011461126d57600092611262575b50508160011b916000199060031b1c19161782555b602081015160018301556040810151600283015560038201906060810151600581101561096e5760ff801984541691161782556080810151600481101561096e5761110e90836125ce565b60a081015191600383101561096e576101609262ff000082549160101b169062ff0000191617905560c0810151600484015561118b6005840161116360e08401511515829060ff801983541691151516179055565b6101008301518154610100600160a81b03191660089190911b610100600160a81b0316179055565b610120810151600684015561014081015160078401550151600481101561096e5760086111b892016125ed565b600754600160401b8110156106e4576020957f731dc1616ec6f75dae0ff18b928864e626cb6e808a72e7cd2be60c39d26e97f7946111ff83600161124c9501600755612264565b81549060031b9089821b91600019901b191617905561123060405195869589875260c08b88015260c0870191612605565b9133604086015260643560608601528483036080860152612605565b60ff6084351660a08301520390a1604051908152f35b0151905089806110ae565b9250846000526020600020906000935b601f19841685106112be576001945083601f198116106112a5575b505050811b0182556110c3565b015160001960f88460031b161c19169055898080611298565b8181015183556020948501946001909301929091019061127d565b909150846000526020600020601f840160051c810160208510611322575b90849392915b601f830160051c82018110611313575050611097565b600081558594506001016112fd565b50806112f7565b346104d15760003660031901126104d15760206040516000805160206126a78339815191528152f35b346104d1576020806003193601126104d15760043590611370612557565b816000526003815260406000206003810160ff815416600581101561096e5760020361157a5760068201546000526004835260406000209160048301544210611543576005830191825460ff811661150b5785926113ec600095936003604494600160ff1980921617875582541617815560ff885416906125ce565b825460059091018054610100600160a81b031916610100600160a81b039092169190911790556001600160a01b038060015416925460081c16604051948593849263a9059cbb60e01b8452600484015268056bc75e2d6310000060248401525af19081156103a1576000916114ee575b50156114b9575460ff1691600483101561096e577ffd798f2a5eec94a3bde8d7e1c8254437f1ba3b44d1dd5721057353a4a10db23e92606092604051928352820152336040820152a160016000805160206126c783398151915255005b60405162461bcd60e51b815260048101839052600d60248201526c14995d1d5c9b8819985a5b1959609a1b6044820152606490fd5b6115059150833d851161039a5761038c818361212a565b8461145c565b60405162461bcd60e51b815260048101879052601060248201526f105b1c9958591e48195e1958dd5d195960821b6044820152606490fd5b60405162461bcd60e51b815260048101859052600f60248201526e54696d656c6f636b2061637469766560881b6044820152606490fd5b60405162461bcd60e51b815260048101849052600c60248201526b4e6f742074696d656c6f636b60a01b6044820152606490fd5b346104d15760403660031901126104d1576004356024356115cd61229b565b806000526004602052604060002060ff60058201541661165c57807f07c8e92444e0306d072bccb9bc004125878ec9e5ce74ede43ed06172b77459bf60606002600394019461161c8654612697565b809655604051908782526020820152336040820152a10154111561163c57005b60005260036020526003604060002001600260ff19825416179055600080f35b60405162461bcd60e51b8152602060048201526008602482015267115e1958dd5d195960c21b6044820152606490fd5b346104d15760603660031901126104d15760243567ffffffffffffffff81116104d1576116bd9036906004016120a6565b6116c5612557565b600435600052600360205260406000209160ff600384015416600581101561096e57600303611a165760018060a01b0360015416906040516323b872dd60e01b815233600482015230602482015260208160648160006802b5e3af16b1880000978860448401525af180156103a157611745916000916119f7575061265d565b6004356000526005602052611770604060002091604051946117668661210e565b3386523691612587565b91602084019283526044356040850152606084015260006080840152600060a08401528054600160401b8110156106e4576117b091600182018155612232565b9190916119e157825182546001600160a01b0319166001600160a01b03919091161782555180519067ffffffffffffffff82116106e4576117f460018401546120d4565b601f811161199a575b50602090601f831160011461192557918060a0949260049460009261191a575b50508160011b916000199060031b1c19161760018201555b6040840151600282015560608401516003820155019161186760808201511515849060ff801983541691151516179055565b0151815461ff00191690151560081b61ff001617905560048101805461188c90612697565b9055600301805460ff1916905560043560009081526005602052604090205460001981019081116119045760607f060ee328c58ebc847da6b7392e2ffa4579dd33d845de7eb8a7bca7313f728c95916040519060043582526020820152336040820152a160016000805160206126c783398151915255005b634e487b7160e01b600052601160045260246000fd5b01519050878061181d565b906001840160005260206000209160005b601f198516811061198257509260a0949260019260049583601f19811610611969575b505050811b016001820155611835565b015160001960f88460031b161c19169055878080611959565b91926020600181928685015181550194019201611936565b600184016000526020600020601f840160051c8101602085106119da575b601f830160051c820181106119ce5750506117fd565b600081556001016119b8565b50806119b8565b634e487b7160e01b600052600060045260246000fd5b611a10915060203d60201161039a5761038c818361212a565b86610b91565b60405162461bcd60e51b815260206004820152600c60248201526b139bdd081c995cdbdb1d995960a21b6044820152606490fd5b346104d15760003660031901126104d1576001546040516001600160a01b039091168152602090f35b346104d15760003660031901126104d15760206040517fbb08418a67729a078f87bbc8d02a770929bb68f5bfdf134ae2ead6ed38e2f4ae8152f35b346104d15760003660031901126104d15760206040516802b5e3af16b18800008152f35b346104d15760203660031901126104d1573360009081527fad3228b676f7d3cd4284a5443f17f1962b36e491b30a40b2405849e597ba5fb560205260409020546004359060ff1615611b6b576040817f671caab152d4256b6dc0ff9f31c61e0c7f53200ca140e4f67f371e88b48a154192600052600360205260038260002001600460ff198254161790558151908152336020820152a1005b60405163e2517d3f60e01b815233600482015260006024820152604490fd5b346104d15760403660031901126104d157611ba3612083565b336001600160a01b03821603611bbf5761056a906004356124bd565b60405163334bd91960e11b8152600490fd5b346104d15760203660031901126104d157600435600052600460205260e0604060002060ff8154169060018101549060028101546003820154906005600484015493015493611c236040518097612099565b602086015260408501526060840152608083015260ff8116151560a083015260081c6001600160a01b031660c0820152f35b346104d15760403660031901126104d15761056a600435611c74612083565b90806000526000602052611c8f6001604060002001546122e5565b6123ab565b346104d1576020806003193601126104d15760043590611cb2612557565b611cba61229b565b33600052600681528160406000205410611df8573360005260068152604060002080549083820391821161190457553360005260068152683635c9adc5dea0000060406000205410611de9575b60015460405163a9059cbb60e01b815233600482015260248101849052908290829060449082906000906001600160a01b03165af19081156103a157600091611dcc575b5015611d975760408051338152602081018490527f0f5bb82176feb1b5e747e28471aa92156a04d9f3ab9f45f28e2d704232b93f759190a160016000805160206126c783398151915255005b6064906040519062461bcd60e51b82526004820152600e60248201526d155b9cdd185ad94819985a5b195960921b6044820152fd5b611de39150823d841161039a5761038c818361212a565b83611d4b565b611df233612424565b50611d07565b6064906040519062461bcd60e51b825260048201526012602482015271496e73756666696369656e74207374616b6560701b6044820152fd5b346104d15760203660031901126104d15760043560005260006020526020600160406000200154604051908152f35b346104d15760603660031901126104d1576004356024356044359160048310156104d1573360009081527fc1c604b5add75b59252bca1e4e4ec4ab21f3921b1ddcf7a43abe69724bce555d60205260409020547f482648e7878e9fa54c0a2f67ffd22d00ebc37cf7a03e060e428d2ab0cd6735cc9060ff16156104b357508060005260036020526040600020826007820155611eff84600883016125ed565b6003604051918383528460208401527fedfdd0518db7b0575c0ede299fcf41cf2138248bc5581848d60781791ae9e050606060ff881694856040820152a1019283549060ff8260101c16600381101561096e57159081611fc7575b5080611fb3575b611f6757005b7ffd798f2a5eec94a3bde8d7e1c8254437f1ba3b44d1dd5721057353a4a10db23e946060946003611f9e9360ff19161781556125ce565b604051918252602082015260006040820152a1005b5060ff8116600581101561096e5715611f61565b6121349150101586611f5a565b346104d15760003660031901126104d1576020600254604051908152f35b346104d15760203660031901126104d1576004356001600160a01b038116908190036104d15760005260066020526020604060002054604051908152f35b346104d15760203660031901126104d1576004359063ffffffff60e01b82168092036104d157602091637965db0b60e01b8114908115612072575b5015158152f35b6301ffc9a760e01b1490508361206b565b602435906001600160a01b03821682036104d157565b90600482101561096e5752565b9181601f840112156104d15782359167ffffffffffffffff83116104d157602083818601950101116104d157565b90600182811c92168015612104575b60208310146120ee57565b634e487b7160e01b600052602260045260246000fd5b91607f16916120e3565b60c0810190811067ffffffffffffffff8211176106e457604052565b90601f8019910116810190811067ffffffffffffffff8211176106e457604052565b9060405191826000825492612160846120d4565b9081845260019485811690816000146121cf575060011461218c575b505061218a9250038361212a565b565b9093915060005260209081600020936000915b8183106121b757505061218a9350820101388061217c565b8554888401850152948501948794509183019161219f565b91505061218a94506020925060ff191682840152151560051b820101388061217c565b919082519283825260005b84811061221e575050826000602080949584010152601f8019910116010190565b6020818301810151848301820152016121fd565b805482101561224e576000526005602060002091020190600090565b634e487b7160e01b600052603260045260246000fd5b60075481101561224e5760076000527fa66cc928b5edb82af9bd49922954155ab7b0942694bea4ce44661d9a8736c6880190600090565b3360009081527f40da0f42a661166d5434d4603ecbff423639c47e2526ad0538d7c3517a62389060205260409020546000805160206126a78339815191529060ff16156104b35750565b80600052600060205260406000203360005260205260ff60406000205416156104b35750565b6001600160a01b031660008181527f40da0f42a661166d5434d4603ecbff423639c47e2526ad0538d7c3517a62389060205260408120549091906000805160206126a78339815191529060ff166123a657808352826020526040832082845260205260408320600160ff198254161790557f2f8788117e7eff1d82e926ec794901d17c78024a50270940304540a733656f0d339380a4600190565b505090565b9060009180835282602052604083209160018060a01b03169182845260205260ff604084205416156000146123a657808352826020526040832082845260205260408320600160ff198254161790557f2f8788117e7eff1d82e926ec794901d17c78024a50270940304540a733656f0d339380a4600190565b6001600160a01b031660008181527f40da0f42a661166d5434d4603ecbff423639c47e2526ad0538d7c3517a62389060205260408120549091906000805160206126a78339815191529060ff16156123a65780835282602052604083208284526020526040832060ff1981541690557ff6391f5c32d9c69d2a47ea670b442974b53935d1edc7fd64eb21e047a839171b339380a4600190565b9060009180835282602052604083209160018060a01b03169182845260205260ff6040842054166000146123a65780835282602052604083208284526020526040832060ff1981541690557ff6391f5c32d9c69d2a47ea670b442974b53935d1edc7fd64eb21e047a839171b339380a4600190565b908160209103126104d1575180151581036104d15790565b9190820180921161190457565b6000805160206126c783398151915260028154146125755760029055565b604051633ee5aeb560e01b8152600490fd5b92919267ffffffffffffffff82116106e457604051916125b1601f8201601f19166020018461212a565b8294818452818301116104d1578281602093846000960137010152565b90600481101561096e5761ff0082549160081b169061ff001916179055565b90600481101561096e5760ff80198354169116179055565b908060209392818452848401376000828201840152601f01601f1916010190565b1561262d57565b60405162461bcd60e51b81526020600482015260086024820152672737ba1037b832b760c11b6044820152606490fd5b1561266457565b60405162461bcd60e51b815260206004820152600b60248201526a109bdb990819985a5b195960aa1b6044820152606490fd5b6000198114611904576001019056fe92a19c77d2ea87c7f81d50c74403cb2f401780f3ad919571121efe2bdb427eb19b779b17422d0df92223018b32b4d1fa46e071723d6817e2486d003becc55f00a2646970667358221220baafbb59608f01f7e14cddfa08ebb5718873d155446a18fa7a18150ca9c3a8af64736f6c634300081400332f8788117e7eff1d82e926ec794901d17c78024a50270940304540a733656f0d","opcodes":"PUSH1 0x80 CALLVALUE PUSH3 0xE7 JUMPI PUSH1 0x1F PUSH3 0x2AB0 CODESIZE DUP2 SWAP1 SUB SWAP2 DUP3 ADD PUSH1 0x1F NOT AND DUP4 ADD SWAP2 PUSH1 0x1 PUSH1 0x1 PUSH1 0x40 SHL SUB DUP4 GT DUP5 DUP5 LT OR PUSH3 0xEC JUMPI DUP1 DUP5 SWAP3 PUSH1 0x60 SWAP5 PUSH1 0x40 MSTORE DUP4 CODECOPY DUP2 ADD SUB SLT PUSH3 0xE7 JUMPI DUP1 PUSH3 0x52 PUSH3 0xD6 SWAP3 PUSH3 0x102 JUMP JUMPDEST PUSH1 0x40 PUSH3 0x62 PUSH1 0x20 DUP5 ADD PUSH3 0x102 JUMP JUMPDEST SWAP3 ADD MLOAD PUSH1 0x1 PUSH32 0x9B779B17422D0DF92223018B32B4D1FA46E071723D6817E2486D003BECC55F00 DUP2 SWAP1 SSTORE DUP1 SLOAD PUSH1 0x1 PUSH1 0x1 PUSH1 0xA0 SHL SUB NOT AND PUSH1 0x1 PUSH1 0x1 PUSH1 0xA0 SHL SUB SWAP1 SWAP4 AND SWAP3 SWAP1 SWAP3 OR SWAP1 SWAP2 SSTORE PUSH1 0x2 SSTORE PUSH3 0xB7 DUP2 PUSH3 0x117 JUMP JUMPDEST POP PUSH3 0xC3 DUP2 PUSH3 0x197 JUMP JUMPDEST POP PUSH3 0xCF DUP2 PUSH3 0x239 JUMP JUMPDEST POP PUSH3 0x2D6 JUMP JUMPDEST POP PUSH1 0x40 MLOAD PUSH2 0x271C SWAP1 DUP2 PUSH3 0x374 DUP3 CODECOPY RETURN JUMPDEST PUSH1 0x0 DUP1 REVERT JUMPDEST PUSH4 0x4E487B71 PUSH1 0xE0 SHL PUSH1 0x0 MSTORE PUSH1 0x41 PUSH1 0x4 MSTORE PUSH1 0x24 PUSH1 0x0 REVERT JUMPDEST MLOAD SWAP1 PUSH1 0x1 PUSH1 0x1 PUSH1 0xA0 SHL SUB DUP3 AND DUP3 SUB PUSH3 0xE7 JUMPI JUMP JUMPDEST PUSH1 0x1 PUSH1 0x1 PUSH1 0xA0 SHL SUB AND PUSH1 0x0 DUP2 DUP2 MSTORE PUSH32 0xAD3228B676F7D3CD4284A5443F17F1962B36E491B30A40B2405849E597BA5FB5 PUSH1 0x20 MSTORE PUSH1 0x40 DUP2 KECCAK256 SLOAD SWAP1 SWAP2 SWAP1 PUSH1 0xFF AND PUSH3 0x193 JUMPI DUP2 DUP1 MSTORE DUP2 PUSH1 0x20 MSTORE PUSH1 0x40 DUP3 KECCAK256 DUP2 DUP4 MSTORE PUSH1 0x20 MSTORE PUSH1 0x40 DUP3 KECCAK256 PUSH1 0x1 PUSH1 0xFF NOT DUP3 SLOAD AND OR SWAP1 SSTORE CALLER SWAP2 PUSH1 0x0 DUP1 MLOAD PUSH1 0x20 PUSH3 0x2A90 DUP4 CODECOPY DUP2 MLOAD SWAP2 MSTORE DUP2 DUP1 LOG4 PUSH1 0x1 SWAP1 JUMP JUMPDEST POP SWAP1 JUMP JUMPDEST PUSH1 0x1 PUSH1 0x1 PUSH1 0xA0 SHL SUB AND PUSH1 0x0 DUP2 DUP2 MSTORE PUSH32 0x40DA0F42A661166D5434D4603ECBFF423639C47E2526AD0538D7C3517A623890 PUSH1 0x20 MSTORE PUSH1 0x40 DUP2 KECCAK256 SLOAD SWAP1 SWAP2 SWAP1 PUSH32 0x92A19C77D2EA87C7F81D50C74403CB2F401780F3AD919571121EFE2BDB427EB1 SWAP1 PUSH1 0xFF AND PUSH3 0x234 JUMPI DUP1 DUP4 MSTORE DUP3 PUSH1 0x20 MSTORE PUSH1 0x40 DUP4 KECCAK256 DUP3 DUP5 MSTORE PUSH1 0x20 MSTORE PUSH1 0x40 DUP4 KECCAK256 PUSH1 0x1 PUSH1 0xFF NOT DUP3 SLOAD AND OR SWAP1 SSTORE PUSH1 0x0 DUP1 MLOAD PUSH1 0x20 PUSH3 0x2A90 DUP4 CODECOPY DUP2 MLOAD SWAP2 MSTORE CALLER SWAP4 DUP1 LOG4 PUSH1 0x1 SWAP1 JUMP JUMPDEST POP POP SWAP1 JUMP JUMPDEST PUSH1 0x1 PUSH1 0x1 PUSH1 0xA0 SHL SUB AND PUSH1 0x0 DUP2 DUP2 MSTORE PUSH32 0xC1C604B5ADD75B59252BCA1E4E4EC4AB21F3921B1DDCF7A43ABE69724BCE555D PUSH1 0x20 MSTORE PUSH1 0x40 DUP2 KECCAK256 SLOAD SWAP1 SWAP2 SWAP1 PUSH32 0x482648E7878E9FA54C0A2F67FFD22D00EBC37CF7A03E060E428D2AB0CD6735CC SWAP1 PUSH1 0xFF AND PUSH3 0x234 JUMPI DUP1 DUP4 MSTORE DUP3 PUSH1 0x20 MSTORE PUSH1 0x40 DUP4 KECCAK256 DUP3 DUP5 MSTORE PUSH1 0x20 MSTORE PUSH1 0x40 DUP4 KECCAK256 PUSH1 0x1 PUSH1 0xFF NOT DUP3 SLOAD AND OR SWAP1 SSTORE PUSH1 0x0 DUP1 MLOAD PUSH1 0x20 PUSH3 0x2A90 DUP4 CODECOPY DUP2 MLOAD SWAP2 MSTORE CALLER SWAP4 DUP1 LOG4 PUSH1 0x1 SWAP1 JUMP JUMPDEST PUSH1 0x1 PUSH1 0x1 PUSH1 0xA0 SHL SUB AND PUSH1 0x0 DUP2 DUP2 MSTORE PUSH32 0x89777FFFB7045C97177D1161CD08D871365CB73D0B18F242761255A7718434CF PUSH1 0x20 MSTORE PUSH1 0x40 DUP2 KECCAK256 SLOAD SWAP1 SWAP2 SWAP1 PUSH32 0xBB08418A67729A078F87BBC8D02A770929BB68F5BFDF134AE2EAD6ED38E2F4AE SWAP1 PUSH1 0xFF AND PUSH3 0x234 JUMPI DUP1 DUP4 MSTORE DUP3 PUSH1 0x20 MSTORE PUSH1 0x40 DUP4 KECCAK256 DUP3 DUP5 MSTORE PUSH1 0x20 MSTORE PUSH1 0x40 DUP4 KECCAK256 PUSH1 0x1 PUSH1 0xFF NOT DUP3 SLOAD AND OR SWAP1 SSTORE PUSH1 0x0 DUP1 MLOAD PUSH1 0x20 PUSH3 0x2A90 DUP4 CODECOPY DUP2 MLOAD SWAP2 MSTORE CALLER SWAP4 DUP1 LOG4 PUSH1 0x1 SWAP1 JUMP INVALID PUSH1 0x80 DUP1 PUSH1 0x40 MSTORE PUSH1 0x4 CALLDATASIZE LT ISZERO PUSH2 0x13 JUMPI PUSH1 0x0 DUP1 REVERT JUMPDEST PUSH1 0x0 CALLDATALOAD PUSH1 0xE0 SHR SWAP1 DUP2 PUSH4 0x1FFC9A7 EQ PUSH2 0x2030 JUMPI POP DUP1 PUSH4 0x16934FC4 EQ PUSH2 0x1FF2 JUMPI DUP1 PUSH4 0x1703A018 EQ PUSH2 0x1FD4 JUMPI DUP1 PUSH4 0x1F5A7722 EQ PUSH2 0x1E60 JUMPI DUP1 PUSH4 0x248A9CA3 EQ PUSH2 0x1E31 JUMPI DUP1 PUSH4 0x2E17DE78 EQ PUSH2 0x1C94 JUMPI DUP1 PUSH4 0x2F2FF15D EQ PUSH2 0x1C55 JUMPI DUP1 PUSH4 0x32ED5B12 EQ PUSH2 0x1BD1 JUMPI DUP1 PUSH4 0x36568ABE EQ PUSH2 0x1B8A JUMPI DUP1 PUSH4 0x4BD659F6 EQ PUSH2 0x1AD2 JUMPI DUP1 PUSH4 0x4C68AE63 EQ PUSH2 0x1AAE JUMPI DUP1 PUSH4 0x4D104ADF EQ PUSH2 0x1A73 JUMPI DUP1 PUSH4 0x4ECAC430 EQ PUSH2 0x1A4A JUMPI DUP1 PUSH4 0x607D56E5 EQ PUSH2 0x168C JUMPI DUP1 PUSH4 0x62AF3DA3 EQ PUSH2 0x15AE JUMPI DUP1 PUSH4 0x72B60AFC EQ PUSH2 0x1352 JUMPI DUP1 PUSH4 0x78FAB260 EQ PUSH2 0x1329 JUMPI DUP1 PUSH4 0x7CE64074 EQ PUSH2 0xF4C JUMPI DUP1 PUSH4 0x91D14854 EQ PUSH2 0xEFF JUMPI DUP1 PUSH4 0x929F834F EQ PUSH2 0xEDB JUMPI DUP1 PUSH4 0x95ADDB90 EQ PUSH2 0xDDF JUMPI DUP1 PUSH4 0xA217FDDF EQ PUSH2 0xDC3 JUMPI DUP1 PUSH4 0xA3E48577 EQ PUSH2 0xAE4 JUMPI DUP1 PUSH4 0xA694FC3A EQ PUSH2 0x984 JUMPI DUP1 PUSH4 0xA7D4BB14 EQ PUSH2 0x8B2 JUMPI DUP1 PUSH4 0xAAA44E5C EQ PUSH2 0x7FC JUMPI DUP1 PUSH4 0xAEB2A19F EQ PUSH2 0x759 JUMPI DUP1 PUSH4 0xC0F87302 EQ PUSH2 0x735 JUMPI DUP1 PUSH4 0xC601F7AF EQ PUSH2 0x6FA JUMPI DUP1 PUSH4 0xD19D3661 EQ PUSH2 0x56C JUMPI DUP1 PUSH4 0xD547741F EQ PUSH2 0x52B JUMPI DUP1 PUSH4 0xDD41CC2F EQ PUSH2 0x50D JUMPI DUP1 PUSH4 0xF0347783 EQ PUSH2 0x4D6 JUMPI PUSH4 0xFAF0BBBF EQ PUSH2 0x195 JUMPI PUSH1 0x0 DUP1 REVERT JUMPDEST CALLVALUE PUSH2 0x4D1 JUMPI PUSH1 0x60 CALLDATASIZE PUSH1 0x3 NOT ADD SLT PUSH2 0x4D1 JUMPI PUSH1 0x44 CALLDATALOAD PUSH1 0x4 CALLDATALOAD DUP2 ISZERO ISZERO PUSH1 0x24 CALLDATALOAD DUP2 DUP5 SUB PUSH2 0x4D1 JUMPI PUSH2 0x1C1 PUSH2 0x2557 JUMP JUMPDEST CALLER PUSH1 0x0 SWAP1 DUP2 MSTORE PUSH32 0x89777FFFB7045C97177D1161CD08D871365CB73D0B18F242761255A7718434CF PUSH1 0x20 SWAP1 DUP2 MSTORE PUSH1 0x40 SWAP1 SWAP2 KECCAK256 SLOAD SWAP1 SWAP5 SWAP1 PUSH32 0xBB08418A67729A078F87BBC8D02A770929BB68F5BFDF134AE2EAD6ED38E2F4AE SWAP1 PUSH1 0xFF AND ISZERO PUSH2 0x4B3 JUMPI POP DUP4 PUSH1 0x0 MSTORE PUSH1 0x5 DUP6 MSTORE PUSH2 0x237 DUP3 PUSH1 0x40 PUSH1 0x0 KECCAK256 PUSH2 0x2232 JUMP JUMPDEST POP PUSH1 0x4 DUP2 ADD SWAP2 DUP3 SLOAD PUSH1 0xFF DUP2 AND PUSH2 0x47B JUMPI PUSH1 0xFF NOT AND PUSH1 0x1 OR DUP4 SSTORE DUP7 SWAP2 SWAP1 ISZERO PUSH2 0x3AD JUMPI SWAP1 PUSH2 0x2B4 SWAP2 PUSH1 0x1 DUP1 PUSH1 0xA0 SHL SUB PUSH2 0x27F PUSH1 0x3 DUP3 PUSH1 0x1 SLOAD AND SWAP3 DUP5 SLOAD AND SWAP4 ADD SLOAD DUP1 PUSH1 0x1 SHR SWAP1 PUSH2 0x254A JUMP JUMPDEST PUSH1 0x40 MLOAD PUSH4 0xA9059CBB PUSH1 0xE0 SHL DUP2 MSTORE PUSH1 0x1 PUSH1 0x1 PUSH1 0xA0 SHL SUB SWAP1 SWAP4 AND PUSH1 0x4 DUP5 ADD MSTORE PUSH1 0x24 DUP4 ADD MSTORE SWAP1 SWAP3 DUP4 SWAP2 SWAP1 DUP3 SWAP1 PUSH1 0x0 SWAP1 DUP3 SWAP1 PUSH1 0x44 DUP3 ADD SWAP1 JUMP JUMPDEST SUB SWAP3 GAS CALL SWAP1 DUP2 ISZERO PUSH2 0x3A1 JUMPI PUSH1 0x0 SWAP2 PUSH2 0x374 JUMPI JUMPDEST POP ISZERO PUSH2 0x33F JUMPI SWAP1 PUSH32 0x4C4DB9EC7A9B95F2193BD78549BA39D5F8E8F8E9947E7D57EAB72D3219BBF604 SWAP5 PUSH1 0x60 SWAP5 SWAP4 SWAP3 PUSH2 0x100 PUSH2 0xFF00 NOT DUP3 SLOAD AND OR SWAP1 SSTORE DUP4 PUSH1 0x0 MSTORE PUSH1 0x3 DUP2 MSTORE PUSH1 0x3 PUSH1 0x40 PUSH1 0x0 KECCAK256 ADD PUSH2 0xFFFF NOT DUP2 SLOAD AND SWAP1 SSTORE JUMPDEST PUSH1 0x40 MLOAD SWAP4 DUP5 MSTORE DUP4 ADD MSTORE PUSH1 0x40 DUP3 ADD MSTORE LOG1 PUSH1 0x1 PUSH1 0x0 DUP1 MLOAD PUSH1 0x20 PUSH2 0x26C7 DUP4 CODECOPY DUP2 MLOAD SWAP2 MSTORE SSTORE STOP JUMPDEST PUSH1 0x40 MLOAD PUSH3 0x461BCD PUSH1 0xE5 SHL DUP2 MSTORE PUSH1 0x4 DUP2 ADD DUP7 SWAP1 MSTORE PUSH1 0xD PUSH1 0x24 DUP3 ADD MSTORE PUSH13 0x14995DD85C990819985A5B1959 PUSH1 0x9A SHL PUSH1 0x44 DUP3 ADD MSTORE PUSH1 0x64 SWAP1 REVERT JUMPDEST PUSH2 0x394 SWAP2 POP DUP7 RETURNDATASIZE DUP9 GT PUSH2 0x39A JUMPI JUMPDEST PUSH2 0x38C DUP2 DUP4 PUSH2 0x212A JUMP JUMPDEST DUP2 ADD SWAP1 PUSH2 0x2532 JUMP JUMPDEST CODESIZE PUSH2 0x2C7 JUMP JUMPDEST POP RETURNDATASIZE PUSH2 0x382 JUMP JUMPDEST PUSH1 0x40 MLOAD RETURNDATASIZE PUSH1 0x0 DUP3 RETURNDATACOPY RETURNDATASIZE SWAP1 REVERT JUMPDEST PUSH1 0x1 SLOAD PUSH1 0x3 SWAP2 SWAP1 SWAP2 ADD SLOAD PUSH1 0x40 MLOAD PUSH4 0xA9059CBB PUSH1 0xE0 SHL DUP2 MSTORE ADDRESS PUSH1 0x4 DUP3 ADD MSTORE PUSH1 0x24 DUP2 ADD SWAP2 SWAP1 SWAP2 MSTORE SWAP3 POP DUP3 SWAP1 PUSH1 0x44 SWAP1 DUP3 SWAP1 PUSH1 0x0 SWAP1 PUSH1 0x1 PUSH1 0x1 PUSH1 0xA0 SHL SUB AND GAS CALL SWAP1 DUP2 ISZERO PUSH2 0x3A1 JUMPI PUSH1 0x0 SWAP2 PUSH2 0x45E JUMPI JUMPDEST POP ISZERO PUSH2 0x42A JUMPI SWAP1 PUSH1 0x60 SWAP3 SWAP2 PUSH32 0x4C4DB9EC7A9B95F2193BD78549BA39D5F8E8F8E9947E7D57EAB72D3219BBF604 SWAP5 PUSH2 0x31C JUMP JUMPDEST PUSH1 0x40 MLOAD PUSH3 0x461BCD PUSH1 0xE5 SHL DUP2 MSTORE PUSH1 0x4 DUP2 ADD DUP6 SWAP1 MSTORE PUSH1 0xC PUSH1 0x24 DUP3 ADD MSTORE PUSH12 0x14D95A5E994819985A5B1959 PUSH1 0xA2 SHL PUSH1 0x44 DUP3 ADD MSTORE PUSH1 0x64 SWAP1 REVERT JUMPDEST PUSH2 0x475 SWAP2 POP DUP6 RETURNDATASIZE DUP8 GT PUSH2 0x39A JUMPI PUSH2 0x38C DUP2 DUP4 PUSH2 0x212A JUMP JUMPDEST CODESIZE PUSH2 0x3F8 JUMP JUMPDEST PUSH1 0x40 MLOAD PUSH3 0x461BCD PUSH1 0xE5 SHL DUP2 MSTORE PUSH1 0x4 DUP2 ADD DUP10 SWAP1 MSTORE PUSH1 0x10 PUSH1 0x24 DUP3 ADD MSTORE PUSH16 0x105B1C9958591E481C995CDBDB1D9959 PUSH1 0x82 SHL PUSH1 0x44 DUP3 ADD MSTORE PUSH1 0x64 SWAP1 REVERT JUMPDEST PUSH1 0x44 SWAP1 PUSH1 0x40 MLOAD SWAP1 PUSH4 0xE2517D3F PUSH1 0xE0 SHL DUP3 MSTORE CALLER PUSH1 0x4 DUP4 ADD MSTORE PUSH1 0x24 DUP3 ADD MSTORE REVERT JUMPDEST PUSH1 0x0 DUP1 REVERT JUMPDEST CALLVALUE PUSH2 0x4D1 JUMPI PUSH1 0x20 CALLDATASIZE PUSH1 0x3 NOT ADD SLT PUSH2 0x4D1 JUMPI PUSH1 0x4 CALLDATALOAD PUSH1 0x7 SLOAD DUP2 LT ISZERO PUSH2 0x4D1 JUMPI PUSH2 0x4FF PUSH1 0x20 SWAP2 PUSH2 0x2264 JUMP JUMPDEST SWAP1 SLOAD PUSH1 0x40 MLOAD SWAP2 PUSH1 0x3 SHL SHR DUP2 MSTORE RETURN JUMPDEST CALLVALUE PUSH2 0x4D1 JUMPI PUSH1 0x0 CALLDATASIZE PUSH1 0x3 NOT ADD SLT PUSH2 0x4D1 JUMPI PUSH1 0x20 PUSH1 0x7 SLOAD PUSH1 0x40 MLOAD SWAP1 DUP2 MSTORE RETURN JUMPDEST CALLVALUE PUSH2 0x4D1 JUMPI PUSH1 0x40 CALLDATASIZE PUSH1 0x3 NOT ADD SLT PUSH2 0x4D1 JUMPI PUSH2 0x56A PUSH1 0x4 CALLDATALOAD PUSH2 0x54A PUSH2 0x2083 JUMP JUMPDEST SWAP1 DUP1 PUSH1 0x0 MSTORE PUSH1 0x0 PUSH1 0x20 MSTORE PUSH2 0x565 PUSH1 0x1 PUSH1 0x40 PUSH1 0x0 KECCAK256 ADD SLOAD PUSH2 0x22E5 JUMP JUMPDEST PUSH2 0x24BD JUMP JUMPDEST STOP JUMPDEST CALLVALUE PUSH2 0x4D1 JUMPI PUSH1 0x20 DUP1 PUSH1 0x3 NOT CALLDATASIZE ADD SLT PUSH2 0x4D1 JUMPI PUSH1 0x4 CALLDATALOAD PUSH1 0x0 MSTORE PUSH1 0x5 SWAP1 DUP2 DUP2 MSTORE PUSH1 0x40 PUSH1 0x0 KECCAK256 DUP1 SLOAD PUSH8 0xFFFFFFFFFFFFFFFF DUP2 GT PUSH2 0x6E4 JUMPI SWAP2 PUSH1 0x40 MLOAD SWAP3 PUSH2 0x5B3 DUP3 DUP3 DUP8 SHL ADD DUP6 PUSH2 0x212A JUMP JUMPDEST DUP1 DUP5 MSTORE DUP2 DUP5 ADD DUP1 SWAP4 PUSH1 0x0 MSTORE DUP3 PUSH1 0x0 KECCAK256 DUP7 PUSH1 0x0 SWAP3 JUMPDEST DUP5 DUP5 LT PUSH2 0x672 JUMPI POP POP POP POP POP PUSH1 0x40 MLOAD SWAP3 DUP2 DUP5 ADD SWAP1 DUP3 DUP6 MSTORE MLOAD DUP1 SWAP2 MSTORE PUSH1 0x40 DUP2 DUP2 DUP7 ADD SWAP7 SHL DUP6 ADD ADD SWAP3 SWAP2 PUSH1 0x0 SWAP6 JUMPDEST DUP3 DUP8 LT PUSH2 0x600 JUMPI DUP6 DUP6 SUB DUP7 RETURN JUMPDEST SWAP1 SWAP2 SWAP3 SWAP4 DUP3 DUP1 PUSH1 0x1 SWAP3 PUSH1 0x3F NOT DUP10 DUP3 SUB ADD DUP6 MSTORE DUP8 MLOAD SWAP1 DUP5 DUP1 PUSH1 0xA0 SHL SUB DUP3 MLOAD AND DUP2 MSTORE PUSH2 0x636 DUP4 DUP4 ADD MLOAD PUSH1 0xC0 DUP1 DUP7 DUP6 ADD MSTORE DUP4 ADD SWAP1 PUSH2 0x21F2 JUMP JUMPDEST SWAP2 PUSH1 0x40 DUP2 ADD MLOAD PUSH1 0x40 DUP4 ADD MSTORE PUSH1 0x60 DUP1 DUP3 ADD MLOAD SWAP1 DUP4 ADD MSTORE PUSH1 0x80 DUP1 DUP3 ADD MLOAD ISZERO ISZERO SWAP1 DUP4 ADD MSTORE PUSH1 0xA0 DUP1 SWAP2 ADD MLOAD ISZERO ISZERO SWAP2 ADD MSTORE SWAP7 ADD SWAP3 ADD SWAP7 ADD SWAP6 SWAP3 SWAP2 SWAP1 SWAP3 PUSH2 0x5F3 JUMP JUMPDEST SWAP1 DUP6 PUSH1 0x1 SWAP3 PUSH1 0x40 SWAP10 SWAP8 SWAP10 MLOAD PUSH2 0x686 DUP2 PUSH2 0x210E JUMP JUMPDEST DUP5 DUP1 PUSH1 0xA0 SHL SUB DUP7 SLOAD AND DUP2 MSTORE PUSH2 0x69C DUP6 DUP8 ADD PUSH2 0x214C JUMP JUMPDEST DUP4 DUP3 ADD MSTORE PUSH1 0x2 DUP7 ADD SLOAD PUSH1 0x40 DUP3 ADD MSTORE PUSH1 0x3 DUP7 ADD SLOAD PUSH1 0x60 DUP3 ADD MSTORE PUSH1 0x4 DUP7 ADD SLOAD PUSH1 0xFF SWAP1 DUP2 DUP2 AND ISZERO ISZERO PUSH1 0x80 DUP5 ADD MSTORE PUSH1 0x8 SHR AND ISZERO ISZERO PUSH1 0xA0 DUP3 ADD MSTORE DUP2 MSTORE ADD SWAP3 ADD SWAP3 ADD SWAP2 SWAP1 DUP8 SWAP1 SWAP7 SWAP5 SWAP7 PUSH2 0x5C7 JUMP JUMPDEST PUSH4 0x4E487B71 PUSH1 0xE0 SHL PUSH1 0x0 MSTORE PUSH1 0x41 PUSH1 0x4 MSTORE PUSH1 0x24 PUSH1 0x0 REVERT JUMPDEST CALLVALUE PUSH2 0x4D1 JUMPI PUSH1 0x0 CALLDATASIZE PUSH1 0x3 NOT ADD SLT PUSH2 0x4D1 JUMPI PUSH1 0x20 PUSH1 0x40 MLOAD PUSH32 0x482648E7878E9FA54C0A2F67FFD22D00EBC37CF7A03E060E428D2AB0CD6735CC DUP2 MSTORE RETURN JUMPDEST CALLVALUE PUSH2 0x4D1 JUMPI PUSH1 0x0 CALLDATASIZE PUSH1 0x3 NOT ADD SLT PUSH2 0x4D1 JUMPI PUSH1 0x20 PUSH1 0x40 MLOAD PUSH9 0x56BC75E2D63100000 DUP2 MSTORE RETURN JUMPDEST CALLVALUE PUSH2 0x4D1 JUMPI PUSH1 0x40 CALLDATASIZE PUSH1 0x3 NOT ADD SLT PUSH2 0x4D1 JUMPI PUSH1 0x24 CALLDATALOAD PUSH1 0x4 CALLDATALOAD PUSH1 0x0 MSTORE PUSH1 0x5 PUSH1 0x20 MSTORE PUSH1 0x40 PUSH1 0x0 KECCAK256 SWAP1 DUP2 SLOAD DUP2 LT ISZERO PUSH2 0x4D1 JUMPI PUSH2 0x790 SWAP2 PUSH2 0x2232 JUMP JUMPDEST POP DUP1 SLOAD PUSH1 0x1 PUSH1 0x1 PUSH1 0xA0 SHL SUB AND PUSH2 0x7A8 PUSH1 0x1 DUP4 ADD PUSH2 0x214C JUMP JUMPDEST SWAP2 PUSH1 0xFF PUSH1 0x2 DUP3 ADD SLOAD SWAP2 PUSH1 0x4 PUSH1 0x3 DUP3 ADD SLOAD SWAP2 ADD SLOAD SWAP1 PUSH2 0x7D8 PUSH1 0x40 MLOAD SWAP7 DUP8 SWAP7 DUP8 MSTORE PUSH1 0xC0 PUSH1 0x20 DUP9 ADD MSTORE PUSH1 0xC0 DUP8 ADD SWAP1 PUSH2 0x21F2 JUMP JUMPDEST SWAP4 PUSH1 0x40 DUP7 ADD MSTORE PUSH1 0x60 DUP6 ADD MSTORE DUP2 DUP2 AND ISZERO ISZERO PUSH1 0x80 DUP6 ADD MSTORE PUSH1 0x8 SHR AND ISZERO ISZERO PUSH1 0xA0 DUP4 ADD MSTORE SUB SWAP1 RETURN JUMPDEST CALLVALUE PUSH2 0x4D1 JUMPI PUSH1 0x0 CALLDATASIZE PUSH1 0x3 NOT ADD SLT PUSH2 0x4D1 JUMPI PUSH1 0x40 MLOAD DUP1 PUSH1 0x7 SLOAD DUP1 DUP4 MSTORE PUSH1 0x20 DUP1 SWAP4 ADD DUP1 SWAP2 PUSH1 0x7 PUSH1 0x0 MSTORE PUSH32 0xA66CC928B5EDB82AF9BD49922954155AB7B0942694BEA4CE44661D9A8736C688 SWAP1 PUSH1 0x0 JUMPDEST DUP7 DUP3 DUP3 LT PUSH2 0x89E JUMPI DUP7 DUP7 PUSH2 0x85E DUP3 DUP9 SUB DUP4 PUSH2 0x212A JUMP JUMPDEST PUSH1 0x40 MLOAD SWAP3 DUP4 SWAP3 DUP2 DUP5 ADD SWAP1 DUP3 DUP6 MSTORE MLOAD DUP1 SWAP2 MSTORE PUSH1 0x40 DUP5 ADD SWAP3 SWAP2 PUSH1 0x0 JUMPDEST DUP3 DUP2 LT PUSH2 0x887 JUMPI POP POP POP POP SUB SWAP1 RETURN JUMPDEST DUP4 MLOAD DUP6 MSTORE DUP7 SWAP6 POP SWAP4 DUP2 ADD SWAP4 SWAP3 DUP2 ADD SWAP3 PUSH1 0x1 ADD PUSH2 0x878 JUMP JUMPDEST DUP4 SLOAD DUP6 MSTORE SWAP1 SWAP4 ADD SWAP3 PUSH1 0x1 SWAP3 DUP4 ADD SWAP3 ADD PUSH2 0x848 JUMP JUMPDEST CALLVALUE PUSH2 0x4D1 JUMPI PUSH1 0x60 CALLDATASIZE PUSH1 0x3 NOT ADD SLT PUSH2 0x4D1 JUMPI PUSH1 0x4 CALLDATALOAD PUSH1 0x44 CALLDATALOAD SWAP1 PUSH1 0xFF DUP3 AND DUP1 SWAP3 SUB PUSH2 0x4D1 JUMPI DUP1 PUSH1 0x0 MSTORE PUSH1 0x3 PUSH1 0x20 MSTORE PUSH1 0xFF PUSH1 0x3 PUSH1 0x40 PUSH1 0x0 KECCAK256 ADD SLOAD AND PUSH1 0x5 DUP2 LT ISZERO PUSH2 0x96E JUMPI ISZERO DUP1 ISZERO PUSH2 0x945 JUMPI JUMPDEST SWAP1 PUSH32 0xE78589E8C3EACC2906E3C5484FE3387C76E6016007BE979E4CC966584B714166 SWAP3 PUSH2 0x929 PUSH1 0x80 SWAP4 PUSH2 0x2626 JUMP JUMPDEST PUSH1 0x40 MLOAD SWAP2 DUP3 MSTORE CALLER PUSH1 0x20 DUP4 ADD MSTORE PUSH1 0x24 CALLDATALOAD PUSH1 0x40 DUP4 ADD MSTORE PUSH1 0x60 DUP3 ADD MSTORE LOG1 STOP JUMPDEST POP DUP1 PUSH1 0x0 MSTORE PUSH1 0x3 PUSH1 0x20 MSTORE PUSH1 0xFF PUSH1 0x3 PUSH1 0x40 PUSH1 0x0 KECCAK256 ADD SLOAD AND SWAP1 PUSH1 0x5 DUP3 LT ISZERO PUSH2 0x96E JUMPI SWAP1 PUSH1 0x1 EQ PUSH2 0x8FB JUMP JUMPDEST PUSH4 0x4E487B71 PUSH1 0xE0 SHL PUSH1 0x0 MSTORE PUSH1 0x21 PUSH1 0x4 MSTORE PUSH1 0x24 PUSH1 0x0 REVERT JUMPDEST CALLVALUE PUSH2 0x4D1 JUMPI PUSH1 0x20 DUP1 PUSH1 0x3 NOT CALLDATASIZE ADD SLT PUSH2 0x4D1 JUMPI PUSH1 0x4 CALLDATALOAD SWAP1 PUSH9 0x3635C9ADC5DEA00000 DUP3 LT PUSH2 0xAB0 JUMPI PUSH1 0x1 SLOAD PUSH1 0x40 MLOAD PUSH4 0x23B872DD PUSH1 0xE0 SHL DUP2 MSTORE CALLER PUSH1 0x4 DUP3 ADD MSTORE ADDRESS PUSH1 0x24 DUP3 ADD MSTORE PUSH1 0x44 DUP2 ADD DUP5 SWAP1 MSTORE SWAP1 DUP3 SWAP1 DUP3 SWAP1 PUSH1 0x64 SWAP1 DUP3 SWAP1 PUSH1 0x0 SWAP1 PUSH1 0x1 PUSH1 0x1 PUSH1 0xA0 SHL SUB AND GAS CALL SWAP1 DUP2 ISZERO PUSH2 0x3A1 JUMPI PUSH1 0x0 SWAP2 PUSH2 0xA93 JUMPI JUMPDEST POP ISZERO PUSH2 0xA60 JUMPI PUSH32 0x9E71BC8EEA02A63969F509818F2DAFB9254532904319F9DBDA79B67BD34A5F3D SWAP2 PUSH1 0x6 PUSH2 0xA5B SWAP3 CALLER PUSH1 0x0 MSTORE MSTORE PUSH1 0x40 PUSH1 0x0 KECCAK256 PUSH2 0xA37 DUP3 DUP3 SLOAD PUSH2 0x254A JUMP JUMPDEST SWAP1 SSTORE PUSH2 0xA42 CALLER PUSH2 0x230B JUMP JUMPDEST POP PUSH1 0x40 DUP1 MLOAD CALLER DUP2 MSTORE PUSH1 0x20 DUP2 ADD SWAP3 SWAP1 SWAP3 MSTORE SWAP1 SWAP2 DUP3 SWAP2 DUP3 ADD SWAP1 JUMP JUMPDEST SUB SWAP1 LOG1 STOP JUMPDEST PUSH1 0x64 SWAP1 PUSH1 0x40 MLOAD SWAP1 PUSH3 0x461BCD PUSH1 0xE5 SHL DUP3 MSTORE PUSH1 0x4 DUP3 ADD MSTORE PUSH1 0xC PUSH1 0x24 DUP3 ADD MSTORE PUSH12 0x14DD185AD94819985A5B1959 PUSH1 0xA2 SHL PUSH1 0x44 DUP3 ADD MSTORE REVERT JUMPDEST PUSH2 0xAAA SWAP2 POP DUP3 RETURNDATASIZE DUP5 GT PUSH2 0x39A JUMPI PUSH2 0x38C DUP2 DUP4 PUSH2 0x212A JUMP JUMPDEST DUP4 PUSH2 0x9F4 JUMP JUMPDEST PUSH1 0x64 SWAP1 PUSH1 0x40 MLOAD SWAP1 PUSH3 0x461BCD PUSH1 0xE5 SHL DUP3 MSTORE PUSH1 0x4 DUP3 ADD MSTORE PUSH1 0xD PUSH1 0x24 DUP3 ADD MSTORE PUSH13 0x4D696E203130303020504C4B59 PUSH1 0x98 SHL PUSH1 0x44 DUP3 ADD MSTORE REVERT JUMPDEST CALLVALUE PUSH2 0x4D1 JUMPI PUSH1 0x60 CALLDATASIZE PUSH1 0x3 NOT ADD SLT PUSH2 0x4D1 JUMPI PUSH1 0x24 PUSH1 0x4 DUP2 CALLDATALOAD LT ISZERO PUSH2 0x4D1 JUMPI PUSH2 0xB09 PUSH2 0x2557 JUMP JUMPDEST PUSH2 0xB11 PUSH2 0x229B JUMP JUMPDEST PUSH1 0x4 CALLDATALOAD PUSH1 0x0 MSTORE PUSH1 0x3 PUSH1 0x20 MSTORE PUSH1 0x40 PUSH1 0x0 KECCAK256 PUSH1 0xFF PUSH1 0x3 DUP3 ADD SLOAD AND PUSH1 0x5 DUP2 LT ISZERO PUSH2 0xDAE JUMPI PUSH2 0xB3C SWAP1 ISZERO PUSH2 0x2626 JUMP JUMPDEST PUSH1 0x1 SLOAD PUSH1 0x40 MLOAD PUSH4 0x23B872DD PUSH1 0xE0 SHL DUP2 MSTORE CALLER PUSH1 0x4 DUP3 ADD MSTORE ADDRESS DUP5 DUP3 ADD MSTORE PUSH9 0x56BC75E2D63100000 PUSH1 0x44 DUP3 ADD MSTORE SWAP1 PUSH1 0x20 SWAP1 DUP3 SWAP1 PUSH1 0x64 SWAP1 DUP3 SWAP1 PUSH1 0x0 SWAP1 PUSH1 0x1 PUSH1 0x1 PUSH1 0xA0 SHL SUB AND GAS CALL DUP1 ISZERO PUSH2 0x3A1 JUMPI PUSH2 0xB97 SWAP2 PUSH1 0x0 SWAP2 PUSH2 0xD8F JUMPI JUMPDEST POP PUSH2 0x265D JUMP JUMPDEST PUSH1 0x40 MLOAD SWAP1 PUSH1 0x20 DUP3 ADD SWAP2 PUSH1 0x4 CALLDATALOAD DUP4 MSTORE DUP4 CALLDATALOAD PUSH1 0xF8 SHL PUSH1 0x40 DUP3 ADD MSTORE TIMESTAMP PUSH1 0x41 DUP3 ADD MSTORE CALLER PUSH1 0x60 SHL PUSH1 0x61 DUP3 ADD MSTORE PUSH1 0x55 DUP2 MSTORE PUSH1 0x80 DUP2 ADD PUSH8 0xFFFFFFFFFFFFFFFF SWAP4 DUP3 DUP3 LT DUP6 DUP4 GT OR PUSH2 0xD7A JUMPI DUP2 PUSH1 0x40 MSTORE DUP3 MLOAD SWAP1 KECCAK256 SWAP4 PUSH1 0x2 SLOAD PUSH3 0x15180 TIMESTAMP ADD SWAP2 DUP3 TIMESTAMP GT PUSH2 0xD65 JUMPI PUSH2 0x160 DUP6 ADD SWAP1 DUP2 GT DUP5 DUP3 LT OR PUSH2 0xD50 JUMPI PUSH1 0x40 MSTORE DUP7 CALLDATALOAD DUP4 MSTORE PUSH1 0x44 CALLDATALOAD PUSH1 0xA0 DUP6 ADD MSTORE PUSH1 0x1 PUSH1 0xC0 DUP6 ADD MSTORE PUSH1 0xE0 DUP5 ADD MSTORE PUSH2 0x100 DUP4 ADD MSTORE PUSH1 0x0 PUSH2 0x120 DUP4 ADD MSTORE CALLER PUSH2 0x140 DUP4 ADD MSTORE DUP4 PUSH1 0x0 MSTORE PUSH1 0x4 PUSH1 0x20 MSTORE PUSH1 0x40 PUSH1 0x0 KECCAK256 SWAP1 MLOAD PUSH1 0x4 DUP2 LT ISZERO PUSH2 0xD3B JUMPI SWAP3 PUSH2 0xCF6 PUSH1 0xFF SWAP4 PUSH1 0x5 DUP5 PUSH2 0xC87 PUSH1 0x80 SWAP10 SWAP9 PUSH32 0x83E7E93D665DB0EF8EF5842C60D072953EA5DFB0F407ABFF8BEFEFE6F69066AB SWAP12 SWAP8 PUSH2 0x25ED JUMP JUMPDEST PUSH1 0xA0 DUP4 ADD MLOAD PUSH1 0x1 DUP3 ADD SSTORE PUSH1 0xC0 DUP4 ADD MLOAD PUSH1 0x2 DUP3 ADD SSTORE PUSH1 0xE0 DUP4 ADD MLOAD PUSH1 0x3 DUP3 ADD SSTORE PUSH2 0x100 DUP4 ADD MLOAD PUSH1 0x4 DUP3 ADD SSTORE ADD SWAP1 PUSH2 0xCCF PUSH2 0x120 DUP3 ADD MLOAD ISZERO ISZERO DUP4 SWAP1 PUSH1 0xFF DUP1 NOT DUP4 SLOAD AND SWAP2 ISZERO ISZERO AND OR SWAP1 SSTORE JUMP JUMPDEST PUSH2 0x140 ADD MLOAD DUP2 SLOAD PUSH2 0x100 PUSH1 0x1 PUSH1 0xA8 SHL SUB NOT AND PUSH1 0x8 SWAP2 SWAP1 SWAP2 SHL PUSH2 0x100 PUSH1 0x1 PUSH1 0xA8 SHL SUB AND OR SWAP1 SSTORE JUMP JUMPDEST DUP4 PUSH1 0x6 DUP3 ADD SSTORE PUSH1 0x3 PUSH1 0x1 DUP5 NOT DUP3 DUP5 ADD SLOAD AND OR SWAP2 ADD SSTORE PUSH1 0x40 MLOAD SWAP3 PUSH1 0x4 CALLDATALOAD DUP5 MSTORE PUSH1 0x20 DUP5 ADD MSTORE CALLDATALOAD AND PUSH1 0x40 DUP3 ADD MSTORE CALLER PUSH1 0x60 DUP3 ADD MSTORE LOG1 PUSH1 0x1 PUSH1 0x0 DUP1 MLOAD PUSH1 0x20 PUSH2 0x26C7 DUP4 CODECOPY DUP2 MLOAD SWAP2 MSTORE SSTORE STOP JUMPDEST DUP6 PUSH4 0x4E487B71 PUSH1 0xE0 SHL PUSH1 0x0 MSTORE PUSH1 0x21 PUSH1 0x4 MSTORE PUSH1 0x0 REVERT JUMPDEST DUP8 PUSH4 0x4E487B71 PUSH1 0xE0 SHL PUSH1 0x0 MSTORE PUSH1 0x41 PUSH1 0x4 MSTORE PUSH1 0x0 REVERT JUMPDEST DUP8 PUSH4 0x4E487B71 PUSH1 0xE0 SHL PUSH1 0x0 MSTORE PUSH1 0x11 PUSH1 0x4 MSTORE PUSH1 0x0 REVERT JUMPDEST DUP6 PUSH4 0x4E487B71 PUSH1 0xE0 SHL PUSH1 0x0 MSTORE PUSH1 0x41 PUSH1 0x4 MSTORE PUSH1 0x0 REVERT JUMPDEST PUSH2 0xDA8 SWAP2 POP PUSH1 0x20 RETURNDATASIZE PUSH1 0x20 GT PUSH2 0x39A JUMPI PUSH2 0x38C DUP2 DUP4 PUSH2 0x212A JUMP JUMPDEST DUP5 PUSH2 0xB91 JUMP JUMPDEST DUP3 PUSH4 0x4E487B71 PUSH1 0xE0 SHL PUSH1 0x0 MSTORE PUSH1 0x21 PUSH1 0x4 MSTORE PUSH1 0x0 REVERT JUMPDEST CALLVALUE PUSH2 0x4D1 JUMPI PUSH1 0x0 CALLDATASIZE PUSH1 0x3 NOT ADD SLT PUSH2 0x4D1 JUMPI PUSH1 0x20 PUSH1 0x40 MLOAD PUSH1 0x0 DUP2 MSTORE RETURN JUMPDEST CALLVALUE PUSH2 0x4D1 JUMPI PUSH1 0x20 CALLDATASIZE PUSH1 0x3 NOT ADD SLT PUSH2 0x4D1 JUMPI PUSH1 0x4 CALLDATALOAD PUSH1 0x0 MSTORE PUSH1 0x3 PUSH1 0x20 MSTORE PUSH1 0x40 PUSH1 0x0 KECCAK256 PUSH2 0xE09 DUP2 PUSH2 0x214C JUMP JUMPDEST SWAP1 PUSH1 0x1 DUP2 ADD SLOAD PUSH1 0x2 DUP3 ADD SLOAD PUSH1 0x3 DUP4 ADD SLOAD SWAP1 PUSH1 0xFF DUP3 AND SWAP4 PUSH1 0xFF DUP4 PUSH1 0x10 SHR AND SWAP3 PUSH1 0x4 DUP3 ADD SLOAD SWAP6 PUSH1 0x5 DUP4 ADD SLOAD SWAP1 PUSH1 0x6 DUP5 ADD SLOAD SWAP3 PUSH1 0xFF PUSH1 0x8 PUSH1 0x7 DUP8 ADD SLOAD SWAP7 ADD SLOAD AND SWAP6 PUSH2 0xE5D PUSH1 0x40 MLOAD SWAP12 DUP13 PUSH2 0x180 DUP1 SWAP2 MSTORE DUP14 ADD SWAP1 PUSH2 0x21F2 JUMP JUMPDEST SWAP9 PUSH1 0x20 DUP13 ADD MSTORE PUSH1 0x40 DUP12 ADD MSTORE PUSH1 0x5 DUP3 LT ISZERO PUSH2 0x96E JUMPI PUSH2 0xE8A SWAP2 PUSH1 0x60 DUP12 ADD MSTORE PUSH1 0xFF PUSH1 0x80 DUP12 ADD SWAP2 PUSH1 0x8 SHR AND PUSH2 0x2099 JUMP JUMPDEST PUSH1 0x3 DUP6 LT ISZERO PUSH2 0x96E JUMPI DUP8 SWAP7 PUSH2 0xED7 SWAP6 PUSH1 0xA0 DUP10 ADD MSTORE PUSH1 0xC0 DUP9 ADD MSTORE PUSH1 0xFF DUP2 AND ISZERO ISZERO PUSH1 0xE0 DUP9 ADD MSTORE PUSH1 0x1 DUP1 PUSH1 0xA0 SHL SUB SWAP1 PUSH1 0x8 SHR AND PUSH2 0x100 DUP8 ADD MSTORE PUSH2 0x120 DUP7 ADD MSTORE PUSH2 0x140 DUP6 ADD MSTORE PUSH2 0x160 DUP5 ADD SWAP1 PUSH2 0x2099 JUMP JUMPDEST SUB SWAP1 RETURN JUMPDEST CALLVALUE PUSH2 0x4D1 JUMPI PUSH1 0x0 CALLDATASIZE PUSH1 0x3 NOT ADD SLT PUSH2 0x4D1 JUMPI PUSH1 0x20 PUSH1 0x40 MLOAD PUSH9 0x3635C9ADC5DEA00000 DUP2 MSTORE RETURN JUMPDEST CALLVALUE PUSH2 0x4D1 JUMPI PUSH1 0x40 CALLDATASIZE PUSH1 0x3 NOT ADD SLT PUSH2 0x4D1 JUMPI PUSH2 0xF18 PUSH2 0x2083 JUMP JUMPDEST PUSH1 0x4 CALLDATALOAD PUSH1 0x0 MSTORE PUSH1 0x0 PUSH1 0x20 MSTORE PUSH1 0x40 PUSH1 0x0 KECCAK256 SWAP1 PUSH1 0x1 DUP1 PUSH1 0xA0 SHL SUB AND PUSH1 0x0 MSTORE PUSH1 0x20 MSTORE PUSH1 0x20 PUSH1 0xFF PUSH1 0x40 PUSH1 0x0 KECCAK256 SLOAD AND PUSH1 0x40 MLOAD SWAP1 ISZERO ISZERO DUP2 MSTORE RETURN JUMPDEST CALLVALUE PUSH2 0x4D1 JUMPI PUSH1 0xA0 CALLDATASIZE PUSH1 0x3 NOT ADD SLT PUSH2 0x4D1 JUMPI PUSH1 0x4 CALLDATALOAD PUSH8 0xFFFFFFFFFFFFFFFF DUP2 GT PUSH2 0x4D1 JUMPI PUSH2 0xF7D SWAP1 CALLDATASIZE SWAP1 PUSH1 0x4 ADD PUSH2 0x20A6 JUMP JUMPDEST PUSH1 0x44 CALLDATALOAD PUSH8 0xFFFFFFFFFFFFFFFF DUP2 GT PUSH2 0x4D1 JUMPI PUSH2 0xF9D SWAP1 CALLDATASIZE SWAP1 PUSH1 0x4 ADD PUSH2 0x20A6 JUMP JUMPDEST SWAP1 SWAP3 PUSH1 0x3 PUSH1 0x84 CALLDATALOAD LT ISZERO PUSH2 0x4D1 JUMPI PUSH1 0x40 MLOAD PUSH1 0x20 DUP2 ADD SWAP1 DUP5 DUP4 DUP4 CALLDATACOPY PUSH2 0xFDC PUSH1 0x54 DUP3 DUP8 DUP2 ADD TIMESTAMP PUSH1 0x20 DUP3 ADD MSTORE CALLER PUSH1 0x60 SHL PUSH1 0x40 DUP3 ADD MSTORE SUB PUSH1 0x34 DUP2 ADD DUP5 MSTORE ADD DUP3 PUSH2 0x212A JUMP JUMPDEST MLOAD SWAP1 KECCAK256 SWAP3 PUSH1 0x40 MLOAD PUSH2 0x180 DUP2 ADD DUP2 DUP2 LT PUSH8 0xFFFFFFFFFFFFFFFF DUP3 GT OR PUSH2 0x6E4 JUMPI PUSH1 0x40 MSTORE PUSH2 0x1009 CALLDATASIZE DUP4 DUP6 PUSH2 0x2587 JUMP JUMPDEST DUP2 MSTORE PUSH1 0x24 CALLDATALOAD PUSH1 0x20 DUP3 ADD MSTORE PUSH1 0x64 CALLDATALOAD PUSH1 0x40 DUP3 ADD MSTORE PUSH1 0x0 PUSH1 0x60 DUP3 ADD MSTORE PUSH1 0x0 PUSH1 0x80 DUP3 ADD MSTORE PUSH1 0x84 CALLDATALOAD PUSH1 0xA0 DUP3 ADD MSTORE PUSH1 0x0 PUSH1 0xC0 DUP3 ADD MSTORE PUSH1 0x0 PUSH1 0xE0 DUP3 ADD MSTORE PUSH1 0x0 PUSH2 0x100 DUP3 ADD MSTORE PUSH1 0x0 PUSH2 0x120 DUP3 ADD MSTORE PUSH1 0x0 PUSH2 0x140 DUP3 ADD MSTORE PUSH1 0x0 PUSH2 0x160 DUP3 ADD MSTORE DUP5 PUSH1 0x0 MSTORE PUSH1 0x3 PUSH1 0x20 MSTORE PUSH1 0x40 PUSH1 0x0 KECCAK256 SWAP1 DUP1 MLOAD DUP1 MLOAD SWAP1 PUSH8 0xFFFFFFFFFFFFFFFF DUP3 GT PUSH2 0x6E4 JUMPI DUP2 SWAP1 PUSH2 0x108E DUP6 SLOAD PUSH2 0x20D4 JUMP JUMPDEST PUSH1 0x1F DUP2 GT PUSH2 0x12D9 JUMPI JUMPDEST POP PUSH1 0x20 SWAP1 PUSH1 0x1F DUP4 GT PUSH1 0x1 EQ PUSH2 0x126D JUMPI PUSH1 0x0 SWAP3 PUSH2 0x1262 JUMPI JUMPDEST POP POP DUP2 PUSH1 0x1 SHL SWAP2 PUSH1 0x0 NOT SWAP1 PUSH1 0x3 SHL SHR NOT AND OR DUP3 SSTORE JUMPDEST PUSH1 0x20 DUP2 ADD MLOAD PUSH1 0x1 DUP4 ADD SSTORE PUSH1 0x40 DUP2 ADD MLOAD PUSH1 0x2 DUP4 ADD SSTORE PUSH1 0x3 DUP3 ADD SWAP1 PUSH1 0x60 DUP2 ADD MLOAD PUSH1 0x5 DUP2 LT ISZERO PUSH2 0x96E JUMPI PUSH1 0xFF DUP1 NOT DUP5 SLOAD AND SWAP2 AND OR DUP3 SSTORE PUSH1 0x80 DUP2 ADD MLOAD PUSH1 0x4 DUP2 LT ISZERO PUSH2 0x96E JUMPI PUSH2 0x110E SWAP1 DUP4 PUSH2 0x25CE JUMP JUMPDEST PUSH1 0xA0 DUP2 ADD MLOAD SWAP2 PUSH1 0x3 DUP4 LT ISZERO PUSH2 0x96E JUMPI PUSH2 0x160 SWAP3 PUSH3 0xFF0000 DUP3 SLOAD SWAP2 PUSH1 0x10 SHL AND SWAP1 PUSH3 0xFF0000 NOT AND OR SWAP1 SSTORE PUSH1 0xC0 DUP2 ADD MLOAD PUSH1 0x4 DUP5 ADD SSTORE PUSH2 0x118B PUSH1 0x5 DUP5 ADD PUSH2 0x1163 PUSH1 0xE0 DUP5 ADD MLOAD ISZERO ISZERO DUP3 SWAP1 PUSH1 0xFF DUP1 NOT DUP4 SLOAD AND SWAP2 ISZERO ISZERO AND OR SWAP1 SSTORE JUMP JUMPDEST PUSH2 0x100 DUP4 ADD MLOAD DUP2 SLOAD PUSH2 0x100 PUSH1 0x1 PUSH1 0xA8 SHL SUB NOT AND PUSH1 0x8 SWAP2 SWAP1 SWAP2 SHL PUSH2 0x100 PUSH1 0x1 PUSH1 0xA8 SHL SUB AND OR SWAP1 SSTORE JUMP JUMPDEST PUSH2 0x120 DUP2 ADD MLOAD PUSH1 0x6 DUP5 ADD SSTORE PUSH2 0x140 DUP2 ADD MLOAD PUSH1 0x7 DUP5 ADD SSTORE ADD MLOAD PUSH1 0x4 DUP2 LT ISZERO PUSH2 0x96E JUMPI PUSH1 0x8 PUSH2 0x11B8 SWAP3 ADD PUSH2 0x25ED JUMP JUMPDEST PUSH1 0x7 SLOAD PUSH1 0x1 PUSH1 0x40 SHL DUP2 LT ISZERO PUSH2 0x6E4 JUMPI PUSH1 0x20 SWAP6 PUSH32 0x731DC1616EC6F75DAE0FF18B928864E626CB6E808A72E7CD2BE60C39D26E97F7 SWAP5 PUSH2 0x11FF DUP4 PUSH1 0x1 PUSH2 0x124C SWAP6 ADD PUSH1 0x7 SSTORE PUSH2 0x2264 JUMP JUMPDEST DUP2 SLOAD SWAP1 PUSH1 0x3 SHL SWAP1 DUP10 DUP3 SHL SWAP2 PUSH1 0x0 NOT SWAP1 SHL NOT AND OR SWAP1 SSTORE PUSH2 0x1230 PUSH1 0x40 MLOAD SWAP6 DUP7 SWAP6 DUP10 DUP8 MSTORE PUSH1 0xC0 DUP12 DUP9 ADD MSTORE PUSH1 0xC0 DUP8 ADD SWAP2 PUSH2 0x2605 JUMP JUMPDEST SWAP2 CALLER PUSH1 0x40 DUP7 ADD MSTORE PUSH1 0x64 CALLDATALOAD PUSH1 0x60 DUP7 ADD MSTORE DUP5 DUP4 SUB PUSH1 0x80 DUP7 ADD MSTORE PUSH2 0x2605 JUMP JUMPDEST PUSH1 0xFF PUSH1 0x84 CALLDATALOAD AND PUSH1 0xA0 DUP4 ADD MSTORE SUB SWAP1 LOG1 PUSH1 0x40 MLOAD SWAP1 DUP2 MSTORE RETURN JUMPDEST ADD MLOAD SWAP1 POP DUP10 DUP1 PUSH2 0x10AE JUMP JUMPDEST SWAP3 POP DUP5 PUSH1 0x0 MSTORE PUSH1 0x20 PUSH1 0x0 KECCAK256 SWAP1 PUSH1 0x0 SWAP4 JUMPDEST PUSH1 0x1F NOT DUP5 AND DUP6 LT PUSH2 0x12BE JUMPI PUSH1 0x1 SWAP5 POP DUP4 PUSH1 0x1F NOT DUP2 AND LT PUSH2 0x12A5 JUMPI JUMPDEST POP POP POP DUP2 SHL ADD DUP3 SSTORE PUSH2 0x10C3 JUMP JUMPDEST ADD MLOAD PUSH1 0x0 NOT PUSH1 0xF8 DUP5 PUSH1 0x3 SHL AND SHR NOT AND SWAP1 SSTORE DUP10 DUP1 DUP1 PUSH2 0x1298 JUMP JUMPDEST DUP2 DUP2 ADD MLOAD DUP4 SSTORE PUSH1 0x20 SWAP5 DUP6 ADD SWAP5 PUSH1 0x1 SWAP1 SWAP4 ADD SWAP3 SWAP1 SWAP2 ADD SWAP1 PUSH2 0x127D JUMP JUMPDEST SWAP1 SWAP2 POP DUP5 PUSH1 0x0 MSTORE PUSH1 0x20 PUSH1 0x0 KECCAK256 PUSH1 0x1F DUP5 ADD PUSH1 0x5 SHR DUP2 ADD PUSH1 0x20 DUP6 LT PUSH2 0x1322 JUMPI JUMPDEST SWAP1 DUP5 SWAP4 SWAP3 SWAP2 JUMPDEST PUSH1 0x1F DUP4 ADD PUSH1 0x5 SHR DUP3 ADD DUP2 LT PUSH2 0x1313 JUMPI POP POP PUSH2 0x1097 JUMP JUMPDEST PUSH1 0x0 DUP2 SSTORE DUP6 SWAP5 POP PUSH1 0x1 ADD PUSH2 0x12FD JUMP JUMPDEST POP DUP1 PUSH2 0x12F7 JUMP JUMPDEST CALLVALUE PUSH2 0x4D1 JUMPI PUSH1 0x0 CALLDATASIZE PUSH1 0x3 NOT ADD SLT PUSH2 0x4D1 JUMPI PUSH1 0x20 PUSH1 0x40 MLOAD PUSH1 0x0 DUP1 MLOAD PUSH1 0x20 PUSH2 0x26A7 DUP4 CODECOPY DUP2 MLOAD SWAP2 MSTORE DUP2 MSTORE RETURN JUMPDEST CALLVALUE PUSH2 0x4D1 JUMPI PUSH1 0x20 DUP1 PUSH1 0x3 NOT CALLDATASIZE ADD SLT PUSH2 0x4D1 JUMPI PUSH1 0x4 CALLDATALOAD SWAP1 PUSH2 0x1370 PUSH2 0x2557 JUMP JUMPDEST DUP2 PUSH1 0x0 MSTORE PUSH1 0x3 DUP2 MSTORE PUSH1 0x40 PUSH1 0x0 KECCAK256 PUSH1 0x3 DUP2 ADD PUSH1 0xFF DUP2 SLOAD AND PUSH1 0x5 DUP2 LT ISZERO PUSH2 0x96E JUMPI PUSH1 0x2 SUB PUSH2 0x157A JUMPI PUSH1 0x6 DUP3 ADD SLOAD PUSH1 0x0 MSTORE PUSH1 0x4 DUP4 MSTORE PUSH1 0x40 PUSH1 0x0 KECCAK256 SWAP2 PUSH1 0x4 DUP4 ADD SLOAD TIMESTAMP LT PUSH2 0x1543 JUMPI PUSH1 0x5 DUP4 ADD SWAP2 DUP3 SLOAD PUSH1 0xFF DUP2 AND PUSH2 0x150B JUMPI DUP6 SWAP3 PUSH2 0x13EC PUSH1 0x0 SWAP6 SWAP4 PUSH1 0x3 PUSH1 0x44 SWAP5 PUSH1 0x1 PUSH1 0xFF NOT DUP1 SWAP3 AND OR DUP8 SSTORE DUP3 SLOAD AND OR DUP2 SSTORE PUSH1 0xFF DUP9 SLOAD AND SWAP1 PUSH2 0x25CE JUMP JUMPDEST DUP3 SLOAD PUSH1 0x5 SWAP1 SWAP2 ADD DUP1 SLOAD PUSH2 0x100 PUSH1 0x1 PUSH1 0xA8 SHL SUB NOT AND PUSH2 0x100 PUSH1 0x1 PUSH1 0xA8 SHL SUB SWAP1 SWAP3 AND SWAP2 SWAP1 SWAP2 OR SWAP1 SSTORE PUSH1 0x1 PUSH1 0x1 PUSH1 0xA0 SHL SUB DUP1 PUSH1 0x1 SLOAD AND SWAP3 SLOAD PUSH1 0x8 SHR AND PUSH1 0x40 MLOAD SWAP5 DUP6 SWAP4 DUP5 SWAP3 PUSH4 0xA9059CBB PUSH1 0xE0 SHL DUP5 MSTORE PUSH1 0x4 DUP5 ADD MSTORE PUSH9 0x56BC75E2D63100000 PUSH1 0x24 DUP5 ADD MSTORE GAS CALL SWAP1 DUP2 ISZERO PUSH2 0x3A1 JUMPI PUSH1 0x0 SWAP2 PUSH2 0x14EE JUMPI JUMPDEST POP ISZERO PUSH2 0x14B9 JUMPI SLOAD PUSH1 0xFF AND SWAP2 PUSH1 0x4 DUP4 LT ISZERO PUSH2 0x96E JUMPI PUSH32 0xFD798F2A5EEC94A3BDE8D7E1C8254437F1BA3B44D1DD5721057353A4A10DB23E SWAP3 PUSH1 0x60 SWAP3 PUSH1 0x40 MLOAD SWAP3 DUP4 MSTORE DUP3 ADD MSTORE CALLER PUSH1 0x40 DUP3 ADD MSTORE LOG1 PUSH1 0x1 PUSH1 0x0 DUP1 MLOAD PUSH1 0x20 PUSH2 0x26C7 DUP4 CODECOPY DUP2 MLOAD SWAP2 MSTORE SSTORE STOP JUMPDEST PUSH1 0x40 MLOAD PUSH3 0x461BCD PUSH1 0xE5 SHL DUP2 MSTORE PUSH1 0x4 DUP2 ADD DUP4 SWAP1 MSTORE PUSH1 0xD PUSH1 0x24 DUP3 ADD MSTORE PUSH13 0x14995D1D5C9B8819985A5B1959 PUSH1 0x9A SHL PUSH1 0x44 DUP3 ADD MSTORE PUSH1 0x64 SWAP1 REVERT JUMPDEST PUSH2 0x1505 SWAP2 POP DUP4 RETURNDATASIZE DUP6 GT PUSH2 0x39A JUMPI PUSH2 0x38C DUP2 DUP4 PUSH2 0x212A JUMP JUMPDEST DUP5 PUSH2 0x145C JUMP JUMPDEST PUSH1 0x40 MLOAD PUSH3 0x461BCD PUSH1 0xE5 SHL DUP2 MSTORE PUSH1 0x4 DUP2 ADD DUP8 SWAP1 MSTORE PUSH1 0x10 PUSH1 0x24 DUP3 ADD MSTORE PUSH16 0x105B1C9958591E48195E1958DD5D1959 PUSH1 0x82 SHL PUSH1 0x44 DUP3 ADD MSTORE PUSH1 0x64 SWAP1 REVERT JUMPDEST PUSH1 0x40 MLOAD PUSH3 0x461BCD PUSH1 0xE5 SHL DUP2 MSTORE PUSH1 0x4 DUP2 ADD DUP6 SWAP1 MSTORE PUSH1 0xF PUSH1 0x24 DUP3 ADD MSTORE PUSH15 0x54696D656C6F636B20616374697665 PUSH1 0x88 SHL PUSH1 0x44 DUP3 ADD MSTORE PUSH1 0x64 SWAP1 REVERT JUMPDEST PUSH1 0x40 MLOAD PUSH3 0x461BCD PUSH1 0xE5 SHL DUP2 MSTORE PUSH1 0x4 DUP2 ADD DUP5 SWAP1 MSTORE PUSH1 0xC PUSH1 0x24 DUP3 ADD MSTORE PUSH12 0x4E6F742074696D656C6F636B PUSH1 0xA0 SHL PUSH1 0x44 DUP3 ADD MSTORE PUSH1 0x64 SWAP1 REVERT JUMPDEST CALLVALUE PUSH2 0x4D1 JUMPI PUSH1 0x40 CALLDATASIZE PUSH1 0x3 NOT ADD SLT PUSH2 0x4D1 JUMPI PUSH1 0x4 CALLDATALOAD PUSH1 0x24 CALLDATALOAD PUSH2 0x15CD PUSH2 0x229B JUMP JUMPDEST DUP1 PUSH1 0x0 MSTORE PUSH1 0x4 PUSH1 0x20 MSTORE PUSH1 0x40 PUSH1 0x0 KECCAK256 PUSH1 0xFF PUSH1 0x5 DUP3 ADD SLOAD AND PUSH2 0x165C JUMPI DUP1 PUSH32 0x7C8E92444E0306D072BCCB9BC004125878EC9E5CE74EDE43ED06172B77459BF PUSH1 0x60 PUSH1 0x2 PUSH1 0x3 SWAP5 ADD SWAP5 PUSH2 0x161C DUP7 SLOAD PUSH2 0x2697 JUMP JUMPDEST DUP1 SWAP7 SSTORE PUSH1 0x40 MLOAD SWAP1 DUP8 DUP3 MSTORE PUSH1 0x20 DUP3 ADD MSTORE CALLER PUSH1 0x40 DUP3 ADD MSTORE LOG1 ADD SLOAD GT ISZERO PUSH2 0x163C JUMPI STOP JUMPDEST PUSH1 0x0 MSTORE PUSH1 0x3 PUSH1 0x20 MSTORE PUSH1 0x3 PUSH1 0x40 PUSH1 0x0 KECCAK256 ADD PUSH1 0x2 PUSH1 0xFF NOT DUP3 SLOAD AND OR SWAP1 SSTORE PUSH1 0x0 DUP1 RETURN JUMPDEST PUSH1 0x40 MLOAD PUSH3 0x461BCD PUSH1 0xE5 SHL DUP2 MSTORE PUSH1 0x20 PUSH1 0x4 DUP3 ADD MSTORE PUSH1 0x8 PUSH1 0x24 DUP3 ADD MSTORE PUSH8 0x115E1958DD5D1959 PUSH1 0xC2 SHL PUSH1 0x44 DUP3 ADD MSTORE PUSH1 0x64 SWAP1 REVERT JUMPDEST CALLVALUE PUSH2 0x4D1 JUMPI PUSH1 0x60 CALLDATASIZE PUSH1 0x3 NOT ADD SLT PUSH2 0x4D1 JUMPI PUSH1 0x24 CALLDATALOAD PUSH8 0xFFFFFFFFFFFFFFFF DUP2 GT PUSH2 0x4D1 JUMPI PUSH2 0x16BD SWAP1 CALLDATASIZE SWAP1 PUSH1 0x4 ADD PUSH2 0x20A6 JUMP JUMPDEST PUSH2 0x16C5 PUSH2 0x2557 JUMP JUMPDEST PUSH1 0x4 CALLDATALOAD PUSH1 0x0 MSTORE PUSH1 0x3 PUSH1 0x20 MSTORE PUSH1 0x40 PUSH1 0x0 KECCAK256 SWAP2 PUSH1 0xFF PUSH1 0x3 DUP5 ADD SLOAD AND PUSH1 0x5 DUP2 LT ISZERO PUSH2 0x96E JUMPI PUSH1 0x3 SUB PUSH2 0x1A16 JUMPI PUSH1 0x1 DUP1 PUSH1 0xA0 SHL SUB PUSH1 0x1 SLOAD AND SWAP1 PUSH1 0x40 MLOAD PUSH4 0x23B872DD PUSH1 0xE0 SHL DUP2 MSTORE CALLER PUSH1 0x4 DUP3 ADD MSTORE ADDRESS PUSH1 0x24 DUP3 ADD MSTORE PUSH1 0x20 DUP2 PUSH1 0x64 DUP2 PUSH1 0x0 PUSH9 0x2B5E3AF16B1880000 SWAP8 DUP9 PUSH1 0x44 DUP5 ADD MSTORE GAS CALL DUP1 ISZERO PUSH2 0x3A1 JUMPI PUSH2 0x1745 SWAP2 PUSH1 0x0 SWAP2 PUSH2 0x19F7 JUMPI POP PUSH2 0x265D JUMP JUMPDEST PUSH1 0x4 CALLDATALOAD PUSH1 0x0 MSTORE PUSH1 0x5 PUSH1 0x20 MSTORE PUSH2 0x1770 PUSH1 0x40 PUSH1 0x0 KECCAK256 SWAP2 PUSH1 0x40 MLOAD SWAP5 PUSH2 0x1766 DUP7 PUSH2 0x210E JUMP JUMPDEST CALLER DUP7 MSTORE CALLDATASIZE SWAP2 PUSH2 0x2587 JUMP JUMPDEST SWAP2 PUSH1 0x20 DUP5 ADD SWAP3 DUP4 MSTORE PUSH1 0x44 CALLDATALOAD PUSH1 0x40 DUP6 ADD MSTORE PUSH1 0x60 DUP5 ADD MSTORE PUSH1 0x0 PUSH1 0x80 DUP5 ADD MSTORE PUSH1 0x0 PUSH1 0xA0 DUP5 ADD MSTORE DUP1 SLOAD PUSH1 0x1 PUSH1 0x40 SHL DUP2 LT ISZERO PUSH2 0x6E4 JUMPI PUSH2 0x17B0 SWAP2 PUSH1 0x1 DUP3 ADD DUP2 SSTORE PUSH2 0x2232 JUMP JUMPDEST SWAP2 SWAP1 SWAP2 PUSH2 0x19E1 JUMPI DUP3 MLOAD DUP3 SLOAD PUSH1 0x1 PUSH1 0x1 PUSH1 0xA0 SHL SUB NOT AND PUSH1 0x1 PUSH1 0x1 PUSH1 0xA0 SHL SUB SWAP2 SWAP1 SWAP2 AND OR DUP3 SSTORE MLOAD DUP1 MLOAD SWAP1 PUSH8 0xFFFFFFFFFFFFFFFF DUP3 GT PUSH2 0x6E4 JUMPI PUSH2 0x17F4 PUSH1 0x1 DUP5 ADD SLOAD PUSH2 0x20D4 JUMP JUMPDEST PUSH1 0x1F DUP2 GT PUSH2 0x199A JUMPI JUMPDEST POP PUSH1 0x20 SWAP1 PUSH1 0x1F DUP4 GT PUSH1 0x1 EQ PUSH2 0x1925 JUMPI SWAP2 DUP1 PUSH1 0xA0 SWAP5 SWAP3 PUSH1 0x4 SWAP5 PUSH1 0x0 SWAP3 PUSH2 0x191A JUMPI JUMPDEST POP POP DUP2 PUSH1 0x1 SHL SWAP2 PUSH1 0x0 NOT SWAP1 PUSH1 0x3 SHL SHR NOT AND OR PUSH1 0x1 DUP3 ADD SSTORE JUMPDEST PUSH1 0x40 DUP5 ADD MLOAD PUSH1 0x2 DUP3 ADD SSTORE PUSH1 0x60 DUP5 ADD MLOAD PUSH1 0x3 DUP3 ADD SSTORE ADD SWAP2 PUSH2 0x1867 PUSH1 0x80 DUP3 ADD MLOAD ISZERO ISZERO DUP5 SWAP1 PUSH1 0xFF DUP1 NOT DUP4 SLOAD AND SWAP2 ISZERO ISZERO AND OR SWAP1 SSTORE JUMP JUMPDEST ADD MLOAD DUP2 SLOAD PUSH2 0xFF00 NOT AND SWAP1 ISZERO ISZERO PUSH1 0x8 SHL PUSH2 0xFF00 AND OR SWAP1 SSTORE PUSH1 0x4 DUP2 ADD DUP1 SLOAD PUSH2 0x188C SWAP1 PUSH2 0x2697 JUMP JUMPDEST SWAP1 SSTORE PUSH1 0x3 ADD DUP1 SLOAD PUSH1 0xFF NOT AND SWAP1 SSTORE PUSH1 0x4 CALLDATALOAD PUSH1 0x0 SWAP1 DUP2 MSTORE PUSH1 0x5 PUSH1 0x20 MSTORE PUSH1 0x40 SWAP1 KECCAK256 SLOAD PUSH1 0x0 NOT DUP2 ADD SWAP1 DUP2 GT PUSH2 0x1904 JUMPI PUSH1 0x60 PUSH32 0x60EE328C58EBC847DA6B7392E2FFA4579DD33D845DE7EB8A7BCA7313F728C95 SWAP2 PUSH1 0x40 MLOAD SWAP1 PUSH1 0x4 CALLDATALOAD DUP3 MSTORE PUSH1 0x20 DUP3 ADD MSTORE CALLER PUSH1 0x40 DUP3 ADD MSTORE LOG1 PUSH1 0x1 PUSH1 0x0 DUP1 MLOAD PUSH1 0x20 PUSH2 0x26C7 DUP4 CODECOPY DUP2 MLOAD SWAP2 MSTORE SSTORE STOP JUMPDEST PUSH4 0x4E487B71 PUSH1 0xE0 SHL PUSH1 0x0 MSTORE PUSH1 0x11 PUSH1 0x4 MSTORE PUSH1 0x24 PUSH1 0x0 REVERT JUMPDEST ADD MLOAD SWAP1 POP DUP8 DUP1 PUSH2 0x181D JUMP JUMPDEST SWAP1 PUSH1 0x1 DUP5 ADD PUSH1 0x0 MSTORE PUSH1 0x20 PUSH1 0x0 KECCAK256 SWAP2 PUSH1 0x0 JUMPDEST PUSH1 0x1F NOT DUP6 AND DUP2 LT PUSH2 0x1982 JUMPI POP SWAP3 PUSH1 0xA0 SWAP5 SWAP3 PUSH1 0x1 SWAP3 PUSH1 0x4 SWAP6 DUP4 PUSH1 0x1F NOT DUP2 AND LT PUSH2 0x1969 JUMPI JUMPDEST POP POP POP DUP2 SHL ADD PUSH1 0x1 DUP3 ADD SSTORE PUSH2 0x1835 JUMP JUMPDEST ADD MLOAD PUSH1 0x0 NOT PUSH1 0xF8 DUP5 PUSH1 0x3 SHL AND SHR NOT AND SWAP1 SSTORE DUP8 DUP1 DUP1 PUSH2 0x1959 JUMP JUMPDEST SWAP2 SWAP3 PUSH1 0x20 PUSH1 0x1 DUP2 SWAP3 DUP7 DUP6 ADD MLOAD DUP2 SSTORE ADD SWAP5 ADD SWAP3 ADD PUSH2 0x1936 JUMP JUMPDEST PUSH1 0x1 DUP5 ADD PUSH1 0x0 MSTORE PUSH1 0x20 PUSH1 0x0 KECCAK256 PUSH1 0x1F DUP5 ADD PUSH1 0x5 SHR DUP2 ADD PUSH1 0x20 DUP6 LT PUSH2 0x19DA JUMPI JUMPDEST PUSH1 0x1F DUP4 ADD PUSH1 0x5 SHR DUP3 ADD DUP2 LT PUSH2 0x19CE JUMPI POP POP PUSH2 0x17FD JUMP JUMPDEST PUSH1 0x0 DUP2 SSTORE PUSH1 0x1 ADD PUSH2 0x19B8 JUMP JUMPDEST POP DUP1 PUSH2 0x19B8 JUMP JUMPDEST PUSH4 0x4E487B71 PUSH1 0xE0 SHL PUSH1 0x0 MSTORE PUSH1 0x0 PUSH1 0x4 MSTORE PUSH1 0x24 PUSH1 0x0 REVERT JUMPDEST PUSH2 0x1A10 SWAP2 POP PUSH1 0x20 RETURNDATASIZE PUSH1 0x20 GT PUSH2 0x39A JUMPI PUSH2 0x38C DUP2 DUP4 PUSH2 0x212A JUMP JUMPDEST DUP7 PUSH2 0xB91 JUMP JUMPDEST PUSH1 0x40 MLOAD PUSH3 0x461BCD PUSH1 0xE5 SHL DUP2 MSTORE PUSH1 0x20 PUSH1 0x4 DUP3 ADD MSTORE PUSH1 0xC PUSH1 0x24 DUP3 ADD MSTORE PUSH12 0x139BDD081C995CDBDB1D9959 PUSH1 0xA2 SHL PUSH1 0x44 DUP3 ADD MSTORE PUSH1 0x64 SWAP1 REVERT JUMPDEST CALLVALUE PUSH2 0x4D1 JUMPI PUSH1 0x0 CALLDATASIZE PUSH1 0x3 NOT ADD SLT PUSH2 0x4D1 JUMPI PUSH1 0x1 SLOAD PUSH1 0x40 MLOAD PUSH1 0x1 PUSH1 0x1 PUSH1 0xA0 SHL SUB SWAP1 SWAP2 AND DUP2 MSTORE PUSH1 0x20 SWAP1 RETURN JUMPDEST CALLVALUE PUSH2 0x4D1 JUMPI PUSH1 0x0 CALLDATASIZE PUSH1 0x3 NOT ADD SLT PUSH2 0x4D1 JUMPI PUSH1 0x20 PUSH1 0x40 MLOAD PUSH32 0xBB08418A67729A078F87BBC8D02A770929BB68F5BFDF134AE2EAD6ED38E2F4AE DUP2 MSTORE RETURN JUMPDEST CALLVALUE PUSH2 0x4D1 JUMPI PUSH1 0x0 CALLDATASIZE PUSH1 0x3 NOT ADD SLT PUSH2 0x4D1 JUMPI PUSH1 0x20 PUSH1 0x40 MLOAD PUSH9 0x2B5E3AF16B1880000 DUP2 MSTORE RETURN JUMPDEST CALLVALUE PUSH2 0x4D1 JUMPI PUSH1 0x20 CALLDATASIZE PUSH1 0x3 NOT ADD SLT PUSH2 0x4D1 JUMPI CALLER PUSH1 0x0 SWAP1 DUP2 MSTORE PUSH32 0xAD3228B676F7D3CD4284A5443F17F1962B36E491B30A40B2405849E597BA5FB5 PUSH1 0x20 MSTORE PUSH1 0x40 SWAP1 KECCAK256 SLOAD PUSH1 0x4 CALLDATALOAD SWAP1 PUSH1 0xFF AND ISZERO PUSH2 0x1B6B JUMPI PUSH1 0x40 DUP2 PUSH32 0x671CAAB152D4256B6DC0FF9F31C61E0C7F53200CA140E4F67F371E88B48A1541 SWAP3 PUSH1 0x0 MSTORE PUSH1 0x3 PUSH1 0x20 MSTORE PUSH1 0x3 DUP3 PUSH1 0x0 KECCAK256 ADD PUSH1 0x4 PUSH1 0xFF NOT DUP3 SLOAD AND OR SWAP1 SSTORE DUP2 MLOAD SWAP1 DUP2 MSTORE CALLER PUSH1 0x20 DUP3 ADD MSTORE LOG1 STOP JUMPDEST PUSH1 0x40 MLOAD PUSH4 0xE2517D3F PUSH1 0xE0 SHL DUP2 MSTORE CALLER PUSH1 0x4 DUP3 ADD MSTORE PUSH1 0x0 PUSH1 0x24 DUP3 ADD MSTORE PUSH1 0x44 SWAP1 REVERT JUMPDEST CALLVALUE PUSH2 0x4D1 JUMPI PUSH1 0x40 CALLDATASIZE PUSH1 0x3 NOT ADD SLT PUSH2 0x4D1 JUMPI PUSH2 0x1BA3 PUSH2 0x2083 JUMP JUMPDEST CALLER PUSH1 0x1 PUSH1 0x1 PUSH1 0xA0 SHL SUB DUP3 AND SUB PUSH2 0x1BBF JUMPI PUSH2 0x56A SWAP1 PUSH1 0x4 CALLDATALOAD PUSH2 0x24BD JUMP JUMPDEST PUSH1 0x40 MLOAD PUSH4 0x334BD919 PUSH1 0xE1 SHL DUP2 MSTORE PUSH1 0x4 SWAP1 REVERT JUMPDEST CALLVALUE PUSH2 0x4D1 JUMPI PUSH1 0x20 CALLDATASIZE PUSH1 0x3 NOT ADD SLT PUSH2 0x4D1 JUMPI PUSH1 0x4 CALLDATALOAD PUSH1 0x0 MSTORE PUSH1 0x4 PUSH1 0x20 MSTORE PUSH1 0xE0 PUSH1 0x40 PUSH1 0x0 KECCAK256 PUSH1 0xFF DUP2 SLOAD AND SWAP1 PUSH1 0x1 DUP2 ADD SLOAD SWAP1 PUSH1 0x2 DUP2 ADD SLOAD PUSH1 0x3 DUP3 ADD SLOAD SWAP1 PUSH1 0x5 PUSH1 0x4 DUP5 ADD SLOAD SWAP4 ADD SLOAD SWAP4 PUSH2 0x1C23 PUSH1 0x40 MLOAD DUP1 SWAP8 PUSH2 0x2099 JUMP JUMPDEST PUSH1 0x20 DUP7 ADD MSTORE PUSH1 0x40 DUP6 ADD MSTORE PUSH1 0x60 DUP5 ADD MSTORE PUSH1 0x80 DUP4 ADD MSTORE PUSH1 0xFF DUP2 AND ISZERO ISZERO PUSH1 0xA0 DUP4 ADD MSTORE PUSH1 0x8 SHR PUSH1 0x1 PUSH1 0x1 PUSH1 0xA0 SHL SUB AND PUSH1 0xC0 DUP3 ADD MSTORE RETURN JUMPDEST CALLVALUE PUSH2 0x4D1 JUMPI PUSH1 0x40 CALLDATASIZE PUSH1 0x3 NOT ADD SLT PUSH2 0x4D1 JUMPI PUSH2 0x56A PUSH1 0x4 CALLDATALOAD PUSH2 0x1C74 PUSH2 0x2083 JUMP JUMPDEST SWAP1 DUP1 PUSH1 0x0 MSTORE PUSH1 0x0 PUSH1 0x20 MSTORE PUSH2 0x1C8F PUSH1 0x1 PUSH1 0x40 PUSH1 0x0 KECCAK256 ADD SLOAD PUSH2 0x22E5 JUMP JUMPDEST PUSH2 0x23AB JUMP JUMPDEST CALLVALUE PUSH2 0x4D1 JUMPI PUSH1 0x20 DUP1 PUSH1 0x3 NOT CALLDATASIZE ADD SLT PUSH2 0x4D1 JUMPI PUSH1 0x4 CALLDATALOAD SWAP1 PUSH2 0x1CB2 PUSH2 0x2557 JUMP JUMPDEST PUSH2 0x1CBA PUSH2 0x229B JUMP JUMPDEST CALLER PUSH1 0x0 MSTORE PUSH1 0x6 DUP2 MSTORE DUP2 PUSH1 0x40 PUSH1 0x0 KECCAK256 SLOAD LT PUSH2 0x1DF8 JUMPI CALLER PUSH1 0x0 MSTORE PUSH1 0x6 DUP2 MSTORE PUSH1 0x40 PUSH1 0x0 KECCAK256 DUP1 SLOAD SWAP1 DUP4 DUP3 SUB SWAP2 DUP3 GT PUSH2 0x1904 JUMPI SSTORE CALLER PUSH1 0x0 MSTORE PUSH1 0x6 DUP2 MSTORE PUSH9 0x3635C9ADC5DEA00000 PUSH1 0x40 PUSH1 0x0 KECCAK256 SLOAD LT PUSH2 0x1DE9 JUMPI JUMPDEST PUSH1 0x1 SLOAD PUSH1 0x40 MLOAD PUSH4 0xA9059CBB PUSH1 0xE0 SHL DUP2 MSTORE CALLER PUSH1 0x4 DUP3 ADD MSTORE PUSH1 0x24 DUP2 ADD DUP5 SWAP1 MSTORE SWAP1 DUP3 SWAP1 DUP3 SWAP1 PUSH1 0x44 SWAP1 DUP3 SWAP1 PUSH1 0x0 SWAP1 PUSH1 0x1 PUSH1 0x1 PUSH1 0xA0 SHL SUB AND GAS CALL SWAP1 DUP2 ISZERO PUSH2 0x3A1 JUMPI PUSH1 0x0 SWAP2 PUSH2 0x1DCC JUMPI JUMPDEST POP ISZERO PUSH2 0x1D97 JUMPI PUSH1 0x40 DUP1 MLOAD CALLER DUP2 MSTORE PUSH1 0x20 DUP2 ADD DUP5 SWAP1 MSTORE PUSH32 0xF5BB82176FEB1B5E747E28471AA92156A04D9F3AB9F45F28E2D704232B93F75 SWAP2 SWAP1 LOG1 PUSH1 0x1 PUSH1 0x0 DUP1 MLOAD PUSH1 0x20 PUSH2 0x26C7 DUP4 CODECOPY DUP2 MLOAD SWAP2 MSTORE SSTORE STOP JUMPDEST PUSH1 0x64 SWAP1 PUSH1 0x40 MLOAD SWAP1 PUSH3 0x461BCD PUSH1 0xE5 SHL DUP3 MSTORE PUSH1 0x4 DUP3 ADD MSTORE PUSH1 0xE PUSH1 0x24 DUP3 ADD MSTORE PUSH14 0x155B9CDD185AD94819985A5B1959 PUSH1 0x92 SHL PUSH1 0x44 DUP3 ADD MSTORE REVERT JUMPDEST PUSH2 0x1DE3 SWAP2 POP DUP3 RETURNDATASIZE DUP5 GT PUSH2 0x39A JUMPI PUSH2 0x38C DUP2 DUP4 PUSH2 0x212A JUMP JUMPDEST DUP4 PUSH2 0x1D4B JUMP JUMPDEST PUSH2 0x1DF2 CALLER PUSH2 0x2424 JUMP JUMPDEST POP PUSH2 0x1D07 JUMP JUMPDEST PUSH1 0x64 SWAP1 PUSH1 0x40 MLOAD SWAP1 PUSH3 0x461BCD PUSH1 0xE5 SHL DUP3 MSTORE PUSH1 0x4 DUP3 ADD MSTORE PUSH1 0x12 PUSH1 0x24 DUP3 ADD MSTORE PUSH18 0x496E73756666696369656E74207374616B65 PUSH1 0x70 SHL PUSH1 0x44 DUP3 ADD MSTORE REVERT JUMPDEST CALLVALUE PUSH2 0x4D1 JUMPI PUSH1 0x20 CALLDATASIZE PUSH1 0x3 NOT ADD SLT PUSH2 0x4D1 JUMPI PUSH1 0x4 CALLDATALOAD PUSH1 0x0 MSTORE PUSH1 0x0 PUSH1 0x20 MSTORE PUSH1 0x20 PUSH1 0x1 PUSH1 0x40 PUSH1 0x0 KECCAK256 ADD SLOAD PUSH1 0x40 MLOAD SWAP1 DUP2 MSTORE RETURN JUMPDEST CALLVALUE PUSH2 0x4D1 JUMPI PUSH1 0x60 CALLDATASIZE PUSH1 0x3 NOT ADD SLT PUSH2 0x4D1 JUMPI PUSH1 0x4 CALLDATALOAD PUSH1 0x24 CALLDATALOAD PUSH1 0x44 CALLDATALOAD SWAP2 PUSH1 0x4 DUP4 LT ISZERO PUSH2 0x4D1 JUMPI CALLER PUSH1 0x0 SWAP1 DUP2 MSTORE PUSH32 0xC1C604B5ADD75B59252BCA1E4E4EC4AB21F3921B1DDCF7A43ABE69724BCE555D PUSH1 0x20 MSTORE PUSH1 0x40 SWAP1 KECCAK256 SLOAD PUSH32 0x482648E7878E9FA54C0A2F67FFD22D00EBC37CF7A03E060E428D2AB0CD6735CC SWAP1 PUSH1 0xFF AND ISZERO PUSH2 0x4B3 JUMPI POP DUP1 PUSH1 0x0 MSTORE PUSH1 0x3 PUSH1 0x20 MSTORE PUSH1 0x40 PUSH1 0x0 KECCAK256 DUP3 PUSH1 0x7 DUP3 ADD SSTORE PUSH2 0x1EFF DUP5 PUSH1 0x8 DUP4 ADD PUSH2 0x25ED JUMP JUMPDEST PUSH1 0x3 PUSH1 0x40 MLOAD SWAP2 DUP4 DUP4 MSTORE DUP5 PUSH1 0x20 DUP5 ADD MSTORE PUSH32 0xEDFDD0518DB7B0575C0EDE299FCF41CF2138248BC5581848D60781791AE9E050 PUSH1 0x60 PUSH1 0xFF DUP9 AND SWAP5 DUP6 PUSH1 0x40 DUP3 ADD MSTORE LOG1 ADD SWAP3 DUP4 SLOAD SWAP1 PUSH1 0xFF DUP3 PUSH1 0x10 SHR AND PUSH1 0x3 DUP2 LT ISZERO PUSH2 0x96E JUMPI ISZERO SWAP1 DUP2 PUSH2 0x1FC7 JUMPI JUMPDEST POP DUP1 PUSH2 0x1FB3 JUMPI JUMPDEST PUSH2 0x1F67 JUMPI STOP JUMPDEST PUSH32 0xFD798F2A5EEC94A3BDE8D7E1C8254437F1BA3B44D1DD5721057353A4A10DB23E SWAP5 PUSH1 0x60 SWAP5 PUSH1 0x3 PUSH2 0x1F9E SWAP4 PUSH1 0xFF NOT AND OR DUP2 SSTORE PUSH2 0x25CE JUMP JUMPDEST PUSH1 0x40 MLOAD SWAP2 DUP3 MSTORE PUSH1 0x20 DUP3 ADD MSTORE PUSH1 0x0 PUSH1 0x40 DUP3 ADD MSTORE LOG1 STOP JUMPDEST POP PUSH1 0xFF DUP2 AND PUSH1 0x5 DUP2 LT ISZERO PUSH2 0x96E JUMPI ISZERO PUSH2 0x1F61 JUMP JUMPDEST PUSH2 0x2134 SWAP2 POP LT ISZERO DUP7 PUSH2 0x1F5A JUMP JUMPDEST CALLVALUE PUSH2 0x4D1 JUMPI PUSH1 0x0 CALLDATASIZE PUSH1 0x3 NOT ADD SLT PUSH2 0x4D1 JUMPI PUSH1 0x20 PUSH1 0x2 SLOAD PUSH1 0x40 MLOAD SWAP1 DUP2 MSTORE RETURN JUMPDEST CALLVALUE PUSH2 0x4D1 JUMPI PUSH1 0x20 CALLDATASIZE PUSH1 0x3 NOT ADD SLT PUSH2 0x4D1 JUMPI PUSH1 0x4 CALLDATALOAD PUSH1 0x1 PUSH1 0x1 PUSH1 0xA0 SHL SUB DUP2 AND SWAP1 DUP2 SWAP1 SUB PUSH2 0x4D1 JUMPI PUSH1 0x0 MSTORE PUSH1 0x6 PUSH1 0x20 MSTORE PUSH1 0x20 PUSH1 0x40 PUSH1 0x0 KECCAK256 SLOAD PUSH1 0x40 MLOAD SWAP1 DUP2 MSTORE RETURN JUMPDEST CALLVALUE PUSH2 0x4D1 JUMPI PUSH1 0x20 CALLDATASIZE PUSH1 0x3 NOT ADD SLT PUSH2 0x4D1 JUMPI PUSH1 0x4 CALLDATALOAD SWAP1 PUSH4 0xFFFFFFFF PUSH1 0xE0 SHL DUP3 AND DUP1 SWAP3 SUB PUSH2 0x4D1 JUMPI PUSH1 0x20 SWAP2 PUSH4 0x7965DB0B PUSH1 0xE0 SHL DUP2 EQ SWAP1 DUP2 ISZERO PUSH2 0x2072 JUMPI JUMPDEST POP ISZERO ISZERO DUP2 MSTORE RETURN JUMPDEST PUSH4 0x1FFC9A7 PUSH1 0xE0 SHL EQ SWAP1 POP DUP4 PUSH2 0x206B JUMP JUMPDEST PUSH1 0x24 CALLDATALOAD SWAP1 PUSH1 0x1 PUSH1 0x1 PUSH1 0xA0 SHL SUB DUP3 AND DUP3 SUB PUSH2 0x4D1 JUMPI JUMP JUMPDEST SWAP1 PUSH1 0x4 DUP3 LT ISZERO PUSH2 0x96E JUMPI MSTORE JUMP JUMPDEST SWAP2 DUP2 PUSH1 0x1F DUP5 ADD SLT ISZERO PUSH2 0x4D1 JUMPI DUP3 CALLDATALOAD SWAP2 PUSH8 0xFFFFFFFFFFFFFFFF DUP4 GT PUSH2 0x4D1 JUMPI PUSH1 0x20 DUP4 DUP2 DUP7 ADD SWAP6 ADD ADD GT PUSH2 0x4D1 JUMPI JUMP JUMPDEST SWAP1 PUSH1 0x1 DUP3 DUP2 SHR SWAP3 AND DUP1 ISZERO PUSH2 0x2104 JUMPI JUMPDEST PUSH1 0x20 DUP4 LT EQ PUSH2 0x20EE JUMPI JUMP JUMPDEST PUSH4 0x4E487B71 PUSH1 0xE0 SHL PUSH1 0x0 MSTORE PUSH1 0x22 PUSH1 0x4 MSTORE PUSH1 0x24 PUSH1 0x0 REVERT JUMPDEST SWAP2 PUSH1 0x7F AND SWAP2 PUSH2 0x20E3 JUMP JUMPDEST PUSH1 0xC0 DUP2 ADD SWAP1 DUP2 LT PUSH8 0xFFFFFFFFFFFFFFFF DUP3 GT OR PUSH2 0x6E4 JUMPI PUSH1 0x40 MSTORE JUMP JUMPDEST SWAP1 PUSH1 0x1F DUP1 NOT SWAP2 ADD AND DUP2 ADD SWAP1 DUP2 LT PUSH8 0xFFFFFFFFFFFFFFFF DUP3 GT OR PUSH2 0x6E4 JUMPI PUSH1 0x40 MSTORE JUMP JUMPDEST SWAP1 PUSH1 0x40 MLOAD SWAP2 DUP3 PUSH1 0x0 DUP3 SLOAD SWAP3 PUSH2 0x2160 DUP5 PUSH2 0x20D4 JUMP JUMPDEST SWAP1 DUP2 DUP5 MSTORE PUSH1 0x1 SWAP5 DUP6 DUP2 AND SWAP1 DUP2 PUSH1 0x0 EQ PUSH2 0x21CF JUMPI POP PUSH1 0x1 EQ PUSH2 0x218C JUMPI JUMPDEST POP POP PUSH2 0x218A SWAP3 POP SUB DUP4 PUSH2 0x212A JUMP JUMPDEST JUMP JUMPDEST SWAP1 SWAP4 SWAP2 POP PUSH1 0x0 MSTORE PUSH1 0x20 SWAP1 DUP2 PUSH1 0x0 KECCAK256 SWAP4 PUSH1 0x0 SWAP2 JUMPDEST DUP2 DUP4 LT PUSH2 0x21B7 JUMPI POP POP PUSH2 0x218A SWAP4 POP DUP3 ADD ADD CODESIZE DUP1 PUSH2 0x217C JUMP JUMPDEST DUP6 SLOAD DUP9 DUP5 ADD DUP6 ADD MSTORE SWAP5 DUP6 ADD SWAP5 DUP8 SWAP5 POP SWAP2 DUP4 ADD SWAP2 PUSH2 0x219F JUMP JUMPDEST SWAP2 POP POP PUSH2 0x218A SWAP5 POP PUSH1 0x20 SWAP3 POP PUSH1 0xFF NOT AND DUP3 DUP5 ADD MSTORE ISZERO ISZERO PUSH1 0x5 SHL DUP3 ADD ADD CODESIZE DUP1 PUSH2 0x217C JUMP JUMPDEST SWAP2 SWAP1 DUP3 MLOAD SWAP3 DUP4 DUP3 MSTORE PUSH1 0x0 JUMPDEST DUP5 DUP2 LT PUSH2 0x221E JUMPI POP POP DUP3 PUSH1 0x0 PUSH1 0x20 DUP1 SWAP5 SWAP6 DUP5 ADD ADD MSTORE PUSH1 0x1F DUP1 NOT SWAP2 ADD AND ADD ADD SWAP1 JUMP JUMPDEST PUSH1 0x20 DUP2 DUP4 ADD DUP2 ADD MLOAD DUP5 DUP4 ADD DUP3 ADD MSTORE ADD PUSH2 0x21FD JUMP JUMPDEST DUP1 SLOAD DUP3 LT ISZERO PUSH2 0x224E JUMPI PUSH1 0x0 MSTORE PUSH1 0x5 PUSH1 0x20 PUSH1 0x0 KECCAK256 SWAP2 MUL ADD SWAP1 PUSH1 0x0 SWAP1 JUMP JUMPDEST PUSH4 0x4E487B71 PUSH1 0xE0 SHL PUSH1 0x0 MSTORE PUSH1 0x32 PUSH1 0x4 MSTORE PUSH1 0x24 PUSH1 0x0 REVERT JUMPDEST PUSH1 0x7 SLOAD DUP2 LT ISZERO PUSH2 0x224E JUMPI PUSH1 0x7 PUSH1 0x0 MSTORE PUSH32 0xA66CC928B5EDB82AF9BD49922954155AB7B0942694BEA4CE44661D9A8736C688 ADD SWAP1 PUSH1 0x0 SWAP1 JUMP JUMPDEST CALLER PUSH1 0x0 SWAP1 DUP2 MSTORE PUSH32 0x40DA0F42A661166D5434D4603ECBFF423639C47E2526AD0538D7C3517A623890 PUSH1 0x20 MSTORE PUSH1 0x40 SWAP1 KECCAK256 SLOAD PUSH1 0x0 DUP1 MLOAD PUSH1 0x20 PUSH2 0x26A7 DUP4 CODECOPY DUP2 MLOAD SWAP2 MSTORE SWAP1 PUSH1 0xFF AND ISZERO PUSH2 0x4B3 JUMPI POP JUMP JUMPDEST DUP1 PUSH1 0x0 MSTORE PUSH1 0x0 PUSH1 0x20 MSTORE PUSH1 0x40 PUSH1 0x0 KECCAK256 CALLER PUSH1 0x0 MSTORE PUSH1 0x20 MSTORE PUSH1 0xFF PUSH1 0x40 PUSH1 0x0 KECCAK256 SLOAD AND ISZERO PUSH2 0x4B3 JUMPI POP JUMP JUMPDEST PUSH1 0x1 PUSH1 0x1 PUSH1 0xA0 SHL SUB AND PUSH1 0x0 DUP2 DUP2 MSTORE PUSH32 0x40DA0F42A661166D5434D4603ECBFF423639C47E2526AD0538D7C3517A623890 PUSH1 0x20 MSTORE PUSH1 0x40 DUP2 KECCAK256 SLOAD SWAP1 SWAP2 SWAP1 PUSH1 0x0 DUP1 MLOAD PUSH1 0x20 PUSH2 0x26A7 DUP4 CODECOPY DUP2 MLOAD SWAP2 MSTORE SWAP1 PUSH1 0xFF AND PUSH2 0x23A6 JUMPI DUP1 DUP4 MSTORE DUP3 PUSH1 0x20 MSTORE PUSH1 0x40 DUP4 KECCAK256 DUP3 DUP5 MSTORE PUSH1 0x20 MSTORE PUSH1 0x40 DUP4 KECCAK256 PUSH1 0x1 PUSH1 0xFF NOT DUP3 SLOAD AND OR SWAP1 SSTORE PUSH32 0x2F8788117E7EFF1D82E926EC794901D17C78024A50270940304540A733656F0D CALLER SWAP4 DUP1 LOG4 PUSH1 0x1 SWAP1 JUMP JUMPDEST POP POP SWAP1 JUMP JUMPDEST SWAP1 PUSH1 0x0 SWAP2 DUP1 DUP4 MSTORE DUP3 PUSH1 0x20 MSTORE PUSH1 0x40 DUP4 KECCAK256 SWAP2 PUSH1 0x1 DUP1 PUSH1 0xA0 SHL SUB AND SWAP2 DUP3 DUP5 MSTORE PUSH1 0x20 MSTORE PUSH1 0xFF PUSH1 0x40 DUP5 KECCAK256 SLOAD AND ISZERO PUSH1 0x0 EQ PUSH2 0x23A6 JUMPI DUP1 DUP4 MSTORE DUP3 PUSH1 0x20 MSTORE PUSH1 0x40 DUP4 KECCAK256 DUP3 DUP5 MSTORE PUSH1 0x20 MSTORE PUSH1 0x40 DUP4 KECCAK256 PUSH1 0x1 PUSH1 0xFF NOT DUP3 SLOAD AND OR SWAP1 SSTORE PUSH32 0x2F8788117E7EFF1D82E926EC794901D17C78024A50270940304540A733656F0D CALLER SWAP4 DUP1 LOG4 PUSH1 0x1 SWAP1 JUMP JUMPDEST PUSH1 0x1 PUSH1 0x1 PUSH1 0xA0 SHL SUB AND PUSH1 0x0 DUP2 DUP2 MSTORE PUSH32 0x40DA0F42A661166D5434D4603ECBFF423639C47E2526AD0538D7C3517A623890 PUSH1 0x20 MSTORE PUSH1 0x40 DUP2 KECCAK256 SLOAD SWAP1 SWAP2 SWAP1 PUSH1 0x0 DUP1 MLOAD PUSH1 0x20 PUSH2 0x26A7 DUP4 CODECOPY DUP2 MLOAD SWAP2 MSTORE SWAP1 PUSH1 0xFF AND ISZERO PUSH2 0x23A6 JUMPI DUP1 DUP4 MSTORE DUP3 PUSH1 0x20 MSTORE PUSH1 0x40 DUP4 KECCAK256 DUP3 DUP5 MSTORE PUSH1 0x20 MSTORE PUSH1 0x40 DUP4 KECCAK256 PUSH1 0xFF NOT DUP2 SLOAD AND SWAP1 SSTORE PUSH32 0xF6391F5C32D9C69D2A47EA670B442974B53935D1EDC7FD64EB21E047A839171B CALLER SWAP4 DUP1 LOG4 PUSH1 0x1 SWAP1 JUMP JUMPDEST SWAP1 PUSH1 0x0 SWAP2 DUP1 DUP4 MSTORE DUP3 PUSH1 0x20 MSTORE PUSH1 0x40 DUP4 KECCAK256 SWAP2 PUSH1 0x1 DUP1 PUSH1 0xA0 SHL SUB AND SWAP2 DUP3 DUP5 MSTORE PUSH1 0x20 MSTORE PUSH1 0xFF PUSH1 0x40 DUP5 KECCAK256 SLOAD AND PUSH1 0x0 EQ PUSH2 0x23A6 JUMPI DUP1 DUP4 MSTORE DUP3 PUSH1 0x20 MSTORE PUSH1 0x40 DUP4 KECCAK256 DUP3 DUP5 MSTORE PUSH1 0x20 MSTORE PUSH1 0x40 DUP4 KECCAK256 PUSH1 0xFF NOT DUP2 SLOAD AND SWAP1 SSTORE PUSH32 0xF6391F5C32D9C69D2A47EA670B442974B53935D1EDC7FD64EB21E047A839171B CALLER SWAP4 DUP1 LOG4 PUSH1 0x1 SWAP1 JUMP JUMPDEST SWAP1 DUP2 PUSH1 0x20 SWAP2 SUB SLT PUSH2 0x4D1 JUMPI MLOAD DUP1 ISZERO ISZERO DUP2 SUB PUSH2 0x4D1 JUMPI SWAP1 JUMP JUMPDEST SWAP2 SWAP1 DUP3 ADD DUP1 SWAP3 GT PUSH2 0x1904 JUMPI JUMP JUMPDEST PUSH1 0x0 DUP1 MLOAD PUSH1 0x20 PUSH2 0x26C7 DUP4 CODECOPY DUP2 MLOAD SWAP2 MSTORE PUSH1 0x2 DUP2 SLOAD EQ PUSH2 0x2575 JUMPI PUSH1 0x2 SWAP1 SSTORE JUMP JUMPDEST PUSH1 0x40 MLOAD PUSH4 0x3EE5AEB5 PUSH1 0xE0 SHL DUP2 MSTORE PUSH1 0x4 SWAP1 REVERT JUMPDEST SWAP3 SWAP2 SWAP3 PUSH8 0xFFFFFFFFFFFFFFFF DUP3 GT PUSH2 0x6E4 JUMPI PUSH1 0x40 MLOAD SWAP2 PUSH2 0x25B1 PUSH1 0x1F DUP3 ADD PUSH1 0x1F NOT AND PUSH1 0x20 ADD DUP5 PUSH2 0x212A JUMP JUMPDEST DUP3 SWAP5 DUP2 DUP5 MSTORE DUP2 DUP4 ADD GT PUSH2 0x4D1 JUMPI DUP3 DUP2 PUSH1 0x20 SWAP4 DUP5 PUSH1 0x0 SWAP7 ADD CALLDATACOPY ADD ADD MSTORE JUMP JUMPDEST SWAP1 PUSH1 0x4 DUP2 LT ISZERO PUSH2 0x96E JUMPI PUSH2 0xFF00 DUP3 SLOAD SWAP2 PUSH1 0x8 SHL AND SWAP1 PUSH2 0xFF00 NOT AND OR SWAP1 SSTORE JUMP JUMPDEST SWAP1 PUSH1 0x4 DUP2 LT ISZERO PUSH2 0x96E JUMPI PUSH1 0xFF DUP1 NOT DUP4 SLOAD AND SWAP2 AND OR SWAP1 SSTORE JUMP JUMPDEST SWAP1 DUP1 PUSH1 0x20 SWAP4 SWAP3 DUP2 DUP5 MSTORE DUP5 DUP5 ADD CALLDATACOPY PUSH1 0x0 DUP3 DUP3 ADD DUP5 ADD MSTORE PUSH1 0x1F ADD PUSH1 0x1F NOT AND ADD ADD SWAP1 JUMP JUMPDEST ISZERO PUSH2 0x262D JUMPI JUMP JUMPDEST PUSH1 0x40 MLOAD PUSH3 0x461BCD PUSH1 0xE5 SHL DUP2 MSTORE PUSH1 0x20 PUSH1 0x4 DUP3 ADD MSTORE PUSH1 0x8 PUSH1 0x24 DUP3 ADD MSTORE PUSH8 0x2737BA1037B832B7 PUSH1 0xC1 SHL PUSH1 0x44 DUP3 ADD MSTORE PUSH1 0x64 SWAP1 REVERT JUMPDEST ISZERO PUSH2 0x2664 JUMPI JUMP JUMPDEST PUSH1 0x40 MLOAD PUSH3 0x461BCD PUSH1 0xE5 SHL DUP2 MSTORE PUSH1 0x20 PUSH1 0x4 DUP3 ADD MSTORE PUSH1 0xB PUSH1 0x24 DUP3 ADD MSTORE PUSH11 0x109BDB990819985A5B1959 PUSH1 0xAA SHL PUSH1 0x44 DUP3 ADD MSTORE PUSH1 0x64 SWAP1 REVERT JUMPDEST PUSH1 0x0 NOT DUP2 EQ PUSH2 0x1904 JUMPI PUSH1 0x1 ADD SWAP1 JUMP INVALID SWAP3 LOG1 SWAP13 PUSH24 0xD2EA87C7F81D50C74403CB2F401780F3AD919571121EFE2B 0xDB TIMESTAMP PUSH31 0xB19B779B17422D0DF92223018B32B4D1FA46E071723D6817E2486D003BECC5 PUSH0 STOP LOG2 PUSH5 0x6970667358 0x22 SLT KECCAK256 0xBA 0xAF 0xBB MSIZE PUSH1 0x8F ADD 0xF7 0xE1 0x4C 0xDD STATICCALL ADDMOD 0xEB 0xB5 PUSH18 0x8873D155446A18FA7A18150CA9C3A8AF6473 PUSH16 0x6C634300081400332F8788117E7EFF1D DUP3 0xE9 0x26 0xEC PUSH26 0x4901D17C78024A50270940304540A733656F0D00000000000000 "},"methodIdentifiers":{"AI_ORACLE_ROLE()":"c601f7af","ARBITER_ROLE()":"4d104adf","DEFAULT_ADMIN_ROLE()":"a217fddf","DISPUTE_BOND()":"4c68ae63","RESOLVER_ROLE()":"78fab260","STAKE_MIN()":"929f834f","VERDICT_BOND()":"c0f87302","approveVerdict(bytes32,bytes32)":"62af3da3","cancelQuestion(bytes32)":"4bd659f6","createQuestion(string,bytes32,string,uint256,uint8)":"7ce64074","disputes(bytes32,uint256)":"aeb2a19f","executeVerdict(bytes32)":"72b60afc","getAllIds()":"aaa44e5c","getDisputes(bytes32)":"d19d3661","getQuestionCount()":"dd41cc2f","getRoleAdmin(bytes32)":"248a9ca3","grantRole(bytes32,address)":"2f2ff15d","hasRole(bytes32,address)":"91d14854","plkyToken()":"4ecac430","proposals(bytes32)":"32ed5b12","proposeVerdict(bytes32,uint8,bytes32)":"a3e48577","questionIds(uint256)":"f0347783","questions(bytes32)":"95addb90","quorum()":"1703a018","raiseDispute(bytes32,string,bytes32)":"607d56e5","renounceRole(bytes32,address)":"36568abe","resolveDispute(bytes32,uint256,bool)":"faf0bbbf","revokeRole(bytes32,address)":"d547741f","stake(uint256)":"a694fc3a","stakes(address)":"16934fc4","submitAIAnalysis(bytes32,uint256,uint8)":"1f5a7722","submitEvidence(bytes32,bytes32,uint8)":"a7d4bb14","supportsInterface(bytes4)":"01ffc9a7","unstake(uint256)":"2e17de78"}}}}}